:020000040800F2
:10C00000703400201DC3000825C30008DDEA0008C5
:10C0100029C300082BC300082DC30008000000003E
:10C020008F9E939B08999697FE00000031C20008EE
:10C0300031C3000816900108B9C2000809C30008FE
:10C0400037C3000837C3000837C3000837C30008E8
:10C0500037C3000837C3000837C3000837C30008D8
:10C0600037C3000837C3000837C3000837C30008C8
:10C0700037C3000837C3000837C3000837C30008B8
:10C0800037C3000837C3000837C3000837C30008A8
:10C09000DD27010837C3000837C3000837C300088D
:10C0A00037C3000837C3000837C3000837C3000888
:10C0B00037C3000837C3000837C3000837C3000878
:10C0C00037C3000837C3000837C3000837C3000868
:10C0D00037C3000837C300085901010837C30008F7
:10C0E00037C3000837C3000837C3000800F002F860
:10C0F00000F05AF80AA090E8000C82448344AAF1A8
:10C100000107DA4501D100F04FF8AFF2090EBAE8A5
:10C110000F0013F0010F18BFFB1A43F0010318477B
:10C1200040E4000060E400000A444FF0000C10F806
:10C13000013B13F0070408BF10F8014B1D1108BFA5
:10C1400010F8015B641E05D010F8016B641E01F845
:10C15000016BF9D113F0080F1EBF10F8014BAD1C95
:10C160000C1B09D16D1E58BF01F801CBFAD505E0B3
:10C1700014F8016B01F8016B6D1EF9D59142D6D30D
:10C18000704700000023002400250026103A28BF35
:10C1900078C1FBD8520728BF30C148BF0B60704739
:10C1A0001FB51FBD10B510BD00F03AFB1146FFF7DB
:10C1B000F7FF08F03DF900F058FB03B4FFF7F2FF7A
:10C1C00003BC00F05BFB000080F309887047EFF3CD
:10C1D00009807047684680F3098804480078C007E2
:10C1E00014BF0220032080F3148870476899010867
:10C1F000DFF818C0EFF305831B0618BF6047EFF3A5
:10C200001483DB0708BF604700DF704761530108F4
:10C21000DFF818C0EFF305831B0618BF6047EFF384
:10C220001483DB0708BF604700DF70476D550108C6
:10C23000EFF30980816911F8021C39BB90E80F10F7
:10C24000E047EFF3098C194B93E80600914218D0B0
:10C2500059B10CB44FF0010381F821302CE9F00FF3
:10C26000C1F824C009F016FC0CBC1A60D2F824C036
:10C27000BCE8F00F92F821308CF309881BB192F8DA
:10C280002000CCF800006FF0020E704710B5084A8D
:10C290001268914209D8074C54F8214090E80F10D9
:10C2A000A047EFF3098C8CE80F0010BDB404002008
:10C2B0008CC800088CC8000809F0D8FA114B93E824
:10C2C000060091421BD00CB44FF0000381F82130DE
:10C2D000EFF3098C2CE9F00FC1F824C009F0DAFB68
:10C2E0000CBC1A60D2F824C0BCE8F00F8CF30988AB
:10C2F00092F821301BB192F82030CCF800306FF06A
:10C30000020E7047B404002009F086FCD6E7000056
:10C3100008F0E2FA09F080FCD0E700000948804705
:10C3200009480047FEE7FEE7FEE7FEE7FEE7FEE717
:10C33000FEE7FEE7FEE7FEE704480549054A064B2F
:10C3400070470000B5FD0008EDC00008702E002009
:10C35000703400207030002070300020004870479A
:10C360000C2E0020B2F120030AD5C2F1200320FADE
:10C3700002F001FA03F321FA02F140EA03007047E8
:10C3800021FA03F04FF00001704740EA010310B5B5
:10C390009B070FD1042A0DD310C808C9121F9C4255
:10C3A000F8D020BA19BA884201D9012010BD4FF047
:10C3B000FF3010BD1AB1D30703D0521C07E0002094
:10C3C00010BD10F8013B11F8014B1B1B07D110F8F1
:10C3D000013B11F8014B1B1B01D1921EF1D11846F4
:10C3E00010BD10B5431C02E010F8011B71B18107AC
:10C3F000FAD14FF0013202C88C1A8C4314EAC211F0
:10C40000F9D0C01A0A0603D0C01E10BDC01A10BD54
:10C410000A0401D0801E10BD0902FCD0401E10BDD0
:10C4200040EA010370B59B072ED14FF00136042A74
:10C430002AD308C810C99D1B9D43121F15EAC615B3
:10C4400017D0D8B2E1B2401A50EA056110D198B2C3
:10C45000A1B2401A50EA05410AD123F07F4024F0EE
:10C460007F41401A50EA052102D1180EA0EB14605A
:10C4700070BDA342DBD018BA21BA884201D901208D
:10C4800070BD4FF0FF3070BD0AB9002070BD10F8CC
:10C49000013B11F8014B63B1A3420AD1521E08D0EF
:10C4A00010F8013B11F8014B1BB1A34201D1521E00
:10C4B000EDD1181B70BD421E12F8013F002BFBD1BD
:10C4C00011F8013B002B02F8013BF9D17047032A18
:10C4D00040F2568010F0030C00F0158011F8013B7B
:10C4E000BCF1020F624498BF11F801CB00F8013B88
:10C4F00038BF11F8013BA2F1040298BF00F801CB4C
:10C5000038BF00F8013B11F0030300F0B080121FA8
:10C51000C0F03680A1EB0301022BD1F800C000F07F
:10C52000118000F21E804FEA1C2351F804CF121F25
:10C5300043EA0C6340F8043BBFF4F5AF01F101019D
:10C5400000F01EB84FEA1C4351F804CF121F43EA13
:10C550000C4340F8043BBFF4F5AF01F1020100F0D9
:10C560000FB84FEA1C6351F804CF121F43EA0C23A3
:10C5700040F8043BBFF4F5AF01F10301AFF30080D5
:10C58000D20724BF11F8013B11F801CB48BF11F8C5
:10C59000012B24BF00F8013B00F801CB48BF00F895
:10C5A000012B7047431A28BF9A427FF690AF032AA7
:10C5B0001044114440F2498010F0030F1EBF11F8DF
:10C5C000013D521E00F8013D10F0030F7FF4F6AF5D
:10C5D00011F0030300F0FA80121FC0F03680A1EBC7
:10C5E0000301022BD1F800C0C0F0118000F21E80C0
:10C5F0004FEA0C4351F804CD121F43EA1C4340F8A4
:10C60000043DBFF4F5AF01F1020100F01EB84FEA9E
:10C610000C6351F804CD121F43EA1C2340F8043D7B
:10C62000BFF4F5AF01F1010100F00FB84FEA0C23A0
:10C6300051F804CD121F43EA1C6340F8043DBFF4D7
:10C64000F5AF01F10301AFF30080D20724BF11F869
:10C65000013D11F801CD48BF11F8012C24BF00F8AD
:10C66000013D00F801CD48BF00F8012C704710B51E
:10C67000203AC0F00B80B1E81850203AA0E81850DA
:10C68000B1E81850A0E81850BFF4F5AF5FEA027C9B
:10C6900024BFB1E81850A0E8185044BF18C918C00A
:10C6A000BDE810405FEA827C24BF51F8043B40F8AB
:10C6B000043B08BF7047D20728BF31F8023B48BF90
:10C6C00011F8012B28BF20F8023B48BF00F8012BCE
:10C6D000704702F0FF0343EA032242EA024200F0FD
:10C6E00002B84FF000020429C0F0128010F0030CD1
:10C6F00000F01B80CCF1040CBCF1020F18BF00F855
:10C70000012BA8BF20F8022BA1EB0C0100F00DB803
:10C710005FEAC17C24BF00F8012B00F8012B48BF61
:10C7200000F8012B70474FF0000200B51346944605
:10C730009646203922BFA0E80C50A0E80C50B1F179
:10C740002001BFF4F7AF090728BFA0E80C5048BF8D
:10C750000CC05DF804EB890028BF40F8042B08BF2B
:10C76000704748BF20F8022B11F0804F18BF00F827
:10C77000012B7047427801788378C07841EA022122
:10C7800041EA034141EA006070474FEA1022087015
:10C790004A704FEA10428A704FEA1062CA707047BE
:10C7A000704770477047431A28BF9A427FF65FAFC1
:10C7B000104410F0030F11441EBF11F8013D521E2A
:10C7C00000F8013D10F0030F7FF4F6AF103AC0F00F
:10C7D0000A8010B531E91850103A20E91850BFF41A
:10C7E000F9AFBDE81040530724BF31E9081020E934
:10C7F000081044BF51F8043D40F8043D12F0030F07
:10C8000008BF7047D20728BF31F8023D48BF11F872
:10C81000012C28BF20F8023D48BF00F8012C7047CA
:10C820007546FFF79BFDAE4605006946534620F06E
:10C830000700854618B020B5FFF77EFDBDE8204013
:10C840004FF000064FF000074FF000084FF0000BCC
:10C8500021F00701AC46ACE8C009ACE8C009ACE87F
:10C86000C009ACE8C0098D46704710B50446AFF367
:10C8700000802046BDE81040FFF79FBC014918200A
:10C88000ABBEFEE72600020070470000000000007B
:10C890002DE9F04704788A4604B90124244A244D3E
:10C8A00001262248571410354FF48048012C08D037
:10C8B000022C14D000248AF800404FF00110BDE88B
:10C8C000F08706700D219146104608F0F3F92F60AD
:10C8D0000E21484608F0EEF9C5F800801BE0022161
:10C8E00001700D219146104608F0E4F92F600E21E9
:10C8F000484608F0DFF9C5F800800E4F072138469A
:10C9000008F0D8F90B498020103108600122052178
:10C91000384608F07DF901220C21484608F078F9E4
:10C920000021484608F0F8F92E60C4E7E805002029
:10C93000000C0140000801402DE9F04102787F2AF7
:10C9400003D0BDE8F04100F087BA01F8012B44782C
:10C9500001F8014B861C0D464FF0021708E02946EE
:10C96000304600F079FA074406EB104680B20544E1
:10C97000641EF4D23846BDE8F08170B500240D463F
:10C9800006282BD006DC052828D2DFE800F0272770
:10C99000270C0F00F02816D0FD281FD0FE281AD033
:10C9A000FF281BD111E007F0CBFB01E007F0D0FB23
:10C9B0000646FFF716FD401CC4B222463146284603
:10C9C000FFF785FD0AE0132006E0402028700020D4
:10C9D0004870022402E0042008700124204670BD43
:10C9E0002DE9F04F87B00446059000208E1CCDE95C
:10C9F0000101C2490870C24A14F8011B0546D175ED
:10CA0000927D824691426FD214F8011B5FEA0109C0
:10CA10006AD014F801BB5FEACB7101D00B2100E0B2
:10CA20000A2188465FEA8B7171D5BAF1000F3AD0BE
:10CA3000B348454547890FD15FEACB600CD46946BE
:10CA4000584602F0BDFA02281CD17F1E03D3AB4921
:10CA500009780029F3D0FFE00A2D03D00A252846E3
:10CA600002F0CEF8DFF894A269460E2002F0A8FA90
:10CA7000022805D17F1E03D39AF800100029F3D0B5
:10CA80004FF0000A0128E6D1009906F8011B009931
:10CA9000090A06F8011B0099090C06F8021B009907
:10CAA000090E06F8011C5FEACB6152D5E7782046F3
:10CAB000FFF760FE67F31F60914F0490241DB88953
:10CAC00003904046454502D0054602F099F88C484F
:10CAD000DFF8288247890021584602F071FA0228BF
:10CAE00003D0012807D107E0DEE07F1E03D398F8CA
:10CAF00000100029EFD0AFE08148478969465846C9
:10CB000002F05EFA022803D0012818D107E040E0C5
:10CB10007F1E14D398F800100029EFD00FE0784959
:10CB2000009A09691140049A914208D00399491E5C
:10CB30000391491C03D098F800100029DCD07049FB
:10CB4000009A09691140049A91426ED040F0100099
:10CB50006BE0BAF1000F72D14046454502D0054660
:10CB600002F04EF86648DFF8948147890021584664
:10CB700002F026FA022802D001286DD106E07F1EBD
:10CB80006AD398F800100029F0D065E04FF0010A50
:10CB900055E0BAF1000F29D00A2D03D00A25284606
:10CBA00002F02EF85648478969460E2002F008FA2E
:10CBB000022802D001284FD107E07F1E791C4BD0FC
:10CBC0004E4909780029EFD046E0009806F8010B9D
:10CBD00000984FF0000A000A06F8010B0098000CBC
:10CBE00006F8020B0098000E06F8010CE7782046C4
:10CBF000FFF7C0FD67F31F60241D00905FEA8B61A3
:10CC000003D53F490861012019E04046454502D05F
:10CC1000054601F0F5FF3A48DFF8E08047896946AC
:10CC2000584602F0CDF9022802D0012814D106E0BE
:10CC30007F1E11D398F800100029F0D00CE0019964
:10CC4000491C01912D49097831B9A9F101015FEA27
:10CC500001097FF4DEAE0CE0B9F1000F09D014F841
:10CC6000011B8A0701D5C90600D5241DA9F10109B8
:10CC7000F2E7012834D10A2D02D00A2001F0C0FFCA
:10CC80001F481E4FBAF1000F45891ED069460E207D
:10CC900002F096F9022802D0012821D105E06D1E8C
:10CCA0001ED339780029F1D01AE0009906F8011B4B
:10CCB0000099090A06F8011B0099090C06F8021BE5
:10CCC0000099090E06F8011C0AE000210E2002F06E
:10CCD00077F9022804D16D1E02D339780029F4D0E7
:10CCE000DDE901121170029948700298311A059815
:10CCF00007B0201A41EA0040BDE8F08F0000002094
:10CD0000E80500202DE9F84F00258946CE1C504942
:10CD1000024628460D704F4F12F8011BF975BB7D76
:10CD2000994227D2517812F8023B53EA012421D0CC
:10CD300012F801AB90465FEACA7001D00B2000E008
:10CD40000A20834601F05CFF5FEA8A705ED54148A5
:10CD5000DFF8FC8047890021504602F031F90228B3
:10CD600002D0012868D131E07F1E65D398F8001009
:10CD70000029F0D060E03CB9BBF10A0F02D00A20D4
:10CD800001F03EFF4FF00E0A32484789694650468F
:10CD900002F016F9022802D001284DD106E07F1ECC
:10CDA0004AD398F800100029F0D045E0009906F821
:10CDB000011B0099090A06F8011B0099090C06F8E5
:10CDC000021B0099090E06F8011C6D1C641ED2D2CC
:10CDD00032E0404698F80370FFF7CCFC67F31F6021
:10CDE00000901C4808F1040847896946504602F043
:10CDF000E7F8022802D001281ED106E07F1E1BD3CF
:10CE0000134909780029F0D016E06D1C641EE0D2A9
:10CE1000BBF10A0F02D00A2001F0F2FE0D480C4FC0
:10CE2000448900210E2002F0CBF8022804D1641EB0
:10CE300002D339780029F4D089F800502A0A89F8F9
:10CE4000012089F80200A6EB0900BDE8F88F000078
:10CE500000000020E80500202DE9F0470278A2F14B
:10CE600080031F2B03D800F05FF9BDE8F08701F8BD
:10CE7000012B0F4610F8016B0025FF23A249A34A9E
:10CE80004FF00114172E74D2DFE806F00C142D3188
:10CE9000DEF0EE73ED465873737373735C61657403
:10CEA0007EA1C5000078791CFFF767FD387000F19E
:10CEB0000210DAE70278402422B1012A0AD03B703E
:10CEC0000C4615E14078C00701D0914809E0904830
:10CED000001D06E04078C00701D08E4801E08D4873
:10CEE000001D046028E03946FFF7D2FC2DE0884C95
:10CEF0001570103C00220D21204607F089FE00220B
:10CF00000E21204607F084FE00220C21204607F067
:10CF10007FFE3D700124EBE0427800787F4B40EAD1
:10CF200002227D480068B0FBF3F00323801CB0FBB5
:10CF3000F3F05043401EFDD13D70C1E77D703D7060
:10CF40000224D5E0394600F00DFC0446D0E0394615
:10CF500000F0DAFBF9E710F8014B0CB94FF48074DC
:10CF60000146204602F0C6FEE41DE0083D700404C0
:10CF70004EE0C4E0007800F00301491C1175C0F3D5
:10CF8000800050753D70B3E007F8015B01252C4629
:10CF900010F8018B15E010F8016B814601463A4606
:10CFA000304601F0BBFF16F03F0000D14020C01D0D
:10CFB000C1080D446D1C09EB0100320601D50F4478
:10CFC0000C44B8F10108E6D265F31F4490E010F874
:10CFD000014B002194750B460BE002EB030C10F89B
:10CFE000016B8CF8186002EB430C5B1CACF8201052
:10CFF0003144A342F1D3002006E013181B7EC91A66
:10D0000002EB4003401C1986A042F6D33D70240475
:10D0100004F101146CE01178022913D10078D07565
:10D02000917D88420ED20E2001F0EAFD01F00CFF46
:10D030003D707870010AB970010CF970000E3871FA
:10D04000374C55E03B7053E001781172817843789A
:10D05000344C43EA012151810179C37843EA01202C
:10D0600090813D7044E046E020E0FFE712783946C9
:10D07000012A15D0022A16D00446401C10F8012BB4
:10D0800042B110F8013B9E0701D5DB0600D5001D1B
:10D09000521EF6D1001B0D7000047D70801C54E7F9
:10D0A00000F01CF951E7FFF79BFC4EE704461078AF
:10D0B000394601280BD002280DD00D704D70BD707F
:10D0C0000320E17889070AD540F4802410E0204647
:10D0D00000F086FAF5E72046FFF714FEF1E7A178A5
:10D0E000627842EA01214FF4802202EB814404433A
:10D0F00004F10110B9E6394600F0FCFB25E707F81A
:10D10000013C2046B1E6000001000200E8050020D5
:10D11000100C014010080140D402002040420F00D2
:10D1200005000100010005002DE9FE4F027801F81D
:10D13000012B0D4610F8011B4FF00114671C8039BC
:10D1400006464FF0000A4FF001084FF002190D2972
:10D1500074D2DFE801F00717223841737373495620
:10D160006065690006F0ECFF0646FFF73AF9C4B2C5
:10D170002C70681C22463146FFF7A9F904F580346B
:10D18000A41C5BE00724684603F002FA22466946C5
:10D190002846FFF79CF92B4C50E0684603F0F8F95D
:10D1A0000422314602A8CDF808A0FFF790F90298B2
:10D1B0000090684603F00CFA002003F087FA85F827
:10D1C0000080214C3AE03E21681C0AF0D9FA00F5B3
:10D1D00080342870A41C31E03778701C39460AF07E
:10D1E00071FB85F8008025E085F80080307828B153
:10D1F000012803D085F800A04C461FE007F082FA12
:10D20000FAE785F8008005F003FD10B902200AF066
:10D2100057F83C4612E0307808F0FAFF2870EBE748
:10D2200008F0C4FF2870F4E73778701C394609F01D
:10D2300091F8287004EB074404F101142046BDE87E
:10D24000FE8F0000090001000200050038B52148EA
:10D25000816941F004018161816901F0040100915B
:10D26000816941F008018161816901F00801009143
:10D27000816941F010018161816901F01001009123
:10D28000816941F0200181618069134D00F0200027
:10D2900000900D21284607F00DFD0F4C6814103446
:10D2A00020600E21284607F005FD4FF480402060E5
:10D2B00001220C21284607F0ABFC0021284607F08C
:10D2C0002BFD012020600621284607F0F3FC4020BA
:10D2D000206038BD00100240000C01402DE9F04FE5
:10D2E00087B0044605900020DFF8ECA2CDE90101EB
:10D2F0008D1C8AF8000003906678A41C8046002EDE
:10D300007ED014F8019B5FEA89717AD5B8F1000FDD
:10D3100031D0B248478909F0110001280CD1694683
:10D32000484602F0D1F9022814D17F1E03D39AF89F
:10D3300000100029F3D0FFE069460E2002F0C4F986
:10D34000022805D17F1E03D39AF800100029F3D0DC
:10D350004FF000080128EED1009905F8011B009953
:10D36000090A05F8011B0099090C05F8021B009930
:10D37000090E05F8011C5FEAC9614ED5E778204621
:10D38000FFF7F8F967F31F6004909448241DB0F884
:10D390000CB05FEAC97011D0904847890021484617
:10D3A00002F092F9022802D0012806D106E07F1E81
:10D3B00003D39AF800100029F0D0BDE087484789D0
:10D3C0006946484602F080F9022802D0012815D1AA
:10D3D00006E07F1E12D39AF800100029F0D00DE06D
:10D3E0007E49009A09691140049A914206D0BBF126
:10D3F000010B03D39AF800100029DFD0774901E030
:10D40000BAE046E00969009A1140049A914201D0BD
:10D4100040F01000012817D139E070494F895FEAC8
:10D42000C97115D0B8F1000F31D10021484602F082
:10D430004BF9022802D001287ED106E07F1E7BD363
:10D440009AF800100029F0D076E04FF001081EE0B5
:10D450006946484602F038F9022802D001286BD10B
:10D4600006E07F1E68D39AF800100029F0D063E030
:10D47000009905F8011B0099090A05F8011B00999C
:10D48000090C05F8021B0099090E05F8011C002182
:10D4900047E0B8F1000F22D05048478969460E2076
:10D4A00002F012F9022802D0012845D106E07F1EC1
:10D4B00042D39AF800100029F0D03DE0009805F81A
:10D4C000010B00984FF00008000A05F8010B0098C6
:10D4D000000C05F8020B0098000E05F8010CE77827
:10D4E0002046FFF747F967F31F60241D00905FEAAD
:10D4F000896103D539490861012013E0374847891C
:10D500006946484602F0E0F8022802D0012813D10B
:10D5100006E07F1E10D39AF800100029F0D00BE02F
:10D52000012103910199491C01919AF8001019B940
:10D53000761E7FF4E6AE09E046B114F8011B8A07B7
:10D5400001D5C90600D5241D761EF5E7012834D182
:10D55000B8F1000F21D021485746468969460E2070
:10D5600002F0B2F8022802D0012826D105E0761E8A
:10D5700023D339780029F1D01FE0009905F8011B69
:10D580000099090A05F8011B0099090C05F8021B0E
:10D590000099090E05F8011C0FE0039969B10F48C5
:10D5A0005746468900210E2002F08EF8022804D149
:10D5B000761E02D339780029F4D0DDE9011211700A
:10D5C000029948700298291A059807B0201A41EA72
:10D5D0000040BDE8F08F000000000020E8050020BA
:10D5E0002DE9F84F0025DFF818B1024628468A4693
:10D5F000CE1C8BF8005091785378D21C53EA01244A
:10D6000073D012F8019B90465FEA89715DD55FEA9D
:10D61000C9713AD03B4847890021484602F054F886
:10D62000022802D0012860D12FE07F1E5DD39BF835
:10D6300000100029F0D058E024B95FEAC97001D089
:10D640004FF00E092F48D84647896946484602F0F0
:10D650003BF8022802D0012847D106E07F1E44D3C0
:10D6600098F800100029F0D03FE0009906F8011B5F
:10D670000099090A06F8011B0099090C06F8021B1B
:10D680000099090E06F8011C6D1C641ED4D22CE012
:10D69000404698F80370FFF76DF867F31F6000903D
:10D6A000184808F1040847896946484602F00CF812
:10D6B000022802D0012818D106E07F1E15D39BF85E
:10D6C00000100029F0D010E06D1C641EE0D20D485F
:10D6D0005F46448900210E2001F0F6FF022804D1A4
:10D6E000641E02D339780029F4D08AF800502A0A3F
:10D6F0008AF801208AF80200A6EB0A00BDE8F88F3C
:10D7000000000020E805002070B50C46C578FFF742
:10D7100031F865F31F60104D48B110490023104ADD
:10D720000968B0EB910F05D3012050700FE0FF2086
:10D7300020700EE000EB5101491EB1FBF0F0537078
:10D74000022803D90321B0FBF1F000E00120506072
:10D750002370284670BD000001000400D4020020A0
:10D76000E80500202DE9F04710F8015B8A4610F823
:10D77000014BC778FEF7FEFF67F31F60494F06466F
:10D78000E00707F1040807D0E8074FF4005101D083
:10D79000396001E0C8F80010A00707D5A9074FF4C9
:10D7A000804001D5386001E0C8F80000600709D565
:10D7B000A808C1074FF0800001D03B4901E03A4979
:10D7C000091D086020060CD54FEAD51908F024FB86
:10D7D0005FEAC9714FF0010001D0386001E0C8F87C
:10D7E0000000DFF8C0C0304FACF1040C083FACF1D2
:10D7F00004010023DEB32D48864200D906464FF0CF
:10D80000E02293612A48DFF8AC800068B0FBF8F0B2
:10D810007043506105201061E00705D0DCF800007E
:10D82000C0F34030A8421CD1A00705D50868C0F35A
:10D830000030B0EB550F14D1600705D53868C0F340
:10D84000C010B0EB950F0CD1A00602D5B3EB551F5D
:10D8500007D120060AD5086800F00100B0EBD51FFB
:10D8600004D01069C0F300400028D5D01361DCF863
:10D870000000C0F340320868C0F3003042EA4002C2
:10D880003868C0F3C01042EA80023868C0F3401024
:10D8900042EAC002086842EAC0108AF8000006485E
:10D8A000BDE8F087100C014010080140C0C62D00F3
:10D8B000D402002040420F00010006000A48002167
:10D8C0000A4A017041701268094BB2FBF3F2921ED2
:10D8D00042600172642242818181012201610275EC
:10D8E00041758175FFF7B2BCE8050020D402002025
:10D8F00080969800F8B5164A0D4600271178012940
:10D9000003D0FF23022912D10BE00679401CFEF759
:10D9100031FF66F31F6000906946002001F0D4FEDD
:10D9200012E004460078D075917D884201D32B70B7
:10D930000BE0082001F064F92679601CFEF71AFF5D
:10D9400066F31F6001F08EFD2F700248F8BD0000E5
:10D95000E80500200100050070B50446D0F8080174
:10D960001D460E4600282AD0402A00DD4022401ED7
:10D97000C4F80801D4F8100104EB8010FEF7A7FDED
:10D98000D4F8100104EB80113046FEF7D5FFD4F82F
:10D99000101104EB4101A1F80001D4F8100104EBCF
:10D9A0008010286094F81001401C00F00300C4F8B7
:10D9B0001001D4F80C01401CC4F80C01012070BD0A
:10D9C000D0F80C31E3B15B1EC0F80C31D0F8143143
:10D9D00000EB83130B60D0F8141100EB4101B1F898
:10D9E0000011116090F81411491C01F00301C0F8F6
:10D9F0001411D0F80811491CC0F808110120704713
:10DA0000002070470022C0F810210421C0F8142122
:10DA1000C0E942127047000001078A0E07490A4414
:10DA2000D2F8001C000602D548F6CF7001E04CF693
:10DA30008F700140C2F8001C704700000050004089
:10DA40000207930E0C4A30B51344D3F8002C00069D
:10DA500048F68F7402EA040048F2800582EA010267
:10DA600002D502F0300101E002F44051084328439E
:10DA7000C3F8000C30BD00000050004030B585B048
:10DA80000546002400F03CF901200021039000919C
:10DA9000CDE9011504A9684600F092F800B101240F
:10DAA00000F0E2F805B0204630BD00000649002035
:10DAB000C8610648016941F004010161016941F052
:10DAC0004001016170470000601E002000200240FC
:10DAD000064A0021D16106490A6942F002020A6140
:10DAE0004861086940F0400008617047601E0020EE
:10DAF00000200240044B0022DA61044A136943F01B
:10DB00000103136101807047601E00200020024065
:10DB10000E49C868C2060E4803D5C26942F0020227
:10DB2000C261CA68520703D5C26942F00102C261EC
:10DB3000CA69D20707D0C26942F00402C261C8694B
:10DB400020F00100C8611420C86070470020024026
:10DB5000601E002070B5044600F0CEF90546114E57
:10DB600009E0601C07D024B100F0C6F9401BA042B8
:10DB700001D9032070BDF068C007F2D1F0688006BB
:10DB800001D52020F060F068C00605D4F069C00718
:10DB900002D1F068400703D5FFF7BAFF012070BD3E
:10DBA000002070BD0020024031B500F0A5F9044608
:10DBB00000F0A2F90099001B8842F9D338BD00009B
:10DBC0002DE9F047054626480F460126017E01292A
:10DBD0000FD00121814601762868DFF888804CF259
:10DBE0005034022808D0A2462046FFF7B3FFA8B160
:10DBF00031E00220BDE8F0872046FFF7ABFF08BB0D
:10DC00000120FFF753FF2046FFF7A4FFD8F81010BC
:10DC1000064621F00401C8F810101CE04FF0FF3058
:10DC20003860AC6811E02046FFF752FF5046FFF71E
:10DC300091FFD8F81010060021F00201C8F810106A
:10DC400001D03C6007E004F58064D5E9020100EBF7
:10DC50008120A042E7D8002189F818103046C9E792
:10DC6000601E0020002002400348016941F080014D
:10DC70000161002070470000002002402DE9F05FA4
:10DC800005461D4888460024017E16461F46012988
:10DC900009D00121814601764CF2503A5046FFF7F7
:10DCA00059FF18B123E00220BDE8F09F012D02D0FA
:10DCB000022D00D00425D346DFF840A015E0220154
:10DCC00030463946FEF74EFB81B208EB4400FFF7C1
:10DCD00011FF5846FFF73EFFDAF8102022F001024C
:10DCE000CAF8102018B9641CE4B2AC42E7D3002291
:10DCF00089F81820D8E70000601E002000200240AC
:10DD000005480169090605D5044941600449416097
:10DD10000020704701207047002002402301674522
:10DD2000AB89EFCD2DE9F84FDFF8A091002309F181
:10DD3000040A0AF1040B1C464FF00F080BF1040E05
:10DD400001270A68A7403A40BA4272D1DFF880C181
:10DD50004D68A5EB0C0665452BD00DDC032D34D0AA
:10DD600005DC35B3012D19D0022D2FD11BE0112D6B
:10DD700016D0122D2AD119E0B6F5881F19D006DC6D
:10DD8000B6F5803F15D0B6F5801F1FD111E0B6F56E
:10DD9000001F0ED0B6F5041F18D10AE0CB6815E0BD
:10DDA000CB681B1D12E0CB6808330FE0CB680C3347
:10DDB0000CE08B682BB1012B4FF0080303D04761B7
:10DDC00004E0042302E0076100E00023FF2A01D8F9
:10DDD000064601E000F104064FEA840501D9A5F1E9
:10DDE0002005376808FA05FC27EA0C0703FA05F551
:10DDF00047EA050737604D68ED0060D5354DAE69DF
:10DE000046F00106AE61AD6924F0030605F0010598
:10DE10000095314D7719BE68A5072D0F08FA05FC4E
:10DE200026EA0C06DFF8B4C0604503D14FF0000CC1
:10DE300017E044E0DFF8A8C0604502D14FF0010CC4
:10DE40000FE0DFF8A0C0604502D14FF0020C08E0FF
:10DE5000DFF894C0604502D14FF0030C01E04FF0B1
:10DE6000040C0CFA05FC4CEA060CC7F808C04D6817
:10DE7000D9F80060ED034D4601D5164300E0964306
:10DE80002E604D68DAF80060AD03554601D51643A3
:10DE900000E096432E604D68DBF80060ED025D46C1
:10DEA00001D5164300E096432E604D68DEF8006011
:10DEB000AD02754601D5164300E096432E60641C02
:10DEC000102CFFF43DAFBDE8F88F000000040140C6
:10DED0000000111000100240000001400008014045
:10DEE000000C014000100140001401400AB1016122
:10DEF00070470904FBE70000EFF3108010F0010FFA
:10DF000072B608480068406A074B4FEA90021868EA
:10DF1000A2EB0002C2F30D021044186000D162B6F9
:10DF200070470000201E0020D0020020074810B5D6
:10DF3000016841F010010160032000F05DF80F203E
:10DF400000F006F800F056F8002010BD0020024056
:10DF500010B588B005A9684600F020F90398B0F51F
:10DF6000806F08D0B0F5A06F35D0B0F5C06F34D059
:10DF7000B0F5E06F33D001201A494FF08042002401
:10DF80000968B1FBF0F04FF47A61B0FBF1F116488B
:10DF9000491E02604FF6FF72C0E90324C0E9011474
:10DFA00044611248C16941F00101C161C06900F0DA
:10DFB000010006900C4800F042FC002809D10C48F2
:10DFC0000460094800F057FC002802D1064800F020
:10DFD0006FFC08B010BD0220CEE70420CCE708207B
:10DFE000CAE70000D4020020201E002000100240DA
:10DFF000D002002070470000064A00F007011068B8
:10E000004FF6FF03184040EA01200349084310601F
:10E01000704700000CED00E00000FA052DE9F04724
:10E02000DFF8688104460E46D8F8000000F00700CB
:10E03000B0420CD2D8F8001021F007013143C8F8E3
:10E040000010D8F8000000F00700B04273D120782B
:10E050004F4F800705D57868A16820F0F00008438D
:10E0600078602078C00755D06068012201280CD064
:10E07000022828D0022393FAA3F1B1FA81F141F0EA
:10E080002001490904D0396803E04FF40033F2E776
:10E09000796A93FAA3F3B3FA83F303F01F039A4068
:10E0A000114248D0796821F0030101437960FFF7FC
:10E0B00023FF0546606841F2883101280CD0022810
:10E0C000894615D022E04FF00073D4E7FFF714FF24
:10E0D000411B494501D916E089467868C0F38100A3
:10E0E0000128F3D116E0FFF707FF411B49450AD885
:10E0F0007868C0F381000228F5D10BE0FFF7FCFE41
:10E10000411B494502D90320BDE8F087786810F02B
:10E110000C0FF3D1D8F80010404601F00701B142CE
:10E120000BD9016821F0070131430160006800F05C
:10E130000700B04201D00120E6E72078400705D56E
:10E140007868E16820F4E060084378602078000790
:10E1500006D57868216920F4605040EAC1007860F3
:10E1600000F06CF87968F02292FAA2F201F0F00166
:10E17000B2FA82F2D140074A515CC84006490860B1
:10E180000F20FFF7E5FE0020BEE700000020024060
:10E1900000100240EC960108D40200200F22026019
:10E1A0000C4A536803F003034360536803F0F00321
:10E1B0008360536803F4E063C36052684FF4E06324
:10E1C00003EAD20202610448006800F00700086018
:10E1D0007047000000100240002002400848094932
:10E1E000006849684FF4E06292FAA2F201F4E0613B
:10E1F000B2FA82F2D140044A515CC8407047000034
:10E20000D402002000100240FC9601080848094989
:10E21000006849684FF4605292FAA2F201F460512A
:10E22000B2FA82F2D140044A515CC8407047000003
:10E23000D402002000100240FC96010810B519A07D
:10E2400085B00FC88DE80F001AA01B4B0068049022
:10E2500059681A4801F00C02042A1DD0082A1BD163
:10E260004FF4701494FAA4F401F47012B4FA84F424
:10E27000E240C9031DF8022010D559684FF400335D
:10E2800093FAA3F301F40031B3FA83F3D94004AB5A
:10E29000595CB0FBF1F0504305B010BD0848504345
:10E2A000FAE7000002030405060708090A0B0C0D33
:10E2B0000E0F1010010200000010024000127A0040
:10E2C00000093D002DE9F84F04460078FE4EC007D6
:10E2D0004FF001057FD070684FF40038C0F3810023
:10E2E000012807D07068C0F3810002281BD1706834
:10E2F000C00318D598FAA8F0B0FA80F040F02000DA
:10E30000400901D0306800E0706A98FAA8F1B1FACB
:10E3100081F101F01F0105FA01F108425BD060684C
:10E32000002879D057E06068B0F5803F0BD010B17D
:10E33000B0F5A02F11D0306820F480303060306804
:10E3400020F4802002E0306840F480303060606863
:10E3500018B3FFF7D1FD074609E0306840F480208C
:10E360003060F0E7FFF7C8FDC01B642870D898FA4A
:10E37000A8F0B0FA80F040F02000400901D03068E9
:10E3800000E0706A98FAA8F1B1FA81F101F01F017A
:10E3900005FA01F10842E5D01DE0FFF7ADFD0746A3
:10E3A00004E0FFF7A9FDC01B6428DFD898FAA8F0A5
:10E3B000B0FA80F040F02000400901D0306800E061
:10E3C000706A98FAA8F1B1FA81F101F01F0105FA1B
:10E3D00001F10842E5D12078DFF8F08280074FF0A4
:10E3E000000A4FF002075AD570684FF0F80B10F092
:10E3F0000C0F07D07068C0F3810002281CD1706830
:10E40000C00319D497FAA7F0B0FA80F040F02000CA
:10E41000400902D0306801E08AE0706A97FAA7F1FB
:10E42000B1FA81F101F01F0105FA01F108422BD088
:10E43000206901287CD127E0206988B395FAA5F0EE
:10E44000B0FA80F048F82050FFF756FD814606E00C
:10E450004DE1FFF751FDA0EB0900022886D897FA9D
:10E46000A7F0B0FA80F040F02000400901D03068F9
:10E4700000E0706A97FAA7F1B1FA81F101F01F018B
:10E4800005FA01F10842E4D030689BFAABF220F0C3
:10E49000F8016069B2FA82F290400143316025E0F0
:10E4A000FFE795FAA5F1B1FA81F148F821A0FFF74D
:10E4B00023FD814605E0FFF71FFDA0EB09000228C0
:10E4C000CCD897FAA7F0B0FA80F040F020004009CD
:10E4D00001D0306800E0706A97FAA7F1B1FA81F1D3
:10E4E00001F01F0105FA01F10842E4D1207800078C
:10E4F0006DD5A069B8B395FAA5F0B0FA80F008EB35
:10E500008000C0F88054FFF7F7FC814605E0FFF774
:10E51000F3FCA0EB09000228A0D897FAA7F0B0FA04
:10E5200080F040F06000B5EB501F02D130680CE085
:10E5300063E197FAA7F0B0FA80F040F06000B7EB23
:10E54000501F01D1306A00E0706A97FAA7F1B1FA62
:10E5500081F101F01F0105FA01F21042D7D001202C
:10E56000FFF722FB33E0FFE795FAA5F1B1FA81F15D
:10E5700008EB8101C1F880A4FFF7BEFC814605E0ED
:10E58000FFF7BAFCA0EB0900022899D897FAA7F088
:10E59000B0FA80F040F06000B5EB501F01D1306858
:10E5A0000BE097FAA7F0B0FA80F040F06000B7EB0C
:10E5B000501F01D1306A00E0706A97FAA7F1B1FAF2
:10E5C00081F101F01F0105FA01F21042D8D1207843
:10E5D000400763D5F06940F08050F061F069DFF8E2
:10E5E000F0B000F080500090DBF8001041F4807132
:10E5F000CBF80010FFF780FC814605E0FFF77CFCBC
:10E60000A0EB0900642872D8DBF80000C005F5D53E
:10E61000E06801280AD008B1052813D0306A20F03C
:10E6200001003062306A20F0040002E0306A40F0FD
:10E6300001003062E06841F2883B80B3FFF75CFC88
:10E6400081460AE0306A40F004003062EEE7FFF7EE
:10E6500053FCA0EB0901594549D897FAA7F0B0FA45
:10E6600080F040F04000B5EB501F01D130680BE066
:10E6700097FAA7F0B0FA80F040F04000B7EB501FD7
:10E6800001D1306A00E0706A97FAA7F1B1FA81F11E
:10E6900001F01F0205FA02F10842D8D033E0FFE78B
:10E6A000FFF72AFC814605E0FFF726FCA0EB0901F5
:10E6B00059451CD897FAA7F0B0FA80F040F0400016
:10E6C000B5EB501F08D105E00010024000004242A7
:10E6D0000070004030680CE097FAA7F0B0FA80F0C4
:10E6E00040F04000B7EB501F02D1306A01E08AE0F1
:10E6F000706A97FAA7F1B1FA81F101F01F0205FAE9
:10E7000002F10842D0D1E06998B37168C1F3810188
:10E71000022972D002284FF080714FF0007B5046E2
:10E720000AD091FAA1F1B1FA81F148F82100FFF77E
:10E73000E3FB04465F4669E08A4691FAA1F1B1FA2B
:10E7400081F1C14648F82100FFF7D6FBA8460746ED
:10E750005D4604E0FFF7D0FBC01B022853D895FAB2
:10E76000A5F0B0FA80F040F02000400902D03068F7
:10E7700001E060E0706A95FAA5F1B1FA81F101F06B
:10E780001F0208FA02F10842E4D1206AB0F5803F86
:10E7900005D17068A16820F4003008437060D4E9A6
:10E7A00008010843716821F47411084370609AFAF3
:10E7B000AAF0B0FA80F0474649F82080FFF79CFBAA
:10E7C000044604E0FFF798FB001B02281BD895FACB
:10E7D000A5F0B0FA80F040F02000400901D0306888
:10E7E00000E0706A95FAA5F1B1FA81F101F01F011C
:10E7F00007FA01F10842E5D01DE01EE0FFF77CFBBF
:10E80000001B022802D90320BDE8F88F97FAA7F071
:10E81000B0FA80F040F02000400901D0306800E0FC
:10E82000706A97FAA7F1B1FA81F101F01F0105FAB8
:10E8300001F10842E2D10020E6E70120E4E710B54B
:10E840000446022084F839002068016A41F211125E
:10E85000114207D1016A9210114203D1016821F0DF
:10E8600001010160204600F021F8002084F8390001
:10E8700084F8380010BD10B5040003D094F83900B6
:10E8800010B107E0012010BD002084F838002046B8
:10E8900000F00DF8022084F83900211D206801F0F5
:10E8A000BDFA012084F83900002010BD7047704780
:10E8B000022180F8391001680A6842F001020A60FA
:10E8C000012180F839100020704770B5044690F897
:10E8D00038000D4601280DD0012684F8386002204A
:10E8E00084F8390042B1042A18D0082A2AD00C2A08
:10E8F0004DD139E0022070BD206801F0CDFA2068CA
:10E90000816941F0080181612068816921F0040179
:10E910008161206881692A69114311E0206801F052
:10E92000E7FA2068816941F40061816120688169AA
:10E9300021F480618161206881692A6941EA0221AC
:10E94000816124E0206801F001FB2068C16941F089
:10E950000801C1612068C16921F00401C16120681A
:10E96000C1692A69114311E0206801F01BFB20688E
:10E97000C16941F40061C1612068C16921F480610D
:10E98000C1612068C1692A6941EA0221C16184F834
:10E990003960002084F8380070BD10B504460220AC
:10E9A00084F839002068016A41F21112114207D13E
:10E9B000016A9210114203D1016821F00101016046
:10E9C000204600F021F8002084F8390084F838004F
:10E9D00010BD10B5040003D094F8390010B107E061
:10E9E000012010BD002084F83800204600F00DF80A
:10E9F000022084F83900211D206801F00FFA01205F
:10EA000084F83900002010BD7047704710B50446E7
:10EA10000068012201F034FA07492068884203D1D6
:10EA2000416C41F4004141642068016841F00101FA
:10EA30000160002010BD0000002C014070B50400F2
:10EA400018D0022084F839002068C16821F40051F0
:10EA5000C16020680025C5602068056120684561A7
:10EA6000204600F038F8E56384F8395084F83850CF
:10EA7000002070BD012070BD70B5040004D094F872
:10EA80003900002510B106E0012070BD84F838502F
:10EA9000204600F021F8022084F839002068C1687F
:10EAA00021F40051C160204601F09EFA20680169FE
:10EAB00021F4904101612068416921F02A014161FE
:10EAC0002068C16841F40051C160E563012084F809
:10EAD0003900002070BD704770470000EFF30884D4
:10EAE0000EF00F000D2801D1EFF30984A08B04F183
:10EAF0002005800500D52D1D5FEACE6000D4483585
:10EB0000704604F0F5F8EFF3098004F0F1F8EFF344
:10EB1000088004F0EDF8EFF3148004F0E9F82846DB
:10EB200004F0E6F8606904F0E3F8A06904F0E0F8A6
:10EB3000E06904F0DDF81248006804F0D9F81048E4
:10EB4000001F006804F0D4F80D48001D006804F0B0
:10EB5000CFF80B481030006804F0CAF808480830B5
:10EB6000006804F0C5F806480C30006804F0C0F8EE
:10EB70004A2204A1002003F0C7FE01F03FF9FEE79E
:10EB80002CED00E02E2E5C2E2E5C2E2E5C736F750D
:10EB90007263655C6461706C696E6B5C4861726421
:10EBA0004661756C745F48616E646C65722E6300BB
:10EBB000002070471CB507F019FE00281CD09E20CD
:10EBC0008DF80000E7208DF801006946102001F063
:10EBD00091F8012407F00AFE00280DD000208DF8DE
:10EBE00000006946082001F085F801A9002007F01F
:10EBF00091FD012801D104B11CBD00201CBD000005
:10EC00000349497809B100F005B800F063B8000085
:10EC1000E80500202DE9F0432B4C4FF48047276096
:10EC20006314251D2B6023602B6023602F602B60F5
:10EC300023602B602360254E80223260244991F8A6
:10EC400017C001EB4C09B9F8201019B12B602360F3
:10EC5000491EFBD11E49DFF87480183108F1040801
:10EC60001CF8011009E05FEAC07C01D0326001E0CD
:10EC7000C8F800202B6023604008491EF3D1B9F882
:10EC8000301079B1C00701D0326001E0C8F800202F
:10EC90002B602360326001E02B602360491EFBD1B2
:10ECA000276006E02760C00701D0326001E0C8F8A5
:10ECB00000202B6023602B6023602F602B6023607B
:10ECC0003260BDE8F0830000100C014010080140E4
:10ECD000E80500202DE9F047584D4FF48048C5F86D
:10ECE000008005F1040C6F14CCF80070544B596887
:10ECF0000A46521EFDD12F600A46521EFDD1CCF8A5
:10ED000000700A46521EFDD12F600A46521EFDD1E8
:10ED1000CCF80080CCF800700A46521EFDD12F605E
:10ED20000A46521EFDD1CCF800700A46521EFDD193
:10ED30002F600A46521EFDD1424E80243460DA7D97
:10ED400003EB420A9146BAF8203053B1CCF8007078
:10ED50000A46521EFDD12F600A46521EFDD15B1E8F
:10ED6000F4D1374B183319F80330DFF8D89009F194
:10ED700004090FE0C20701D0346001E0C9F8004087
:10ED8000CCF800700A46521EFDD12F600A46521E72
:10ED9000FDD140085B1EEDD1BAF830203AB3C00770
:10EDA00001D0346001E0C9F80040CCF8007008469A
:10EDB000401EFDD12F600846401EFDD1346008E0A2
:10EDC000CCF800700846401EFDD12F600846401E5A
:10EDD000FDD1521EF4D1C5F80080CCF80070084671
:10EDE000401EFDD12F600846401EFDD110E0C5F841
:10EDF0000080C00701D0346001E0C9F80040CCF8C1
:10EE000000700846401EFDD12F600846401EFDD10F
:10EE1000CCF800700846401EFDD12F600846401E09
:10EE2000FDD1CCF80080CCF800700846401EFDD122
:10EE30002F60491EFDD13460BDE8F087100C014001
:10EE4000E805002010080140F0B5314C4FF4804631
:10EE500026606314251D2B602E4A51680846401E0B
:10EE6000FDD123600846401EFDD12E602B60084670
:10EE7000401EFDD123600846401EFDD12B60084690
:10EE8000401EFDD123600846401EFDD1D27D4AB10F
:10EE90002B600846401EFDD123600846401EFDD170
:10EEA000521EF5D10027DFF870C01F222B600846E4
:10EEB000401EFDD1DCF800002360C0F3401E084670
:10EEC000401EFDD147EACE704708521EEED12660A3
:10EED0002B600846401EFDD1DCF800002360C0F323
:10EEE00040120846401EFDD147EAC2702B600A4618
:10EEF000521EFDD123600A46521EFDD12E602B60AA
:10EF00000A46521EFDD12360491EFDD1F0BD00000E
:10EF1000100C0140E8050020080801402DE9F04FE1
:10EF2000814610F03F0000D14020DFF888B0DFF8C4
:10EF300088E05FEA49644FF480434FF0800AABF108
:10EF400004084FF4005C01D5444600E05C462360B1
:10EF50002BE0002611F8015B08231EE0EC07544665
:10EF600001D0164F01E0154F3F1D3C60CBF800C0AB
:10EF7000DEF8044027467F1EFDD1104F083F3F6852
:10EF8000C8F800C0C7F34017641EFDD174086D08AF
:10EF9000401E44EAC7165B1E01D00028DED1DE40C9
:10EFA0005FEA096301D502F8016B0028D1D1BDE801
:10EFB000F08F0000140C0140E8050020100801400B
:10EFC000034A52780AB100F005B800F0CDB800004D
:10EFD000E80500202DE9F04F604E4FF480438B464A
:10EFE00033605D10371D3D6035603B603D603560CE
:10EFF0003D6035605A49C97D19B13D603560491E93
:10F00000FBD1584C4108C907A4F1040C4FF0800211
:10F0100002D0CCF8002000E022603D60DFF844918F
:10F02000A9F10C09D9F800103560C1F3401149006D
:10F030004FEA90085FEAC87802D0CCF8002000E0E0
:10F0400022603D60D9F800803560C8F3401841EA7D
:10F0500008014FEAD0085FEAC87802D0CCF8002057
:10F0600000E022603D60D9F80080CE46C8F3401829
:10F07000356041EA8809B9F1010F01D0336059E0E8
:10F08000DFF8DC80810798F8160098F81780A0EB6D
:10F09000080A2BD500211F20F0463D60D8F800401B
:10F0A0003560640941EAC4714908401EF5D1BAF1DE
:10F0B000010014D03D60D8F80040C4F3401400E0D3
:10F0C0003D603560401EFBD133603D60356041EAF4
:10F0D000C470BBF1000F2FD0CBF800002CE03360E0
:10F0E0003D60D8F80000C0F34014EFE7DBF8000003
:10F0F0001F215FEAC07802D0CCF8002000E0226037
:10F100003D6035604008491EF3D1BAF101010AD0D3
:10F11000C00702D0CCF8002000E022603D603560DE
:10F12000491EFBD1AAE73360C00702D0CCF800200B
:10F1300000E022603D6035603D6035603B603D60D1
:10F140003560CCF800200648007A01E03D6035606B
:10F15000401EFBD24846BDE8F08F0000100C014075
:10F16000E8050020140801402DE9FC4FDFF8E8C253
:10F170004FF480468E46CCF800600CF10408731002
:10F18000C8F80030B54C61680A46521EFDD1CCF873
:10F1900000300A46521EFDD1C8F80060C8F80030A1
:10F1A0000A46521EFDD1CCF800300A46521EFDD14F
:10F1B000C8F800300A46521EFDD1CCF800300A468D
:10F1C000521EFDD1E47D5CB1C8F800300A46521EE3
:10F1D000FDD1CCF800300A46521EFDD1641EF3D199
:10F1E0009F4F4208D207A7F104054FF0800401D0D9
:10F1F0002C6000E03C60C246C8F800300A46521E4F
:10F20000FDD1DFF85CB2ABF10C0BDBF80020CCF8E1
:10F210000030C2F340128846B8F10108FCD1520018
:10F220004FEA90085FEAC87801D02C6000E03C60AB
:10F23000CAF800308846B8F10108FCD1DBF800803C
:10F24000DFF814C2C8F340189946CCF800300B46DA
:10F250005B1EFDD1C30842EA0802DB0701D02C6027
:10F2600000E03C60CC46CAF800900B465B1EFDD126
:10F27000DBF80030E146C3F34018774BC3F800C019
:10F280008C46BCF1010CFCD142EA88020192012AB1
:10F290000AD01E604A46CAF800900846401EFDD1BA
:10F2A0001A60491EFDD1AEE06C4A5FEA807C907D19
:10F2B000D27DA0EB0200009055D500271F22CC463E
:10F2C000CAF800C00846401EFDD1DBF80000C3F8B4
:10F2D00000C0C0F340180846401EFDD147EAC87080
:10F2E0004708521EECD10098401E020025D0CAF8F3
:10F2F00000C00846401EFDD1DBF80000C3F800C086
:10F30000C0F340180846401EFDD1521E0AD0CAF86C
:10F3100000C00846401EFDD1C3F800C00846401E8C
:10F32000FDD1F2E71E60CAF800C00846401EFDD1BC
:10F33000C3F800C0491EFDD10DE01E60CAF800C030
:10F340000846401EFDD1DBF80000C3F800C0C0F342
:10F350004018491EFDD147EAC870BEF1000F52D0D7
:10F36000CEF800004FE0DEF800001F22D4465FEA2E
:10F37000C07801D02C6000E03C60CCF8009088465A
:10F38000B8F10108FCD1C3F800908846B8F1010833
:10F39000FCD14008521EEAD1009A521E24D0C00768
:10F3A00001D02C6000E03C604F46CCF8009008464D
:10F3B000401EFDD11F600846401EFDD1521E09D0DF
:10F3C000CCF800700846401EFDD11F600846401E64
:10F3D000FDD1F3E71E60CCF800700846401EFDD159
:10F3E0001F60491EFDD10EE01E60C00701D02C60D9
:10F3F00000E03C604A46CCF800900846401EFDD133
:10F400001A60491EFDD14F46D446CAF800901349F0
:10F410004A681046401EFDD11F601046401EFDD1B7
:10F42000CCF80060CCF800701046401EFDD11F6083
:10F430001046401EFDD12C600C7A08E0CCF800701C
:10F440001046401EFDD11F601146491EFDD1641EAD
:10F45000F4D20198BDE8FC8F100C0140E8050020B3
:10F46000140801402DE9F04F5B4E4FF480443460A6
:10F470006510371D3D60594A51680B465B1EFDD132
:10F4800035600B465B1EFDD1A1463C603D600B46DE
:10F490005B1EFDD135600B465B1EFDD13D600B460A
:10F4A0005B1EFDD135600B465B1EFDD1D47DB4F1F2
:10F4B000000A09D03D600B465B1EFDD135600B464E
:10F4C0005B1EFDD1641EF5D1DFF814C18024CCF899
:10F4D00000403D600B465B1EFDD135600B465B1E58
:10F4E000FDD13D600B465B1EFDD135600B465B1EBA
:10F4F000FDD13D600B465B1EFDD135600B465B1EAA
:10F50000FDD1DFF8DC801F23A8F104089346C20771
:10F5100002D0C8F8004001E0CCF800403D600A4647
:10F52000521EFDD135600A46521EFDD140085B1EB9
:10F53000EDD19BF81630A3EB0A02521E25D0C0076E
:10F5400002D0C8F8004001E0CCF800402B463D60F6
:10F550000846401EFDD133600846401EFDD1521EB4
:10F5600008D03B600846401EFDD133600846401E6F
:10F57000FDD1F4E7C6F800903B600846401EFDD17F
:10F5800033600846401EFDD110E0C6F80090C00769
:10F5900002D0C8F8004001E0CCF800403D600846C9
:10F5A000401EFDD135600846401EFDD13D60084635
:10F5B000401EFDD135600846401EFDD1C7F80090C1
:10F5C0003D600846401EFDD13560491EFDD1C8F89A
:10F5D0000040BDE8F08F0000100C0140E80500205D
:10F5E0001408014000F01F020121914040098000F1
:10F5F00000F1E020C0F800117047000070B5104C19
:10F600000D21204605F06FFB0D4D6014103528606C
:10F610000E21204605F067FB4FF480402860012250
:10F620000C21204605F01DFB206820F00F00206013
:10F63000206840F0070020600120286070BD0000B5
:10F64000000C01402DE9F04117460D46804600268A
:10F65000FEF756FBA80706D000206E220DA103F08E
:10F6600053F900240DE00120F7E757F8242008EBB8
:10F67000840100230220FEF701FB08B1012603E00C
:10F68000641CB4EB950FF0D3FEF7EEFA3046BDE8FC
:10F69000F08100002E2E5C2E2E5C2E2E5C736F757A
:10F6A0007263655C6869635F68616C5C73746D3319
:10F6B000325C73746D33326631303378625C666C01
:10F6C0006173682E63000000034A52780AB100F0AB
:10F6D00005B800F021B90000E80500202DE9F04F41
:10F6E0008B4B8A464FF4804701461F605E141D1DF8
:10F6F0002E601E60C00701D01F6000E02F602E60EA
:10F700001E604808C40701D01F6000E02F602E6013
:10F710001E600A188808C40701D01F6000E02F602F
:10F720002E601E600244C808C40701D01F6000E0BC
:10F730002F602E601E601044C00701D01F6000E0E3
:10F740002F602E601E602F602E601E601F602E6076
:10F750001E60DFF8BC91A9F11009D9F8042022F04D
:10F760007062C9F80420D9F80420C9F804201F6089
:10F77000DFF8A0B19BF81400021E03D02E601E60BB
:10F78000401EFBD12E60DFF88881A8F10808D8F868
:10F7900000001E60C0F300302E60D8F800401E60EC
:10F7A000C4F3003440EA44002E60D8F800401E60E4
:10F7B000C4F3003440EA8400012817D002287CD02A
:10F7C00004287AD0213203D02E601E60521EFBD155
:10F7D000D9F8042022F07062C9F80420D9F8042076
:10F7E00042F04072C9F804202F608EE0890731D5BD
:10F7F0000024224620212E60D8F800C01E60CCF3E1
:10F80000003C6408624444EACC74491EF3D12E6083
:10F81000D8F800101E6082EA1132D10700D008200B
:10F82000BAF1000F01D0CAF800409BF8141019B1CA
:10F830002E601E60491EFBD1D9F8042022F07062B0
:10F84000C9F80420D9F8042042F04072C9F8042015
:10F850002F6029E01AB12E601E60521EFAE7D9F817
:10F86000042022F07062C9F80420D9F8042042F084
:10F870004072C9F804202F600024DAF8001020221A
:10F880005FEAC17C01D01F6000E02F602E601E6027
:10F890000C444908521EF3D1E10702D01F6001E079
:10F8A0000BE02F602E601E609BF8081069B32F607C
:10F8B0002E601E60491EFBD127E09BF815404CB11D
:10F8C0005FEA817C06D54FF0210C2E601E60BCF1F2
:10F8D000010CFAD11AB12E601E60521EFAE7D9F857
:10F8E00004C02CF0706CC9F804C0D9F804C04CF006
:10F8F000407CC9F804C02F603CB1890705D42F6053
:10F9000021212E601E60491EFBD11F60BDE8F08FD3
:10F91000100C0140E80500202DE9F04FF34A0446A1
:10F920004FF480408B4600261060171D4FF4005C9A
:10F93000C7F800C0EE4B59680D466D1EFDD1C2F8E8
:10F9400000C00D466D1EFDD1E50701D0106000E03E
:10F950003860C7F800C00D466D1EFDD1C2F800C06A
:10F960000D466D1EFDD106EB04086608F50701D0B3
:10F97000106000E03860C7F800C00D466D1EFDD174
:10F98000C2F800C00D466D1EFDD14644A5085FEAD1
:10F99000C57801D0106000E03860C7F800C0884624
:10F9A000B8F10108FCD1C2F800C08846B8F10108DE
:10F9B000FCD12E44E5085FEAC57801D0106000E074
:10F9C0003860C7F800C08846B8F10108FCD1C2F819
:10F9D00000C08846B8F10108FCD13544ED0701D0DC
:10F9E000106000E03860C7F800C00D466D1EFDD104
:10F9F000C2F800C00D466D1EFDD13860C7F800C0CA
:10FA00000D466D1EFDD1C2F800C00D466D1EFDD124
:10FA10001060C7F800C00D466D1EFDD1C2F800C0D1
:10FA20000D466D1EFDD1DFF8C4A2AAF1100ADAF866
:10FA3000046026F07066CAF80460DAF80460CAF858
:10FA40000460814610601D7D2E1E0BD0C7F800C0DB
:10FA50000846401EFDD1C2F800C00846401EFDD138
:10FA60006D1EF3D1C7F800C00846401EFDD19F4D62
:10FA7000083D2868C2F800C0C0F300308846B8F1DD
:10FA80000108FCD1C7F800C00B465B1EFDD12B68F6
:10FA9000C2F800C0C3F300338846B8F10108FCD1B6
:10FAA00040EA4300C7F800C00B465B1EFDD12B683F
:10FAB000AE46C3F30033C2F800C00D466D1EFDD143
:10FAC00040EA8300012823D002286FD004286DD09B
:10FAD00021360BD0C7F800C00B465B1EFDD1C2F823
:10FAE00000C00B465B1EFDD1761EF3D1DAF8043060
:10FAF00023F07063CAF80430DAF8043043F040733E
:10FB0000CAF804304946C7F800901160BDE8F08F8C
:10FB1000A3074CD54FF0000845462024C7F800C085
:10FB20000B465B1EFDD1DEF80030C2F800C0C3F307
:10FB300000360B465B1EFDD14FEA5803354443EABD
:10FB4000C678641EEAD16446C7F800C0684E0B460A
:10FB50005B1EFDD1DEF800301460C3F30033491E94
:10FB6000FDD15D40E90700D00820BBF1000F01D0B6
:10FB7000CBF80080337D53B175683C602946491E3F
:10FB8000FDD114602946491EFDD15B1EF5D1DAF87E
:10FB9000043023F07063CAF80430DAF8043043F01C
:10FBA0004073CAF80430C7F8009045E058E05EB1F1
:10FBB000C7F800C00B465B1EFDD1C2F800C00B4663
:10FBC0005B1EFDD1761EF2E7DAF8044024F0706483
:10FBD000CAF80440DAF8044044F04074CAF804401B
:10FBE000C846C7F800900026DBF800302025DC0767
:10FBF00002D0C2F8008001E0C7F80080C7F800C05A
:10FC00000C46641EFDD1C2F800C00C46641EFDD136
:10FC10001E445B086D1EEAD1F30702D0C2F80080D3
:10FC200001E0C7F800806446C7F800C00B465B1EC1
:10FC3000FDD11460491EFDD12D490C7A74B1C7F86D
:10FC400000904D68C7F800C02946491EFDD1C2F892
:10FC500000C02B465B1EFDD1641EF3D1494654E71C
:10FC6000234B93F81580B8F1000F0ED0A3070CD5E5
:10FC70002125C7F800C00B465B1EFDD1C2F800C0AD
:10FC80000B465B1EFDD16D1EF3D15EB1C7F800C0FF
:10FC90000B465B1EFDD1C2F800C00B465B1EFDD1BA
:10FCA000761EF2E7DAF8045025F07065CAF80450C1
:10FCB000DAF8045045F04075CAF804504D46C7F8CC
:10FCC0000090B8F1000F0FD0A3070DD43D602124A0
:10FCD000C7F800C00B465B1EFDD1C2F800C00B4642
:10FCE0005B1EFDD1641EF3D115600FE7100C0140BF
:10FCF000E8050020F0B5144C0023DFF848C04FF4AD
:10FD000080471A46ACF1040E7E10656816E012B901
:10FD100011F8013B0822DC0702D0CEF8007001E0A8
:10FD2000CCF80070CCF800602C46641EFDD1CEF8F3
:10FD300000602C46641EFDD15B08521E401EE6D2B8
:10FD4000F0BD0000140C0140E8050020144A10B575
:10FD50005068144B10F00C01134803D0042901D053
:10FD6000082901D0036012E05168536801F4701152
:10FD70004FF0020413F4803F04EB914102D053682A
:10FD80009B0301D5094B00E0064B594301605168C4
:10FD9000074AC1F30311515C0268CA40026010BDFA
:10FDA0000010024000127A00D402002000093D0039
:10FDB000EC9601080D48016841F0010101604168BD
:10FDC0000B4A1140416001680A4A11400160016814
:10FDD00021F480210160416821F4FE0141604FF46B
:10FDE0001F0181600449C003086070470010024091
:10FDF0000000FFF8FFFFF6FE08ED00E0BFF34F8FB5
:10FE000004480168044A01F4E06111430160BFF352
:10FE10004F8FFEE70CED00E00400FA05F0B5026834
:10FE2000144C154D154E4FF08047A04205D0B842F6
:10FE300003D0A84201D0B04203D122F070034A6837
:10FE40001A43A04205D0B84203D0A84201D0B04224
:10FE500003D122F44073CA681A4302608A68C262FE
:10FE60000A688262A04201D10969016301214161EE
:10FE7000F0BD0000002C01400004004000080040DC
:10FE800010B50123046A8B409C430462036A8A40D4
:10FE90001343036210BD000030B5026A22F0010274
:10FEA0000262036A4268846924F073050C682C437B
:10FEB00023F002058B682B430C4DA84206D123F09A
:10FEC0000805CB6843EA050323F0040307D14D6915
:10FED00022F4407245EA02058A6942EA050242605C
:10FEE000846149684163036230BD0000002C014019
:10FEF00030B5026A22F010020262026A4368846925
:10FF00000D6824F4E64444EA05248D6822F02002BA
:10FF100042EA05120C4DA84206D1CD6822F08002BB
:10FF200042EA051222F0400207D14D6923F44063F2
:10FF300043EA85038D6943EA850343608461496828
:10FF40008163026230BD0000002C014030B5026ABE
:10FF500022F480720262036A4268C46923F4007367
:10FF600024F073050C682C438D6843EA05230C4D7F
:10FF7000A84206D1CD6823F4006343EA052323F4A5
:10FF8000806307D14D6922F4405242EA05128D691F
:10FF900042EA05124260C4614968C163036230BD30
:10FFA000002C014030B5026A22F480520262036ADA
:10FFB0004268C4690D6824F4E64444EA05248D6867
:10FFC00023F4005343EA0533064DA84204D14D699A
:10FFD00022F4804242EA85124260C46149680164A9
:10FFE000036230BD002C01402DE9F0410446006859
:10FFF0000169E26821F4405111430161A16820695F
:020000040801F1
:100000000143606901432068C26841F20C639A436E
:100010000A43C26020684169A26921F4407111431A
:1000200041614C4920686426322788423CD1FEF762
:10003000EDF800EBC00101EB001061688900B0FB36
:10004000F1F5FEF7E3F800EBC00101EB0010616889
:10005000B8468900B0FBF1F0B0FBF6F06FF0180184
:10006000484305EB800107EB0110B0FBF6F000F010
:10007000F005FEF7CBF800EBC00101EB0010616862
:100080008900B0FBF1F0B0FBF6F005EB0015FEF7D0
:10009000BDF800EBC00101EB001061688900B0FB06
:1000A000F1F7FEF7B3F83BE0FEF798F800EBC0017C
:1000B00001EB001061688900B0FBF1F5FEF78EF8E6
:1000C00000EBC00101EB00106168B8468900B0FB8D
:1000D000F1F0B0FBF6F06FF01801484305EB80013A
:1000E00007EB0110B0FBF6F000F0F005FEF776F834
:1000F00000EBC00101EB001061688900B0FBF1F07A
:10010000B0FBF6F005EB0015FEF768F800EBC00158
:1001100001EB001061688900B0FBF1F7FEF75EF8B3
:1001200000EBC00101EB001061688900B0FBF1F049
:10013000B0FBF6F06FF01801484307EB800108EBC5
:100140000110B0FBF6F0216800F00F002844886031
:10015000BDE8F0810038014070B515480468154DC0
:10016000A00612D52868C6B2134802F05BFC13281B
:1001700004D93146104802F0C5FC06E005D14FF025
:1001800013020EA10C4802F012FD200607D51048FC
:1001900002F059FC20B10E4802F076FC286070BDD8
:1001A0000448083001680B4A1140016070BD00002E
:1001B0000044004004440040902000203C44415052
:1001C0004C696E6B3A4F766572666C6F773E0A00CB
:1001D000801E00207FFFFFEF1CB5002001906A46C3
:1001E00001A90848FDF7ECFB40B10748DDE9002113
:1001F000007840F0800002F0BBFA1CBD03490120EA
:1002000008701CBDB02B00202A97010810050020A3
:1002100038B5164D164C28886188421A1548616811
:10022000007801F0CDFE616880B2014461606188B0
:1002300001448AB2628029888A4206D20F4B0E4955
:100240001B7831F8131081420FD96B460C490D48C9
:10025000FDF782FB002528B1207818B10020FFF7B8
:10026000BBFF257065800648606038BD3097010887
:10027000100500202B9701082C9701085B05002032
:10028000EA240020B02B002010B50446400702D518
:100290000020FFF7BDFF200704D5BDE81040002077
:1002A000FFF79ABF10BD0020704700000348D0E957
:1002B0000410081A02490988081A70471805002016
:1002C0002097010870B50B4D0C460346D5E90C018B
:1002D00088420BD9401A844200DD04462246184663
:1002E000FCF7F5F8686B2044686300E000242046C2
:1002F00070BD000018050020002070472DE9F04176
:10030000194F0C460646D7E90401401A17490988D7
:10031000081A002802DC0020BDE8F081844200DDDC
:100320000446D7E90602002590420FD3104B02196C
:1003300019448A420AD30D1A98462A463146FCF7D8
:10034000C6F82E44641B4046C7F8188034B12246D4
:100350003146FCF7BCF8B8692044B86139696019C6
:1003600001443961D8E700001805002020970108F2
:100370006A24002010B5054C6068002805D10120D2
:10038000606000F005F80020606010BD18050020D6
:100390002DE9F047244CA06800283ED0D4E90401A0
:1003A000421AE0684FF0000652EA000137D02146B9
:1003B0001E4FC969DFF87880DFF878901E4D7AB15A
:1003C000A069814205D338888B182844834200D322
:1003D000421A99F8003038F81300904200DA0246C9
:1003E0001648E660007840F0800002F0C1F9E1694B
:1003F0000144E1616269024462613B882B448B42A3
:1004000000D1E561216991420BD199F8002038F8BB
:100410001210814205D10120E060BDE8F087A6609E
:10042000FBE7E660F9E700001805002020970108C7
:10043000249701085B0500206A2400201E9701080C
:1004400010B50B4C206A18B1A06A401CA06210BD08
:1004500001202062606200F00DF8002060622062DE
:10046000D4E90C018842F2D0401AFFF745FF10BDD5
:100470001805002010B5134C1348164B216B0A1AAF
:1004800012481B780088821A114830F81300824203
:100490000EDB1148007801F093FD216B08442063C6
:1004A000A06A00280CD0616A002909D1401E06E02C
:1004B0000120E062606A002802D0A06A401CA062AD
:1004C00010BD000018050020AA2400202297010872
:1004D000249701085B0500201F97010810B504460A
:1004E000400702D52046FFF7ABFF200704D5204682
:1004F000BDE81040FFF73EBF10BD704700207047B9
:100500000020704710B50C4800F042F8002812D0C7
:100510000948FCF72FF90949020A08704A70020CD1
:100520008A70000EC870044802790A7142794A71D3
:1005300080798871012010BD5005002068230020BB
:1005400010B510480024104944608460C460046100
:10055000C0E90541C0E9071444620C498462C0E95E
:100560000B414163048000F138014FF41650FCF751
:100570000CF904480821383004714471817100F08D
:1005800019F810BD180500206A240020AA240020B4
:1005900070B5074D044621462868FCF7F6F828791F
:1005A000A07168796071A8792071012070BD000088
:1005B000E005002010B507F08BF803F067FF01207D
:1005C00010BD10B507F0E4F8012010BD0120704700
:1005D00010B50446FCF7CEF807490860A079087109
:1005E00060794871207988710020C871BDE8104099
:1005F000084607F0DFB80000E005002010B51148FC
:100600000024114944608460C4600461C0E905416C
:10061000C0E9071444620D498462C0E90B4141639B
:100620000480FFF7CEFF07494FF416503831FCF72E
:10063000ACF8044808213830047144718171FFF727
:10064000C7FF10BD180500206A240020AA2400203E
:1006500010B5FFF7D3FF10BD70B51948007800281A
:100660002DD0184C00250126206A50B9D4E90C0180
:10067000884206D11449884203D02163E56225628D
:100680006163A06A70B1206A60B9E06A50B92662FD
:10069000FFF7F0FE2562D4E90C01884202D0401A2F
:1006A000FFF72AFED4E90101084308D1D4E9040187
:1006B000884204D06660A660FFF76AFE656070BD80
:1006C0005905002018050020AA24002070B5054611
:1006D0000D480068C1698847A0B90C4C35B104F0D9
:1006E0002FF82060002006F0EBFD0BE004F028F866
:1006F0002168401AB0F5967F01D3012000E0002068
:1007000003F0CCFE012070BD5C910108DC050020E7
:100710000020704700207047024910B50880FFF79D
:1007200055FF10BD1805002070B50A4C2046E5782D
:10073000FCF720F865F31F600749FCF726F8064828
:100740002179017161794171A1798171FFF740FFD0
:1007500070BD0000682300205005002000B503464E
:10076000FDF75AF943F2300118465DF804EBFDF746
:1007700067B90000F0B58278224D4179047902F022
:100780000F0344EA012116066F682C8802F00F025D
:1007900007EB021204D5491C21F00101146011E09D
:1007A00094603E2909D91F3121F01F014FF0FF3419
:1007B00004EB411444F4004403E0491C21F001011E
:1007C0004C02D4602A880A442A80C07810F00300C2
:1007D00006D0012807D0022808D003280AD107E054
:1007E0004FF4007106E04FF4806103E0002101E066
:1007F0004FF4C061044A194302EB8300C0F8001CA7
:10080000F0BD00008C04002000500040002802D100
:100810000149D020088070478C04002000F0E4BA21
:100820000949CA1350B101200860002008600B1D5F
:1008300018604FF4E0500860044803E003200860AB
:100840000248001F02607047405C0040140C0140E9
:1008500010B50B4C0B48A2880078824200D90246A2
:100860001AB907490020143908718020216801F065
:100870007FFF216801442160A188081AA08010BD73
:100880006C0500200797010810B5064C0020A288CF
:10089000216801F095FB216801442160A188081AB4
:1008A000A08010BD6C05002070470021FDF7C8B87E
:1008B00043F22001FDF7C4B82DE9F0476E4F04461E
:1008C000A7F1080580074FF00009A5F1140622D50D
:1008D00001F018FF3878C009FFF7E6FFF888A88014
:1008E0003878C0F3411121B101295AD002296FD1C2
:1008F00065E07978DFF884810C2969D2DFE801F0BE
:10090000060C6813681827682B31384601F098FCEC
:100910001FE0FFF79DFF67E0002005E001F002FF08
:10092000D8F8000039E0012001F0CAFCC0B3F5E7B7
:1009300010F01F0F4CD1B878012140F080003070CA
:1009400000F07F0001F0D0FE01F0ECFE4CE001F081
:1009500065FB28B3DDE710F01F0F39D146481B387F
:1009600012E001F0FDFCD8B101F0DCFE444813E0D8
:1009700000F01F0001282BD1707888B13879B17848
:10098000884225D23F4908442860C2E701F0AEFD05
:1009900030B101F0C7FE3C48006828B3804723E02F
:1009A00016E010F01F0013D0012811D100F00AF951
:1009B000D0B900F063F9B8B900F0B2F807E010F070
:1009C0001F0F05D100F08EF970B900F0D5F958B9B4
:1009D0003878000603D4F88808B1002000E08020B1
:1009E00001F08CFEA5F80490600721D53878000648
:1009F0001CD4A888E0B1FFF747FFA888C0B93878B1
:100A0000C0F3411161B101290AD110F01F0007D0D4
:100A1000012805D100F066F850B900F037F838B970
:100A2000802001F06BFEA5F8049001E001F080FE4B
:100A3000200712D53878000606D5A88831790843F2
:100A40000BD0FFF705FF08E03078010605D500F070
:100A50007F003070002101F047FE600602D50020C3
:100A6000FFF77CFE200604D5BDE8F0478020FFF7A5
:100A700075BEBDE8F087000074050020909701085E
:100A8000889701087B0400208C97010810B5124953
:100A9000124A08791278904203D0114A1278904293
:100AA00017D1487820B1022805D0202811D10DE0B7
:100AB000FFF72EFE05E0C878897841EA0020FFF7AD
:100AC00029FE30B101F02EFE012010BDFFF72CFEF3
:100AD000F7E7002010BD000074050020E0020020B0
:100AE000E102002010B50B490B4A087912789042B8
:100AF00003D00A4A1278904209D14878092806D1D1
:100B000000F024FB18B101F00DFE012010BD002003
:100B100010BD000074050020E4020020E602002061
:100B200070B52349234A08791278904203D0224AAB
:100B3000127890423AD11E484978204CC278837886
:100B40001F4D43EA022004291FD007DC79B1012997
:100B50000FD002290BD0032928D111E0202906D07B
:100B6000212919D022291AD023291FD11AE02C605B
:100B700010E0FFF7C5FC05E02C60FFF769FE09E017
:100B8000FFF7BCFC0028F7D110E0FFF78CFB0BE06F
:100B900001F0C8FD012070BDFFF7B4FCF2E7FFF7DC
:100BA000BBFD01E0FFF792FD0028F1D1002070BDF0
:100BB00074050020E0020020E102002068230020EC
:100BC0006C0500202DE9F041244E25493079097843
:100BD000884203D02349097888423CD17078224C5E
:100BE000224D234F0C2836D2DFE800F03506212CA9
:100BF000353535353516243100F0C4F958B3F07861
:100C0000012802D0032803D003E01A48206000E046
:100C10002560FFF71DFE12E0F078022802D00328BD
:100C200003D00CE01448206009E0256007E000F0E4
:100C300091F909E000F064FA0BE001F073FD012086
:100C4000BDE8F08100F094F928B12760E1E700F0F9
:100C500073FA0028F1D10020F2E7000074050020AB
:100C6000E4020020E60200206C0500208804002039
:100C700068230020A9230020EA23002010B515488E
:100C8000154A01791278914222D101464278C878FA
:100C90008B788C7943EA0020CB79FE2A44EA032141
:100CA00009D0FF2A14D198B991B901F0CDF878B1E3
:100CB00001F038FD0AE058B9012909D100F09AFD88
:100CC00030B1074905480860FFF7C2FD012010BD9B
:100CD000002010BD74050020E502002068230020DC
:100CE0006C05002070B51E4D1E49002668780978F5
:100CF000884232D16879297941EA002002282CD132
:100D0000194CAA782AB3002003E0217801B10C44E1
:100D1000401C411C8A42F8D82078C8B103F0B2F9CF
:100D20000146E01CFBF7C7FB104A01261460E97975
:100D3000AB79207843EA012181420BD90C4990809C
:100D40000978491E084206D10A490120087002E0CC
:100D5000002602E09180FFF77BFD304670BD000069
:100D600074050020289701083C0400206C05002031
:100D7000079701085C05002010B5154A15490024A5
:100D800050780978884220D15079117941EA0020C1
:100D900007281AD1114B104801241860417A007AB3
:100DA00040EA0121D079927942EA0020884209D9AB
:100DB0000B4899800078401E014204D10949012066
:100DC000087000E09880FFF743FD204610BD00004A
:100DD0007405002029970108EC0200206C05002012
:100DE000079701085C050020074800214170C16099
:100DF00001614161418081808161C161C180018166
:100E000001624181704700007C0500202DE9F04718
:100E1000494EB08871884A4FDFF820817D1C00243C
:100E2000884216D3B069A0B97461B48001233978BF
:100E30007A1C184607F0A0F87080708848B1776176
:100E400098F80000012801D8756102E07088401C04
:100E5000708070884FF00109B0BBF06808B1F46091
:100E600032E0316981B398F8000001280DD83C7058
:100E7000B48002237A1C0021012007F07DF87080E5
:100E8000708800B1756134611EE03D78C846202D40
:100E900000D3002508FA05F0084218D0681CC1B23A
:100EA0003970B48002237A1C012007F065F8708045
:100EB000708818B177617088401C7080306908FABA
:100EC00005F820EA08003061708830B902E06D1C36
:100ED000EDB2DCE7B069002829D07088B188DFF86E
:100EE0006880401A85B2174F98F8000037F8100054
:100EF000A84200D205461548007828B140F080008D
:100F00002A46716901F034FC706911492844706106
:100F1000B088284480B2B0800988884209D298F805
:100F2000000037F81000A84203D1C6F81890BDE8B9
:100F3000F087B461FBE700007C05002012970108F0
:100F4000A82300200E9701085B05002008970108E0
:100F500014970108034804498078085C0349087025
:100F600001207047740500208604002068230020BB
:100F700010B506F0FFFF02490870012010BD000007
:100F8000682300200B4910B5C8780022012804D03E
:100F9000022804D0032806D103E0074A02E000201B
:100FA00010BD064A521C8978002306F0E5FF012097
:100FB00010BD000074050020A82300208704002035
:100FC0002DE9FC5F4548007800287DD0444D04237E
:100FD00000262978B146481C28704248007800EB6A
:100FE000400293405B1E0192994202DB85F800901B
:100FF00001263D4A00241188FF2901D2491C118095
:101000003A4931F81000384900900988884200D1E7
:10101000012439490020DFF8D8804FF0010BDFF8B8
:10102000D4A091F800E045E0002276B11AF8001053
:101030005346FF2901D2491C195418F8001021B158
:101040001AF800308B4200D30122019918F8007081
:1010500002238B4007FA03F1009B994202DA0FB199
:10106000012300E000233CB133B1D5F810C00BFAE6
:1010700000F141EA0C0129612049095C8F420ED040
:101080001AF800708F4208D3D5F810C00BFA00F799
:1010900047EA0C072F6185F8009008F800103AB174
:1010A00023B92A690BFA00F1114329610AF800906B
:1010B000401CC0B27045B7D314B10B49A1F80090E1
:1010C0002869002808D000E006E06888002803D1DD
:1010D000BDE8FC5FFFF79ABEBDE8FC9F5905002004
:1010E0007C0500205B050020820400200A9701088F
:1010F0008504002084040020129701088604002043
:10110000094809498078C97810B1084A815409E032
:10111000084A0020064B127802E01954401CC0B265
:101120009042FAD301207047740500208504002006
:101130008604002012970108034810B5807806F055
:10114000ADFF012010BD00007405002038B50D4929
:101150000022C878012804D0022804D0032806D130
:1011600003E0002038BD084A00E0084A521C002372
:101170000093CB798C79897844EA032306F090FFB9
:10118000012038BD74050020E923002087040020D9
:101190002DE9F041EFF3108010F0010F72B6DFF887
:1011A000E8804FF00002D8F81040C8F8102000D1B5
:1011B00062B6600507D501F033FA07F025F8334829
:1011C000006800B18047200505D501F0BBFA304822
:1011D000006800B18047E00405D501F0BFFA2D4852
:1011E000006800B18047A00503D52B48006800B116
:1011F00080472A4D600403D5296809B10220884739
:10120000274FA0042BD5296849B3012026E0EFF32E
:10121000108010F0010F72B622484FF00B0250F808
:10122000210001F10101B1FBF2F602FB1611C8F831
:10123000081000D162B686B2050C280604D557F80E
:10124000261009B108208847280408D557F8261029
:1012500029B1280501D5022000E004208847200498
:101260000FD5EFF3108000F0010272B6D8E902103A
:10127000814201D1012000E0002002B962B60028BD
:10128000C5D0BDE8F08100008C040020349701082F
:10129000389701083C9701084097010844970108D6
:1012A000489701082C250020064810B5C16941F473
:1012B0000001C1611420FEF795F903494FF4004085
:1012C000086010BD00100240100C014070B500F025
:1012D0001FF900282AD016480224164E04704470C4
:1012E00003203463307014480546FBF743FA0228A4
:1012F00008D9114920461F39FBF747FA29462046ED
:10130000FBF743FA0D4822460949007840F0800077
:1013100001F02EFA2846FBF72DFA316B401A2946C8
:10132000FBF733FA044901200839087370BD000047
:101330002A240020A0050020EF2C00201697010889
:10134000114910B50878022808D0032810D00428C5
:1013500012D0052801D10020087010BD0B48C07BB9
:10136000282801D0A828F8D1BDE8104000F086BA9E
:10137000BDE8104000F0A8BD0548007840F08000AE
:1013800000F0BCFDF4E70000A0050020C82C002000
:1013900016970108204A10B5117869B301290ED0BB
:1013A0001E48052900781BD007292BD000F0A6FD88
:1013B0001B4902200873BDE8104000F085BD1848A5
:1013C0001F38C07B2A2803D02F2805D0AA2822D175
:1013D000BDE8104000F030BBBDE8104000F0BCBAE2
:1013E000012181400F480068014201D0012000E046
:1013F00000204FF4886200E009E0BDE810400AA137
:1014000001F082BA00201070106B1F2803D1BDE8D4
:10141000104000F0E9B810BDA005002017970108A2
:10142000E72C0020640500202E2E5C2E2E5C2E2E34
:101430005C736F757263655C7573625C6D73635C1E
:10144000757362645F6D73632E63000010B5134C97
:101450006068E06008B1012010BD1148FBF78AF90F
:10146000A0B10F480838007B000604D50D4800786D
:1014700040F0800008E00A481F30FBF77BF9216B41
:10148000884203D00848007800F038FD0449012064
:101490001731087300F018FD002010BDA0050020D2
:1014A000D02C00201697010817970108134810B593
:1014B000007900F08F01080605D501F00F004FF408
:1014C0008032824001E001228A400D48007840F0DD
:1014D00080048C4210D10B48006810420CD00A489E
:1014E000FBF748F90949884206D12046BDE810407B
:1014F0000D22054901F03CB910BD00007405002023
:101500001697010864050020E72C0020555342532C
:1015100070B50B48FBF72EF9094C0225173440B182
:10152000A4F11F00007B000608D40648007800F0F4
:10153000E5FC257300F0C8FC002070BD012070BDE3
:10154000D02C00201797010870B51148FBF712F94D
:10155000104C216B884202D82063032000E0042055
:1015600020700D480D49226B007840F0800001F09A
:10157000FFF807481F300546FBF7FCF8216B401ABF
:101580002946FBF702F9024900201731087370BDA4
:10159000D02C0020A0050020169701082A24002046
:1015A000064810B5028807480549007800F008FD94
:1015B00005490863BDE81040FFF7ECBE1C97010821
:1015C0002A24002017970108A005002010B5044622
:1015D000400702D50020FFF7E3FF200703D5BDE851
:1015E0001040FFF7ADBE10BD2DE9F05F7A4E326BB3
:1015F0001F2A01D2134600E01F230020774D7849AF
:1016000002E00C5C2C54401C9842FAD3DFF8D881DD
:101610000127DFF8D0A198F800001F2A40F0800BC6
:1016200069D16E48FBF7A6F87049884263D1281D3E
:10163000FBF7A0F8694C1F34211DFBF7A6F8A4F1B5
:101640001700FBF797F804F10801FBF79EF8687B99
:1016500018B9A87B08B1102801D9277389E0E87B65
:101660004FF002092A283ED022DC1A2850D00FDC85
:101670000428F2D006DCE8B30328EED1BDE8F05F21
:1016800000F0A0BB1228E8D1BDE8F05F00F0BAB8C6
:10169000232845D007DC1B2836D01E28DDD1BDE825
:1016A000F05F00F0DDB825283ED02828D5D147E0EE
:1016B0009E2841D00FDC5528CFD004DC2F2853D0F2
:1016C0003528CAD103E05A2826D09128C5D1BDE8D3
:1016D000F05F00F043BCA1282AD0A3285CD0A82842
:1016E0002ED0AA28B9D100F0A9FA002806D0287B6C
:1016F000000601E004E053E049D43770BDE8F09FF4
:10170000BDE8F05F00F032BCBDE8F05F00F00CBC5B
:10171000BDE8F05F00F062BABDE8F05F00F02ABA01
:10172000BDE8F05F00F010BBBDE8F05F00F0E4BA88
:10173000BDE8F05FFFF7CABDBDE8F05F00F098BB01
:1017400000F07CFA0028D9D0287B000605D586F861
:101750000090BDE8F05F00F091B89AF8000000F04A
:10176000CDFB84F80C9004E0287C800705D4002091
:101770002073BDE8F05F00F0A7BB00F05FFA00281F
:10178000BCD0287B000602D437703762B6E798F8E1
:10179000000040F08000E2E7584600F0AFFB5CE755
:1017A0004446584600F0AAFB2078114C00F00F0187
:1017B0004FF48030884021685546084320609AF8ED
:1017C000000000F09BFB2878874020680743062034
:1017D0002760307092E70000A0050020C82C002090
:1017E0002A240020179701081697010855534243F1
:1017F00068050020024900200870012070470000A1
:101800006823002010B5FFF783FE002820D0114B7D
:10181000002080211870597002219970D9702024FD
:101820001C7158719871D8710B48016808200A78AA
:1018300012B11A54491C00E01C54401CC0B22428A8
:10184000F5D3064924200863BDE81040FFF77CBEAD
:1018500010BD00002A24002038040020A00500202C
:101860000548C07CC107044800F11F0000D00121D9
:10187000017300F029BB0000C82C00202DE9F041C5
:10188000304D314FDFF8C480A969686A002688426C
:101890000AD33878002440F0800000F02FFB88F84D
:1018A0000C6000F011FB08E02A492948097830F85B
:1018B0001140E86A844200D30446FFF7C7FD00B92F
:1018C0000024A86A68B374B1A96AE8692246014491
:1018D000387840F0800000F04BFFA86A2044A862EE
:1018E000E86A001BE862D5E90410AA6A4143914204
:1018F00003D1AE62696A084468621448083007463A
:10190000FAF738FF001B3946FAF73FFF002C06D0E4
:10191000E86A002803D10320287088F80C60BDE82D
:10192000F081002CDFD0E96A28690144491EB1FB2F
:10193000F0F26869824200D90246E969686A06F0F5
:101940001BFCC1E7A005002016970108E72C00202A
:10195000189701085B0500202DE9F041324EDFF8B1
:10196000CC800025B169706A884208D3304835635D
:10197000007800F0C3FA88F80C5000F0A5FAFFF7E1
:1019800065FD20B1306B10B3B06A10B10FE0356364
:101990001DE0F16A30690144491EB1FBF0F2706943
:1019A000824200D90246F169706A06F0E5FB002028
:1019B000204A336BB16A08E0F7690C183C5D175C8C
:1019C000BC4201D0356202E0401C9842F4D3346B33
:1019D000B06A0119B162F06A071BF762D6E9042008
:1019E00042438A4203D1B562716A084470620F486B
:1019F00008300546FAF7BEFE001B2946FAF7C5FE79
:101A0000002C0ED017B1307805280AD1306A30B1D9
:101A1000002088F80C00BDE8F04100F055BA012024
:101A2000F7E7BDE8F0810000A0050020E72C0020CA
:101A3000179701082A2400202DE9F041DFF80081E2
:101A4000404F0026D8F81810D8F82400884208D350
:101A50003D48C8F83060007800F050FA3E7300F05E
:101A600033FAFFF7F3FC08B9C8F83060D8F8301043
:101A7000D8F828000844D8F81010884206D9BDE8E4
:101A8000F041FF2231A1002000F03EBF0020384984
:101A900007E0D8F82830D8F81C400A5C0344401C02
:101AA000E254D8F830209042F3D3D8F8280011003F
:101AB0000844C8F82800D8F82C20A2EB0102C8F886
:101AC0002C2022D0454692B988B129690844401E8D
:101AD000B0FBF1F46869844200D904462246E96902
:101AE000686A06F063FBAE62686A20440CE0D5E9E0
:101AF00004125143814208D1E969686A06F056FB35
:101B0000AE626969686A084468620E480830054632
:101B1000FAF730FED8F830402946001BFAF735FEB8
:101B2000002C0BD0D8F82C0018B198F8000005282C
:101B300004D13E73BDE8F04100F0C6B9BDE8F081C4
:101B4000A0050020E72C0020179701082E2E5C2E00
:101B50002E5C2E2E5C736F757263655C7573625CB0
:101B60006D73635C757362645F6D73632E630000F5
:101B70002A24002070B5FFF7CBFC002826D0FFF701
:101B800065FC002822D01248002106220170114B6A
:101B9000427081701A7A0824D201C27001714171B9
:101BA0008171C1710C481C630546FAF7E3FD0828F2
:101BB00008D9094920461F39FAF7E7FD294620468A
:101BC000FAF7E3FDBDE87040FFF7BEBC70BD000052
:101BD0002A240020A0050020EF2C002070B5FFF77C
:101BE00097FC002822D0FFF731FC00281ED01048B7
:101BF0000321002201700F49427004240B7ADB019B
:101C00008370C2700C480C630546FAF7B3FD0428D4
:101C100008D9094920461F39FAF7B7FD2946204659
:101C2000FAF7B3FDBDE87040FFF78EBC70BD000051
:101C30002A240020A0050020EF2C00202DE9F041EF
:101C40002948FAF797FD284D00BA113D20F0FF040E
:101C5000287D264E04430020C6E90940E87B2F2852
:101C60000AD004DC28280BD02A281CD104E0A8289C
:101C700010D0AA2817D109E0FFF7E8FB00282FD0E1
:101C8000E87DA97D41EA002044BA0CE0FFF7DEFBC5
:101C9000002825D01448001DFAF76CFD00BA20F08A
:101CA000FF04287E0443306944430F48F462093836
:101CB000FAF760FD0C4F01260E3768B1A04211D033
:101CC000287B000604D50A48007840F0800001E037
:101CD0000848007800F012F93E7300F0F5F8002093
:101CE000BDE8F0810120FBE7D92C0020A0050020F1
:101CF000169701081797010810B5FFF709FC00288F
:101D00001CD0FFF7A3FB002818D00D4A0D4891699D
:101D1000491E0B0E03700B0C43700B0A8370C170CD
:101D200011690B0E03710B0C43710B0A8371C171A6
:101D300008201063BDE81040FFF706BC10BD00008E
:101D4000A00500202A24002070B5FFF7E1FB002841
:101D500030D0FFF77BFB00282CD017480021174A12
:101D60000170417081700821C17091690C240B0EC3
:101D700003710B0C43710B0A8371C1710221017253
:101D800011690B0C43720B0A8372C1720C48146305
:101D90000546FAF7EFFC0C2808D9094920461F39F7
:101DA000FAF7F3FC29462046FAF7EFFCBDE870404D
:101DB000FFF7CABB70BD00002A240020A005002048
:101DC000EF2C002010B5FFF7A3FB002835D01B48EF
:101DD00070211B4B017000214170DC685A6832EAA7
:101DE000040406D006248470282404734173DA6046
:101DF00008E0DAB1134A127BE2B105228270202298
:101E000002734173C1700171417181710A22C27103
:101E1000017241728172C1728173C1730174417424
:101E200012201863BDE81040FFF78EBB02228270BB
:101E30003A22E5E781700173E3E710BD2A24002010
:101E4000A0050020E72C0020054910B500200860FF
:101E50000449FAF79AFC044907200870012010BDD4
:101E600068050020E72C0020A0050020FFF7ECBF4C
:101E700070B5FFF74DFB00281DD00F482022002130
:101E8000027041700D4CC1770320226320700C4812
:101E90000949007840F0800000F06AFC09480546D6
:101EA000FAF768FC216B401A2946FAF76EFC0549DF
:101EB00001200839087370BD2A240020A0050020E5
:101EC00016970108EF2C002010B508490848FAF7CA
:101ED0005CFC08480D220549007840F0800000F0C5
:101EE00047FC05490520087010BD0000E72C0020C4
:101EF0005553425316970108A005002010B504461B
:101F000000F0FCFB200605D504F00F014FF48030F3
:101F1000884001E00120A04002490A68104308609F
:101F200010BD0000640500200A4810B5817C00F156
:101F30001F0429B101202073BDE81040FFF7C4BF82
:101F4000C07C054900F00100486006F02DF9002032
:101F5000F1E70000C82C0020A00500200249002065
:101F60000873FFF7B1BF0000E72C002010B5104840
:101F7000FAF700FC0E4C173478B1A4F11F00007B77
:101F8000000604D50B48007840F0800001E00A48C4
:101F90000078FFF7B3FF012004E0FFF757FA0028AD
:101FA00005D000202073BDE81040FFF78DBF10BDA5
:101FB000D02C0020169701081797010870470000E1
:101FC00070B5134B064600F00F005B68114C03EB35
:101FD00000108368808904EB4304C0F3090595422F
:101FE00000D9154600236A1C07E034F8040B01F8F9
:101FF000010B000A01F8010B5B1CB3EB520FF4D389
:102000004FF440513046FBF71BFD284670BD0000E1
:102010008C04002000600040FFF748BA2DE9FC4125
:10202000574BA3F11C051878A3F1080410F01F000A
:1020300002D001287BD18AE05249D878524E0A78E2
:102040004F49524F1C390628C97810D006DC0128A8
:1020500009D0022814D0032869D14FE007282DD0D9
:102060000F2864D164E04A48206012206DE0002A05
:102070005DD019B1474820600A2066E04648FAE77B
:102080000AB9012979D0022021B100977870002087
:102090009B780CE000967070F9E700990A782AB1F5
:1020A000CA788E7846EA022211440091401C83428D
:1020B000F3D100980178D1B3206042E0BAB3072091
:1020C00021B10096707000209B780CE0009778702A
:1020D000F9E700990A782AB1CA788E7846EA02228E
:1020E00011440091401C8342F3D100980178F1B172
:1020F0002060C278817841EA022026E027480090DB
:102100009878032801D0002008E002F01DF80BE0C9
:1021100000990A780AB111440091401C99788142D3
:10212000F6D10098017811B1206000780DE024E02C
:102130001B48007800281ED01A48009020600178C3
:10214000D9B1C178827842EA0120019005E001A965
:10215000684600F02BF800280DD0A1880198814234
:1021600008D9114980B2A0800978491E084201D1DE
:10217000012028710120BDE8FC810020FBE7000060
:102180007405002005970108A0220020E30200202A
:10219000B8970108CB970108CA970108069801086B
:1021A00006970108CC9701080797010870B5194AEE
:1021B000194C1B4ED378194A2578212B1478154ACF
:1021C000127902D0222B22D116E0AA4201D0A242DB
:1021D0001DD1144A1378144A12780BB9012A16D06B
:1021E00042B1124A02601046114A1288104430600F
:1021F000092009E00F4AF5E7AA4201D0A24206D120
:102200000D4830600D4800880860012070BD002036
:1022100070BD000074050020E4020020E6020020EA
:102220006C050020059701085B050020E3020020F3
:10223000EA020020A022002094970108B697010826
:1022400070B51D481C4C0078A4F1080410F01F0064
:102250000AD0194AA4F11405184B6978127901289B
:1022600006D0022826D109E01348163820601FE066
:1022700001B3A87882421DD2002015E002F08F0041
:10228000020605D500F00F064FF48032B24001E09F
:102290000122824009B900070CD1A868104209D078
:1022A000E868104000D001201870000A58702360C0
:1022B000012070BD002070BD74050020682300203F
:1022C00070B5264B024619461878498810F01F0051
:1022D000A3F11C0604D0012829D0022827D111E03F
:1022E000012924D132B1012000F040FAF08840F0F9
:1022F000020005E0002000F039FAF08820F002002A
:10230000F08029E0187900F08F04200605D504F04C
:102310000F004FF48035854001E00125A54070781D
:1023200028B1200703D0B068284200D009B10020AE
:1023300070BD2AB1204600F0E1F9F06828430AE0B8
:102340003069284208D12046FEF708FA2046FFF7F8
:1023500063FEF068A843F060012070BD74050020A2
:102360002DE9F05F5B480026017811F01F0F70D156
:10237000584F80781C3FB1464FF0010A4FF4803B24
:1023800000287CD0544801783846C07809B9012823
:102390005FD008B1514C6EE0514C6CE0607802287F
:1023A00005D0042848D0052848D0072861D14948DD
:1023B0006179807881423AD1787020794A49B87041
:1023C0000020484A098802E002F80090401C884238
:1023D000FAD30125B8460AFA05F0D8F808100842E1
:1023E00002D02846FEF761FAD8F808100BFA05F07B
:1023F000084203D045F08000FEF757FA6D1C102DFF
:10240000E9D34FF00110C8E902090120C8F8109083
:10241000FEF7FCF9E0794006B8F8060002D540F076
:10242000010001E020F00100A8F8060021E0E078BA
:10243000A17841EA00201DE0E6781AE0CEB9A07844
:1024400000F08F05280606D505F00F010BFA01F004
:1024500003E03AE013E00AFA05F0B96801432046C8
:10246000B960FEF787F92846FEF722FA284600F001
:102470002BF920780444207800288FD120E04D46A5
:1024800087F8019001245E46B9680AFA04F0084210
:1024900002D02046FEF709FAB96806FA04F00842AD
:1024A00003D044F08000FEF700FA641C102CEBD33C
:1024B0004FF00110C7E9020500203D61FEF7A6F9C3
:1024C000044879788078884202D00020BDE8F09FE7
:1024D0000120FBE77405002005970108E3020020B6
:1024E000A02200207B040020E80200202DE9F84F04
:1024F000464800273E460078BA4600F01F00B9461D
:1025000001287DD141491C394878002877D0002026
:1025100000903F4802780846C0780AB9012872D076
:102520008B4608B13B4C66E03B4C64E06078022887
:1025300005D004280DD005281DD0072859D1617970
:102540009BF80100814254D0E078A17841EA002054
:1025500050E02E48A778E67801794FF00009B9429B
:1025600047D18078B04244D1012000902B4810F828
:1025700007A0C6553DE025490879B84239D1A07871
:1025800000F08F085FEA086005D508F00F004FF4EF
:102590008035854002E0012505FA08F58878B042CB
:1025A00015D1DBF8081020462943CBF80810DBF8DA
:1025B0000C10A943CBF80C10FEF7DCF84046FEF7F0
:1025C00077F9404600F080F849EA050911E05645E0
:1025D0000FD119EA050F0CD1DBF808104046A943CA
:1025E000CBF80810DBF80C10A943CBF80C10FEF761
:1025F0005CF9207804442078002897D1009800E006
:1026000001E0BDE8F88F0020F9E700007405002024
:1026100005970108E3020020A02200207B0400208F
:102620004FF0E0214FF480100022C1F880011E48D5
:1026300002601E48006818B14FF40050410001E0EC
:102640000020014608431A490968002901D04FF4C7
:10265000007140EA010002D04FF4807101E04FF0B8
:10266000000140EA0100134940F41C40086013488F
:1026700011494FF05003026048684FF09002036028
:1026800082604FF0D0020A8048F2FF71C1600C49AD
:102690004FF4485008600B494FF0800008604FF03D
:1026A0001400FCF79FBF0000445C00404497010801
:1026B00040970108405C00408C040020505C0040C2
:1026C000005C00404C5C0040FBF7A6B910B5FDF77C
:1026D000BFFFBDE81040FFF7C9BB10B5FEF770FCA7
:1026E000BDE81040FDF7B8BF002903D1024940F012
:1026F00080000860704700004C5C004041F210010F
:10270000FBF79EB9082202490020FFF759BC0000E0
:102710007405002002484FF40071C06802F038B818
:102720004C00002000221146802000F021B800005B
:102730000248034902780020FFF742BC07970108CE
:10274000682300200448016841F008010160016825
:1027500041F0040101607047405C0040024801689C
:1027600021F0080101607047405C004070470000A4
:10277000F0B5174F154606467A6800F00F0002EBD9
:102780000012144B126803EB420400236A1C08E099
:1027900091F801C011F802EB5B1C4EEA0C2C44F8D6
:1027A00004CBB3EB520FF3D3796801EB00114D600A
:1027B000094901EB8000D0F8000CC0F3011001289A
:1027C00003D030213046FBF73BF92846F0BD00002E
:1027D0008C04002000600040005000402DE9F047CC
:1027E000244A1068244F20F01F013B6919433961C6
:1027F00000F4FE41C9431160DFF88090000448F204
:10280000800632D59046D8F8000001042DD510F08E
:102810000F0009EB8005D5F8004C07D1210405D540
:10282000210503D479688989890515D064F31F408F
:1028300003F0A0FC200406D544EA060040F68F71A0
:102840000840C5F8000C2006DDD5344348F60F706B
:102850000440C5F8004CD6E72106EDD5C4F30E01BF
:1028600061F31F4003F086FCE6E7BDE8F047FFF7A1
:1028700051BF0000445C00408C0400200050004028
:102880000020704710B5002A06DA22F00042D21D5F
:1028900022F00703102203E0D21C22F003030C22D3
:1028A00013B19C188C4201D9012010BD024401448F
:1028B0008360C0E90021C91AD018884202D810608C
:1028C0000246F9E70020106010BD000010B5044674
:1028D00003F03CFA002805D04FF6FF71DFF808C07E
:1028E000206800DF10BD00000558010810B504463F
:1028F00003F02CFA002803D0DFF808C0206800DFBE
:1029000010BD0000555701082DE9F04116460F464D
:1029100000281AD1EFF3108000F0010572B60023F1
:102920001A461946184600F007FA040003D131464A
:10293000384600F057FA05B962B6002C05D1EFF31E
:102940000380C00601D105F061FFBDE8F08170474A
:1029500010B528220D490E48F9F789FE06F018F83F
:102960000C4806F00FF805F037FE0B490B4A0C4BEC
:1029700008604FF40071B0FBF1F0116009490122C9
:102980001A60086009490848086010BD9C91010858
:10299000B812002045330108D4050020B0050020FE
:1029A000B4050020B8050020B8100020BC050020A8
:1029B00000B591B0FDF77AFC402801D9402000E035
:1029C00060B181B2684604F0DBFE010006D06846C3
:1029D000FDF794FC10B1012001F040FD04F084FFEC
:1029E0000146402801D9402100E059B16846FDF771
:1029F00069FC38B181B2684604F064FF10B101206F
:102A000001F02CFD01F042FD11B000BD04484178F9
:102A10008078814201D0012070470020704700007B
:102A2000FC00002030B50546EFF3108000F00104F3
:102A300072B6284600F007F8A968081A401E002C54
:102A400000D162B630BDEFF3108101F0010372B620
:102A5000D0E900128A4201D3501A02E08068104483
:102A6000401A002B00D162B67047EFF3108313F0C9
:102A7000010F72B6C0E902214FF000010160416010
:102A800000D162B67047000070B50446EFF31080C5
:102A900000F0010572B6D4E90001884201D001209E
:102AA00000E0002043220EA1FFF72EFFE16820681E
:102AB0000E5C401C2060A16888420CD302D14FF00C
:102AC000010001E04FF000004FF0480204A1FFF7C1
:102AD0001BFF0020206005B962B6304670BD0000C3
:102AE0002E2E5C2E2E5C2E2E5C736F757263655CD1
:102AF0006461706C696E6B5C636972635F6275665A
:102B00002E63000070B50446EFF3108000F001055D
:102B100072B66268E06881546068401C6060A168B9
:102B200088420CD302D14FF0010001E04FF00000C9
:102B30004FF0310209A1FFF7E7FE00206060D4E901
:102B40000001884201D0012000E00020362203A1CC
:102B5000FFF7DAFE002D00D162B670BD2E2E5C2E7E
:102B60002E5C2E2E5C736F757263655C6461706C95
:102B7000696E6B5C636972635F6275662E630000E9
:102B80002DE9F04114460E460746FFF75CFF8442EC
:102B900000D220460546002404E03846FFF774FFC3
:102BA0003055641CAC42F8D32846BDE8F0812DE9CD
:102BB000F04114460E460746FFF734FF844200D228
:102BC00020460546002404E0315D3846FFF79AFFB1
:102BD000641CAC42F8D32846BDE8F08110B5084922
:102BE0004FF400742246A1F11000FFF73EFF224689
:102BF0000449BDE81040A1F11000FFF736BF000006
:102C0000901E0020A020002000F08CBC00F08ABCA8
:102C100002488079002800D001207047942B0020C2
:102C20000248C079002800D001207047942B002072
:102C30000248007A002800D001207047942B002021
:102C40002DE9F0418D212748F9F74BFD8D252648C8
:102C5000F9F790FD254F244C224EB84213D16079EC
:102C6000217941EA00258D2D01D22A4601E04FF05D
:102C70008D0201D84FF08D051B491A48F9F727FC42
:102C8000002086F847008D211748F9F72AFD1649DC
:102C90003846F9F77AFD2571280A607141223546D8
:102CA000F11DE01DF9F713FC95F8490015F8481FD0
:102CB00041EA002004F8480F000A6070A878A0706C
:102CC000E878E0708200074907484C314C30F9F74A
:102CD000FEFB95F8440084F84400BDE8F04100F0A4
:102CE000BBB80000042B0020004F0020646C766B02
:102CF00010B5094C94F84B10102901D3002010BDD9
:102D000004EB81014C31F9F740FD14F84B0F401CE6
:102D1000C0B2207010BD0000004F002010B5054C5F
:102D20004121E01DF9F7DDFC002104F8481F617026
:102D3000E17010BD004F00202DE9F0471A4F814689
:102D40001D4616468846F81DF9F74BFB441CB9F1A1
:102D5000000002D04146F9F7C4FC002006B13080E3
:102D600005B12870F87900281CD0444502D8F91D17
:102D7000224604E0A4EB0800C1194246C91DB9F17E
:102D8000000F06D097F8490097F8483043EA002032
:102D9000308016B14846F9F79AFB15B197F84A000A
:102DA00028700120BDE8F087004F0020014890F80E
:102DB0008C007047004F0020054991F84B202AB144
:102DC00001F14C02026091F84B00704700207047FF
:102DD000004F002002488079002800D00120704771
:102DE000004F00202DE9F04188460746F9F7F9FA2F
:102DF000124D441C41263146E81DF9F772FC412C66
:102E000002D83946224602E0413CE11932462C46BE
:102E1000E81DF9F75CFB84F848804FEA182084F835
:102E2000490000F017F908B1012003E000F014F99F
:102E300000B1022084F84A00BDE8F081004F002074
:102E4000014981F88C007047004F002001498871CA
:102E500070470000004F002070B500221146104658
:102E6000FBF7A6FE092221492148F9F730FB214C46
:102E700022781046627840EA0220A278E17840EA9F
:102E800002401D4D40EA0160A8420FD160792179CE
:102E900041EA0020092804D26079217941EA002220
:102EA00000E0092213491248F9F711FB104928469E
:102EB000F9F76BFC0E49092088802078014660787C
:102EC00041EA0021A07841EA0041E07841EA00614E
:102ED000A94205D16079217941EA0020092804D26C
:102EE000BDE87040024801F031BF70BD8099010813
:102EF000942B002000FC0108646C766B02498871F9
:102F0000084601F023BF0000942B00200249C8713D
:102F1000084601F01BBF0000942B002002490872F4
:102F2000084601F013BF0000942B00202DE9F0416A
:102F30000F4606464FF0FF340025DFF83C8012E0D4
:102F4000705D082102F0E2F984EA0064082041463D
:102F5000002C02DA81EA440400E06400401E10F014
:102F6000FF00F5D16D1CBD42EADB2021204602F0B6
:102F7000CDF9C043BDE8F081B71DC1042DE9F04192
:102F80000E4617462021C04302F0C0F90446002532
:102F9000DFF83C8012E0705D082102F0B7F984EAA6
:102FA000006408204146002C02DA81EA440400E073
:102FB0006400401E10F0FF00F5D16D1CBD42EADB3D
:102FC0002021204602F0A2F9C043BDE8F0810000B4
:102FD000B71DC10470B514460D460646B2F5806FA4
:102FE00007D24FF4EF720AA10020FFF78DFC0220F8
:102FF00070BD00F0E3FC08B1102070BD2A462146E8
:10300000304600F063FE0028F7D01F2070BD00009E
:103010002E2E5C2E2E5C2E2E5C736F757263655C9B
:103020006461706C696E6B5C647261672D6E2D6497
:10303000726F705C6961705F666C6173685F696E06
:1030400074662E6300000000C10600F00F0000D47B
:1030500009307047002070470120704710B50023E9
:103060001A4600F097FA002800D0012010BD10B5D4
:1030700005F0BEF9012800D0002010BD2DE9F04177
:10308000154E144D4FF000643078012806D04FF4EF
:103090009C7212A10020FFF737FC09E0B0780227EC
:1030A00048B14FF49F720DA10020FFF72DFC37703F
:1030B0000220BDE8F081204600F02CF810B13770F6
:1030C0002120F6E704F58064AC42F4D30120B0700F
:1030D0000020EEE700BC0008D80000202E2E5C2E59
:1030E0002E5C2E2E5C736F757263655C6461706C10
:1030F000696E6B5C647261672D6E2D64726F705CBB
:103100006961705F666C6173685F696E74662E6377
:103110000000000070B5214E04463078012806D02A
:103120004FF480721EA10020FFF7EEFB18E04FF471
:103130008060B4FBF0F100FB1141022511B14FF4A6
:10314000847208E0F17869B1D6E902121144A14213
:1031500008D040F20F1212A10020FFF7D5FB357006
:10316000022070BD1C4A1D49944201D38C4211D3E8
:103170000121F170C6E90240204601F0FDF8252842
:1031800003D00028EDD0357070BD204600F016FC4D
:103190000028F9D03570202070BD0000D800002034
:1031A0002E2E5C2E2E5C2E2E5C736F757263655C0A
:1031B0006461706C696E6B5C647261672D6E2D6406
:1031C000726F705C6961705F666C6173685F696E75
:1031D00074662E630000000000C0000800FC0108B7
:1031E0004FF480607047000010B5272804D20649CC
:1031F00051F82000002805D1ED2204A10020FFF79E
:1032000083FB0AA010BD00009C9001082E2E5C2EAE
:103210002E5C2E2E5C736F757263655C6461706CDE
:10322000696E6B5C6572726F722E63000000000045
:1032300001460120272901D20148405C7047000067
:10324000010000202DE9F04789460446804600E051
:10325000641C2078402802D00028F9D163E060780F
:10326000622847D012DC522853D008DC422841D0D3
:10327000442848D0482840D04D2817D133E054285E
:103280003ED0552832D0562810D13FE0722840D089
:1032900006DC642837D068282FD06D2806D122E0BC
:1032A00074282DD0752821D076282FD020A520462F
:1032B000F9F797F807462846F9F793F80646A01954
:1032C000C11908EB0902891E91422BD2BA1EA11C1A
:1032D000F9F768F9324629462046F9F7F8F82078D8
:1032E0000028B6D11FE000F023FF01E000F028FF26
:1032F0000546DCE700F0C6FEFAE700F0F5FEF7E76A
:1033000000F01AFFF4E700F0EBFEF1E700F020FF19
:10331000EEE7094890F82A0010B1074D2A35C6E7B4
:10332000064DC4E73C44A4EB0800BDE8F08700006C
:103330004552524F5200000016900108C8A40108DF
:10334000704700002DE9F0411E4615460C46074621
:1033500005F0CCFB2C4890F8201003290FD0022C4C
:103360000FD004B3012C0AD10168A94207D190F80B
:103370002210A9B300214A1E016082608161BDE86C
:10338000F0810068A842FAD1304605F001F9044600
:10339000304605F001F90646384602F0C3FF034601
:1033A0002246314617E0384602F0BCFF0328E6D03B
:1033B000304605F0EBF88007E1D4384602F0B2FF62
:1033C0000746304605F0E4F80446304605F0E4F8D8
:1033D00001463B4622462846BDE8F04104F076B857
:1033E00028220A490848F9F742F903F04DFD084838
:1033F0008178012903D14178022900D18170BDE88B
:10340000F04103F049BD0000B81200209C91010872
:10341000FC0000202DE9F0411D4E0446174696F8A9
:1034200022008846550260B92946404602F036FF20
:10343000032802D0214603F0F3FF96F8220000286B
:103440000FD07068A0420CD8F068A0420BD008D909
:103450003069401C00D134613069A04200D204467A
:103460003461BDE8F081F0692A461044F061E0194A
:10347000F06096F8230020B1BDE8F041002004F090
:1034800075B841462046BDE8F04103F06DBF00002D
:10349000B8120020F0B518A185B00968049102782F
:1034A000002104AB5C5C944224D0491C0329F9D36D
:1034B00012A1002291E878006F46815C8DE87800C7
:1034C000A1F1610CBCF1190F14D9202901D20529F1
:1034D00010D14FF0000C17F80CE08E450AD00CF11B
:1034E000010CBCF1100FF6D3521C0B2AE5D30120BE
:1034F00005B0F0BD0020FBE7E5002000222A2B2CC0
:103500002E2F3A3B3C3D3E3F5B5C5D7C10B5044852
:10351000F9F730F908B1012010BD0020FCE70000E8
:103520002690010870B50D4D00202C7874B1002153
:103530002970A97809B100F07FFB022C05D06978C9
:10354000032902D0002800D1242070BD4FF4A272BC
:1035500003A10020FFF7D8F9022070BDA8000020C9
:103560002E2E5C2E2E5C2E2E5C736F757263655C46
:103570006461706C696E6B5C647261672D6E2D6442
:10358000726F705C666C6173685F6465636F6465BD
:10359000722E6300FEB51C460546302901D301207A
:1035A00000E00020422215A1FFF7AEF90C2205F140
:1035B00020016846F8F78BFF1D4E0CB900203071D2
:1035C0001C49019888420BD11B490098884201D1BF
:1035D0000220FEBD1849FC3988420CD10120FEBDF5
:1035E000284604F0A1FE18B11CB90120307100E09A
:1035F0000CB10320FEBD0020FEBD00002E2E5C2E6F
:103600002E5C2E2E5C736F757263655C6461706CEA
:10361000696E6B5C647261672D6E2D64726F705C95
:10362000666C6173685F6465636F6465722E6300C6
:10363000A8000020089996978F9E939B2DE9FF5F25
:103640004FF00004DDF838905FEA03089346074620
:10365000254613D05FEA090010D00020C8F800000A
:103660000646C9F80000FFF7F5FCDFF8CCA088B1EA
:103670003248022F04D0032F0AD042E06C2254E0DB
:10368000BBF1000F04D00199814201D01B2439E025
:10369000064612E0FFF7E0FC90B3012F02D0032FA3
:1036A0000ED02EE04FF00061BBF1000F04D0019866
:1036B000884201D01A2425E00E46DAF8005021E0B5
:1036C0001F48F9F757F8D8B100F10C0506E005F1ED
:1036D0000800F9F74FF801280DD014352846F9F7FE
:1036E00049F80028F3D1281DF9F744F80028EED155
:1036F0001448056806E02846F9F73CF80646F7E75F
:10370000FFE71C24FFF78CFA08B9012F04D02CB175
:10371000204604B0BDE8F09F1C24F9E725B1C8F8A5
:103720000060C9F80050F3E7AE2207A10020FFF7C0
:10373000EBF80220EDE700009891010800C00008B6
:10374000269001085C9101082E2E5C2E2E5C2E2EF8
:103750005C736F757263655C6461706C696E6B5CE1
:10376000647261672D6E2D64726F705C666C61733C
:10377000685F6465636F6465722E63002DE9F041D4
:103780001C490646002548789046012804D00228A6
:1037900004D003282CD103E0174D22E0174D20E080
:1037A000087928B31648F8F7E5FF08B300F10C04D0
:1037B0000CE0B74209D8201DF8F7DCFFB04204D373
:1037C000201DF8F7D7FF05460AE014342046F8F725
:1037D000D1FF0700EDD1201DF8F7CCFF0028E8D17C
:1037E00035B106EB0800A84202D30120BDE8F08104
:1037F0000020FBE7A800002000BC000800FC010836
:103800002690010810B50C4C207830B1BD220BA1D8
:103810000020FFF779F8022010BDFF223021144864
:10382000F8F757FF0120207000206070A060E06072
:103830002061A070E07010BDA80000202E2E5C2E2C
:103840002E5C2E2E5C736F757263655C6461706CA8
:10385000696E6B5C647261672D6E2D64726F705C53
:10386000666C6173685F6465636F6465722E630084
:103870003C0800202DE9FE4F414F06468946387826
:103880001546012807D0D2223EA10020FFF73CF8C0
:103890000220BDE8FE8FF8784FF0010A18B9FE60EB
:1038A0003E6187F803A0B8784FF00308002853D191
:1038B00039698E4201D1012000E00020294439619C
:1038C00030B3B868C0F13004AC4200D914463A496C
:1038D000224608444946F8F7FAFDB8682D1B2044F3
:1038E000A1442644B86030282CD302D14FF0010007
:1038F00001E04FF000004FF0F40222A1FFF704F8BE
:10390000D7E9021201232C48FFF744FE787001E04A
:1039100087F8018001A8009002AB01227878F9684D
:10392000FFF78CFEF0B9B87840F20D1280F001007C
:1039300014A1FEF7E9FF019800F01AF990B987F891
:1039400002A001E0B87880B1D7E902201A4900F05E
:1039500073F838B9B87840B12A464946304600F085
:103960006BF810B187F8008093E72A464946304645
:10397000FFF704FF00288CD002203870132088E75E
:10398000A80000202E2E5C2E2E5C2E2E5C736F75F0
:103990007263655C6461706C696E6B5C64726167B4
:1039A0002D6E2D64726F705C666C6173685F646508
:1039B000636F6465722E63003C08002010B5EFF35E
:1039C000108101F0010472B6FAF758F8002C00D10A
:1039D00062B610BD2DE9FC41164F05467E787C6825
:1039E000AE4220D04FF0000876B1201DF8F7C2FE9D
:1039F0000146CDF800800023324604F11800CDF8CE
:103A0000048002F0FBFC88B165B12046F8F7B2FEF5
:103A1000CDE900580146002304F11800FA6802F0CD
:103A2000EDFC28B17D700020BDE8FC810C20FBE797
:103A30000B20F9E76C0000202DE9F0473D4E0546CC
:103A40000024707817468846012807D07C223AA1C6
:103A50000020FEF759FF0220BDE8F087F0784FF014
:103A6000020A50B9284602F0ABFA040002D086F8E8
:103A700001A05CE00120F0707561B068B5FBF0F169
:103A800000FB11516A1A7169B1FBF0F300FB1310CE
:103A9000081A824204D0284600F024F90400E6D136
:103AA0003069B5FBF0F100FB11516A1A7169B1FB85
:103AB000F0F300FB1310081A824204D0284602F0EB
:103AC0007FFA0400D3D1B1464E46D6E9010108443D
:103AD000A84207D8284600F005F9040002D089F86A
:103AE00001A024E00FB3D6E903010844A84204D89A
:103AF000284602F065FA0400F1D17068B168B14659
:103B0000281A0E1AB74200D23E46184932460844D7
:103B10004146F8F7DCFC36B1002089F80200354454
:103B2000B044BF1BD0E70120F7E7C9F81450204686
:103B300092E70000BC0000202E2E5C2E2E5C2E2E64
:103B40005C736F757263655C6461706C696E6B5CED
:103B5000647261672D6E2D64726F705C666C617348
:103B6000685F6D616E616765722E63006C0800208E
:103B700070B51F4D0446687808B1482226E024B38A
:103B8000606810B3A06800B3E068F0B12069E0B1EC
:103B90006069D0B1A069C0B1E069B0B1FF224FF453
:103BA00080611448F8F795FD0126AE700020E8709A
:103BB0006860A860E8602861C5E90504206880475E
:103BC000040008D1287838B110E04E220AA1002064
:103BD000FEF79AFE022070BDA869006980470400C4
:103BE00004D0A86940688047204670BD6E70FBE72E
:103BF000BC0000206C0800202E2E5C2E2E5C2E2E89
:103C00005C736F757263655C6461706C696E6B5C2C
:103C1000647261672D6E2D64726F705C666C617387
:103C2000685F6D616E616765722E6300014908709F
:103C300070470000BC00002070B5154C002560786E
:103C400010B1012807D00AE0CD2212A10020FEF712
:103C50005BFE022070BD002000F044F80546A0691C
:103C6000406880470646FF224FF480611648F8F707
:103C700030FD0120A0700021E1706160A160E16071
:103C80002161616161700EB1304670BD284670BD22
:103C9000BC0000202E2E5C2E2E5C2E2E5C736F75C9
:103CA0007263655C6461706C696E6B5C64726167A1
:103CB0002D6E2D64726F705C666C6173685F6D61F0
:103CC0006E616765722E63006C08002010B5EFF31B
:103CD000108303F0010472B6FBF7B4FC002C00D192
:103CE00062B610BD70B50E4E05460024B07840B9DE
:103CF000B0690C498368D6E901029847044601205F
:103D0000B070FF220748B168F8F7E3FCB068B5FB74
:103D1000F0F100FB1150281A7060204670BD0000C1
:103D2000BC0000206C08002010B50648F8F722FD02
:103D300028B100F5CE70F8F71DFD002801D101482B
:103D40000C3810BD2690010810B50948F8F712FD8F
:103D500030B190F8A11190F8A02152EA012005D1CC
:103D600003481038C178827842EA012010BD000073
:103D7000269001080346012201490020184700004F
:103D8000E01200202DE9F04105461448F8F7F2FC56
:103D900000F10C04124F07E0AE4204D8201DF8F7E2
:103DA000E9FCA8420CD214342046F8F7E3FC0600E4
:103DB000F2D1201DF8F7DEFC0028EDD1BC684CB133
:103DC0002046F8F7D7FCF86004F11000BDE8F04198
:103DD000F8F7D0BC0020BDE8F08100002690010873
:103DE0006C000020002070470248006840F300008B
:103DF000401C7047080C01402DE9F041534886B043
:103E0000816941F004018161816901F0040104913B
:103E1000816941F008018161816901F00801049123
:103E2000816941F010018161816901F01001049103
:103E3000816941F020018161816901F020010491D3
:103E4000816941F001018161816901F00101049101
:103E50003F494A6822F0E06242F000724A6081699C
:103E600041F00801816180693A4900F0080004903E
:103E70004FF4004008600124364FCDE900040325CB
:103E8000103F694603953846F9F74CFFDFF8C880C4
:103E90006602002231464046FAF728F8CDE9006470
:103EA000694640460395F9F73DFF00224021384618
:103EB000FAF71CF84020CDE900046946039538461E
:103EC000F9F730FF012231464046FAF70FF8CDE905
:103ED0000064694640460395F9F724FF0122314604
:103EE0004046FAF703F8CDE9006469464046039579
:103EF000F9F718FF012211463846F9F7F7FF1120AC
:103F0000CDE90040694638460294F9F70BFF2602D6
:103F1000002231463846F9F7E9FFCDE900646946E9
:103F200038460395F9F7FEFE0220CDE900606946A8
:103F300003954046F9F7F6FE00F0D0FC07480490E0
:103F4000401E0490FCD106B0BDE8F0810010024094
:103F500000000140100C01400008014040420F00E9
:103F60007047000008B1012200E000224FF4007108
:103F70000148F9F7BBBF00000008014008B1012269
:103F800000E000224FF400710148F9F7AFBF0000D4
:103F90000008014008B1012200E000224FF4007146
:103FA0000148F9F7A3BF000000080140092800D923
:103FB00027303030C0B270471CB501AA69460A48A4
:103FC000F9F7FEFC002807D00198402805DD3222D1
:103FD00006A10020FEF798FC1CBD4022002000999D
:103FE00004F006F81CBD0000F42C00202E2E5C2EE0
:103FF0002E5C2E2E5C736F757263655C7573625CEC
:104000006869645C757362645F757365725F686923
:10401000642E630010B5134900200860124908603F
:1040200012490860124908604BF6FC314FF00060FD
:10403000FEF77CFF0B4908600E490F48FEF776FF3C
:10404000094908604FF480610C48FEF76FFF07498B
:1040500008604FF480610A48FEF768FF0449086071
:1040600010BD00002C000020300000203400002093
:1040700038000020FC3B010000C0000800BC000824
:1040800000FC0108004870473C0000200120C106E8
:10409000064A096A914200D000204FF00061044AAC
:1040A000496A914200D0002070470000939D939B85
:1040B0000899969700B5FFF7E9FF08B9002000BD01
:1040C0004FF00060806AFAE701480068704700001E
:1040D0002C000020014800687047000030000020DC
:1040E00000487047C8060020004870478606002038
:1040F00001200649064A096A914200D0002003497E
:10410000044A496A914200D00020704700C000086C
:104110008F9E939B0899969700B5FFF7E9FF08B922
:10412000002000BD0148806AFBE7000000C00008D5
:10413000004870477906002000487047A706002015
:10414000004870474806002000487047D10600200C
:10415000004870474600002010B5FFF75BFF054898
:1041600001F054F801F062FE01F0E4FF01F0B6FF47
:1041700010BD00002806002010B5124C207830B188
:10418000632211A10020FEF7BFFB022010BD002218
:1041900011461046FAF70CFD08B11D2010BD002095
:1041A0006070A070E070A060E060207120616061CC
:1041B000A0614FF480611248F8F793FA0120207053
:1041C000002010BDD80000202E2E5C2E2E5C2E2E3E
:1041D0005C736F757263655C6461706C696E6B5C57
:1041E000647261672D6E2D64726F705C6961705FBF
:1041F000666C6173685F696E74662E630000000010
:104200006C0C002010B50024FFF79EFD0C4B0D4AEE
:104210001968002913D109E0098829B1814203D125
:1042200052F82400186006E0641CE4B252F824102E
:104230000029F1D11868002801D10348186010BD89
:10424000CC040020D00400208C99010810B5002374
:1042500005E0DC0021FA04F4C4545B1CDBB2934299
:10426000F7D310BD2DE9F05FDFF8C89004468B4608
:1042700099F800002E4D17464FF00061012808D034
:104280004FF4BD722CA10020FEF73EFB0220BDE8DA
:10429000F09F8A46544501D3AC4201D32220F6E771
:1042A000FEF7DAFEA0B32E1B301FB84201D93A4602
:1042B00000E0321F5946D9F81800FEF75FFE80462D
:1042C000C9F818002A48844209D22A48A4F1006497
:1042D00020443A465946F8F7FAF80020D7E7E019A3
:1042E000A84223D10BEB060010F8015C001FF8F781
:1042F00041FA65F31F604D46804501D02620C6E790
:104300005A4639462046FFF7E1FC10B11F20BEE7B0
:104310000CE04FF4806217495046FEF75BFE0446FE
:10432000FFF778FE012068702046B0E72520AEE751
:1043300000BC0008D80000202E2E5C2E2E5C2E2EF5
:104340005C736F757263655C6461706C696E6B5CE5
:10435000647261672D6E2D64726F705C6961705F4D
:10436000666C6173685F696E74662E63000000009E
:10437000000400086C0C002070B513490446114875
:1043800009784FF00065012907D04FF4DE720FA1C4
:104390000020FEF7B9FA022070BDAC4201D384427E
:1043A00001D3222070BDFEF757FE48B1AC4207D1C1
:1043B0002846BDE870404FF480621249FEF70ABEFD
:1043C000252070BD00BC0008D80000202E2E5C2ED9
:1043D0002E5C2E2E5C736F757263655C6461706C0D
:1043E000696E6B5C647261672D6E2D64726F705CB8
:1043F0006961705F666C6173685F696E74662E6375
:104400000000000000C000080246084810B500EB9C
:10441000810050F8040C002806D0114601F06EFA15
:10442000BDE8104001F05ABA10BD0000F42A002087
:1044300008490748086001F091FC00F087F9002264
:104440001146054800F0CAF900F086F9FEE70000C1
:1044500000C0000808ED00E0AD4401080249012257
:104460004A700871704700004C0000200249012288
:104470000A70C870704700004C00002002490122F9
:104480008A704871704700004C00002002484FF4C9
:104490000061C06800F07CB94C0000200248042193
:1044A000C06800F075B900004C00002000273E46AF
:1044B0003D464FF01608FEF7C3FBFEF748FA00F042
:1044C00087F98C4CE060FFF797FC3846FFF756FD04
:1044D0003046FFF747FD2846FFF75CFDF9F7EEF998
:1044E0008548F8F747F900B18047FFF78BFE83480E
:1044F000006810B1C06800B180477F485E388146CF
:10450000F8F738F9800702D5012002F07FF9484614
:10451000F8F730F9C00702D00120FFF787FBFFF75B
:104520001BFE03F005FEFEF741FCE8B3002004F09B
:104530005BF9002003F01CFD01210023A346E1717B
:104540004FF00B0A1A466E4800F06EF9032100F096
:1045500073F94FF000094FF0FF32002140F6372089
:1045600000F028F984B2A00507D59BF8060010B129
:10457000012000F0DDF8FCF70BFE600702D50220F9
:1045800002F09EFEE00616D5032002F099FE002000
:10459000FFF7E6FC002003F0EBFC0020FFF7EEFC49
:1045A0000020FFF7DFFC00E003E00020FFF7F2FC53
:1045B000FEE70120BBE7A00602D5032002F080FE43
:1045C000200501D5FEF7F4F9E0073AD05A2004F0AF
:1045D00037F99BF8070040B301280CD003281BD003
:1045E00005282ED18BF807900020FFF7B9FC00209A
:1045F00003F0BEFC25E0BAF1000F04D0AAF10100DF
:104600005FEA000A1DD1012003F0B2FC03218BF800
:1046100007104FF0160814E003F0A2FC30B101209F
:10462000FFF79EFC02218BF807100AE0B8F1000F9B
:1046300004D0A8F101005FEA000802D10120FFF7D1
:104640008FFCA00787D59BF800005C4650B1E0784E
:10465000012824D0022822D0002784F80090384670
:10466000FFF78CFCA07850B16079012825D0022892
:1046700023D0002584F802902846FFF78BFC607851
:1046800000283FF468AF2079012824D0022822D0E6
:10469000002684F801903046FFF764FC5BE7012FA9
:1046A00001D0012700E00027002FD8D10128D6D162
:1046B00084F8009084F80390D1E7012D01D0012502
:1046C00000E00025002DD7D10128D5D184F8029033
:1046D00084F80590D0E7012E01D0012600E00026E5
:1046E000002ED8D10128D6D184F8019084F8049006
:1046F000D1E700004C00002080900108CC0400208D
:104700003573010801498871704700004C00002092
:10471000FFF778B810B5044640F20111F7F7E1FF52
:1047200000F008FE00202070BDE81040FFF76AB8D6
:1047300080B2DFF808C000DF002070477154010824
:10474000DFF804C000DF7047595C01080149002010
:1047500008607047A00400200020704789B2DFF88D
:1047600008C000DF00207047055801080248DFF844
:104770000CC000DF004870470029002045570108A1
:10478000DFF808C000DF002070470000555701081F
:1047900010B50C460146EFF30380C006A0B202D06C
:1047A000FFF732FE02E0DFF808C000DF204610BD50
:1047B000D154010891B280B20022DFF80CC000DFB2
:1047C000DFF808C000DF704731550108795401084F
:1047D000DFF804C000DF70474D5D010870B50D4C77
:1047E00006460025206860B100231A460B2130469A
:1047F000DFF824C000DF05462068401C2060284602
:1048000070BDF7F7E7FC054A05493046DFF814C0EC
:1048100000DFF1E7A0040020D15C0108582500204A
:104820000A200300C95A0108024A014600205160CB
:1048300070470000A004002005480023054A81605D
:1048400048F60B010448DFF814C000DF0020704771
:10485000A004002078280020655C0108D15C0108D4
:10486000012805D0022805D003280BD0C72202E07A
:10487000BB2200E0BF2204A10020FEF745F8FBF7B1
:10488000BDFAFEE7C322F6E72E2E5C2E2E5C2E2EFE
:104890005C736F757263655C72746F735C525458AD
:1048A0005F436F6E6669672E63000000FEE70000DD
:1048B000074801684FF0E020416100218161072134
:1048C00001610448016841F07F4101604017704771
:1048D0006499010820ED00E07047704770B58EB014
:1048E0000CA907A8F9F75AFC0B98B0F5005F05D0A2
:1048F000B0F5205F23D0B0F5405F22D001202549DC
:10490000274D00240968B1FBF0F02349B0FBF1F614
:104910002248C5E90004761EC5E903642148AC605D
:104920006C61816941F400618161806900F400601B
:104930000D902846FAF731F828B1532223E00220DF
:10494000DDE70420DBE71648FAF743F808B15922FF
:1049500019E07020CDE900040294039404940594B6
:10496000002269460E480694F9F7AFFF08B16622A7
:1049700009E029687008486300210948FAF746F8F9
:10498000002804D06D2208A10020FDF7BDFF0EB065
:1049900070BD0000D402002000127A00002C0140FB
:1049A000E41D0020001002402E2E5C2E2E5C2E2EC8
:1049B0005C736F757263655C6869635F68616C5C8A
:1049C00073746D33325C73746D33326631303378A7
:1049D000625C6770696F2E63000000002DE9F84F7C
:1049E0008A460C9C054600EB0A08874E0020206092
:1049F000F078DFF818921F46934600281CD000205C
:104A0000F07099F8002009F104011846F7F75FFDEE
:104A100099F800002168074408442060706899F8FC
:104A20000220010C99F80130090443EA02200143F5
:104A300099F8000008447060DEE028780A2827D042
:104A40000D28FCD03A281BD03178002978D0FEF709
:104A5000FBFA00F00F02707819F800301A4309F8D9
:104A60000020401CC2B2727099F800000090401DF6
:104A7000824264D3654A0021084613785B1D0EE02C
:104A800025216248F7F72DFE002030707070B0705D
:104A9000B1E012F800C0401C6144C9B2C0B2834208
:104AA000F7D809B104204CE0B078002847D10120A4
:104AB000B07099F8021099F8012042EA012149BA30
:104AC00089F80110090A89F8021099F8030030B139
:104AD000012836D002284AD0042830D161E04B4961
:104AE000252201F12500F7F7F2FC706899F8022001
:104AF00099F80130010C090443EA02221143814272
:104B000003D00120F07002201BE009F104013846B7
:104B1000009AF7F7DCFC99F8000021680744084484
:104B20002060706899F80220010C99F8013009049E
:104B300043EA0220014399F800000844706056E0FF
:104B40004CE0814621680A98FF22411A3846F7F75F
:104B5000C0FD20687168091A0B980160A8EB050177
:104B6000AAEB01014846CBF80010BDE8F88F216898
:104B70000A98FF22411A3846F7F7ABFD20687168A2
:104B8000091A0B980160A8EB0501AAEB0101CBF80B
:104B9000001099F8041099F80500090341EA001083
:104BA00019E021680A98FF22411A3846F7F791FD6B
:104BB00020687168091A0B980160A8EB0501AAEB3F
:104BC0000101CBF8001099F8051099F8042042EA89
:104BD000012040BA000470600220C6E771782529E0
:104BE0000FD2FEF731FA7278010109F8021030781D
:104BF00038B1002030706D1C45457FF41EAF002099
:104C00009FE70120F6E70000F40000206C10002070
:104C100070B5012A12D0022A10D0002301248C4042
:104C20000F268D00082911D3203D4168AE40B143C5
:104C300041604168AB400B4343600FE00823EDE760
:104C4000046170BD022AFCD1446170BD0168AE40B0
:104C5000B14301600168AB400B430360012AF1D10D
:104C6000EEE770B5012A12D0022A10D000230124E9
:104C70008C400F268D00082911D3203D4168AE409D
:104C8000B14341604168AB400B4343600FE00823F0
:104C9000EDE7046170BD022AFCD1446170BD01687A
:104CA000AE40B14301600168AB400B430360012A91
:104CB000F1D1EEE710B50F2303248A00082909D3A8
:104CC000203A4168934099434160416894400C43C5
:104CD000446010BD016893409943016001689440AD
:104CE0002143016010BD10B50F2303248A00082959
:104CF00009D3203A41689340994341604168944008
:104D00000C43446010BD0168934099430160016801
:104D100094402143016010BD10B50F2307248A0081
:104D2000082909D3203A416893409943416041687A
:104D300094400C43446010BD016893409943016066
:104D4000016894402143016010BD000070B5134D0F
:104D50000646EFF3108000F0010472B62846F8F71B
:104D60008DFE04B962B6002816D1FF2210210C482E
:104D7000F7F7AFFC092231460948F7F7A8FBEFF334
:104D8000108000F0010472B6054A10212846FAF797
:104D900059FC002C00D162B670BD000000FC010877
:104DA000A02B00202DE9F05FDFF800810446DFF83A
:104DB000F89098F8000015468B46012805D0A322EC
:104DC0003BA10020FDF7A0FD3FE04FF48060B4FB65
:104DD000F0F300FB1343014602260BB1AC222EE098
:104DE0000A46954204D3B5FBF0F302FB135008B119
:104DF000B32224E0B4FBF1F002FB104028448842C7
:104E000001D9BA221BE098F8020078B998F803009B
:104E100050B1D8F80800844204D3D8F80C100844E4
:104E2000A04203D8C8220AE0C22208E098F8040091
:104E300070B1D8E904010844A04209D0D0221CA1D5
:104E40000020FDF761FD88F800600220BDE8F09FBA
:104E500025486719844202D22448874217D84FF068
:104E6000010A88F804A02A4659462046C8E90445A4
:104E7000FFF7F8F9252804D00028E7D088F800606B
:104E8000E4E75A4629462046FEF720FF18B188F885
:104E900000601F20DAE74F4503D3FFF7BBF888F81F
:104EA00001A00020D2E7000000BC0008D8000020CC
:104EB0002E2E5C2E2E5C2E2E5C736F757263655CDD
:104EC0006461706C696E6B5C647261672D6E2D64D9
:104ED000726F705C6961705F666C6173685F696E48
:104EE00074662E630000000000FC010800C000088A
:104EF0004FF480607047000070B514460E460546BA
:104F000020444FF48061B1EB402F07D240F265227C
:104F10000AA10020FDF7F8FC002070BD4FF40071DD
:104F20003046F7F7DEFB35B91148124900694201F6
:104F30003046F7F7CCFA600270BD00002E2E5C2ED2
:104F40002E5C2E2E5C736F757263655C6461706C91
:104F5000696E6B5C647261672D6E2D64726F705C3C
:104F60007669727475616C5F66732E630000000071
:104F700014010020E419002010B50B464FF4007412
:104F800008B1002010BD224602491846F7F79FFAE3
:104F9000204610BD241700202DE9F8430C460021BF
:104FA0000E46009110B10020BDE8F883DFF8C880FC
:104FB00098F80000012845D0022845D00027204657
:104FC0002EA103F067F9054660192FA103F062F9DD
:104FD000054460192E4903F05DF9054460192DA1BF
:104FE00003F058F9054460192BA103F053F9054467
:104FF0006019B8F8021003F056F90544601925A1AC
:1050000003F048F9054477B1601925A103F042F98E
:1050100005446019394603F03DF9054460191DA1A6
:1050200003F038F905446846FDF7C6FE070021D0B5
:105030000098F8B160191DA103F02CF905444FF454
:10504000007811E01CA7BAE71EA7B8E7009850F84F
:105050002610761CF6B2601903F0F4F805446019C6
:105060000CA103F017F90544BE4203D205F10A0072
:105070004045EBD3284697E70C0100204173736548
:1050800072740D0A0000000046696C653A20000049
:10509000E01400200D0A00004C696E653A20000003
:1050A000536F757263653A200000000048657864AC
:1050B000756D70730D0A0000426F6F746C6F6164E0
:1050C000657200004170706C69636174696F6E0095
:1050D0000A4608B1002070474FF40071104602F0F4
:1050E00043BC00002DE9F0470D46044603F0A0FB49
:1050F0000646FEF779F807463046FEF799F8064669
:1051000014B10020BDE8F08728461B4903F0C2F81F
:1051100004462819394603F0BDF80444281917A19C
:1051200003F0B8F8144904442819C91F03F0B2F871
:10513000044400274FF00108DFF8449013E0B8F171
:10514000000F04D128190FA103F0A4F80444F007BC
:1051500007D059F82710281903F09CF804444FF0A1
:10516000000876087F1C0EB1052FE8D3281903A18B
:1051700003F090F82044C5E7CB9101080D0A000028
:10518000DC9201082C20000070B50C4608B100200C
:1051900070BD4FF4007529462046F7F7A2FA07487C
:1051A000F7F71FF9024605492046F7F790F9294617
:1051B0002046BDE87040FEF745B80000D3910108D5
:1051C0002DE9F041084D06460F462846F7F709F944
:1051D000044616B10020BDE8F08102462946384653
:1051E000F7F775F92046F6E75CA4010810B50B4601
:1051F0004FF4007408B1002010BD22460249184641
:10520000F7F765F9204610BD2415002006490B6804
:10521000091D0A68091D09680360C0E901214FF0F2
:10522000A531C16070470000E8F7FF1F10B50846C0
:1052300054022146F7F755FA204610BD70B5244DAB
:105240004FF0FF346878A978884201D0012000E04F
:1052500000204FF4FD721FA1FDF756FB687802286D
:1052600003D0C0B101281AD022E027484FF4FA74C5
:1052700090F82000E0B101280AD0022818D00328B5
:1052800016D04FF4037213A10020FDF73DFB0FE091
:1052900044F620640CE0A878022808D008E0A8783A
:1052A000022801D018B103E040F6C41400E0002445
:1052B000601C05D14FF4077206A1FDF725FB002401
:1052C000A868A04201D9012070BD002070BD000077
:1052D000FC0000202E2E5C2E2E5C2E2E5C736F7533
:1052E0007263655C6461706C696E6B5C647261674B
:1052F0002D6E2D64726F705C7666735F6D616E618A
:105300006765722E63000000B812002070B5034676
:1053100000200246012609E0DC0704D08D1A6D1E2C
:1053200006FA05F420435B08521CD2B28A42F3D33A
:1053300070BD000010B525210748F7F7D2F90648DF
:1053400025212530F7F7CDF904480021416001708F
:1053500041708170C17010BD6C100020F4000020FD
:105360000146EFF3108000F0010272B6086808B140
:1053700003680B60002A00D162B6704770B50D4615
:10538000002812D04FF6FF71084C884204D22268E0
:105390000146104600F0D4FA20684570044800F039
:1053A000F8F8BDE8704000F087BB70BDB404002081
:1053B0000C2900207047000070B51A4EF0680028D4
:1053C0002ED0B08A401EB082002523E0A06838B1FC
:1053D00061684160606810B1A16881606560A56026
:1053E00010482146183800F0CFFAA08AB0826078C1
:1053F000042804D10C49E08A09880844A0820120CD
:10540000607084F82000E068F060E06808B1066130
:10541000E5602561B08A002802D1F468002CD5D15E
:1054200070BD000024290020BC04002070B50400D9
:105430000FD00D4DA17801262868827891420CD9B1
:1054400000F0BEFA286846702046BDE8704000F0C3
:1054500033BB064800F09DF8F7E766702146BDE8CB
:105460007040024800F090BAB40400200C290020DB
:105470000321FFF783BF000001480068408B70479D
:10548000B404002010B50446008B084320836278E2
:10549000618B062A16D0052A17D1084215D001EAD9
:1054A0000002628388432083204600F0ADFA012089
:1054B0006070022084F820002146BDE810400348B7
:1054C00000F062BA31EA0002ECD010BD0C290020D5
:1054D000024670B5154800EB810050F8044C002CD2
:1054E00022D0208B104320836178658B062918D049
:1054F000052919D1284217D005EA00016183A84384
:105500002083204600F080FA208BA84320830120CE
:105510006070022084F820002046BDE87040FFF74C
:1055200085BF35EA0001EAD070BD0000F42A0020F2
:1055300070B503460C480D460468208B42B133EA2F
:10554000000101D0062109E098432083022070BDAC
:1055500010EA030101D06183F6E705216383284641
:10556000FFF70CFF012070BDB4040020814202D37C
:1055700042688A4201D801207047EFF3108212F08E
:10558000010F72B603680B60016000D162B60020A3
:10559000704701464068002342684A600A78022A40
:1055A00005D0012A03D0032A01D043607047426826
:1055B0000AB19160436083607047000070B5044693
:1055C00000201546207001226270A1706060A0600A
:1055D000E0602061A082E0822083608384F8200064
:1055E00084F82100608C18B90448FFF7B9FEA06266
:1055F00029462046BDE8704000F004B8382A002053
:105600007047000010B5428C920803D10E4A1288F0
:10561000C2F38D02836A03EB82035A0700D51B1F76
:105620004FF0807243E9021200221446403B43F8D7
:105630002240521C0E2AFAD3C2691A624362C16226
:10564000806A0249016010BD60990108A52E5AE2E6
:105650000349044A0968C882128810448882704746
:10566000B4040020BC0400200748016807488A8A67
:105670000088CB8A101A1A4480B28A82010402D4AC
:105680000421FFF77BBE7047B4040020BC04002057
:105690002DE9F041044640680F46002620B16078AD
:1056A000022818D0A08980B3A089E189884241D21C
:1056B000208904EB8000076172B6A089401CA0819C
:1056C00062B62089401C80B22081E189884200D1E5
:1056D0002681BDE8F08166702046FFF75AFF80F80A
:1056E00020602189054604EB8101C069086172B61A
:1056F000A089401CA08162B62089401C80B2208114
:10570000E18988420BD1268109E0FFE72046FFF7B7
:1057100040FF0546C0690421076085F8201001207C
:105720006870284600F070F92946BDE8F041044849
:1057300000F02AB9BDE8F0410320FFF791B800005E
:105740000C2900200321017000214170418041603B
:10575000816070472DE9F0470446408820B1274E0C
:10576000A1683268914202D0FF20BDE8F087401E58
:105770000004000C60803ED131686078DFF88080E2
:10578000887061684FF00009012739B32046FFF7A0
:1057900000FF0546052085F82000284600F034F972
:1057A0006780A560A87860703168D8F804008A78AE
:1057B0008078824201D328460AE0114800F0E4F8DC
:1057C00029460F4800F0E0F8306847706F7010E02D
:1057D000FFF72CFE316881F820900CE0D8F8041017
:1057E0008A783168824206D9054800F0CDF83068E1
:1057F00047700020ECE70020B7E70000B404002069
:105800000C29002070B5184D0E46044641882868C2
:1058100039B1A168814208D16088401C60800020B5
:1058200070BDA06080786070F6E776B162788078AD
:10583000824203D28870A06800F0CCF8606830B172
:105840002046296800F0A0F808E0012070BD286813
:10585000606029680020486028688460092130461B
:10586000FFF78CFDF1E70000B404002070B5184884
:10587000012102685170006800F0A2F8154D6C78A3
:1058800012E005EBC40148680278C2B1012A1BD0BE
:1058900000F0E6F8E878641C844200D1002472B677
:1058A000A878401EA87062B6A8780028E9D16C706C
:1058B0000948FFF76EFEBDE8704000F0FDB80989A9
:1058C00089B2FFF7DFFDE5E78968FFF7E1FEE1E771
:1058D000B4040020D02A00200C29002005480178BB
:1058E00011B101214170704703494FF080500860A9
:1058F00070470000AC04002004ED00E0F0B40F4F4E
:10590000BC1CFE783D4672B6BA78B24207D2521C31
:1059100022702A78531CB34200D100232B7062B648
:10592000FB78934205D907EBC202C2E90101F0BC42
:105930007047F0BC0220FEF793BF0000D02A002081
:10594000104A10B5D368ABB113469B8A03E08CB103
:105950002246A48A2344D4688B42F8D3C460D06022
:105960000261C46804B12061591A8182908A401A88
:10597000908210BD0024C460D060C91A0261918277
:10598000848210BD2429002030B502780024022A28
:1059900003D0012A01D0032A00D101248B7800E032
:1059A0001046426812B195789D42F9D24A60416032
:1059B0001CB102B19160886030BD0020FBE700009F
:1059C00003494A68426000228260486070470000D4
:1059D0000C29002010B5836804462BB96078012893
:1059E0000ED1084B03E09B6818780028FBD02046B6
:1059F00000F01EF82146BDE810401846FFF7C4BF6E
:105A000010BD00000C29002010B5016900290ED03E
:105A1000C268CA60C36800223BB18B8A848A23446F
:105A20008B82C3681961C26000E08A82026110BD86
:105A3000816839B142684A604168002901D08068B4
:105A400088607047054906E04A68824202D1406892
:105A50004860704711460029F6D170470C29002094
:105A600010B5416879B1FFF794FD0446FFF7CCFF0C
:105A700001206070032084F820002146BDE810401A
:105A80000348FFF781BF4188491C418010BD0000D9
:105A90000C29002006480068D0E90910814203D390
:105AA00000680449884202D00120FEF7D9BE704741
:105AB000B4040020A52E5AE2024948600221417038
:105AC00070470000B40400202DE9F0471646414A13
:105AD00081468846002005463D49128802E041F88B
:105AE0002050401C9042FAD33B48302201883B486A
:105AF000FCF7C8FE3A48008880B240F000423948BE
:105B000001683948FCF7BEFE384808220188384849
:105B10000068FCF7B7FE374CFF27374AE77065840B
:105B200000212046FFF74AFD3448042101704560FA
:105B300033480170C56005618582606A2030F6F7E0
:105B400043FB304831490460022060702E480570E4
:105B500045700978C170FFF753FD2D48016841F485
:105B60007F0101600068390601EA00202849C0432E
:105B70001439B0FA80F00968C0F10800C1F30221BD
:105B8000814200DB481C2249091F0B686FF08072BC
:105B9000824063F317020A60FEF78AFE1D4900285F
:105BA00008600DDB00F1E02181F8007400F01F02B5
:105BB000012191404011800000F1E020C0F8001167
:105BC000324641464846BDE8F047002300F080B821
:105BD000F42A00205E990108749901086C290020BC
:105BE0006099010878990108382A00207E990108F7
:105BF000C80400203C290020AD4801080C290020E1
:105C000024290020B4040020D02A00207C99010817
:105C100020ED00E0B00400200C4810B5026801211E
:105C200051700068FFF7CCFEFFF7C4FB084801681D
:105C3000491C0160FFF7C0FB00F02AF80548FFF798
:105C4000A8FCBDE81040FFF737BF0000B4040020F7
:105C5000BC0400200C2900200148006870470000A7
:105C6000BC040020074CDFF820C0208980B200DF90
:105C7000DFF818C000DF61680029F9D000208847EC
:105C8000F6E70000A00400205156010869560108FB
:105C900070B50D4D2868002815D0A8880B4E401E01
:105CA000A8800AE0E088FEF718FEA088A880206897
:105CB000286021463068FFF759FCA888002802D1E7
:105CC0002C68002CEED170BDC0040020C804002058
:105CD0002DE9F0411E46174680460C4611F0FF0F95
:105CE00000D14C1C1548FFF73BFB051E23D0200AB2
:105CF000AF626884E1B242462846EE61FFF75EFC7F
:105D0000104901240E48098805E000EB840252F88E
:105D1000042C1AB1641C8C42F7D9002400EB8400D7
:105D200040F8045CEC702846FFF780FB06480068EA
:105D300080F820402046BDE8F08100006C2900205A
:105D4000F42A00205E990108B4040020024800688B
:105D5000002800D0C0787047B404002030B58FB060
:105D600014210AA8F6F7DFFC28216846F6F7DBFCC9
:105D7000F9F7ECFFF8F7DAF801250024CDE90A5429
:105D800029460AA8F8F74AF920B1412216A10020B5
:105D9000FCF7BAFD4FF48030CDE9005002250294A3
:105DA000CDE907504FF4E01009906846F8F78AFAF9
:105DB00020B14D220CA10020FCF7A6FD0F20CDE95B
:105DC0000A054FF48060CDE90C4002210AA80E9428
:105DD000F8F724F9002804D0582203A10020FCF78A
:105DE00093FD0FB030BD00002E2E5C2E2E5C2E2EAB
:105DF0005C736F757263655C6869635F68616C5C36
:105E000073746D33325C73746D3332663130337852
:105E1000625C73646B2E630003480078012801D133
:105E200000F01ABD70470000E80500202DE9F041A0
:105E300000250024FDF788FF064605215748F6F7A0
:105E400072FC21215648F6F74CFC21215548F6F703
:105E500048FC09215448F6F766FC05214F48F6F73F
:105E600062FC00BF00BF0AE0504A52F825104C4ABD
:105E7000101902F0E7F92044C4B2681CC5B2042D21
:105E8000F2DB00222046611CCCB245490A540024B2
:105E900000250AE0464A52F82510424A101902F03D
:105EA000D1F92044C4B2681CC5B2042DF2DB002233
:105EB0002146601CC4B23B48425400243A490819A8
:105EC0003C49096802F0BEF92044C4B22046611C76
:105ED000CCB2354900220A54FDF726FF07460422BA
:105EE00039462E48F6F7F3FA2C49002008710024B1
:105EF000300BFEF75BF801462F482246641C8154A4
:105F0000C6F30320FEF752F801462B482246641CD4
:105F10008154FCF74BFF012802D0FDF7F7FA60B976
:105F2000082141EA261101F00F00FEF73FF8214653
:105F3000621CD4B2204A505408E0C6F30310FEF7A6
:105F400035F82146621CD4B21B4A505406F00F00AB
:105F5000FEF72CF82146621CD4B2174A5054002296
:105F60002046611CCCB214490A5400241348302244
:105F70002146641C425432222146641C425435227C
:105F80002146641C425434222146641C425400229F
:105F90002146641C4254BDE8F08100003C00002012
:105FA00086060020A7060020C8060020280600203C
:105FB0003806002028000020410000204600002074
:105FC0002DE9F041364E0746B069416938468847A9
:105FD0000546B069816938468847044635B12CB119
:105FE0004FF4806845450AD8012009E040F2351297
:105FF0002CA10020FCF788FC0220BDE8F0810020E5
:106000004FF49D7227A1FCF77FFCB8FBF5F105FB6F
:10601000118048B1002040F23B1222A1FCF774FC31
:10602000AC4203D3012002E00120F4E700204FF44A
:106030009E721CA1FCF768FCB4FBF5F005FB104058
:10604000C0B1002040F23D1216A1FCF75DFCB7FB89
:10605000F4F004FB1070381AC6E90304706044457C
:1060600000D34446B460B169096A29B18847040085
:106070000AD101E00120E5E7307850B1B069C1688C
:10608000F0688847040004D0B06940688047204623
:10609000B3E7FF221048B168F6F71BFB0020ACE71E
:1060A000BC0000202E2E5C2E2E5C2E2E5C736F7595
:1060B0007263655C6461706C696E6B5C647261676D
:1060C0002D6E2D64726F705C666C6173685F6D61BC
:1060D0006E616765722E63006C08002070B5002544
:1060E000002400261148F6F77CF9C6B2022000EB26
:1060F0004600C2B20E482146641C42540322214687
:10610000641C425400BF0EE00848611C425D2046FA
:10611000CCB207490A5400222046611CCCB2044983
:106120000A54681CC5B2B542EEDB70BD48060020BB
:10613000D106002010B531210948F6F7F4FA0949D3
:106140000748F6F7B8F908490548F6F7B4F90749DA
:106150000348F6F7B0F906490148F6F7ACF910BD67
:10616000480600203C000020410000208606002058
:10617000C806002010B5EFF3108111F0010F72B6C0
:10618000084C094BD96844F821004FF00B0001F18D
:106190000101B1FBF0F400FB1410D86000D162B62D
:1061A00010BD00002C2500208C04002010B5094CE7
:1061B000207840B100F08AF86068C16806488847D6
:1061C0000021217010BDC12204A10020FCF79CFB1E
:1061D000022010BD7C000020380700202E2E5C2EEF
:1061E0002E5C2E2E5C736F757263655C6461706CDF
:1061F000696E6B5C647261672D6E2D64726F705C8A
:1062000066696C655F73747265616D2E6300000072
:1062100070B5134C0546207808B1862202E0022DA5
:1062200006D38C220FA10020FCF76EFB022070BD6C
:10623000FEF7CEFAA0604FF482711748F6F773FAB2
:106240000120207006480C3000EB051060604168AA
:10625000114888470028EAD00321217070BD000052
:106260007C0000202E2E5C2E2E5C2E2E5C736F7513
:106270007263655C6461706C696E6B5C64726167AB
:106280002D6E2D64726F705C66696C655F737472DD
:1062900065616D2E63000000380700202DE9F04194
:1062A000094D0E460746002405EB041031460268EE
:1062B0003846904710B12046BDE8F081641CE4B236
:1062C000022CF1D30320F7E78800002010B5FEF779
:1062D0007FFA06498968884201D1012000E0002048
:1062E000BDE81040632202A1FCF70EBB7C00002039
:1062F0002E2E5C2E2E5C2E2E5C736F757263655C89
:106300006461706C696E6B5C647261672D6E2D6484
:10631000726F705C66696C655F73747265616D2E17
:106320006300000010B500F1080103220C4607A02D
:10633000F6F776F8002806D00322214604A0F6F7E7
:106340006FF808B1032010BD012010BD42494E0076
:106350004845580070B5154D06460C46287801286A
:1063600006D0A52212A10020FCF7CEFA022070BDB3
:10637000FFF7ACFF686822463146836819489847A2
:106380000446132806D0142C06D02CB10320287004
:10639000204670BD0220FAE72878012800D00020AE
:1063A000B32203A1FCF7B0FAF2E700007C00002062
:1063B0002E2E5C2E2E5C2E2E5C736F757263655CC8
:1063C0006461706C696E6B5C647261672D6E2D64C4
:1063D000726F705C66696C655F73747265616D2E57
:1063E000630000003807002010B51E21002000F0D7
:1063F000B5FC002800D0012010BD00002DE9F043BD
:1064000093B00F46DDE91A8904461E46154644211D
:106410006846F6F788F98DE86003201DF6F7AAF9BB
:10642000099004F10800F6F7A5F90D902046F6F75B
:10643000A1F9CDE90E074FF080701090684600F08A
:1064400043FC002819D0114D114E002411A93046EB
:1064500000F0B8F980B11198800311D56946002089
:1064600000F0FEF8002808D00A49304600F0CAFCC7
:10647000002802D0009838B1002013B0BDE8F083A6
:10648000641CAC42E2D3F7E70120F6E740420F007C
:10649000F0ED00E003005FA010B5044600F006FF39
:1064A000002801D104F07F4010BD10B5F7F706FABF
:1064B000F9F7A4F8012010BD2DE9F8430020411E92
:1064C000009032486426042701600024DFF8C08071
:1064D000416011E084B10121002000F03FFC012067
:1064E00000F0A0F90220FEF723F9002000F09AF94D
:1064F0000220FEF71DF90024FFF7D7FFD8F80000AF
:1065000010B1806800B18047F8F754FBA0B3FFF7E3
:106510006BFF88B30021082000F020FC60B34FF02F
:10652000A041042000F01AFC30B300254FF02049B0
:1065300009E06946042000F0EDF8F0B1009939EA6D
:10654000010002D06D1CB542F3DBB54217D0012C1F
:1065500015D01049042000F001FC68B1D8F8000003
:1065600010B1006900B180470021082000F0F6FB5F
:1065700010B10120BDE8F88301E00124E5E77F1EAA
:1065800001247FB2002FA5DC0020F3E76400002087
:10659000CC040020000F005010B5094C00220D2142
:1065A0002046FEF75EFB00220E212046FEF759FB37
:1065B00000220C212046FEF754FB012010BD0000F4
:1065C000000C0140F8B50D46044662B39608174921
:1065D000002000F0C1FA002826D005270422214619
:1065E0006846FDF733FE6946384600F0A5FA0128F3
:1065F00019D10F270021384600F09EFA012812D148
:106600000024761E07E02946384600F095FA012856
:1066100009D1641C2D1DB442F5D30E20294600F08B
:106620008BFA012800D00020F8BD000052000023A2
:1066300038B50D4604460949002000F08DFA0028BF
:106640000BD06946204600F035F8002805D0A00799
:10665000C10E0098C8402870012038BD50000023AA
:106660002DE9F0410E46014600246425104800F053
:10667000C9FB002810D00E4F3F1F3146384600F0AE
:10668000A1F8002808D03068C00302D4641CAC42D2
:10669000F3DBAC4202D10020BDE8F0810448314672
:1066A000001D00F08FF80028F6D00120F4E700006C
:1066B000F4ED00E01CB50C460146042201A8FDF7EC
:1066C000C5FD052001A900F037FA012820D10F20CF
:1066D000694600F031FA01281AD10E20694600F00F
:1066E0002BFA002222609DF8031042EA016121602A
:1066F0009DF8022041EA024121609DF8012041EA13
:10670000022121609DF8002011432160012800D062
:1067100000201CBD38B50C4600F00C006946801CFA
:1067200000F00AFA002222609DF8031042EA01619B
:1067300021609DF8022041EA024121609DF801207C
:1067400041EA022121609DF80020114321600128C7
:1067500000D0002038BD2DE9F04114460F46054613
:1067600008E039462846FFF763FF002827D0641E5B
:106770006D1C7F1C14B3A807F3D111E0C5F3090009
:10678000C0F58066B44201D224F003063246394691
:106790002846FFF717FF002811D035443744A41BC3
:1067A000032CEBD808E039462846FFF741FF0028C4
:1067B00005D0641E6D1C7F1C002CF4D10120BDE8A7
:1067C000F081000070B50C4605460749002000F036
:1067D000C3F9002806D021462846FFF76BFF0028A2
:1067E00000D0012070BD0000520000231CB5002025
:1067F0006A46FF211154401CC0B20828FAD3114642
:106800003320F9F777FA01201CBD00000149087018
:10681000704700005C00002001494860704700009C
:106820005C0000200A4910B5096821B1C96911B19D
:10683000BDE810400847012418B1FFF7EDFA0548FC
:1068400003E0FFF7E9FA0348001F046010BD0000F1
:10685000CC040020140C01400149024800F0D2BAD7
:106860000700FA050CED00E0F8B5022406460628FC
:1068700001D0FFF71AFE4E494E4D4F1C082E74D220
:10688000DFE806F00415085A5C748A910120FFF7CE
:10689000C9FF88E00120FFF7C5FF0220FDF748FF90
:1068A0000020FFF7BFFF0220FDF742FF79E0FFF76E
:1068B00003FE002878D0404E307801280BD00FE03E
:1068C000641E64B2002C70DD0120FFF7ABFF0220D4
:1068D000FDF72EFF0020FFF7A5FF0220FDF728FFA0
:1068E0003946284600F08EFA0028E9D0314C0121C3
:1068F0000C34204600F086FA002855D0307828B9AC
:106900000120FFF78FFF0220FDF712FF0020FFF7A5
:1069100089FF0220FDF70CFF69462846FFF752FF6A
:10692000002841D000988003F6D50021204600F0D1
:1069300069FA002838D036E02846F8E7F8F73AF93F
:10694000002831D0FFF750FD00282DD0002108206D
:1069500000F004FA002827D04FF0A041042000F0F6
:10696000FDF9002820D03946E6E71EE0FFF7A4FD38
:10697000002819D00E492846C91C00F043FA002807
:1069800012D069462846FFF71DFF00280CD000985A
:106990008003F6D507E007E0284600F033FA002828
:1069A00002D0FFF7F9FD0120F8BD0020F8BD00007E
:1069B00000005FA0F0ED00E05C000020F8B50224CC
:1069C0000546062801D0FFF770FD57492A46CE1C20
:1069D000564D082A7ED2DFE802F0041508696B855F
:1069E0009BA20120FFF71EFF99E00120FFF71AFF8D
:1069F0000220FDF79DFE0020FFF714FF0220FDF7A7
:106A000097FE8AE0FFF758FD00287DD00FE0641E56
:106A100064B2002C5EDD0120FFF704FF0220FDF7C9
:106A200087FE0020FFF7FEFE0220FDF781FE3146C3
:106A3000284600F0E7F90028E9D069462846FFF724
:106A4000C1FE00286CD000988003F6D5374C012198
:106A50000C34204600F0D6F9002861D0334E694648
:106A6000E43E3046FFF7AEFE002859D0009800F40F
:106A7000E0612F48406801432E480143304600F052
:106A8000C1F900284CD00220FDF752FE6946284685
:106A9000FFF798FE002843D000988003F6D5002128
:106AA000204600F0AFF900283AD038E02846F8E751
:106AB000F8F780F8002833D0FFF796FC00282FD095
:106AC0000021082000F04AF9002829D04FF0A04109
:106AD000042000E025E000F041F9002820D0124910
:106AE000491CE3E7FFF7E8FC002819D031462846A7
:106AF00000F088F9002813D069462846FFF762FEA7
:106B000000280DD0009800E00AE08003F4D506E0EC
:106B1000284600F077F9002802D0FFF73DFD01205C
:106B2000F8BD0020F8BD000000005FA0F0ED00E01F
:106B30005C0000200000FA0570B50D4606460024F2
:106B400029463046F8F7C0FD022803D1641CE4B2A0
:106B5000642CF5D370BD000038B50D460446FFF730
:106B60009BFC04F0F00240EA0201082000F0F6F875
:106B7000002805D034B90E484168A94201D101204E
:106B800038BD456004F00C04042229466846641CA4
:106B9000FDF75CFB69462046FFF7CEFF012805D1D3
:106BA0000E200021FFF7C8FF0128E9D0002038BDE2
:106BB00064000020F8B50D4604462AB39608134930
:106BC0000020FFF7C9FF00281FD005270422214617
:106BD0006846FDF73BFB69463846FFF7ADFF0128E5
:106BE00012D10D27002407E029463846FFF7A4FFFD
:106BF000012809D1641C2D1DB442F5D30E200021BB
:106C0000FFF79AFF012800D00020F8BD52000023B2
:106C100070B50C46054608490020FFF79DFF002887
:106C200009D0A807C00E04FA00F1284600F02CF89D
:106C3000002800D0012070BD5000002373B5064627
:106C4000002464250F48019900F0DCF8002813D0D7
:106C50000C4846F48031001F00F0D4F800280BD017
:106C6000084E083E01A93046FFF7ACFD002803D0CE
:106C70000198C00301D501207CBD641CAC42F1DB4E
:106C800000207CBDF8ED00E038B50C46014604223A
:106C90006846FDF7DBFA05206946FFF74DFF01283E
:106CA00010D1042221466846FDF7D0FA0D2069462E
:106CB000FFF742FF012805D10E200021FFF73CFF1E
:106CC000012800D0002038BD38B505460021082035
:106CD00000F044F800283AD00024204655F824104B
:106CE000FFF7ACFF002832D0641C042CF5D3092038
:106CF000696AFFF7A3FF002829D00D24204655F824
:106D00002410FFF79BFF002821D0641C102CF5D322
:106D10001020296CFFF792FF002818D00E4C0D4967
:106D2000204600F06FF8002811D00A492046891E3D
:106D300000F068F800280AD069460420FFF7EAFC52
:106D4000002804D0009810F0A00F01D0002038BD1A
:106D5000012038BD0B005FA0F0ED00E0F8B50D4E4E
:106D600004460D46082802D13068A84210D004F02D
:106D70000C0704226846FDF769FA69463846FFF7B2
:106D8000DBFE012801D00020F8BD082C00D13560C1
:106D90000120F8BD640000202DE9F04114460D46A5
:106DA000064608E029783046FFF732FF002827D052
:106DB000641E6D1C761C14B3B007F3D111E0C6F34A
:106DC0000900C0F58067BC4201D224F003073A46AF
:106DD00029463046FFF7EEFE002811D03E443D44E0
:106DE000E41B032CEBD808E029783046FFF710FFAE
:106DF000002805D0641E6D1C761C002CF4D10120E7
:106E0000BDE8F08170B50C46054607490020FFF744
:106E1000A3FE002806D021462846FFF735FF0028AC
:106E200000D0012070BD00005200002310B5FDF716
:106E3000CFFC07494968884201D1012000E00020C9
:106E4000BDE810404FF4B57202A1FBF75DBD000034
:106E5000FC0000202E2E5C2E2E5C2E2E5C736F7597
:106E60007263655C6461706C696E6B5C64726167AF
:106E70002D6E2D64726F705C7666735F6D616E61EE
:106E80006765722E6300000002480021C068FDF7AC
:106E900065BC0000FC0000200148C068FDF770BC24
:106EA000FC00002002480078012800D00020704734
:106EB0006C00002002480078012800D000207047B4
:106EC000D80000202DE9FC411F480546F5F752FC8B
:106ED000A8B3002600F10C041BE0384600F098F936
:106EE00000282AD10120FCF775FD060025D117489E
:106EF000476807F10800F5F73DFC002100910B46BB
:106F00000A460191014607F11800FFF777FAB8B178
:106F100014342046F5F72EFC0700DED1201DF5F7CE
:106F200029FC0028D9D12846F5F724FC90F8A201C5
:106F300010B100F087F806463046BDE8FC8101E05C
:106F40001020FAE70120F8E7269001086C000020E5
:106F50007CB505461548F5F70DFC28B31448446880
:106F600044B1284600F026F8B5FBF0F100FB1150C3
:106F7000C0B901E002207CBD0120FCF72BFD0028F8
:106F8000F9D104F10C00F5F7F5FB002100910B4657
:106F9000019101462A4604F11800FFF72FFA08B1C3
:106FA00000207CBD0F207CBD01207CBD2690010807
:106FB0006C00002070B505461448F5F7DBFB061E93
:106FC00023D006F10800F5F7D5FBB8B1441E15D45F
:106FD000301DF5F7CFFB00EBC400F5F7CBFBA84263
:106FE0000AD8301DF5F7C6FB042101EBC401BDE84A
:106FF00070400844F5F7BEBB641EE9D54FF4BD727E
:1070000003A10020FBF780FC002070BD2690010842
:107010002E2E5C2E2E5C2E2E5C736F757263655C5B
:107020006461706C696E6B5C696E746572666163D5
:10703000655C7461726765745F666C6173682E630A
:107040000000000070B517480446F5F793FB30B315
:10705000154D002068706860012000F031F928B1FA
:107060002046F5F787FB00F10C040AE0072070BD0D
:1070700004F10800F5F77EFBC00701D0AC600AE020
:1070800014342046F5F776FB0028F1D1201DF5F7E2
:1070900071FB0028ECD101202870002070BD012078
:1070A00070BD0000269001086C0000202DE9FF5FF4
:1070B0008146154688464848F5F75CFB002868D0AD
:1070C0004648476897B14648006838B143692BB1D4
:1070D0002A4641464846984701280BD00220FCF733
:1070E00079FC4FF0000B002801D14DE0022004B0E4
:1070F000BDE8F09F0D20FAE707F13400F5F73AFB01
:10710000A84201D92C4600E0044607F12400029071
:10711000F5F730FB22464146FFF73EFEC0B302982A
:10712000F5F728FB824607F11000F5F723FB01462F
:1071300007F118005E4623464A460390CDE900ABAE
:10714000FFF75CF930B3FBF76BFDD0B107F114002A
:107150000090F5F70FFB90B30320FCF73BFC0028F1
:10716000C5D10298F5F706FB82460098F5F702FBB9
:10717000CDE900A6014623464A460398FFF73EF9AB
:10718000D8B1A144A0442D1B002DB5D10020AEE7FD
:1071900016E01EE01120AAE7102C01D2264600E0DE
:1071A0001026324669464846FFF7D5FA40B13246C6
:1071B00069464046F5F7E9F820B1122097E705E067
:1071C0000A2094E7AD1BB144B044A41B002CDBD0D3
:1071D000E2E701208BE70000269001086C00002008
:1071E000CC04002070B505460848F5F7C3FA00281E
:1071F0000BD04FF480742846FFF7DCFEA04203D288
:107200002846FFF7D7FE0446204670BD26900108A9
:107210002DE9F041FCF7B6FD04001FD0114D686860
:10722000A04218D00020FCF7D5FB002814D104F1AF
:107230002C00F5F79FFA074604F13000F5F79AFAAB
:10724000064604F12800F5F795FA3A463146FFF76D
:10725000A3FD28B16C600020BDE8F0810920FBE7A8
:107260000820F9E76C00002010B50E48F5F782FA07
:10727000B0B10020FCF7AEFB002810D1FBF7C8FC32
:1072800008B1022000E0012000F01AF8072000F009
:1072900017F8054900200870FFF77EF9002010BD9F
:1072A000012010BD269001086C00002003480068F2
:1072B00010B1806A002800D100207047CC04002063
:1072C00070B505461548F5F755FA010001D0284676
:1072D000884713480468FCB1A16919B12846BDE884
:1072E00070400847A078012803D0022806D001206A
:1072F00070BD2846BDE87040FFF7B6BA0748001DCC
:10730000F5F738FA08B9606808B1FFF785FA28463A
:10731000BDE87040FFF752BB002070BD88900108A7
:10732000CC040020884203D3904201D8012070474A
:107330000020704710B50B4C0221E068FDF728FAD9
:10734000A0680321B0FBF1F201FB1201401CA06018
:10735000002905D1E068BDE810400121FDF718BA09
:1073600010BD00004C0000202DE9F0411E4C1546D8
:107370000E4694F8230038B1BDE8F04140F2C12236
:107380001AA10020FBF7C0BAE8051FD0002040F288
:10739000C52216A1FBF7B8FA94F8210040F2C622E4
:1073A00012A1FBF7B1FA29463046FEF7D3FF0027BA
:1073B000012613280CD0142811D084F82470616998
:1073C00029446161BDE8F04100F0D0B80120DEE75A
:1073D000FEF7ECFE84F8217084F8236000E00020C2
:1073E00084F82460EBE70000B81200202E2E5C2EFB
:1073F0002E5C2E2E5C736F757263655C6461706CBD
:10740000696E6B5C647261672D6E2D64726F705C67
:107410007666735F6D616E616765722E6300000052
:1074200070B51C4D06460C4695F82100002811D079
:10743000002040F2862218A1FBF766FA601C00D0FB
:10744000012040F2872214A1FBF75EFA6868401C15
:1074500002D002E00120ECE76C6095F827000328D9
:1074600001D185F827606868A04203D195F827000C
:10747000B04201D0032008E03046FEF7C9FE20B933
:1074800045F80C4F01216975A975BDE8704000F001
:107490006DB80000B81200202E2E5C2E2E5C2E2E11
:1074A0005C736F757263655C6461706C696E6B5C54
:1074B000647261672D6E2D64726F705C7666735FA7
:1074C0006D616E616765722E6300000030B4194C07
:1074D00094F82050032D02D025683DB107E030BC60
:1074E00040F2362214A10020FBF70EBA2060A068FB
:1074F000401C00D1A16094F82700032801D184F832
:107500002730A069904205D9E069904202D90AB1BA
:1075100003200CE0481C02D0A0688842F8D1032B5D
:1075200003D094F827009842F2D10020A26130BC29
:1075300000F01CB8B81200202E2E5C2E2E5C2E2ED1
:107540005C736F757263655C6461706C696E6B5CB3
:10755000647261672D6E2D64726F705C7666735F06
:107560006D616E616765722E630000002DE9F04762
:107570000446132803D0142C01D0012000E0002081
:1075800040F2E62243A1FBF7BFF94F4D95F82000EA
:1075900003280CD0296891B1D5E9060282420ED3A6
:1075A00068B1D5E90102904209D1012008E0BDE8A7
:1075B000F04740F2EA2237A10020FBF7A5B90020EE
:1075C00085F8250095F8269019B995F82710032914
:1075D00001D0012100E00021884620B195F8241057
:1075E00009B1012600E0002695F8231011B108B179
:1075F000012000E00020824628690027401C10D0AE
:107600006868401C00D001204FF4427221A1FBF7B2
:107610007BF969682869401A69694002814200D98A
:107620000127032014B185F820001DE0B9F1000FF7
:1076300009D00FB10624F6E7B8F1000FF3D0002E01
:10764000F1D10424EFE7BAF1000FECD10EB1022022
:1076500003E0B8F1000F03D0012085F8200012E00C
:1076600095F8200003280BD195F8210030B1FEF7E2
:107670009DFD002185F8211004B9044613480470CB
:10768000B9F1000F03D1BDE8F04701F0BFB8BDE884
:10769000F08700002E2E5C2E2E5C2E2E5C736F75F4
:1076A0007263655C6461706C696E6B5C6472616767
:1076B0002D6E2D64726F705C7666735F6D616E61A6
:1076C0006765722E63000000B8120020FC000020E5
:1076D0002DE9F041254886B00168254A1140016036
:1076E000FBF77CFA2348C16941F40031C161C169EB
:1076F00001F400310491816941F0040181618069E4
:10770000022600F0040004900420CDE90006DFF812
:1077100068800324694603944046F6F703FB08207B
:1077200000270125CDE90007CDE90254694640460E
:10773000F6F7F8FACDE90057CDE90254694640461C
:10774000F6F7F0FA002202214046F6F7CFFBCDE92A
:107750000065694640460394F6F7E4FA074940207D
:10776000C1F8000106B00120BDE8F0810C440040E2
:107770005FFFFFEF001002400008014004E000E05E
:107780000A4601460148FBF7FBB9000090200020A3
:1077900070B5064D2C68064820402860FBF71EFA9D
:1077A0000348203004402C60012070BD0C44004090
:1077B0005FFFFFEF70B590B0044640216846F4F7D4
:1077C000B2FF2F4800902F4B6179002259714FF47E
:1077D000C0604FF4806501291AD002291AD00492A2
:1077E00001B15A71A17999714FF40056022913D051
:1077F000012913D0039201B19A71082119710499DA
:10780000814201D0A9420DD14FF4805002900AE08C
:107810000490E7E70495E5E70396EEE70221039677
:107820009971EAE70292DA71069220681860019075
:10783000134C0C200C34059020681349084020603C
:10784000FBF7CCF96846F7F7F9F8A0B10020C5229C
:107850000EA1FBF759F86846F7F70EF968B100205A
:10786000C7220AA1FBF750F8206815490843206099
:1078700010B0012070BD0120E9E70120F0E7000011
:1078800000440040D80200205FFFFFEF2E2E5C2E48
:107890002E5C2E2E5C736F757263655C6869635F26
:1078A00068616C5C73746D33325C73746D33326613
:1078B00031303378625C756172742E6300000000B1
:1078C000200000100A4610B501460448FBF76FF986
:1078D00003490A68034B1A430A6010BD801E00204A
:1078E0000C440040800000100148FBF79BB80000EA
:1078F000801E002010B50D4C207830B10020207083
:10790000FAF7BEFF40B11E2010BD842208A100205E
:10791000FAF7FAFF022010BD607810B9FBF79AFB66
:1079200008B1002010BD242010BD0000D8000020A8
:107930002E2E5C2E2E5C2E2E5C736F757263655C32
:107940006461706C696E6B5C647261672D6E2D642E
:10795000726F705C6961705F666C6173685F696E9D
:1079600074662E63000000002DE9F0410F460446C6
:10797000F4F7B7FE20468CA100F08CFC0546601998
:1079800097A100F087FC054460199EA100F082FCDD
:10799000054460199FA100F07DFC05446019A1A178
:1079A00000F078FC0544FBF733F908B1A1A100E031
:1079B000A1A1601900F06EFC0544601987A100F0D8
:1079C00069FC054460199DA100F064FC0544FBF7C7
:1079D00027F908B197A100E097A1601900F05AFCBF
:1079E000054460197DA100F055FC0544601999A17A
:1079F00000F050FC0544FBF71BF908B18DA100E035
:107A00008DA1601900F046FC0544601973A100F0D7
:107A100041FC0544FBF71EFB08B194A600E096A6C6
:107A2000601998A100F036FC05446019314600F059
:107A300031FC0544601969A100F02CFC0544601973
:107A4000314600F027FC0544601992A100F022FCA9
:107A50000544FBF7FFFAA0B9FCF718FB88B16019E1
:107A600090A100F017FC0544FCF724FB01466019C7
:107A7000042200F042FC0544601958A100F00AFC01
:107A80000544FBF7E9FAA0B9FCF732FB88B16019AD
:107A90008AA100F0FFFB0544FCF73EFB014660199C
:107AA000042200F02AFC054460194CA100F0F2FB0E
:107AB0000544601986A100F0EDFB0544601987A11B
:107AC00000F0E8FB0544601944A100F0E3FB054425
:107AD00060198DA100F0DEFB05446019012100F062
:107AE000E2FB054460193DA100F0D4FB0544601998
:107AF00089A100F0CFFB054460198CA100F0CAFBFE
:107B0000054460198AA100F0C5FB054460198AA1EB
:107B100000F0C0FB0544601989A100F0BBFB0544DF
:107B200060192EA100F0B6FB0544FCF7AFFA80B156
:107B3000601986A100F0AEFB0544FCF7C5FA0146CA
:107B4000601900F07FFB0544601924A100F0A2FB3E
:107B50000544601982A100F09DFB0544FCF7BAFAC8
:107B60000146601900F06EFB054460191BA100F08E
:107B700091FB054460197FA100F08CFB814905440D
:107B80006019496800F08FFB0544601913A100F0EB
:107B900081FB284420447CA100F07CFB3946204630
:107BA000BDE8F041FBF74EBB23204441504C696EC9
:107BB0006B204669726D77617265206279204D7520
:107BC00073654C6162202D20736565206D7573654A
:107BD0006C61622D746563682E636F6D0D0A000021
:107BE0004275696C642054696D653A204170722059
:107BF000203920323032302031373A33383A303180
:107C00000D0A0000556E697175652049443A20409F
:107C1000550D0A004849432049443A2040440D0A82
:107C2000000000004175746F2052657365743A203E
:107C30000000000031000000300000004175746F4A
:107C40006D6174696F6E20616C6C6F7765643A204A
:107C5000000000004F766572666C6F772064657473
:107C6000656374696F6E3A2000000000426F6F74A4
:107C70006C6F616465720000496E74657266616361
:107C8000650000004461706C696E6B204D6F646527
:107C90003A2000002056657273696F6E3A20405694
:107CA0000D0A0000426F6F746C6F6164657220563C
:107CB000657273696F6E3A2000000000496E74654A
:107CC00072666163652056657273696F6E3A200053
:107CD000476974205348413A200000006336383425
:107CE0003135303036663762353734653564323099
:107CF0003639386331633832356365316161383123
:107D000036396432000000004C6F63616C204D6FA7
:107D100064733A200000000055534220496E746598
:107D20007266616365733A20000000004D534400A1
:107D30002C204344430000002C204849440000000C
:107D40002C2057656255534200000000426F6F744B
:107D50006C6F61646572204352433A2030780000B2
:107D6000496E74657266616365204352433A203000
:107D70007800000052656D6F756E7420636F756ECC
:107D8000743A20000C01002055524C3A2040520D0C
:107D90000A00000010B5064C0448606000206080B6
:107DA0000448F5F72FFE0120207010BDEA240020C2
:107DB00010050020B02B00202DE9F0474EA392B013
:107DC0000ECB8DE80E004B4F002438460922694641
:107DD000F4F77DFB0925FAF7E9FF4A4E012878D030
:107DE000FBF794FB002874D07471A046012407F1BE
:107DF0000905182244A16846F4F739FC17226946A0
:107E00002846F4F764FB85F80280202500F09EF9EF
:107E1000347004F1010886F80180BA462F444422E8
:107E20003F49684604F10208F4F721FC3846422233
:107E30006946F4F74CFBBC7007F10800BC7284760D
:107E4000641CC47687F82D404235F8F779FB86F834
:107E5000048008F101070AEB0504142231A16846E9
:107E6000F4F705FC204612226946F4F730FB84F84B
:107E70000280123500F006F9B7712FA33C460ECBF5
:107E80008DE80E0007F101090AEB050007460922FB
:107E90006946F4F71CFB1B48BC700C300935847331
:107EA0004F4686F802900AEB0504182225A1684681
:107EB000F4F7DDFB172269462046F4F708FB11486A
:107EC000A7700C3080F8AE7012B0BDE8F047FFF735
:107ED00061BF30890749401E308108717D2088705C
:107EE0000020C8701D4987F87D0008881738088071
:107EF0008EE70000A0220020090294000601008005
:107F0000FA000000E0020020090400000208065008
:107F10000807058202400000070502024000000039
:107F20001C99010809040000000300000609210053
:107F300001000122210000000904000000FF0300ED
:107F4000070000000904000002FF00000907050106
:107F5000024000000705810240000000EA02002004
:107F600002484078002800D00120704758050020C2
:107F7000F8F756BC002070477CB51C461546012812
:107F80001CD10CB1012C19D101AA69460C48F5F796
:107F900017FD70B1019A402A05DD4F2209A100208A
:107FA000FAF7B2FC0AE028460099F4F790FA40206C
:107FB0007CBD012C02D10D490120087000207CBD40
:107FC000F42C00202E2E5C2E2E5C2E2E5C736F75F2
:107FD0007263655C7573625C6869645C7573626426
:107FE0005F757365725F6869642E6300D805002051
:107FF0002DE9F04107461D4816460088824202DD01
:108000000020BDE8F0811A4800780028F9D0194C0A
:1080100001224FF00008E26000E098B16288002A77
:10802000FBD1154D3246681C2F70F4F750FA65618C
:10803000A4F8048066801148007801280BD86D1CD4
:1080400065610BE0C4F80C80C4F81480A4F80480C7
:10805000A4F80280D4E76088401C60800020F8F714
:10806000D5FE074800F807800120CAE714970108E9
:10807000590500207C050020A82300201297010844
:10808000840400200249012008700248F5F7BABCB8
:10809000D8050020F42C0020002070477047000015
:1080A00038B501241D461146022813D1002D11D0E8
:1080B000087807280BD06B462A461048F5F74CFC89
:1080C00090B10098FFF7E8FF012804D004E00C49C4
:1080D0000120087038BD00240A4D287848B1FBF70C
:1080E0006BFF0020287004E0852207A10020FAF72A
:1080F0000BFC2046FCF7BAF938BD0000F42C002038
:1081000000000020D80500202E2E5C2E2E5C2E2E86
:108110005C736F757263655C7573625C6869645CDF
:10812000757362645F757365725F6869642E63005E
:10813000054910B50020C870FFF73EFEF9F73EFF75
:10814000BDE81040F9F7B0B85805002010B5FCF7AD
:108150003FFB074C60600020FCF708FBE060FAF78B
:10816000F7FB002060700349A070A060086010BD9C
:10817000FC000020A405002070B514460D460646FC
:10818000FEF754FE074B1868002809D00120FCF7C1
:1081900075F9224629463046BDE8704000F0C0BB64
:1081A00070BD0000A4050020704700002DE9F041DB
:1081B00015460E460746FEF739FE104800680028AF
:1081C0001AD00F490F4C0020886094F82000032833
:1081D00012D00120FCF752F92A463146384600F009
:1081E00085FD94F82000032806D02A4631463846FB
:1081F000BDE8F041FBF70EB9BDE8F081A405002011
:10820000FC000020B812002006484FF0011201784F
:108210000548C180002101704170C0E9022101615F
:1082200070470000049701085805002010B5EFF3CF
:10823000108000F0010472B6FAF770FD002C00D136
:1082400062B610BD70B50D460446090E00F014F874
:108250000646A019C5F3074100F00EF80644A01920
:10826000C5F3072100F008F80644E9B2A01900F0B0
:1082700003F8304470BD0000054A02EB111301F011
:108280000F011B780370515C4170022070470000A1
:10829000609101080346002001E01A54401C0A5C6A
:1082A000002AFAD17047F0B50646002002460B4678
:1082B0000A2504E0B3FBF5F3401C42F10002002B59
:1082C000F8D150EA020301D10120002200231F4609
:1082D0000EE0B1FBF5F405FB1414B1FBF5F13034FD
:1082E000B0EB030CBCF1010C03F1010306F80C40E8
:1082F0001C1A77EB0204ECD3F0BD2DE9F0411546D2
:108300000E460746FFF7CFFF0446A8420AD23022A6
:1083100029463846F4F7DDF9281B38443146FFF783
:10832000C2FF2846BDE8F0812DE9F84380462E487B
:10833000006840B1016A31B140468847002800D04A
:108340000120BDE8F88329488146F4F713FA041E9A
:10835000F7D000200425074600902A46414668468B
:10836000F4F7B5F8D4340AE0201DF4F703FA024616
:1083700031460098FEF7D6FF012830D0143420464D
:10838000F4F7F8F90600EFD1201DF4F7F3F900280F
:10839000EAD13FB323E0002608EB0501042268463A
:1083A000F4F795F84846F4F7E5F900F10C040AE013
:1083B000201DF4F7DFF9024639460098FEF7B2FFB8
:1083C00001280BD014342046F4F7D4F90700EFD17C
:1083D000201DF4F7CFF90028EAD11EB12D1D0C2D78
:1083E000D9D9ADE70020ACE7CC04002026900108E5
:1083F0000B49096811B1496A01B1084701783A2966
:108400000AD1007A302809D0322807D0332805D085
:10841000342803D0352801D0002070470120704750
:10842000CC0400202DE9FF5F994692468B460098C8
:10843000FBF730F840F2971240A1FAF765FA4C4981
:1084400000264C4D087BCA7A497B42EA002048430B
:1084500009EB0001491EB1FBF0F7B9F1000F19D08B
:108460000024A7F10108EE6809E0E968481C82B21F
:10847000414800F033FDE868401C641CE860444556
:10848000F3D34FF6FF723C48E96800F027FDE86837
:10849000401CE8602869202802D34FF4D6721FE000
:1084A0003649202201EB4014401C28613449204603
:1084B000F4F70DF80B2220460099F4F708F804F1C0
:1084C0001C014846F4F761F9300C2075000A60750C
:1084D000A676300AE076A968102909D34FF4DD7238
:1084E00016A10020FAF710FA002004B0BDE8F09FB2
:1084F000224B01EB4100C03B224A43F8202003EB12
:108500008002214E5660BBF1000F01D043F820B02D
:10851000BAF1000F01D0C2F804A01548491C037B32
:10852000C67A407B46EA032343437B439360A960BA
:108530002878401C28702046D7E700002E2E5C2E9D
:108540002E5C2E2E5C736F757263655C6461706C5B
:10855000696E6B5C647261672D6E2D64726F705C06
:108560007669727475616C5F66732E63000000003B
:10857000241500201401002024170020E4190020F5
:10858000409501082D52010815900108C07A7047E6
:108590001C30F4F7EFB8000010B50446FFF7F8FF01
:1085A00088B1E07EA17E41EA00220848921E017B4C
:1085B000C37A407B43EA0121054B5B69B3FBF1F1D0
:1085C00002FB001010BD4FF0FF3010BD241500203D
:1085D00014010020C172704770B50F48017DC07C46
:1085E00050EA01240C48017BC07A40EA012501D001
:1085F0006C430EE008482030F4F7BCF810B100FBE3
:1086000005F406E0002440F28B1204A12046FAF79C
:108610007BF9204670BD0000241500202E2E5C2E14
:108620002E5C2E2E5C736F757263655C6461706C7A
:10863000696E6B5C647261672D6E2D64726F705C25
:108640007669727475616C5F66732E63000000005A
:108650002DE9F0410F4680464FF4007631464E48F2
:10866000F4F761F831464D48F4F75DF84C4C0025BD
:10867000C0214C48E560F4F756F84A487100C03014
:10868000F4F751F8256125704748C4E901053246E1
:10869000464941486561F3F7EAFF3F4E07F58037E9
:1086A000307BF17A41EA0020B7FBF0F7707B40F6AF
:1086B0002D014143B7EB410F09D24FF4AC723CA1FD
:1086C0000020FAF721F9777B41F25A000DE04FF6CE
:1086D00091714843B84209D240F25B1234A10020A4
:1086E000FAF712F9777B4FF6917047432A49203108
:1086F000B7F5803F04D3F574280A3075384603E097
:10870000F774380A30750020F4F73FF8707B40F2B8
:10871000FF11B7FBF0F001EB4000C0F34F27F782E9
:10872000302230491F48F3F7A2FF1E497802486102
:10873000086204206561A060002000EB400201EBAC
:10874000820263699268401C1A4462610428F4D36F
:108750004FF6F87229461148E56000F0BFFBE1686A
:108760004FF6FF72491C0D48E16000F0B7FBE0686E
:108770001C49401CC4E903050A4D2022C035284687
:108780003031F3F7A4FE28460B224146F3F79FFE53
:1087900001202061BDE8F08124150020241700206D
:1087A000140100202419002041330108F09201082F
:1087B0002E2E5C2E2E5C2E2E5C736F757263655CA4
:1087C0006461706C696E6B5C647261672D6E2D64A0
:1087D000726F705C7669727475616C5F66732E631C
:1087E00000000000F094010810B50446FEF74CFBB1
:1087F00005493CB1887808B902208870BDE810406E
:10880000FEF74ABB0020F8E7FC00002010B5FEF799
:108810003BFBFAF7FBF828B904484178022901D15B
:1088200001218170BDE81040FEF736BBFC0000203E
:1088300010B5FEF7FBFA0148007810BDFC000020DF
:108840002DE9F0410446FEF7F1FAFEF71DFBFAF7B9
:10885000DDF880B1FCF7F2FC214A4EF66023916806
:10886000994201D22144916028B19478557854708E
:10887000012C06D103E0BDE8F041FEF70DBB02205C
:10888000907000269660FEF707FB0127CDB1012D01
:1088900017D0022D15D1134D95F82000032804D0D0
:1088A00085F826700020FEF761FE95F82000032869
:1088B00012D000204FF489720BA1FAF725F800F0CE
:1088C000F9F8164D54B1012C08D0022C02D1FAF758
:1088D0003FF82F60BDE8F0810120EBE72E60F9E75B
:1088E000FC000020B81200202E2E5C2E2E5C2E2EB6
:1088F0005C736F757263655C6461706C696E6B5CF0
:10890000647261672D6E2D64726F705C7666735F42
:108910006D616E616765722E63000000A405002022
:108920002DE9F0478A460446154600265102504676
:10893000F3F7D7FEDFF84890002006EB460209EB7C
:1089400082018442896800EB512188460ED38C4213
:108950000CD2A8EB0407AF4200D32F4659F82230BF
:10896000201A3A46514698473C44ED1B002D04D04E
:10897000761CF6B24046102EDFD3BDE8F08700002B
:1089800024190020014948607047000014010020AC
:108990001CB52F4CE07F10B104F11F0000E02DA0AA
:1089A0004FF08061FFF754FE2D48FBF7E3F90346D3
:1089B000207D10B12648143000E02AA0002228496A
:1089C000FFF730FD2A48FBF7D5F903460022284976
:1089D00028A0FFF727FDFFF72BFF40B12848FBF742
:1089E000C9F903460022264926A0FFF71BFD284BA4
:1089F00041219A1C2748FAF79FF958B12648FBF7FE
:108A0000B9F90346002224492448FFF70BFD002151
:108A1000FFF7E0FD4FF00060019021480090FAF769
:108A20001BFB002813D0DDE900104FF48062F3F740
:108A3000ACFC00280BD11B48FBF79CF902B00346A5
:108A4000BDE810400022174917A0FFF7EBBC1CBD82
:108A5000169001084441504C494E4B2020202000E4
:108A60008951010853484F502020202048544D0080
:108A7000D150010844455441494C532054585400A6
:108A8000E55001084641494C20202020545854000C
:108A90000C010020E0140020994F0108CF9201083A
:108AA00000C00008C15101084E4545445F424C20BA
:108AB0005458540010B5FAF7CDFA20B1FFF7B8FEBC
:108AC00008B9F7F79BF9FAF7C7FA40B1FAF782F954
:108AD00018B9FAF76BF9012801D1F7F78FF90248B5
:108AE0004168491C416010BD0C01002070B50C4666
:108AF0000546FBF779F910B9FBF774F908B10122C3
:108B000000E000221AB9FAF78BF8002871D074B18E
:108B1000012C6ED10B2245492846F3F736FC00287C
:108B200067D1FFF783FBBDE87040FFF76FBE0B22F4
:108B30003F492846F3F729FC00284ED00B223DA1DF
:108B40002846F3F722FC00284FD00B223CA12846F0
:108B5000F3F71BFC002849D00B223CA12846F3F771
:108B600014FC002846D00B223BA12846F3F70DFC4D
:108B70000028D8D00B223BA12846F3F706FC00289A
:108B80003FD00B223AA12846F3F7FFFB002839D04B
:108B90000B223AA12846F3F7F8FB002835D00B2228
:108BA00039A12846F3F7F1FB00283AD00B2239A16E
:108BB0002846F3F7EAFB98B30B2239A12846F3F7CE
:108BC000E4FB38B10B2239A12846F3F7DEFB00287D
:108BD0002BD10120FAF734F9A5E7FAF73DFA00287E
:108BE000A1D00120FAF732F99DE70120FAF786F9C2
:108BF00099E71AE0BDE870409F222FA10020F9F705
:108C000083BE0120FAF782F98DE7374C20680068AF
:108C1000804720680069804720684068804782E775
:108C200000E00120FAF77AF97DE770BDCF920108E4
:108C3000909001084155544F5F52535443464700AA
:108C4000484152445F5253544346470041535345B1
:108C50005254202041435400524546524553482027
:108C6000414354004155544F5F4F4E204346470007
:108C70004155544F5F4F4646434647004552415386
:108C800045202020414354004F56464C5F4F4E2014
:108C9000434647004F56464C5F4F464643464700C3
:108CA0004D53445F4F4E2020414354004D53445F89
:108CB0004F464620414354002E2E5C2E2E5C2E2E15
:108CC0005C736F757263655C6461706C696E6B5C1C
:108CD000647261672D6E2D64726F705C7666735F6F
:108CE000757365722E6300005C9101082DE9F05FD9
:108CF0000446002615468B463046DFF85090DFF8D4
:108D000050A01CE006EB460209EB82028442916807
:108D100000EB512188460DD38C420BD2A8EB0407FF
:108D2000AF4200D32F465368201A3A465946984717
:108D30003C44ED1B002D06D0761C4046F6B2DAF816
:108D400008108E42DED3BDE8F09F000024190020F9
:108D500014010020FEB5044690F8300015460F4679
:108D6000302801D3606B31E0C0F13006AE4200D351
:108D7000164620443246F3F7AAFB94F830003044FC
:108D8000C1B284F83010302901D20020FEBD00238A
:108D90003744AD1B1A462046FAF7FCFB08B302A97C
:108DA0000022009101AB1146FAF748FC0028EDD1F2
:108DB0000198606394F830202146FAF75BFD0028A3
:108DC000E4D194F83010606B084460632A46394659
:108DD000FAF750FD0028D9D1606B28446063142055
:108DE000FEBD1C20FEBD00002DE9F84F894681180C
:108DF0004FF48063B3EB412F07D2BDE8F84F40F248
:108E00007E2227A10020F9F77FBD41024B095102C4
:108E10004FEA511B00912F4901EB431A10B1002674
:108E20002D4F33E00126FBE709EB46140AEB46150C
:108E3000202221462846F3F7A8FA30B321462846D7
:108E40000B22F3F7A2FA78B100208046D7F804C0CD
:108E500023462A4620460221E0472078E52805D00F
:108E6000B8F1000F07D010E00120EEE72A462346B4
:108E70001046012107E02046FAF70CFB28B12346F3
:108E80002A46184600217C68A047761C5E45CBD355
:108E900050464946009ABDE8F84FF3F718BB00006A
:108EA0002E2E5C2E2E5C2E2E5C736F757263655CAD
:108EB0006461706C696E6B5C647261672D6E2D64A9
:108EC000726F705C7669727475616C5F66732E6325
:108ED00000000000E41900201401002030B44B0011
:108EE000012404EB4101B1F5007F06D330BC40F210
:108EF0003B1204A10020F9F707BDC254120A4254E4
:108F000030BC70472E2E5C2E2E5C2E2E5C736F753F
:108F10007263655C6461706C696E6B5C64726167DE
:108F20002D6E2D64726F705C7669727475616C5F02
:108F300066732E63000000002DE9F04786B0002420
:108F400016460F460546039404940DF110080DF1E2
:108F50000C094FF4807A0594CDF800A0CDE9019872
:108F60006B1C05AA31463846FBF738FD68B102286C
:108F700013D001281DD0042825D0052801D00628AB
:108F8000EAD1052821D0012020E0049A22B3691CEF
:108F90000398FAF76FFC04461EE0049A2AB1691C94
:108FA0000398FAF767FC040016D10598361A0744AF
:108FB000D2E7049A22B1691C0398FAF75BFC0446D5
:108FC00054B9132408E0152406E0002040F2611291
:108FD00003A1F9F799FC162406B02046BDE8F087F6
:108FE0002E2E5C2E2E5C2E2E5C736F757263655C6C
:108FF0006461706C696E6B5C647261672D6E2D6468
:10900000726F705C66696C655F73747265616D2EFA
:10901000630000007047000001003037303000006E
:109020000000000000002C010020000000000000F3
:109030000000000000000000000000000000000030
:109040000000000000000000000000000000000020
:109050000000000000000000000000000000000010
:109060000000000000000000000000000000000000
:1090700000000000000000000000000000000000F0
:1090800000000000000000000000000000000000E0
:1090900053544152545F424C4143540080A3010851
:1090A00024A3010804A30108DCA30108B89F010858
:1090B000CCA20108D09F01081CA20108BCA1010894
:1090C0009CA3010878A2010840A101087CA1010825
:1090D00004A401083CA301086CA0010840A00108F9
:1090E00018A001089CA0010858A20108C0A301080B
:1090F000889D0108489D01080C9D0108CCA001082D
:10910000849F0108E09E0108A89E0108D09D0108E7
:10911000AC9C0108E09C0108809C0108209C01088F
:10912000509C0108409F0108209E01085C9E010898
:1091300058A401081C9F01084570010869720108C4
:10914000AD700108516F0108C56E0108E571010895
:10915000B56F0108A56E0108117201083891010868
:10916000303132333435363738396162636465669D
:109170000000000079410108F5780108A54D0108BB
:10918000153101087D300108F14E0108E131010877
:10919000B56E010800000000749101080000000095
:1091A000FFFFFFFFFFFFFFFFFFFFFFFFFFFFFFFFCF
:1091B00000000000000000000000000000000000AF
:1091C00000000003747970653A20006572726F7256
:1091D0003A20003C21646F63747970652068746D77
:1091E0006C3E0D0A3C212D2D206D62656420506C73
:1091F0006174666F726D2057656273697465206172
:109200006E642041757468656E7469636174696F1A
:109210006E2053686F7274637574202D2D3E0D0A95
:109220003C68746D6C3E0D0A3C686561643E0D0AD5
:109230003C6D65746120636861727365743D22756D
:1092400074662D38223E0D0A3C7469746C653E4D7F
:109250007573654C61622053686F70205765627347
:109260006974652053686F72746375743C2F7469F8
:10927000746C653E0D0A3C2F686561643E0D0A3CC6
:10928000626F64793E0D0A3C7363726970743E0DBF
:109290000A77696E646F772E6C6F636174696F6EA5
:1092A0002E7265706C6163652822405222293B0D45
:1092B0000A3C2F7363726970743E0D0A3C2F626F13
:1092C00064793E0D0A3C2F68746D6C3E0D0A0041B6
:1092D0005353455254202054585400001CA50108F3
:1092E00038A5010828A5010830A5010810A5010826
:1092F000EB3C904D53443053342E310002080100B2
:10930000022000501FF801000100010000000000D1
:1093100000000000000029741902274441504C4904
:109320004E4B2D444E444641543136202020FAB84D
:10933000C0070520018ED0BC0010B8C0078ED8BE73
:109340006D00E80B00EBFEB40EB700B307CD10C301
:109350008A044608C07405E8EDFFEBF4C3504C45A1
:109360004153452052454D4F5645205448452041D4
:10937000524D204D424544204441504C494E4B20D3
:109380005553422044455649434520414E442052BE
:1093900045424F4F54205448452053595354454D4E
:1093A0002E2E000000000000000000000000000061
:1093B00000000000000000000000000000000000AD
:1093C000000000000000000000000000000000009D
:1093D000000000000000000000000000000000008D
:1093E000000000000000000000000000000000007D
:1093F000000000000000000000000000000000006D
:10940000000000000000000000000000000000005C
:10941000000000000000000000000000000000004C
:10942000000000000000000000000000000000003C
:10943000000000000000000000000000000000002C
:10944000000000000000000000000000000000001C
:10945000000000000000000000000000000000000C
:1094600000000000000000000000000000000000FC
:1094700000000000000000000000000000000000EC
:1094800000000000000000000000000000000000DC
:1094900000000000000000000000000000000000CC
:1094A00000000000000000000000000000000000BC
:1094B00000000000000000000000000000000000AC
:1094C000000000000000000000000000000000009C
:1094D000000000000000000000000000000000008C
:1094E000000000000000000000000000000055AA7D
:1094F000ED5101081590010800020000794F0108A4
:109500001590010800000000794F0108159001082E
:1095100000000000F94E0108E98D01080004000078
:109520000000000000000000000000280000000013
:10953000000000000000418EBB320000000000006F
:10954000000000000000000000000001000000001A
:10955000764876480000DC83764800000000000072
:1095600000BE0AE00D782D0668400824400000D3B4
:109570005840641EFAD1491C521E002AF2D170478D
:1095800010B503460020444C2060444860604448C5
:1095900060602046C06910F0040F08D145F25550B4
:1095A000404C20600620606040F6FF70A060002004
:1095B00010BD01463848006940F08000364A10610D
:1095C000002070473448006940F0040032490861C7
:1095D0000846006940F04000086103E04AF6AA200E
:1095E000304908602C48C06810F0010FF6D12A48B5
:1095F000006920F0040028490861002070470146F6
:109600002548006940F00200234A1061104641617C
:10961000006940F04000106103E04AF6AA20214AA8
:1096200010601D48C06810F0010FF6D11A4800699B
:1096300020F00200184A10610020704710B5034660
:10964000481C20F0010122E01348006940F00100AD
:10965000114C20611088188000BF0F48C06810F0BE
:10966000010FFAD10C48006920F001000A4C20617A
:109670002046C06810F0140F06D02046C06840F0A5
:109680001400E060012010BD9B1C921C891E002963
:10969000DAD10020F7E700000020024023016745EF
:1096A000AB89EFCD00300040000000000000000852
:1096B000000400002100002053000020650000206D
:1096C0009F000020DD0000200000000001000020BD
:1096D0004801002000080020000A002000000020AF
:1096E0004C0100006095010800040000000000002B
:1096F0000000000001020304060708090000000042
:10970000010203040000014000000100400040008D
:10971000400001004000020240000002400004043A
:109720004000400010001000212001014000000214
:1097300040000000CD2601080000000000000000ED
:10974000DB26010800000000B908010889020108B1
:10975000CD150108FB040108DD040108000000002C
:1097600000000000000000000000000000000000F9
:1097700000000000000000000000000000000000E9
:1097800000000000000000001D08010800000000AB
:10979000000000000600FF0901A101150026FF00DE
:1097A00075089540090181029540090191029501D2
:1097B0000901B102C000210012011002EF020140B4
:1097C000280D04020001010203010000050F390009
:1097D000021810050038B60834A909A0478BFDA06F
:1097E000768815B665000121001C100500DF60DDDC
:1097F000D88945C74C9CD2659D9E648A9F00000312
:10980000064A012000000403090408034100520035
:109810004D0024034400410050004C0069006E00DC
:109820006B00200043004D005300490053002D0001
:109830004400410050001A03300030003000310075
:109840004100300030003000300030003000300087
:1098500022036D0062006500640020005300650073
:109860007200690061006C00200050006F007200FF
:10987000740022036D006200650064002000530044
:1098800065007200690061006C00200050006F00EC
:10989000720074002A0343004D0053004900530036
:1098A0002D004400410050002D00760031002D00B5
:1098B0004D007500730065004C00610062002403D8
:1098C0005700650062005500530042003A00200036
:1098D00043004D005300490053002D004400410057
:1098E000500010035500530042005F004D0053002C
:1098F00043002A0343004D005300490053002D004C
:109900004400410050002D00760032002D004D0033
:109910007500730065004C0061006200080B0002D6
:1099200002020104090400000102020104052400EE
:109930001001052401030204240206052406000088
:109940000705830310002009040000020A00000537
:10995000070504021000000705840210000004003F
:10996000880004017FFC0A000100000010270000AD
:1099700000000000CC00000098000000040000007F
:1099800000000000000001010100000001000100D2
:1099900000000000000000000000000000000000C7
:1099A00000000000000000000000000000000000B7
:1099B00000000000000000000200020001000000A2
:1099C0000000000000000000000000000000000097
:1099D0000000000000000000000000000000000087
:1099E000000000000300020004000000000000006E
:1099F0000000000000000000000000000000000067
:109A00000000000000000000000000000000000056
:109A10000000000000000000000000000000000046
:109A20000000000000000000000000000000000036
:109C2000496E206170706C69636174696F6E207039
:109C3000726F6772616D6D696E6720736563746FB3
:109C400072206572617365206661696C65642E00BF
:109C5000496E206170706C69636174696F6E207009
:109C6000726F6772616D6D696E67206D61737320CD
:109C70006572617365206661696C65642E00000021
:109C8000496E206170706C69636174696F6E2070D9
:109C9000726F6772616D6D696E6720777269746546
:109CA000206661696C65642E00000000496E2061C9
:109CB00070706C69636174696F6E2070726F677227
:109CC000616D6D696E6720696E697469616C697A2E
:109CD0006174696F6E206661696C65642E000000B6
:109CE000496E206170706C69636174696F6E207079
:109CF000726F6772616D6D696E6720756E696E69EE
:109D000074206661696C65642E00000054686520EB
:109D10006865782066696C652063616E6E6F74207B
:109D200062652070726F6772616D6D65642E204C84
:109D30006F676963206661696C757265206F636324
:109D400075727265642E000054686520686578201D
:109D500066696C652063616E6E6F74206265206455
:109D600065636F6465642E20506172736572206C48
:109D70006F676963206661696C757265206F6363E4
:109D800075727265642E00005468652068657820DD
:109D900066696C652063616E6E6F74206265206415
:109DA00065636F6465642E20436865636B73756DCE
:109DB0002063616C63756C6174696F6E20666169A4
:109DC0006C757265206F636375727265642E000036
:109DD000546865206170706C69636174696F6E208E
:109DE00066696C6520666F726D6174206973207599
:109DF0006E6B6E6F776E20616E642063616E6E6F46
:109E0000742062652070617273656420616E642FD6
:109E10006F722070726F6365737365642E0000004B
:109E2000496E206170706C69636174696F6E207037
:109E3000726F6772616D6D696E67206E6F742073EB
:109E40007570706F72746564206F6E2074686973CA
:109E5000206465766963652E00000000496E20610C
:109E600070706C69636174696F6E2070726F677275
:109E7000616D6D696E67206661696C6564206265FD
:109E800063617573652074686520757064617465BD
:109E90002073656E742077617320696E636F6D70D7
:109EA0006C6574652E0000005468652073746172DF
:109EB00074696E67206164647265737320666F7283
:109EC0002074686520696E746572666163652075CB
:109ED00070646174652069732077726F6E672E00FD
:109EE000546865207374617274696E67206164647C
:109EF0007265737320666F722074686520626F6F7D
:109F0000746C6F616465722075706461746520693A
:109F1000732077726F6E672E000000005468652012
:109F2000626F6F746C6F616465722043524320648A
:109F30006964206E6F7420706173732E00000000DE
:109F4000496E206170706C69636174696F6E207016
:109F5000726F6772616D6D696E672061626F727496
:109F600065642064756520746F20616E206F757460
:109F7000206F6620626F756E647320616464726521
:109F800073732E00546865206865782066696C6577
:109F9000206F6666736574206C6F61642061646411
:109FA00072657373206973206E6F7420636F7272B1
:109FB0006563742E00000000546865207472616E41
:109FC000736665722074696D6564206F75742E0008
:109FD00046696C652073656E74206F7574206F66BA
:109FE000206F726465722062792050432E20546184
:109FF00072676574206D69676874206E6F74206283
:10A00000652070726F6772616D6D656420636F7239
:10A01000726563746C792E00466C61736820616CA4
:10A02000676F726974686D20777269746520636FF9
:10A030006D6D616E64204641494C555245000000EB
:10A04000466C61736820616C676F726974686D201B
:10A05000657261736520616C6C20636F6D6D616EFC
:10A0600064204641494C555245000000466C6173DE
:10A070006820616C676F726974686D2065726173C6
:10A080006520736563746F7220636F6D6D616E64BC
:10A09000204641494C55524500000000466C617312
:10A0A0006820616C676F726974686D20777269747B
:10A0B000652076657269667920636F6D6D616E6487
:10A0C000204641494C555245000000005468652027
:10A0D0006865782066696C6520796F752064726F99
:10A0E000707065642069736E277420636F6D706192
:10A0F0007469626C6520776974682074686973207C
:10A100006D6F6465206F72206465766963652E20CB
:10A1100041726520796F7520696E204D41494E541A
:10A12000454E414E4345206D6F64653F2053656544
:10A130002048454C50204641512E48544D000000C7
:10A1400054686520696E746572666163652066692E
:10A15000726D77617265204641494C454420746FA9
:10A1600020696E697469616C697A6520746865201C
:10A17000746172676574204D435500005468652012
:10A18000696E74657266616365206669726D776178
:10A190007265204641494C454420746F20756E69B4
:10A1A0006E697469616C697A652074686520746190
:10A1B00072676574204D43550000000054686520A7
:10A1C000696E74657266616365206669726D776138
:10A1D0007265204641494C454420746F20646F7776
:10A1E0006E6C6F61642074686520666C61736820B2
:10A1F00070726F6772616D6D696E6720616C676FF9
:10A20000726974686D7320746F207468652074615E
:10A2100072676574204D4355000000005468652046
:10A22000696E74657266616365206669726D7761D7
:10A230007265204641494C454420746F2072657315
:10A2400065742F68616C742074686520746172672E
:10A250006574204D43550000456E64206F66207381
:10A26000747265616D20686173206265656E20722D
:10A27000656163686564000054686520696E746593
:10A280007266616365206669726D776172652046EA
:10A2900041494C454420746F20646F776E6C6F6148
:10A2A000642074686520666C617368206461746101
:10A2B00020636F6E74656E747320746F2062652006
:10A2C00070726F6772616D6D65640000506F7373BB
:10A2D00069626C65206D69736D6174636820626585
:10A2E000747765656E2066696C652073697A652090
:10A2F000616E642073697A652070726F6772616D38
:10A300006D656400416E20696E7465726E616C20CB
:10A310006572726F7220686173206F636375727209
:10A3200065640000416E206572726F72206861730F
:10A33000206F636375727265640000005468652065
:10A34000696E74657266616365206669726D7761B6
:10A350007265204641494C454420746F20756E6CEF
:10A360006F636B2074686520746172676574206622
:10A370006F722070726F6772616D6D696E67000039
:10A380004F7065726174696F6E20776173207375A9
:10A39000636365737366756C000000005468652024
:10A3A000666C61736820616C676F206D6973736997
:10A3B0006E6720666F72206120726567696F6E003C
:10A3C000456E64206F662073747265616D206973D9
:10A3D00020756E6B6E6F776E00000000416E206519
:10A3E00072726F72206F6363757272656420647538
:10A3F00072696E6720746865207472616E73666539
:10A400007200000054686520696E7465726661634D
:10A4100065206669726D776172652041424F5254C2
:10A4200045442070726F6772616D6D696E672E2092
:10A43000496D61676520697320747279696E672060
:10A44000746F207365742073656375726974792005
:10A450006269747300000000000000004120626F18
:10A460006F746C6F616465722075706461746520CF
:10A4700077617320737461727465642062757420EF
:10A48000756E61626C6520746F20636F6D706C65B2
:10A4900074652E0D0A52656C6F61642074686520C6
:10A4A000626F6F746C6F6164657220746F2066698F
:10A4B000782074686973206572726F72206D65739D
:10A4C000736167652E0D0A0068747470733A2F2FDC
:10A4D00073686F703434363932323139332E7461E7
:10A4E0006F62616F2E636F6D2F3F73706D3D323001
:10A4F00031332E312E313030303132362E6432311C
:10A500002E33363831343465325833326570440076
:10A51000696E74657266616365000000696E7465DA
:10A52000726E616C000000007573657200000000BF
:10A5300074617267657400007472616E7369656E30
:10A54000740000004D4245442020202056465320F0
:10A55000202020202020202020202020302E3100EC
:10A5600080A5010800000020E805000028C10008BF
:10A5700000A70108E8050020882E000084C100081B
:10A5800021380801010206020208013A04062F01DF
:10A590000106060604017A1001052308999697E43E
:10A5A00001010102270418125D300108114701085A
:10A5B000558D0108092C01086F101A15101E398FCE
:10A5C00001080D1001885DAC960108E319946A0238
:10A5D0000C111AB41801B712201A500401CC26A28B
:10A5E0004A048025B2081206126B520A1603064A64
:10A5F0000108320212A012141203A757494E5553F4
:10A6000042128412041207122A12441265127612A0
:10A61000691A63081249126E1A7408127212663AA5
:10A62000611212471A5516124432731250127B12DD
:10A630003912321243124512361A340412321A2DCC
:10A640001212431A37023A2D121A461C29141A33D1
:10A65000021A420A12331A31203A422612351A419E
:10A660000229181239527D0950A01A430C3A42644B
:10A67000296E1A44823A328E298C29A01A360C5A35
:10A680002D881A360A3A310C3A451C29043A33CC43
:10A690005A36A021402D44A501082C03016F732ECA
:10A6A0006D6265642E636F6D2F7765627573622FBF
:10A6B0006C616E64696E672D706167652F3F6269BA
:10A6C000643DCA132C011A1260023C401E8C990191
:10A6D00008B8041AE4041E109A01083C041A68041D
:10A6E0001A94041AC0041AEC041E189B01084404AE
:10A6F0001A70041A9C041AC8041AF40401DC00003D
:10A70000FFFFFFFFFFFFFFFFFFFFFFFFFFFFFFFF59
:10A71000FFFFFFFFFFFFFFFFFFFFFFFFFFFFFFFF49
:10A72000FFFFFFFFFFFFFFFFFFFFFFFFFFFFFFFF39
:10A73000FFFFFFFFFFFFFFFFFFFFFFFFFFFFFFFF29
:040000050800C0ED42
:00000001FF
