:020000040800F2
:20000000E01C00200D2E0008312E0008352E0008392E00083D2E0008412E00080000000056
:20002000000000000000000000000000452E0008492E0008000000004D2E0008512E0008BC
:20004000552E0008592E00085D2E0008612E0008652E0008692E00086D2E0008712E0008D8
:20006000752E0008792E00087D2E0008812E0008852E0008892E00088D2E0008912E0008B8
:20008000952E0008992E00089D2E0008152D0008192D0008A92E0008AD2E0008B12E0008B2
:2000A000B52E0008B92E0008BD2E00081D2D0008C52E0008C92E0008CD2E0008D12E00081D
:2000C000D52E0008D92E0008DD2E0008E12E0008E52E0008E92E0008ED2E0008F12E000858
:2000E000F52E0008F92E0008FD2E0008FFFFFFFFFFFFFFFFFFFFFFFFFFFFFFFFFFFFFFFF87
:20010000153CA54700000021772A000810B5DFF8204700B92EE0DFF81C070068006880477D
:2001200020680A3010BD80B5DFF80407DFF8082700685278C1788A420DD38278002A04BF15
:200140008288002A07D18172DFF8E806006840688047002002BD022002BD10B5DFF8D04692
:2001600000B907E0DFF8CC0600688068804720680C3010BD206801210182002010BD10B5AF
:20018000DFF8AC46DFF8B42620681268C17840799269904721688A7A9AB1002804BF0879DB
:2001A00000280ED1887860B9DFF888060068C068804720684179C1722068C1780173002099
:2001C00010BD022010BD10B5DFF86416096818B902200882002010BD0020DFF86446208031
:2001E0007F220878104215D1487A810603D5002141F0020121704006217854BF01F0FE00BE
:2002000041F001002070DFF82C06006800698047204610BD00F07F02012AF9D000F07F0074
:200220000228D7D14879DFF81C2600F00F01000652F8210007D500F030001028E3D1002099
:2002400040F00100DEE700F44050B0F5805FDAD1002040F00100D5E770B5DFF8D4050068AB
:20026000017811F07F0104D1417A01F0DF01417251E0022901BF41880029017900294CD1A2
:200280004179DFF8C04521F080050A0654F825204CBF02F0300202F44052DFF89C351B789F
:2002A0009D423AD2002A1CBF807A002835D0080654F825000BD500F03000102826D128460B
:2002C00000F045FB3021284600F0F6FA1EE000F44050B0F5805F19D14BF68F7665B9DFF824
:2002E000680590F82C10002000F05EFB2068304080F44050206009E0284600F018FB54F842
:200300002500304080F4405044F82500DFF82405006840698047002070BD022070BD38B582
:20032000DFF80C05DFF81C150268537923F080001C0651F820404CBF04F0300404F440547A
:20034000DFF8F4542D78A84206D2558825B9002C1CBF927A002A01D1022032BD1A0651F8D3
:20036000202005D548F6BF731A4082F0100204E04BF68F731A4082F4805241F82020DFF8FC
:20038000B404006880698047002032BDDFF8A0241268538A20B98888C01A10820020704760
:2003A0000868181870472DE9F041DFF88444206800F110052988002904BF007A042802D15C
:2003C0000726102025E0AF888F4205D30426B94288BF39460F4600E00226A9683846884735
:2003E0008046002000F0D1FA01463A46404600F02AFB3946002000F0D0FA2888DFF84C14BA
:20040000C01B28804FF440526888381868800A803020DFF83C14088020680672BDE8F081BD
:2004200038B5DFF80C442068457801787F22114241D1092D02D1FFF776FE50E0052D1BD123
:20044000C178802959DA8178002901BF81880029807A002851D1DFF8FC13DFF8FC230968E2
:2004600089B2002342F811300620DFF8E41330220A802168087231BD032D11D1C17801296D
:2004800004BF818800292CD1417A8A0629D541F020014172DFF89C030068C0698047DAE78D
:2004A000012D04BFC17801291BD18188C9B9407A80060DD415E001F07F00012804D10B2DB5
:2004C0000FD1FFF75CFE0AE002280AD1012D02D1FFF7C2FE03E0032D03D1FFF720FF002822
:2004E000B9D0DFF858130968496928468847032808BF0920BDD00028ADD00820B9E710B5F7
:20050000CB4C20684178062916D101787F22114231D18078012803D1C8480068C16975E012
:20052000022803D1C5480068016A6FE0032822D1C2480068416A69E0002944D141880029DA
:2005400004BFC188022916D10179A1B901787F22114204BF8288002A33D001F07F02012AA5
:2005600015D1B64A4079126892690021904710B92068807A28BBB149206809684078096924
:20058000884703284BD120680921017210BD01F07F010229EFD14079AA4B00F00F0100F059
:2005A0007002000653F821004CBF00F0300000F44050A14B1B789942DDD2002ADBD10028A1
:2005C000D9D0A64922E0082905D100787F210842D1D1A3491AE00A2902BF017801F07F01B2
:2005E0000129C8D1817A0029C5D04188002901BF01790029C1880129BDD1904A407912681C
:200600009269002190470028B5D196490800B2D020680022428281610020884700202168E8
:200620000A8A4FF6FF739A4208BF092004D0022818BF002A02D10820087210BD08780006DC
:200640000BD5C888904238BF08827C48006890F82C008882BDE81040A5E6032008724FF4CD
:2006600040517A48018010BD38B57A487E4900686F4C80B231F8100021680A7A400000F197
:20068000804000F5C040092A14D010F8012B0A70216810F8012B4A70851C35F8040B00F09C
:2006A000CDF921684880288800F0C8F921688880A888C8800121206801722068C08810B903
:2006C000FFF7AEFE01E0FFF71AFFBDE831407DE010B5574C2068017A022918BF042904D1A6
:2006E000FFF761FE2068007A14E0062911D14178052902BF01787F22114206D1C07800F08A
:200700007FF84C480068006A80474C48006880688047082021680872BDE8104056E0F8B587
:20072000434C2068017A032918BF052943D100F11005A9682E88080018BF002E14D0A888F4
:20074000864288BF06463046884707462888801B2880688830186880002000F017F9014632
:200760003246384600F085F9288850B137484FF4405101800020002100F00FF9344830218A
:2007800001802888AA882168904228BF032001D210B1052008720BE00620087200222D483C
:2007A0002D49006880B241F810203021284801802068007A06E0072903D120480068C0689A
:2007C0008047082021680872BDE8F14080B51E4890F82C10002000F0E7F815480068017AC3
:2007E000082906D119494FF480520A80102218490A80007A092801D1012002BD002002BD97
:20080000F0B40D490F4B0978002259B11C4648F68F7526682E40D7B23E43521C44F8046B14
:200820008A42F6D340F08000D864F0BC70470000841400208C140020480300208814002035
:20084000C4140020005C004034020020C8140020CA140020505C004004600040C701000854
:200860000D0100085B01000808600040704710B450F8041B81B102681218001D50F8043B0A
:20088000DC0744BFA9F10104E31852F8044B43F8044B091FF9D1EBE710BC70474FF6F871C0
:2008A0000840DFF8801108607047DFF87C2152F8203048F68F1C5AE0DFF86C2152F820303A
:2008C00048F6BF7C0CEA03035FEAC16C48BF83F01003890648BF83F0200310E0DFF8482144
:2008E00052F820304BF68F7C0CEA03035FEAC14C48BF83F48053890448BF83F4005342F8D7
:2009000020307047DFF8201151F820204BF68F731A4082F4405207E0DFF80C1151F8202036
:2009200048F68F63FFE71A4041F820207047DFF8F81051F82020520408D551F8202048F6B5
:200940008F731A4042F4804241F820207047DFF8D81051F82020520608D551F8202048F6CF
:200960008F731A4042F0400241F8202070470CEA0303194342F82010704738E0294A1268F9
:2009800092B202EBC000294A37E03BE02549096889B201EBC00025493AE0224A126892B249
:2009A00002EBC000224A2AE01E4A126892B202EBC000204A02EB40003F2909DB4A091F23C9
:2009C000194208BF521E1204910941F4004105E04A08C90748BF521C12049109016070471B
:2009E0001049096889B201EBC000124914E00D4A126892B202EBC0000F4A4908490042F808
:200A0000101070470749096889B201EBC0000A4951F8100080B2704751F810008005800D57
:200A200070470000505C0040005C004008600040046000400C600040006000400106090CC3
:200A400041EA10207047490001F18041521C01F5C04152100AD1704710F8013B10F801CB17
:200A600043EA0C2321F8023B891C521E002AF3D17047490001F18041521C01F5C041521047
:200A800005D1704751F8043B20F8023B521E002AF8D17047F0B5046842688368C068DFF82D
:200AA0000C56DFF80C760C604A608B60C8600A26C0F3072EC0F3074C1EF807E01CF807C05C
:200AC0004FEA0E4E4EEA0C6C5FFA80FE1EF807E04CEA0E2C4FEA106E1EF807E04EEA0C0C89
:200AE00055F804EB8EEA0C0C8CEA0404624041F8104F53404A6058408B60C860761ED7D14E
:200B0000F0BDC7E72DE9F04F036852F8A04F84EA030E4368546884EA030883689468C06813
:200B200084EA0309D368DFF88C4583EA000CA2F1200009221B23CCF307464FEA1E65365D68
:200B40002D5D360446EA0565C9F30726CEF30747365D3F5D45EA06255FFA88F63F04365D09
:200B60003543066975404FEA1866C8F3074A365D1AF804A047EA0666CCF307274FEA0A4AB6
:200B80003F5D46EA07265FFA89F7C8F307283F5D18F804803E4347697E404FEA1967C9F305
:200BA00007493F5D19F804904AEA0767CEF3072A5FFA8EFE1AF804A01EF804E047EA0A2719
:200BC0005FFA8CFA4FEA1C6C4FEA09491CF804C01AF804A049EA0C6C4CEA082C4EEA0C0CF7
:200BE000D0F81CE04FEAD5188EEA0C0C08F0013805F07F3E03FB08F888EA4E0E4AEA07078A
:200C00004FEADE19D0F818A009F001390EF07F3803FB09F98AEA070789EA48084FEAD81ACC
:200C20000AF0013A08F07F3903FB0AFA8AEA490989EA050585EA0E0B88EA0E0E89EA0E0EE5
:200C400085EA080A8EEA3B6E8EEA3A4E4FEAD6188EEA352E08F0013806F07F3503FB08F817
:200C600088EA45054FEAD51909F0013905F07F3803FB09F989EA48084FEAD81A0AF0013A8F
:200C800008F07F3903FB0AFA8AEA490989EA060686EA050B88EA050589EA050586EA080A62
:200CA00085EA3B6585EA3A4585EA3628FE0906F0013607F07F355E4386EA45054FEAD51909
:200CC00009F0013905F07F3603FB09F989EA46064FEAD61A0AF0013A06F07F3903FB0AFA6A
:200CE0008AEA490989EA070787EA050B754089EA050587EA060A85EA3B6585EA3A454FEA43
:200D0000DC1685EA372906F001360CF07F355E4386EA4505EF0907F0013705F07F365F4367
:200D200087EA46064FEAD61A0AF0013A06F07F3703FB0AFA8AEA470787EA0C0C8CEA050B19
:200D400075407D408CEA060A85EA3B6585EA3A45103885EA3C2C521E7FF4EDAECEF30743F6
:200D60004FEA18621B5D125D1B0443EA0262CCF30723C8F307451B5D2D5D42EA03225FFA8D
:200D800089F32D041B5D1A4343695A404FEA1963C9F307461B5D365D45EA0363CEF3072540
:200DA00036042D5D43EA05235FFA8CF5CCF307472D5D3F5D2B4385696B404FEA1C653F0409
:200DC0002D5D46EA0565C8F30726365D45EA06255FFA8EF6365D3543C669006975404FEAAC
:200DE0001E66365D47EA0666C9F307273F5D46EA07265FFA88F73C5D3443604008604A60C2
:200E00008B60CD60BDE8F08F2DE9F0470368146855689668A64F634044686C408568C068A2
:200E20007540D66886EA000902F1100009221B26C4F3074E4FEA136C1EF807E01CF807C03B
:200E40004FEA0E4E4EEA0C6CC5F3072EC5F307481EF807E018F807804CEA0E2C5FFA89FE75
:200E60004FEA08481EF807E04EEA0C0C4FEA146EC9F3074A1EF807E01AF807A048EA0E6E70
:200E8000C9F307284FEA0A4A18F807804EEA082E5FFA83F84FEA196918F8078019F8079007
:200EA00048EA0E0E4FEA156818F807804AEA0868C3F3072AC3F307431AF807A0DB5D48EAE9
:200EC0000A285FFA84FAC4F307241B04E45D1AF807A043EA096343EA0423ECB24AEA08083F
:200EE000E45D44EA03094FEADC1303F0013373430CF07F34CCF3066A83EA44058CEA4A6AB4
:200F000083EA0A0A8CEA440463401B0243EA1A636B4083EA3C4350F8044B83EA3C2363408B
:200F20004FEADE1404F0013474430EF07F35CEF3066A84EA450C8EEA4A6A84EA0A0A8EEADE
:200F400045056C40240244EA1A6484EA0C0484EA3E4450F8045B84EA3E246C404FEAD81512
:200F600005F00135754308F07F3CC8F3066A85EA4C0E88EA4A6A85EA0A0A88EA4C0C85EA05
:200F80000C052D0245EA1A6585EA0E0585EA384550F804CB85EA38258CEA05054FEAD91C64
:200FA0000CF0013C06FB0CFC09F07F3EC9F3066A8CEA4E0889EA4A6A8CEA0A0A89EA4E0EC1
:200FC0008CEA0E0C4FEA0C2C4CEA1A6C8CEA080C8CEA394C50F804EB8CEA392C8EEA0C0930
:200FE000521E7FF425AFC5F30746220EF65DD25D360446EA0262C9F30726C9F3074CF65D6A
:201000001CF807C042EA0622DEB24FEA0C4CF65D3243466872402E0EC3F3074EF65D1EF8A8
:2010200007E04CEA0666C3F3072C4FEA0E4E1CF807C046EA0C265FFA84FC1B0E1CF807C08F
:20104000DB5D4CEA0606D0F808C08CEA06064FEA196C1CF807C04EEA0C6CC4F3072EC4F318
:201060000744E45D1EF807E0240444EA03634CEA0E2CC5F307245FFA85FEE45D1EF807E0BE
:2010800043EA04234EEA0C0C5FFA89F4D0F80CE0E45D00682343584008604A608EEA0C0CD9
:2010A0008E60C1F80CC0BDE8F08700006402002000000020000100202DE9F04F93B080467C
:2010C00002AE002014461D460291B0610DF1300A0AE014F8011B0298C0470290002800F04A
:2010E000B481B069401CB061207808B9B069AEE12528EED10020F0603061706101E040F045
:20110000010014F8011F2029F9D023290DD02B2904D02D2906D030290AD00CE040F00200C2
:2011200080B2EEE740F00400FAE740F00800F7E740F01000F4E72A290DD129680A1D2A60EF
:2011400009683162002904D5494240F00400316280B2641C13E0002131620BE0316A6FF0F9
:201160000043994205D001EB810302EB430130393162641C2278A2F130010A29EED3217874
:201180002E2903D04FF0FF31F1611EE014F8011F2A2906D129680A1D2A60641C0968F1618B
:2011A00013E00021F1610BE0F1696FF00043994205D001EB810302EB43013039F161641C56
:2011C0002278A2F130010A29EED3B0840FF28030217800F0C1F908B114F8010B8DF82E0011
:2011E0009DF82E00682804BF2078682803D162208DF82E00641C0CA8B0602278252A13D098
:20120000582A34D0632A00F0A580642A18BF692A68D06F2A2BD0702A20D0732A09D0752A43
:2012200018BF782A23D09FE0F068411CF160252197E02868011D29600068F2697060002A0C
:2012400002D500F0A5F907E0002100F0C1F900281ABF7168401AF069306191E02868011D3A
:2012600029607821006801900CA870606EE09DF82E306C2B08BF286811D0712B08BF2868CC
:2012800002D028686A2B0AD1C01D20F007002860014601F108002860D1E9000102E0011D7C
:2012A000296000680190682B02D101A8008803E0622B02D101A80078019096F82400000767
:2012C0003FD5019800283CD042F02000782838D1F068302100F80A10401C411CF16000F875
:2012E0000A202EE09DF82E00622802D0682806D00BE02868011D296090F9000009E028680D
:20130000011D2960B0F9000003E02868011D296000680190002804D5F068411CF1602D2115
:201320000DE0B08C810704D5F068411CF1602B2105E0C00705D5F068411CF160202100F80C
:201340000A10F0680CA940187060114601A800F081F815E0F068411CF16029680A1D2A6098
:20136000096800F80A100BE0F068411CF160252100F80A1022B1F068411CF16000F80A20A6
:20138000306AF168401A7169401A3169A0EB010996F82400641C40070FD420208DF800007C
:2013A000002708E0012300AA01A9404600F0B9F800284AD17F1C4F45F4DBF7680DF1300BA6
:2013C0000AE01BF8011B0298C047029000283CD0B069401CB0617F1E002FF2D130208DF8A3
:2013E00000004FF0000B776908E0012300AA01A9404600F096F840BB0BF1010BBB45F4DB8D
:201400003769D6F804B009E01BF8011B0298C0470290D0B1B069401CB0617F1E002FF3D1C8
:2014200096F8240040077FF55FAE20208DF8000000E07F1C4F45BFF657AE012300AA01A92C
:20144000404600F06EF80028F3D04FF0FF3013B0BDE8F08FF0B4C2686F2908BF082405D042
:2014600041F02003782B14BF0A241024066818233746642918BF692902D1002E48BF7F425B
:201480005FB9056A4DB9082C27D190F82810090723D530211723D1751FE0B7FBF4F604FB60
:2014A000167730375D1EFFB22B463A2FA4BFA1F1510C6744AF54370003D085689E18B5428E
:2014C000EBD3082C09D190F82810090705D5995C302902D05B1E30219954C3F11801416150
:2014E0009A188260026A914208DA511A81614FF6EF72018D11400185F0BC7047002A0ED56F
:2015000090F8282002F01402102A08D1426A0369D21A8369D21A531A012BA8BF8361F0BC74
:201520007047F8B504460D4616461F46002004E0E869401CE8617F1E002047B116F8011B10
:201540006868A04768600028F2D14FF0FF30F2BD686C747A4C0000000278C9B28A421AB16A
:201560001CBF10F8012FF9E718BF0020704750F8041B61B150F8042BD30744BFA9F101035F
:201580009A18002342F8043B091FFAD1EFE7704700F10103810704D010F8011B89B1810746
:2015A000FAD10268B2F10131914311F0803F04BF50F8042FF6E710F8011B11B110F8011B68
:2015C000FBE7C01A70470268531C036011707047C9B2830706D0521E22D310F8013B9942C5
:2015E000F7D11FE0083A13D302F1040241EA012141EA014150F8043B121F21BF4B40A3F192
:20160000013C2CEA030C1CF0803FF3D0C9B2001F083210F8013B521E28BF91EA030FF8D80E
:2016200018BF0120401E704780B500F0C1F9CA49087001BD2DE9F84304460D46A04615F09C
:20164000030F0BD04FF6FC702840001D854205D2411BC248FF22281800F06EFA0026C04F75
:201660000DB97E8213E0DFF8F49259F8041B204600F0BDF9241D361DAE42F6D30020788271
:20168000788A18F8011B081878826D1EF8D1788A398A88420CBF00200320F872BDE8F1838E
:2016A000AF48022181720021C172AE480170704730B5AD484178491E8BB0092900F243818E
:2016C000DFE811F037004101A700F80013012B011A000A001F0028001422A44905A800F0BF
:2016E0006FFAA34800788DF818001422A02105A8FFF7A9F9142104E19948072101730BB0F3
:2017000030BD81784129A8BF4021924800F013FB0BB030BD01A8002100220B460C461EC0C4
:201720004FF004500190102101A800F004FB0BB030BD8B4CA17A022918BF05295FD18279C7
:20174000002A04BFC17900290BD1012060620620A072E07A207000206070608006202071D1
:20176000F4E084490B78A3B9C378857845EA03232362C37942EA0322A2614279007940EAE9
:2017800002202082A069E0610020E0810120087026E0206A784D98B9002100F029FB2878A6
:2017A000E97820730904287941EA0060A97840EA01206978084360610320A0722071C5E038
:2017C000E089A2690019412A11D340222946283000F0E6F9E0894030E081A0694038A06179
:2017E0004FF440510220FFF779F80BB030BD2946283000F0D5F90320A0722071A6E00A20E9
:20180000A0720F2020700020607060800A2020719CE0534CA07A032814D0042802D00628FC
:2018200041D03AE0607BC1073DD50521A172217100F0FE000021617061806073E17A21707D
:2018400000210DE0607BC1070ED500F0FE0005216073A17221710021E07A617061802070AB
:20186000012000F0C5FA1EE00421A1722171217B412916BF512950210021009140F0020026
:201880009DF80010617060739DF80110A1709DF80210E170E17A217005E0207100206070FE
:2018A0006080E07A20700622A0212046FFF7CBF8062126E02A4CA07A0A2808D10220A0725A
:2018C0000020206002202071002060710BE00A20A0720E2020700020607060800A20207154
:2018E000002060710E20E07230E01D4CA07A60720222E07A2072A02104F10800FFF7A3F8B3
:2019000002210120FFF749F830210120FEF7D4FF1848032101700BB030BD114CA07A801E60
:20192000012884BFC01E012801D9001F0ED10220A072002020600220207100206071206262
:20194000A061E07202E0022000F01BFA00F00EFA0BB030BD303C0008D6140020740B00206E
:201960004C0300209D140020A0140020E0F7FF1F203C00089C14002028140020DFF898114E
:201980000A6802F03802FFE70A600A68104308607047DFF884110A6822F01002F4E7DFF8C1
:2019A0007C01DFF87C110160DFF878110160704770B5054640F6FF76304600F078F8042850
:2019C00014D1DFF86441206840F0020020606560206840F040002060304600F068F8012840
:2019E00004D0216841F6FD721140216070BD70B50E46054616F1010F01D1042070BD0F20B8
:201A000000F055F8042816D1474C206840F0010020602E800F2000F04AF8042804D1300C5E
:201A200068800F2000F043F8012804D0216841F6FE721140216070BD70B5044640F6FF751F
:201A4000284600F034F8042830D1384E3448306034483060B06840F02000B060B06840F071
:201A60004000B060284600F022F8042817D1B06841F6DF710840B060002CB06840F010000F
:201A8000B0602B4814BF0021A5210180284600F00EF801280AD0B16841F6EF7204E0012863
:201AA00004D0B16841F6DF721140B16070BD18B4204A13680421DB0748BF012108D41368EA
:201AC0005B0748BF022103D41368DB0648BF0321FF2304E01468E40648BF0321401E0129FD
:201AE00015D1A8B100210091009302E00099491E009100990029F9D104211468E40748BFD0
:201B00000121EBD414686407E4D50221E6E700B90521084612BC70470020024004200240DA
:201B200023016745AB89EFCD102002400820024000F8FF1F0C20024062F30F2262F31F4249
:201B4000401810F0030308D0C91A1FD3DB0748BF00F8012D28BF20F8022D130030B41446EC
:201B60001546103928BF20E93C00FAD8490728BF20E90C0048BF40F8042D890028BF20F87F
:201B8000022D48BF00F8012D30BC7047C91818BF00F8012DCB0728BF00F8012D70470000D2
:201BA00062B38B0708D0521E11F8013B00F8013B00F024808B07F6D1830740F0208000BFB7
:201BC000103A07D330B4B1E83810103AA0E83810F9D230BC530724BFB1E80810A0E80810BD
:201BE00044BF51F8043B40F8043BD20724BF31F8022B20F8022B44BF0B7803707047083A9A
:201C000007D3B1E80810083A40F8043B40F804CBF7D25307E4E7000000B55048017840780D
:201C200083B08DF8001000A948704D48027A8DF80220427ACA700622817AC07A8DF80410D7
:201C40008DF80500A02100A8FEF7FDFE06210120FEF7A3FE30210120FEF72EFE4148032183
:201C6000017003B000BD10B53E4C607882B000F50070ADF800000222A02100A8FEF7E3FEBD
:201C80000320207002210120FEF787FE30210120FEF712FE13BD33480178891E03D0491EB7
:201CA000012905D970470079F32802D1FFF700BD60E0704710B50220FEF792FE0446224636
:201CC000E0212948FEF7D5FE2648017811B1012904D007E02046BDE8104005E00079F32868
:201CE00001D119E01CE010BD10B51E4C20B11E490246201DFFF754FF2079F12804D0F3287A
:201D000005D0F52804D006E0BDE8104084E703E0BDE81040A7E703E0BDE81040FFF7C8BCFF
:201D200010210120FEF7C8FDBDE810404FF480510220FEF7D3BD10B50C462246A021FEF7B2
:201D400082FE21460120FEF728FE30210120FEF7B3FD04480321017010BD0000FE3F000856
:201D6000A82C00089C14002028140020004801E09C1400200021017002204FF44051FEF7E5
:201D8000ADBD80B518B1022807D00AD301BDBDE8044010210120FEF78FBD10210120FEF77C
:201DA0008BFDBDE80440C1E700B585B000F096F8454802210186018801F09F010180018847
:201DC00001806020ADF800000220ADF808000120ADF8020000A800F08EF8012000F0C6F8D9
:201DE000012000F0C0F8012000F0AAF805B000BD70B5364E0446307882B00D46844218D027
:201E00000021042000F0A0F8002000F095F8062C40D8DFE804F004121427181A2F002C482D
:201E2000016821F0F0010091009941F04001016030E07068A842EAD173BD502000E04020CD
:201E400000F08CF826E0502000E0402000F086F82048858248F6A04101820420012100F0A3
:201E600073F817E01B4864218182818A49080184642105E017488582690801844FF6FF71B9
:201E800001820188C9B20091009941F4D041009100990180012110480160307800281CBF1A
:201EA0000428052809D144B10948016821F0F0010091009941F0B001016034707560012037
:201EC000BDE8764000F038B8002C0140B014002004080140182C01408082254280B50121E4
:201EE0004FF4006000F0EDF8BDE8044000214FF4006000F0E6B8DFF88C10DFF88C300A8897
:201F00004FF0000CC3F800C0D2B2B0F800C042EA0C220A8042881A6082889A6002895A609E
:201F20004289DA608389DFF86420FFE71360C3895360C08808847047DFF8541008607047F8
:201F4000DFF8501008607047DFF84C20012911880CBF084321EA00001080704709490A88D9
:201F600040F67F7308E00D49086070470C49086070470A884FF2FF331A4042EA0020088035
:201F800070470000182C014010842542A880254200802542BC8825420C2C01401C8025426D
:201FA0002C8325425848594A0021C16001611421416100218161C161016841F0010101602B
:201FC000416811404160524A016811400160016821F480210160416821F4FE0141600021B0
:201FE0008160704748490A6822F480320A60B0F5803F0A6822F480220A6003D0B0F5802FF5
:2020000004D07047086840F4803002E0086840F4A020086070473F483B490A68520C02F0AF
:20202000010202704268521C4260027812B94268FF2AF2D10868800301D5012070470020D5
:202040007047354A136823F47C1318430843106070473249086070472F490A68920840EA14
:202060008200086070472C48006800F00C00704729490A6822F0F00203E027490A6822F46D
:20208000E06210430860704723490A6822F4605242EAC00008607047214908607047214AE7
:2020A0000029116814BF084321EA0000106070471D4A0029116814BF084321EA000010608C
:2020C00070471A4A0029116814BF084321EA00001060704716490870704741090A4A01299D
:2020E00008BF116803D002290CBF116A516A00F01F0021FA00F000F0010070470D48016821
:2021000041F0807101607047001002400000FFF8FFFFF6FEB8140020041002406000424224
:20212000D8004242181002401C1002400C100240071002402410024000B59248816843681B
:20214000026889B001A800910FF2742100F040F98D4901A8062210F8013B01F8023B521E52
:2021600010F8013B01F8023B10F8013B01F8023B10F8013B01F8023BEDD109B000BD8348F2
:202180000068807A00B9704780B50120FEF7DFFB0220FEF7CCFB7E480021017001BD000054
:2021A00038B5FFF7C9FF794C20680021817200F029F900217748784A784D41604FF4044171
:2021C0001180016076492068C979417208E02878012804D14FF4FA710420FFF709FE00BFBD
:2021E0002068807A0028F2D005216E48017031BD10B56D48002181720020FEF74FFB4FF408
:2022000000710020FEF751FB20210020FEF754FB20210020FEF7B2FB644C94F82C100020AC
:20222000FEF7C2FB60210020FEF7A7FB0020FEF773FB0020FEF766FB00210120FEF735FB54
:20224000A0210120FEF799FB20210120FEF734FB00210120FEF742FB00210220FEF725FBC1
:20226000E0210220FEF78AFB94F82C100220FEF79BFB4FF440510220FEF730FB00210220F3
:20228000FEF71AFB00210320FEF70FFB4FF480710320FEF772FB20210320FEF70DFB0021B6
:2022A0000320FEF71BFB94F82C100020FEF77CFB0020FEF727FB0020FEF7A2FA3448002117
:2022C000017010BD7047704780B5304909680A7802F07F02212A08BFFE280BD14888002832
:2022E00001BF88880028C888012803D10FF28100020001D1022002BD88610020488200F09F
:2023000037F8002002BD80B5204909680A7802F07F02212A08BFFF2815D14888002804BFD1
:20232000888800280FD1C88868B90120FEF70FFB0220FEF7FCFA0320FEF709FB144800214E
:202340000170002002BD022002BD00290CBF0028022070471649FEF719B81649FEF716B810
:202360000A49154A0968C97802EBC101FEF70EB828B90648006801210182002070470F4825
:2023800070470000E8F7FF1F02020020841400209C140020405C0040D4140020CC140020F9
:2023A0008C020020D814002068140020340200203803002040030020B4020020D0140020D9
:2023C000253038582530385825303858000000000CB41CB5044604A801900A46009401ABA6
:2023E00000A9074878441830FEF766FE009900220A7000285CBF0098001B16BC5DF80CFB2F
:20240000C7F1FFFF80B5012000F0F1F80C480D4A012101600021016041604FF4044111806D
:202420000160002002BD10B5054C012020600020606000F0DCF803202060002010BD000071
:20244000405C0040D414002010B582B000F01BF86C4C4FF40041204600F080F94FF4004010
:20246000ADF8000000A914208DF8030001208DF80200204600F012F900F0CEF8FFF794FC0D
:2024800000F07CF813BD80B5FFF78CFD4FF48030FFF7A8FDFFF7BFFD012828D11020FFF7CC
:2024A00078FA0220FFF76AFA0020FFF7E1FD4FF48060FFF7E9FD4FF48060FFF7DEFD002027
:2024C000FFF7EAFD4FF4E0114FF48030FFF7B9FD0120FFF7BEFD3920FFF7FFFD0028FAD03D
:2024E0000220FFF7B9FDFFF7BEFD0828FBD1FFF756FA01214FF40000FFF7DAFD012140F691
:202500000C20FFF7CCFD0620FFF7E4FD4FF48070ADF8000000A918208DF8030002208DF8EB
:202520000200384800F0BAF801BD10B5364C00224FF40041204600F015F9322000F034F9F9
:202540002046BDE810400122012100F00BB92F480068000701D400207047012070472C4948
:202560000A784FF0FF30502A07D128480068000701D4487870476FF00100704780B5002181
:202580004FF0006000F065F92248002101604FF4A06000F019F914208DF8000001208DF8BE
:2025A000010000208DF8020001208DF8030000A800F00FF913208DF8000000208DF80100CC
:2025C0008DF8020001208DF8030000A800F001F91B208DF8000000208DF801008DF802004C
:2025E00001208DF8030000A800F0F3F801BD054A00284FF40041104618BF00F0AFB800F082
:20260000AFB8000000080140000C0140080C0140303C0008445C004010B582B001210120DA
:20262000FFF73DFD0121094800F0A1F808480178462902D14078C00705D401224FF4004164
:20264000044800F08FF8034C06E000BF00023000443C0008000C014000220121204600F022
:2026600081F848F20100ADF8000000A914208DF8030001208DF80200204600F00FF808206F
:20268000ADF8000000A948208DF8030001208DF80200204600F002F813BD00002DE9F041ED
:2026A000CC78002204F00F03E40644BF8C7823430C88E5B22DB3D0F800C001250F2605FA6A
:2026C00002F7BE460EEA0408F04515D14FEA820E06FA0EF82CEA080C03FA0EFE4EEA0C0C8C
:2026E00091F803E0BEF1280F08BF476191F803E0BEF1480F08BF0761521C082ADFD3C0F86E
:2027000000C0FF2C28DDD0F804C0002201250F2602F1080705FA07F7BE460EEA0408F04584
:2027200015D14FEA820E06FA0EF82CEA080C03FA0EFE4EEA0C0C91F803E0BEF1280F08BF48
:20274000476191F803E0BEF1480F08BF0761521C082ADDD3C0F804C0BDE8F0810161704735
:20276000416170470AB1016170474161704770B40C4A1368C0F3034485B2860248BF23F00B
:20278000E06306D4C60243BF032606FA04F4A343AB4321B180024CBF43EA05432B431360A8
:2027A00070BC70470400014041F27C51484381B0002102E000BF0099491C00910099814288
:2027C000F8D301B070470000274908432749086070472DE9F0410578C278012182B3234ABA
:2027E000204C126825F0030302F4E0621F5990F801C0C2F5E062120AC2F1040E0CFA0EFCF5
:2028000090F802E04FF00F0828FA02F202EA0E0205F0030542EA0C02ED00FF261201AE409C
:20282000AA40B74332403A431A510078104B420900F01F0001FA00F043F82200BDE8F081CF
:2028400005F01F03064A6809994042F82010BDE8F081084A114008430749086070470000EA
:2028600080E100E000E400E00000FA050CED00E000E100E080FFFF1F08ED00E02DE9F84FEB
:2028800040F68F7448F60F784BF68F7B654F664DDFF89891DFF898A121E0300404D52868DA
:2028A00020402860FDF73BFF286839880BEA0000CA0448BF80F48050890448BF80F400504B
:2028C000286048F6BF71286808407988CA0648BF80F01000890648BF80F020002860686C50
:2028E000AAF80000000460D547F6FF706864BAF8000010F00F0089F8000035D148F6BF71CF
:20290000286800F440503880286800F03000788028680BEA000080F400502860286808409A
:2029200080F020002860BAF80000C00628680FD408EA00002860FDF7CBFE4FF40841286841
:202940000842B1D0286820402860FDF78DFEABE786B2300605D5286808EA00002860FDF7DD
:20296000B7FE300599D5EDE755F820108EB231040AD555F82010214045F820102D4901EBAD
:20298000800050F8040C80473006A8D599F8000055F8201008EA010145F82010264901EB1B
:2029A000800050F8040C804799E7BDE8F18F2DE9F84FDFF88090DFF870B01C4F1C4CDFF8EE
:2029C0007CA040F68F7547F6FF7824E0CAF80080208800F00F0038705BF820108EB2310460
:2029E00009D55BF8201029404BF8201009EB800050F8040C804730060DD538785BF82010BC
:202A000048F60F7211404BF820100B4901EB800050F8040C8047DAF8000020800004D5D435
:202A2000BDE8F18FC8140020005C0040D7140020CE1400201C03002000030020445C00408A
:202A400080B50120C046C0467B20FFF746FB08B900F018F8FFF752FB3A483B49008880022E
:202A600050F8040C884202D100F082F801E000F009F8002002BD80B5FFF7E6FC00F082F8CF
:202A8000BDE801402DE9F8434FF4FA610420FFF7AFF9FFF7C8FC0A20FFF786FEFFF757FDF7
:202AA0000446012C08BFFFF740FDFFF758FD0546012D02DB0CB92548057200F077F8012DCE
:202AC00002DB0CB9FFF731FD00210120FFF790F9FEF7E6FD1E4C1F4DDFF87C80DFF87C900B
:202AE0001F4E204F1AE0D9F8002092B24146284600F078F8D9F800102068FEF79BFD3878D0
:202B000000F0FD0040F0010038703078072805D1FFF70BFDFFF787FC00F02AF83878800782
:202B2000F3D53078212808D0412802D05128DAD0E5E72068FEF778FDE1E751203070DEE74A
:202B400000000000E0F7FF1FD32700A58C0200206003002074030020740B002068030020EF
:202B6000580300205903002000400008000000085FF80C00016881F3088800F104000168E0
:202B80000847000010B5074979441831064C7C44163404E00A68081D511888470146A14292
:202BA000F8D110BD000200002002000010B50A4C0A49E461022020726162094820620068F6
:202BC00080474FF40070E0624FF48010A0624FF40060206310BD00BF68140020DC02002018
:202BE00034020020F0B5054617460F2085B00E46074200D107B942E0244C207800283BD142
:202C0000FFFFFFFFFFFFFFFFFFFFFFFFFFFFFFFFFFFFFFFFFFFFFFFFFFFFFFFFFFFFFFFFD4
:202C2000FFFFFFFFFFFFFFFFFFFFFFFFFFFFFFFFFFFFFFFFFFFFFFFFFFFFFFFFFFFFFFFFB4
:202C4000FFFFFFFFFFFFFFFFFFFFFFFFFFFFFFFFFFFFFFFFFFFFFFFFFFFFFFFFFFFFFFFF94
:202C6000FFFFFFFFFFFFFFFFFFFFFFFFFFFFFFFFFFFFFFFFFFFFFFFFFFFFFFFFFFFFFFFF74
:202C8000FFFFFFFFFFFFFFFFFFFFFFFFFFFFFFFFFFFFFFFFFFFFFFFFFFFFFFFFFFFFFFFF54
:202CA000FFFFFFFFFFFFFFFFFFFFFFFFFFFFFFFFFFFFFFFFFFFFFFFFFFFFFFFFFFFFFFFF34
:202CC000FFFFFFFFFFFFFFFFFFFFFFFFFFFFFFFFFFFFFFFFFFFFFFFFFFFFFFFFFFFFFFFF14
:202CE000FFFFFFFFFFFFFFFFFFFFFFFFFFFFFFFFFFFFFFFFFFFFFFFFFFFFFFFFFFFFFFFFF4
:202D0000FFFFFFFFFFFFFFFFFFFFFFFFFFFFFFFFFFFFFFFFFFFFFFFFFFFFFFFFFFFFFFFFD3
:202D2000FFFFFFFFFFFFFFFFFFFFFFFFFFFFFFFFFFFFFFFFFFFFFFFFFFFFFFFFFFFFFFFFB3
:202D4000FFFFFFFFFFFFFFFFFFFFFFFFFFFFFFFFFFFFFFFFFFFFFFFFFFFFFFFFFFFFFFFF93
:202D6000FFFFFFFFFFFFFFFFFFFFFFFFFFFFFFFFFFFFFFFFFFFFFFFFFFFFFFFFFFFFFFFF73
:202D8000FFFFFFFFFFFFFFFFFFFFFFFFFFFFFFFFFFFFFFFFFFFFFFFFFFFFFFFFFFFFFFFF53
:202DA000FFFFFFFFFFFFFFFFFFFFFFFFFFFFFFFFFFFFFFFFFFFFFFFFFFFFFFFFFFFFFFFF33
:202DC000FFFFFFFFFFFFFFFFFFFFFFFFFFFFFFFFFFFFFFFFFFFFFFFFFFFFFFFFFFFFFFFF13
:202DE000FFFFFFFFFFFFFFFFFFFFFFFFFFFFFFFFFFFFFFFFFFFFFFFFFFFFFFFFFFFFFFFFF3
:202E0000FFFFFFFFFFFFFFFFFFFFFFFF024801688D4640680047000000400008FFFFFFFF05
:202E2000FFFFFFFFFFFFFFFFFFFFFFFFFFFFFFFFFFFFFFFFFFFFFFFFFFFFFFFFFFFFFFFFB2
:202E4000FFFFFFFFFFFFFFFFFFFFFFFFFFFFFFFFFFFFFFFFFFFFFFFFFFFFFFFFFFFFFFFF92
:202E6000FFFFFFFFFFFFFFFFFFFFFFFFFFFFFFFFFFFFFFFFFFFFFFFFFFFFFFFFFFFFFFFF72
:202E8000FFFFFFFFFFFFFFFFFFFFFFFFFFFFFFFFFFFFFFFFFFFFFFFFFFFFFFFFFFFFFFFF52
:202EA000FFFFFFFFFFFFFFFFFFFFFFFFFFFFFFFFFFFFFFFFFFFFFFFFFFFFFFFFFFFFFFFF32
:202EC000FFFFFFFFFFFFFFFFFFFFFFFFFFFFFFFFFFFFFFFFFFFFFFFFFFFFFFFFFFFFFFFF12
:202EE000FFFFFFFFFFFFFFFFFFFFFFFFFFFFFFFFFFFFFFFFFFFFFFFFFFFFFFFFFFFFFFFFF2
:202F0000FFFFFFFFFFFFFFFFFFFFFFFFFFFFFFFFFFFFFFFFFFFFFFFFFFFFFFFFFFFFFFFFD1
:202F2000FFFFFFFFFFFFFFFFFFFFFFFFFFFFFFFFFFFFFFFFFFFFFFFFFFFFFFFFFFFFFFFFB1
:202F4000FFFFFFFFFFFFFFFFFFFFFFFFFFFFFFFFFFFFFFFFFFFFFFFFFFFFFFFFFFFFFFFF91
:202F6000FFFFFFFFFFFFFFFFFFFFFFFFFFFFFFFFFFFFFFFFFFFFFFFFFFFFFFFFFFFFFFFF71
:202F8000FFFFFFFFFFFFFFFFFFFFFFFFFFFFFFFFFFFFFFFFFFFFFFFFFFFFFFFFFFFFFFFF51
:202FA000FFFFFFFFFFFFFFFFFFFFFFFFFFFFFFFFFFFFFFFFFFFFFFFFFFFFFFFFFFFFFFFF31
:202FC000FFFFFFFFFFFFFFFFFFFFFFFFFFFFFFFFFFFFFFFFFFFFFFFFFFFFFFFFFFFFFFFF11
:202FE000FFFFFFFFFFFFFFFFFFFFFFFFFFFFFFFFFFFFFFFFFFFFFFFFFFFFFFFFFFFFFFFFF1
:2030000052096AD53036A538BF40A39E81F3D7FB7CE339829B2FFF87348E4344C4DEE9CB44
:20302000547B9432A6C2233DEE4C950B42FAC34E082EA16628D924B2765BA2496D8BD1254E
:2030400072F8F66486689816D4A45CCC5D65B6926C704850FDEDB9DA5E154657A78D9D8410
:2030600090D8AB008CBCD30AF7E45805B8B34506D02C1E8FCA3F0F02C1AFBD0301138A6B2E
:203080003A9111414F67DCEA97F2CFCEF0B4E67396AC7422E7AD3585E2F937E81C75DF6E76
:2030A00047F11A711D29C5896FB7620EAA18BE1BFC563E4BC6D279209ADBC0FE78CD5AF4B6
:2030C0001FDDA8338807C731B11210592780EC5F60517FA919B54A0D2DE57A9F93C99CEF64
:2030E000A0E03B4DAE2AF5B0C8EBBB3C83539961172B047EBA77D626E169146355210C7D20
:203100003203300030003000300030003000300030003000300030003000300030003000AA
:203120003000300030003000300030003000300031000000A1210008F1210008C52200080B
:20314000C7220008C9220008072300084B230008552300085B230008612300080000000051
:20316000400000000000000100000002000000040000000800000010000000200000004090
:20318000000000800000001B000000360902270001010080320904000003FFFFFF0407055B
:2031A0008102400000070502024000000705830240000000BC2C000804000000C02C000843
:2031C00026000000E82C00081A0000000002002032000000042D0008100000006D08000879
:2031E0007F2100086D0800086D0800086D0800086D0800086D0800086D0800086D080008BC
:20320000292E00086D0800086D0800086D0800086D0800086D0800086D0800086D080008E4
:203220002D2E00086D0800086D0800086D0800086D0800086D080008A82C000812000000CC
:203240008C0200202700000004010000FFFFFFFFFFFFFFFFFFFFFFFFFFFFFFFFFFFFFFFFA8
:20326000FFFFFFFFFFFFFFFFFFFFFFFFFFFFFFFFFFFFFFFFFFFFFFFFFFFFFFFFFFFFFFFF6E
:20328000FFFFFFFFFFFFFFFFFFFFFFFFFFFFFFFFFFFFFFFFFFFFFFFFFFFFFFFFFFFFFFFF4E
:2032A000FFFFFFFFFFFFFFFFFFFFFFFFFFFFFFFFFFFFFFFFFFFFFFFFFFFFFFFFFFFFFFFF2E
:2032C000FFFFFFFFFFFFFFFFFFFFFFFFFFFFFFFFFFFFFFFFFFFFFFFFFFFFFFFFFFFFFFFF0E
:203C0000DA8DCCBCE6C182E42CB1646F40EAD61BFFFFFFFFFFFFFFFFFFFFFFFFFFFFFFFFED
:203C20004AFFFFFFFFFFFFFFFFFFFFFFFFFFFFFFFFFFFFFFFFFFFFFFFFFFFFFFFFFFFFFF59
:203C4000FFFFFFFFFFFFFFFFFFFFFFFFFFFFFFFFFFFFFFFFFFFFFFFFFFFFFFFFFFFFFFFF84
:203C6000FFFFFFFFFFFFFFFFFFFFFFFFFFFFFFFFFFFFFFFFFFFFFFFFFFFFFFFFFFFFFFFF64
:203C8000FFFFFFFFFFFFFFFFFFFFFFFFFFFFFFFFFFFFFFFFFFFFFFFFFFFFFFFFFFFFFFFF44
:203CA000FFFFFFFFFFFFFFFFFFFFFFFFFFFFFFFFFFFFFFFFFFFFFFFFFFFFFFFFFFFFFFFF24
:203CC000FFFFFFFFFFFFFFFFFFFFFFFFFFFFFFFFFFFFFFFFFFFFFFFFFFFFFFFFFFFFFFFF04
:203CE000FFFFFFFFFFFFFFFFFFFFFFFFFFFFFFFFFFFFFFFFFFFFFFFFFFFFFFFFFFFFFFFFE4
:203D0000FFFFFFFFFFFFFFFFFFFFFFFFFFFFFFFFFFFFFFFFFFFFFFFFFFFFFFFFFFFFFFFFC3
:203D2000FFFFFFFFFFFFFFFFFFFFFFFFFFFFFFFFFFFFFFFFFFFFFFFFFFFFFFFFFFFFFFFFA3
:203D4000FFFFFFFFFFFFFFFFFFFFFFFFFFFFFFFFFFFFFFFFFFFFFFFFFFFFFFFFFFFFFFFF83
:203D6000FFFFFFFFFFFFFFFFFFFFFFFFFFFFFFFFFFFFFFFFFFFFFFFFFFFFFFFFFFFFFFFF63
:203D8000FFFFFFFFFFFFFFFFFFFFFFFFFFFFFFFFFFFFFFFFFFFFFFFFFFFFFFFFFFFFFFFF43
:203DA000FFFFFFFFFFFFFFFFFFFFFFFFFFFFFFFFFFFFFFFFFFFFFFFFFFFFFFFFFFFFFFFF23
:203DC000FFFFFFFFFFFFFFFFFFFFFFFFFFFFFFFFFFFFFFFFFFFFFFFFFFFFFFFFFFFFFFFF03
:203DE000FFFFFFFFFFFFFFFFFFFFFFFFFFFFFFFFFFFFFFFFFFFFFFFFFFFFFFFFFFFFFFFFE3
:203E0000FFFFFFFFFFFFFFFFFFFFFFFFFFFFFFFFFFFFFFFFFFFFFFFFFFFFFFFFFFFFFFFFC2
:203E2000FFFFFFFFFFFFFFFFFFFFFFFFFFFFFFFFFFFFFFFFFFFFFFFFFFFFFFFFFFFFFFFFA2
:203E4000FFFFFFFFFFFFFFFFFFFFFFFFFFFFFFFFFFFFFFFFFFFFFFFFFFFFFFFFFFFFFFFF82
:203E6000FFFFFFFFFFFFFFFFFFFFFFFFFFFFFFFFFFFFFFFFFFFFFFFFFFFFFFFFFFFFFFFF62
:203E8000FFFFFFFFFFFFFFFFFFFFFFFFFFFFFFFFFFFFFFFFFFFFFFFFFFFFFFFFFFFFFFFF42
:203EA000FFFFFFFFFFFFFFFFFFFFFFFFFFFFFFFFFFFFFFFFFFFFFFFFFFFFFFFFFFFFFFFF22
:203EC000FFFFFFFFFFFFFFFFFFFFFFFFFFFFFFFFFFFFFFFFFFFFFFFFFFFFFFFFFFFFFFFF02
:203EE000FFFFFFFFFFFFFFFFFFFFFFFFFFFFFFFFFFFFFFFFFFFFFFFFFFFFFFFFFFFFFFFFE2
:203F0000FFFFFFFFFFFFFFFFFFFFFFFFFFFFFFFFFFFFFFFFFFFFFFFFFFFFFFFFFFFFFFFFC1
:203F2000FFFFFFFFFFFFFFFFFFFFFFFFFFFFFFFFFFFFFFFFFFFFFFFFFFFFFFFFFFFFFFFFA1
:203F4000FFFFFFFFFFFFFFFFFFFFFFFFFFFFFFFFFFFFFFFFFFFFFFFFFFFFFFFFFFFFFFFF81
:203F6000FFFFFFFFFFFFFFFFFFFFFFFFFFFFFFFFFFFFFFFFFFFFFFFFFFFFFFFFFFFFFFFF61
:203F8000FFFFFFFFFFFFFFFFFFFFFFFFFFFFFFFFFFFFFFFFFFFFFFFFFFFFFFFFFFFFFFFF41
:203FA000FFFFFFFFFFFFFFFFFFFFFFFFFFFFFFFFFFFFFFFFFFFFFFFFFFFFFFFFFFFFFFFF21
:203FC000FFFFFFFFFFFFFFFFFFFFFFFFFFFFFFFFFFFFFFFFFFFFFFFFFFFFFFFFFFFFFFFF01
:203FE000FFFFFFFFFFFFFFFFFFFFFFFFFFFFFFFFFFFFFFFFFFFFFFFFFFFFFFFFFFFF2600B9
:20400000F01A002095F90008CB56000865F30008CB560008CB560008CB56000800000000DC
:20402000000000000000000000000000CB560008CB560008000000008D590008D1F2000875
:20404000CB560008CB560008CB560008CB560008CB560008CB560008CB560008CB56000818
:20406000CB560008CB560008CB560008CB560008CB560008CB560008CB560008CB560008F8
:20408000CB560008CB560008CB560008CB56000815690008CB560008CB560008CB5600087B
:2040A000CB560008CB560008CB560008CB560008CB560008CB560008CB560008CB560008B8
:2040C000CB560008CB560008CB560008CB560008CB56000827D50008859A0008CB560008BF
:2040E000CB560008CB560008CB560008FFFFFFFFFFFFFFFFFFFFFFFFFFFFFFFFFFFFFFFF59
:20410000000000000000000000000000000000004A2D4C696E6B204A2D4C696E6B205632CD
:204120003120636F6D70696C6564204A756E20323620323031372031303A33353A3136005E
:20414000436F7079726967687420323031362D32303136205345474745523A207777772EFD
:204160007365676765722E636F6D0000000000000000000000000000000000000000000055
:20418000F8B504460E46E56A94F88E70002000903B464FF00052204600F042F900970023EE
:2041A000022231462046AE6BB0470646380640F01002022120462B69984707462046696AA0
:2041C00088470120A06157EA060000D51BE00020F2BDF8B504460D46E66A94F88E700020C4
:2041E00000903B464FF00052204600F019F900970023022229462046B46BA047002800D5FF
:2042000001E00020F2BD4FF0FF30F2BD70B504461546E66AFFF7DDFF002802D54FF0FF3078
:2042200070BD2A46032120467369984710B16FF0010070BD2046B16A8847002070BD2DE99B
:20424000F04182B00446E56A0026DFF8747D386A00F1C8080022032120466B68984700AA09
:20426000032120466B6898470098C0F3C04028B9386AB8EB0000F2D54FF0FF363046BDE83B
:20428000F68170B504461546E66A0A4602217369984725F40022032120467369BDE8704069
:2042A00018472DE9F84304460D4690469946E66ADFF8901DFFF764FF002809D40022032184
:2042C00020467368984700AA0321204673689847287800F02DFF009A000240F002012046DF
:2042E000FFF7CFFF2046FFF7AAFF002814D4009EE76A0022022120467B68984742460221DE
:2043000020467B68984726F40022032120467B6998472046FFF793FF002808D46D1C08F178
:204320000408B9F10109D3D10020BDE8F2834FF0FF30BDE8F2832DE9F04182B004460D4641
:2043400016469846E76ADFF88C1DFFF719FF002809D40022032120467B68984700AA032103
:2043600020467B689847287800F0E2FE009A000240F003012046FFF784FF2046FFF75FFF3C
:20438000002807D4009A31682046FFF77AFF2046FFF755FF002807D46D1C361DB8F10108D1
:2043A000E1D10020BDE8F6814FF0FF30BDE8F681F8B504460E46E56ADFF81C1DFFF709FFDD
:2043C00048B93246072120466B6998470028204602D5E969884716E7A96A8847700718D55A
:2043E0002046296A8847022001F08BF8DFF8EC6C306A00F596670022032120462B68984786
:2044000000280BD5306A381A08D4642001F079F8F1E70022032120462B6898470020F2BD21
:20442000F0B4049C154656032AD490F88C6016B1D0F8842020E090F88E60B3421AD1D0F8C1
:2044400080606EB1876A07EBC607083FD7F800C0614501D37A680FE0083F761EF6D10BE0FF
:204460004FF44012016ADFF8786CB14204D14FF4700201E04FF44012A90048BF42F000525A
:20448000426040F2FF3190F88E20934208BFD0F888108160012101730460F0BC70472DE992
:2044A000F04383B00446E56A0026DFF8988B4146FFF766FE074694F88F0020B3002F1DD4A1
:2044C0000022114620466B689847074600AA032120466B689847814601AA032120466B6849
:2044E000984740EA0900074308D4009880035ABF0198C0F3C04684F88F6001E04FF0FF363E
:2045000094F88F00C8BB0022002120466B68984740EA070600AA002120466B689847304315
:2045200015D541462046FFF72BFE07460022002120466B68984740EA070600AA0021204675
:204540006B689847304348BF4FF0FF3016D4009800030FD5DFF88C2B002120466B69984790
:204560000022002120466B68984700AA002120466B6898470098C0F34046304603B0BDE85E
:20458000F0832DE9F04F83B08146D9F82C6009F28D0ADFF8B08A9AF80200002850D04146F6
:2045A0004846FFF7EDFD0022032148467368984700AA03214846736898470098C0F3C0409E
:2045C00040B9009840F440300090009A0321484673699847D9F82C700022032148467B68EB
:2045E0009847DFF8F85A286A00F1C80B01AA032148467B689847002802D54FF0FF3409E0E4
:204600000198C0F3C0441CB9286ABBEB0000EDD50198009084B900208AF80200009820F4C5
:204620004030009002460321484673699847002203214846736898479AF8020000283AD170
:2046400041464846FFF7C5FD99F88D00DFF8941A41EAC00A52460321484673699847D9F81F
:204660002C80002203214846D8F804309847DFF86C5A286A871C01AA03214846D8F80430A4
:204680009847002802D54FF0FF3406E00198C0F3404414B9286A381AEDD599F88D0050B182
:2046A0002AF00802032148467369984700220321484673689847002089F88D002046B1E3B3
:2046C0002DE9F04F89B0804608F12005EC6801F0010A0906480E00F00106D8F82000DFF8F5
:2046E000001A884213D108F1300000F046FF002848BF4FF0FF3000F1AF8108F1300000F0BD
:2047000038FF0022DFF8E0194046FFF77FFD002E00F08A800026DFF8D4194046FFF759FD94
:20472000D8F89400D0F88800C10703D540084000019009E00022032140466368984701AA02
:204740000321404663689847019800F1300201214046636998470022032140466368984780
:2047600001AA03214046636898470198002818BF10F1010F58D0400840000190A0F11001AE
:204780004046FFF726FD0022032140466368984704AA03214046636898470198A0F10C02CA
:2047A00001214046636998473246032140466368984705AA03214046636898470198A0F1AD
:2047C000080201214046636998473246032140466368984706AA0321404663689847019813
:2047E000021F01214046636998473246032140466368984707AA03214046636898470498D8
:20480000DFF8EC18884201BF04A84168DFF8E428914209D18168DFF8E028914201BFC068CB
:20482000DFF8D81888420126DFF8D4184046FFF7D0FC1F220321404663699847DFF80498AC
:2048400049464046FFF79CFC0022002140466368984700AA032140466368984702AA032174
:2048600040466368984700200099890303D40299090348BF0120002E61D0002840F0B08036
:2048800008F28D07F87860BBDFF878184046FFF777FC0022002140466368984703AA002168
:2048A000404663689847039840F0FF0200214046636998470022114640466368984701AA56
:2048C00000214046636898470198C0B200F055FF0190C0F10800F870039A00214046636976
:2048E000984749464046FFF74BFC029820F4402040F4803002900246032140466369984766
:20490000009880B200904FF0000ADFF8FC77C0F3C00048B1009820F00800009047EA0002CB
:2049200000214046636998470098C008C000009047EA0002002140466369984771E0002877
:2049400054D0009880B240F001000090DFF8B89749EA00020021404663699847BAF1000F41
:2049600035D0009840F002000090009849EA00020021404663699847DFF84476386A00F195
:20498000050B0022002140466368984700AA00214046636898470198800303D4386ABBEB5E
:2049A0000000F3D5009880B240F00800009049EA00020021404663699847009820F002006C
:2049C000009049EA00020021404663699847029820F4A02002900246032140466369984723
:2049E000029A01214046FFF74CFC1AE0DFF8F40640EACA0001900098C0F3C000824504D03F
:204A0000019A0021404663699847019820F002000190024600214046636998474046A16A42
:204A20008847DFF8E806006808B100F08FFFED684046A96A88470022032140462B68984748
:204A400008F28D07BE70B978C90744BF01213971002858BF88F88DA009B0BDE8F08F2DE9EB
:204A6000F04786B0814609F12006F768D9F82000DFF86C16884213D109F1300000F07DFDF7
:204A8000002848BF4FF0FF3000F1DF8009F1300000F06FFD0022DFF850164846FFF7B6FB0F
:204AA000DFF8A05599F88F00002800F08F80DFF854164846FFF764FB0022002148467B680B
:204AC000984704AA002148467B6898470498C0B20490F46829464846FFF752FB002809D495
:204AE0000022032148466368984700AA0321484663689847009840F480200090009A032178
:204B000048467B69984714208DF80C00012305AA03A94846FFF7C5FB059820F47F400190BB
:204B20000499012299F89030C3F108039A40511840EA01200190012301AA03A94846FFF787
:204B4000FAFB009A01214846FFF79BFBF5680022032148466B689847DFF86444206A00F1AD
:204B6000C80A02AA032148466B689847002802D54FF0FF380BE00298C0F3C048B8F1000FE6
:204B800003D1206ABAEB0000EBD502980090B8F1000F50D4009820F4802000900246032104
:204BA00048467B699847012301AA03A94846FFF778FB0598000A019960F30F2101910123B8
:204BC00001AA03A94846FFF7B6FB34E029464846FFF7FFFADFF83825032148467B699847A0
:204BE000DFF83025032148467B699847F5680022032148466B689847DFF8C443206A00F1D8
:204C0000020A02AA032148466B689847002802D54FF0FF3809E00298C0F34048B8F1000F8D
:204C200003D1206ABAEB0000EBD5DFF8B824032148467B699847F6684846B16A8847002291
:204C40000321484633689847404606B0BDE8F0872DE9F84F04460D4690469A46E66A94F844
:204C60008F0020B12046FFF71CFB814639E0DFF8D4132046FFF784FA0028DFF8607448BF0F
:204C80004FF0FF302ED42A780121204673699847002200212046736898474FF00009386A72
:204CA00000F1C80B00AA00212046736898470098C00306D4386ABBEB0000F3D54FF0FF3989
:204CC0000FE000220221204673689847424602212046736898476D1C08F10408BAF1010A71
:204CE000D1D14846BDE8F28F2DE9F84F80460D4616469A46D8F82C4098F88F0020B14046FA
:204D0000FFF719FB814634E0CE494046FFF738FA0028DFF8C87348BF4FF0FF302AD43268A2
:204D20000221404663699847287840F48032012140466369984700220021404663689847D3
:204D40004FF00009386A00F1C80B00AA00214046636898470098C00306D4386ABBEB00002D
:204D6000F3D54FF0FF3904E06D1C361DBAF1010AD5D14846BDE8F28F02B582B00F218DF886
:204D80000010012302AA00A9FFF7AEFF03B000BD2DE9F04F83B00446884691469A46E66AD0
:204DA00094F88EB00C9DC5F3036105F00F074FF0FF30D9B9206ACA4988420BD1A80046BF69
:204DC000012000FA07F209FA07F2414604F1300000F0B0FB0D9800905B462A464146204649
:204DE000FFF71EFBCDF808B0002013E0082919D3C5F30260691301F0180141EA000B002001
:204E000000905B462A4641462046FFF709FBCDF808B003200190009753464A46414620462C
:204E2000346BA04703B0BDE8F08F2DE9F04F85B081460D4616461F46D9F82C00804699F85C
:204E40008E1003910E9AC2F3036102F00F044FF0FF3B00295ED199F88F1000293ED0AE492B
:204E60008D423BD1022C08BF012E48D1054675494846FFF785F9002869D4002203214846D6
:204E80006B689847064600AA032148466B6898472D1D06437878B978090441EA0020F97889
:204EA00040EA016020F47020009901F4702141EA0002032148462B699847304303D5484679
:204EC000A969884743E0D9F82C504846A96A88470022032148462B6898470DE07E48854251
:204EE00004BF022C012E0AD1384600F052FC01464846FFF75DFA50BB4FF0010B27E000205C
:204F00000090039B29464846FFF78AFA03980290002012E008291AD3C2F30260511301F023
:204F2000180141EA000A00200090534629464846FFF776FACDF808A00320019000943B4641
:204F4000324629464846D8F83490C8478346584605B0BDE8F08F70B582B00469E56A0120C5
:204F600094F8911051B36C492046FFF732F906460022032120466B689847064300AA012105
:204F800020466B689847304317D40098C0F3C04018B1002084F891000FE00098C0F30040E0
:204FA00058B9009840F48032032120466B69984700AA012120466B689847002076BD0000EE
:204FC0002800002070B582B005460C46EE6A286A4349884234D10020009000224F49284678
:204FE000FFF714F94E492846FFF7F3F80022032128467368984700AA032128467368984764
:205000000098C0F3C900451C0098C0F34E30461C0120009901F00301891C88400121216031
:2050200003212171800000F00BFCE071304600F007FC6071284600F003FCA0710120207495
:20504000002076BDF0ED00E070B582B00446E56A0026206A2249884223D132492046FFF7A0
:20506000B8F80022032120466B68984700AA032120466B6898470098C0F3400088B12A4A04
:20508000012120466B6998470022032120466B68984700AA032120466B6898470098C0F346
:2050A0000046304676BD38B5046A0D4DAC420ED1049C01EB840191F90740A2408979C1F107
:2050C000200103FA01F10A431849FFF79FF8002032BD0000F0ED00E00CED00E02800002098
:2050E000FF00010E03005FA050EF00E008ED00E04A4C494E4B4D4F4E48414E444C4552004C
:2051000030ED00E020ED00E000005FA0B40F00200F005FA00D005FA0FCED00E084ED00E08F
:2051200080ED00E078ED00E014ED00E074EF00E0402828BF2B3806D2212808BF142002D019
:20514000142808BF1320C0B2704750F8041B61B150F8042BD30744BFA9F101039A180023B0
:2051600042F8043B091FFAD1EFE7704730B4802080F3118800BF00BFDFF8B403816800228F
:20518000027182F3118800291CBF0A68002A21D04B6954699C421DD100E02246146814B137
:2051A00065699D42F9D0802383F3118800BF00BF0B6804698C4208BF0361086A0360186221
:2051C0000A621068086000B10162116092F8390082F83800002080F3118830BC704738B5CD
:2051E000DFF84C4300206071206A00F180406062E16908001CBF20468847002080F31188CD
:20520000E56826E0802080F3118800BF00BF206920B1686921694969884221D3287C400701
:2052200013D5E868216A401A012809DA284600F0DEF8802080F3118800BF00BF287C78B11A
:20524000E868616A411A48BF6062002080F311882D68002DD6D1802080F3118800BF00BF50
:2052600031BD70B5DFF8C8420020607001202070802080F3118800BF00BFE06B010005D04E
:2052800080470020E063606384F83800002080F3118800F063FB0078CD281CBF7D2000F01E
:2052A00063FBA06800281CBFC16B002904D009680A001CBF4068884794F8310040B1A068D9
:2052C00094F8301080F83810207908B1FFF74EFFA06820B1017C11B9416B491C416320694F
:2052E00048B304E028682061002080F31188802080F3118800BF00BF256925B32E7C16B38F
:2053000070070ED5E868216A411A012905DA284600F06DF8287C20B90DE0616A411A48BF9A
:20532000606206F0FB001028DCD1A86880684068007C0028D6D1802080F3118800BF00BFC0
:2053400001E0FFF74CFF60790028FAD1206910B32069007C0028206902D080688068406813
:20536000A060C06A0078CD281CBF782000F0FCFAA068C16B21B149680A001CBF406888472A
:20538000A06890F8381084F8301084F83110016B491C016307E084F8310084F83000A06047
:2053A000207080F31188204670BD6148407808B980F31188704710B55D4C2078401E2070E5
:2053C000207898B9606888B1802080F3118800BF00BF606830B101202070204600F021FBED
:2053E00000202070607808B980F3118810BD38B581684F4C41B1226AC2600A68496802B1A4
:2054000051600A6000218160017C11F00301017412D1216989B92061207838B9012020700E
:20542000204600F0FEFA0020207001E001206071607808B980F3118831BD42694B699342D4
:20544000E9D38142E8D09A42F6D103461B68002BEED05D69AA42EBD18B42F7D1DBE738B50B
:205460004169334C2278521C227004F10C0200E01A46136813B15D69A942F9D303600262A3
:20548000106043B118625A698A420CBF90F83910002180F83810017C51B9802181F31188ED
:2054A00000BF00BFFFF7A3FF607808B980F31188BDE831407FE738B51D4C25782078401CCE
:2054C0002070204600F0ADFA2570607808B980F3118831BD10B500F0D7FA154801210170A1
:2054E00000F03CFA044600F03DFA001BA0F12002012A05DBCD212046BDE8104000F06DB9DD
:2055000010BD0B490A6A10180A7802B109E0802282F3118800BF00BF8968C86004200874C9
:20552000C9E7002282F311880A6A121AFCD470472800002070B45218521E49094901520927
:205540005201521A5209521C4909C9B200EBD10393F82C40012501F00706B5402C4383F83D
:205560002C40491C521EF0D1012180F84E1070BC704720212C3000F095BA2DE9F04F83B0EA
:20558000044694F84E00002800F09B80002084F84E00A168080000F0948020688847002836
:2055A00000F08F806268100006D004F1180120689047002800F182802169080003D02068C7
:2055C000884700287AD4002627464FF0010901E0761C3F1DA069864269DA387F02281CBF0B
:2055E00003280428F4D1F87F94F84D10A0EB0108002094F84C107A7F8A4238BF881A002510
:2056000009FA08FA09FA00F0019016E0D4F80CC05FEA0C0008D000965B462A4604F1180191
:205620002068E047002849D40BF1010B97F91E0009FA00F08345E9DB6D1C97F91D0009FA08
:2056400000F08542C4DA05FA08F094F94C1009FA01F1491E08400021019A012AECDB03467A
:20566000BAF1010F0FDBD44604EBD30E9EF82CE003F0070B4EFA0BFE1EF0010E03D15B1C3B
:20568000BCF1010CF0D11EEB01010DD17B7F434409FA03F3181894F94C3009FA03F35B1E81
:2056A0001840521EC8D0DAE74FF0000BBEE76169080006D020688847002802D54FF0FF306E
:2056C00000E0002003B0BDE8F08FFEE7016800E0491C0A78202A18BF092AF9D00D2A18BFB3
:2056E0000A2AF5D00160704701680A0A1206120A42EA01620B021B0E42EA032242EA116134
:2057000001607047010A0906090A41EA00610202120E41EA022141EA1060704700EBD10038
:2057200001F0070100F0030201EBC20182089200106831B1C8405268C1F1200102FA01F1D3
:2057400008437047026806E0026802F8011B090A02F8011B090A02F8011B090A02F8011BFC
:20576000026070470170090A00F8011F090A00F8011F090A00F8011F704738B1002101E07C
:205780004008491CC207FBD5084670474FF0FF3070470178427841EA0221827841EA0241B0
:2057A000C07841EA00607047002110F8012B02E010F8012B491C002AFAD108467047012A7A
:2057C00009DB10F8013B11F801CB634501D001207047521EF5D100207047012A03DB00F86D
:2057E000011B521EFBD170474FF0000C02E019460CF1010C002902D44B009842F7D20023F4
:20580000BCF1000F09D45B00884224BF401A43F001034908BCF1010CF5D502B11060184600
:2058200070470022E0E780B5002805D500224042FFF7DAFF404202BD0022BDE80840D3E714
:20584000002101E0491C4000002800D4FAD1C1F11F00704710F8012B11F8013B0AB19A4242
:20586000F8D0D01A704770B582B004460D4620680090002600A8FFF729FF0020009909788D
:205880002D2903D10098401C009001200099097830293CD1009A5278782A18BF582A36D153
:2058A0000099891C00910978A1F13002D2B20A2A38BF30390CD3A1F16102D2B2062A38BF3D
:2058C000573905D3A1F14102D2B2062A24D23739002921D4009A521C009201EB0616117828
:2058E000A1F13002D2B20A2A38BF30390CD3A1F16102D2B2062A38BF573905D3A1F1410210
:20590000D2B2062A1AD237390029E3D516E0A1F13002D2B20A2A02D34FF0FF3076BD06EBBD
:20592000860201EB4201A1F130060099491C00910978A1F13002D2B20A2AF0D300B1764230
:20594000009820602E60002076BD00004FF0120100FB01F0401EFDD570470000004870472A
:20596000F01800206846704706490A78521C0A7000224A7082F3118803490870087800288B
:20598000FCD1704728000020D518002035488168002904BF08B008E0EFF30982A2F1280212
:2059A000036882E8F84F83685A60FFF75AFC816879B14A6892E8F84F036002F1280282F35F
:2059C000098890692849814202D013F47F4F43D07047264826490968401A80F308884FF0AE
:2059E0008071C161234981617FF0060E704701BC2046DFF884E000BDFEE7204800681C49D7
:205A00000968401A203820F0070080F308884FF000011448417081F3118862B600F018F8D7
:205A2000FEE703680CB44FF0000141704FF0000181F311881249134A0A604FF0800181F3C2
:205A400011880CBC036070470D490E4A0A6070470B490C4A0A6070474FF0000181F31188E4
:205A600070470000280000203E5A0008D01A002038FA000861F30008F95900080040000845
:205A800004ED00E000000010EFF3108072B604490A6842F47F020A6080F31088704700BF2A
:205AA00020ED00E0002200F001B8000000B500BF130096469446103928BFA0E80C50FAD80B
:205AC0005FEA417C28BF0CC048BF40F8042BC90728BF20F8022B48BF00F8012B00BD0000BB
:205AE0002DE9FE4F81468A461646C9EB0910DFF8201B01EB8007DFF85C8B08F1C0000090F7
:205B000080698047B879012808BF6FF0020500F0888008F207000190C07800F0030002286F
:205B20007DD1386960B9787E00F0010B0C9CBAF1000F08BF002E3DD1002C3CD1786A10B12A
:205B40006FF003056DE000254FF0010A0021AA44721B002098F8073023B1029B002B0CBF38
:205B6000002C01207A61C7F810A0B976F876B8F8C010491CA8F8C0103981397E61B9398850
:205B8000914201D200B10A4651464846009B1B69DB6A984701203876022C42DA029898B3F8
:205BA0000146484600F062FE88B30021484600F0FFFD2CE00EB94FF0010B3246514607F1C5
:205BC0001C0000F03AF90546701B02D0012C11D1A5B1BBF1000F24D0386A796A401A39882A
:205BE00088421ED302240021BBF1000F19D000228A46AEE70021022CA9D1F5E701213888F1
:205C0000B042A4D20646A2E7484600F02AFE7869351A0198C07800F00300022801D04FF073
:205C2000FF350098C069804728467CE030B400F12001427F521E012A06DBD1E90245C1E900
:205C400000450831521EF8D1417F491E417730BC704738B50C46856B04E0A96820466A68AF
:205C600090472D68002DF8D131BD70472DE9FE4F80468946DFF8DC69D6F8D070002430782F
:205C800008284FD28DF80000C0EB0011DFF8800900EB8105FB6CDDF830A0180004D0524611
:205CA00049464046984703E0494640467A6890475FEA000B18BFBBF1FF0F33D03C220021D8
:205CC0002846FFF78AFD4BEAC810687185F804909DF80000796988470746B8F1000F02D1C4
:205CE000BA4598BF574600F0EEFCC2B24946384600F0B2FC2880BDF804006880B8F1000FB7
:205D000004D0DFF80C09C068E86003E00298E861C5F820A03478601C307008EB4B00801971
:205D200080F81441204603B0BDE8F08F10F07F0F01D10020704700F00F014900000648BFCC
:205D4000491CDFF81C0A081890F814017047C0EB0011DFF8BC0800EB810040797047DFF863
:205D6000000A807A400800F001007047F8B5DFF8E448D4F8D0500126DFF8147A04E03846A5
:205D8000A9688847761C3C3720788642F7DBE868BDE8F240004770B582B04FF0FF30009029
:205DA000DFF8B0484FF49C7200212046FFF715FD01202070322084F8C300DFF854584FF42C
:205DC000F07200212846FFF708FD00F03BFD00F086FDD4F8D060D4F8080118B9DFF8CC09EE
:205DE000C4F80801706D010018BF80470020716988472880326C100002D000A905209047CC
:205E00000098E8600120607273BD38B5DFF85049D4F8D050286880472A6C100007D0E11D64
:205E20000620904704F1080102202A6C90471020A0722869BDE8324000472DE9F041044616
:205E40008846164600271EE008B3E16840186268824288BF0246551AB54288BF35462A46E2
:205E600020680918404600F089FD761BA068401BA060EF19A844E0682818E060616888423A
:205E800004BF0020E060A068002EDDD108B90020E06025E02DE9F041044688461646606852
:205EA000A168471A1AE0E068A16808186168884228BF401A3218914288BF11460D1AB54260
:205EC00088BF35462A4641462368C01800F056FD761BA0682818A060A8447F1B002EE2D123
:205EE0003846BDE8F08110B500F09ABC80B500F09DBC10B582B0002B46BF022400230124F0
:205F000000F090BCDFF8083718625962012058779A7600201883DFF82019D1F8D010096B12
:205F200008472DE9F04782460C4615461E46DFF8248798F80A0000F00300022818BF4FF09D
:205F4000FF304AD1CAEB0A10DFF8F01801EB8007B87918B16FF00200BDE8F08708F1C0099D
:205F6000D9F818008047787FF0B107EBC00118314A680B68D318A34203D1A8184860BE7678
:205F800026E0032808BF6FF0030422D041F8084F4D60787F401C7877BE76B8F8C000401C32
:205FA000A8F8C000388113E007F120010C604D6001207877BE76B8F8C000401CA8F8C00033
:205FC0003881386920B95046D9F81010096B88470024D9F81C0080472046BDE8F0872DE954
:205FE000F84380460C46C8EB0810DFF8241601EB8005DFF84498D9F8D800697909062DD5B2
:206000000026002780472869002804BF687F00281DD02E77C4B12146404600F027FCB0B179
:2060200028690228A8BF471E05F12000697F012905DB4268D7190830491E0129F9DA00217A
:20604000404600F0B5FB02E0404600F00AFC09F1D8004068804707B301261EE000268047AF
:206060002869B0B154B12146404600F0FFFB40B10021404600F09CFB012602E0404600F0B4
:20608000F0FB99F80A0000F00300022818BF4FF0FF3609F1D800406880473046BDE8F28341
:2060A0002DE9F04104460D46C4EB0410DFF8601501EB80060027DFF88087D8F8D800804707
:2060C000707F032812D3002D48BF01270ED40120307735B12946204600F0C8FB20B1012754
:2060E00002E0204600F0BDFB00203077D8F8DC008047F5E62DE9F84381460E4615461C4672
:20610000089F002F03D501B0BDE8F04309E723462A4631464846FFF704FF10F1040F06D196
:2061200039464846FFF7BCFF0028F0D038E0002837D40026C9EB0910DFF8D41401EB80044C
:20614000DFF8F486D8F8D80080472069002804BF607F00281DD02677C7B13946484600F005
:2061600085FBB0B120690228A8BF461E04F12000617F012905DB426896190830491E01299F
:20618000F9DA0021484600F013FB02E0484600F068FBD8F8DC008047AE4238BFA81B00D3CC
:2061A0000020BDE8F28300EB4002DFF88C0600EBC2004163704700EB4002DFF87C0600EB96
:2061C000C20081637047DFF8701691F8C220032A08D201EB8202C2F8C40091F8C200401CFE
:2061E00081F8C20070472DE9F843060089461546C6EB0610DFF8181401EB800711D1DFF836
:20620000387697F8C20086425BDA07EB8600D0F8C420100002D0294648469047761CF6B26E
:20622000EFE7F86818B129464846FA6890474FF00108386940B379698D4234BF2C467C6952
:206240005CB12246494600F099FB2D1BA1443869201838617869001B7861786908B1B87E72
:2062600090B1304600F0F8FA00203861787EC00708D43046DFF8C015D1F8D010896A8847A6
:20628000002038764FF00908B5B12A46494607F11C00FFF7FFFD797EC90702D5398888424C
:2062A0000AD2387E40B13046DFF88C15D1F8D010896A88470020387641463846BDE8F44353
:2062C000C7E4BDE8F183F8B50746C7EB0710D04901EB8004607F00286FD0002F1CBF2169D4
:2062E00000296AD10021E17604F12005696821B9022824BF2046FFF799FCDFF83C05D0F81F
:20630000D0301E6D30001AD0208B009000AB2A46617F3846B047064600982083701C206199
:20632000374603E03F1A2046FFF780FC6868B842F8D3C01B68602868381828601BE06E685B
:206340002088864288BF0646701C20613246296838465B6B98476868801B686028683018F6
:2063600028609EB12088411E0E420FD1218BB6FBF0F040182083606900281CBF218B002936
:2063800006D022885143401E014201D100202083686890B9607F022803D32046FFF746FC1D
:2063A000F1BD002E1CBF208B002804D0A07E10B10020A076F1BD00206077F1BD38B5040026
:2063C000C4EB0410924901EB80050CD02869022809DB4FF0FF3028610421E87E00B90621D1
:2063E0002846FFF736FC00202861687F0028204607D0FFF768FF687F032817D2287FA8B1BA
:20640000A2E1DFF83414D1F8D010896B8847002C04BFBDE8314000F0D8BD204600F01CFA78
:2064200040212846BDE83440FFF713BC31BDC0EB0012774B03EB82029171DFF8FC23D2F80E
:20644000D020126A10470121F1E7DFF8EC13C1F8D000704770B504460D4616460C220021FC
:20646000FFF7BBF96560A660DFF8CC03D0F834110A4600E012681AB1A242FBD1012070BD81
:206480002160C0F83441002070BDC0EB001CDFF8AC0300EB8C004A608B60826B0A6081636D
:2064A0007047DFF89403817A002101730121DFF8902303E0002302F83C3B491C0378994249
:2064C000F8DB807A00F0100040F008000EE0DFF86803807A7047DFF86003807A40F0010071
:2064E00004E0DFF85403807A00F0FE002DE9F04182B00446DFF84053AF7AD5F8D060A74266
:2065000049D0B8071BD4A00719D501208DF80000FFF72CFC4FF0010808E000214046FFF78E
:2065200086FF404600F083FE08F1010828788045F3D3326C100002D000A900209047B807D3
:206540000AD5A00708D400208DF80000326C100002D000A900209047D5F8346106E07268F2
:20656000100002D02146B06890473668002EF6D1AC72A87A062108420DD0012408E0002194
:20658000204600F015F9204600F0BAF8641CE4B228788442F3DBBDE8F38100212D4A927A88
:2065A00002F00302022A06D1C0EB0011DFF88C0200EB8100416A0846704738B50546254CFB
:2065C000D4F8D8008047C5EB0510DFF8701201EB800001690229ACBF4D1E002500F1200124
:2065E000407F012805DB4A6855190831401E0128F9DAD4F8DC008047284632BDC0EB001198
:20660000DFF8380200EB81004069704700000000540B0020C0EB0011DFF8200200EB8100FD
:20662000417F11B14FF0FF307047018B42694AB131B103885943521E114208D10021018337
:2066400000207047481E8041C043C00F7047012070470000340D0020032906D1402188424C
:2066600001D24908FBD108467047402801D340207047202801D320207047102801D3102083
:206680007047082801D3082070470020704701700A0A42700A0C8270090EC17070470170DA
:2066A000090A417070470178427841EA0221827841EA0241C07841EA0060704701784078CB
:2066C00041EA0020704780B55B48D0F8D0008069804700F0020002BD80B55748D0F8D0007B
:2066E0008069804700F0010002BD53494878421C4A7000EB400201EBC20181F82E0070478C
:2067000038B50446C4EB04104C4901EB80050020A8716879000605D500202861687728834C
:2067200020210EE000206862A8622861287E28B120460B49D1F8D010896A8847002028764B
:2067400010212846FFF785FA2046BDE8324000F083B8C0EB0012394800EB8200C1607047FA
:20676000340D002030B401210022334B1C46D4F8E4502DB903EB8201C1F8E400002103E0B8
:20678000521C241D052AF2D3084630BC70470000900B0020C0EB0012284800EB8200427955
:2067A000120658BF41767047000000006B5C000870B504000D462048D0F8D010C4EB04101E
:2067C0001E4A02EB80061AD070790006204607D5896B88470020306170773083202105E08F
:2067E000896A884700203076306110213046FFF730FA25B12046BDE8704000F02DB870BD26
:206800000D49C1F8080170470B4BC3F8D40003F1D4004160826070470749C1F810017047F1
:2068200082B000240094FFF75BF916BD032300930023FFF755F902BD340D0020540B002092
:20684000960B002038B5164C0825204600F010FD08346D1EF9D131BD114901EBC00000F023
:206860001FBD0F4901EBC00000F03CBD491C0C4A02EBC00000F05ABD0A484178491E4170BD
:20688000407808B980F311887047802080F3118800BF00BF03484178491C417070470000C1
:2068A0006C0E00202800002000F069BF1F4908601F48F02101700178103901F0F001017010
:2068C0001C494FF400220A60F02242704278103A02F0F00242704FF480100860704780B5FF
:2068E0001548016821F480010160C16821F40001C160816941F4000181611048FFF7A5FD89
:206900000F4A10491048FFF77FFF1048BDE80240FFF776BF10B50E4C2078401C20700348A1
:206920000068010018BF804714E00000EC09002013E400E000E100E0041002404CF600080F
:20694000796800088B680008AD680008A968000828000020802080F3118800BF00BF207813
:20696000012803D1606808B1FFF76EF82078401E2070002080F3118810BD000062B38B0717
:2069800008D0521E11F8013B00F8013B00F024808B07F6D1830740F0208000BF103A07D30C
:2069A00030B4B1E83810103AA0E83810F9D230BC530724BFB1E80810A0E8081044BF51F867
:2069C000043B40F8043BD20724BF31F8022B20F8022B44BF0B7803707047083A07D3B1E845
:2069E0000810083A40F8043B40F804CBF7D25307E4E70000026843689A4204D28368D154FA
:206A00000168491C0160704738B504460D46C9B2FFF7F0FF290AFFE72046BDE83440E9E73E
:206A200030B583B098B90090DFF83008029080200190042100A8FFF7DDFF032100A8FFF72A
:206A4000D9FF40F2094100A8FFF7DEFF50E0012812D016D3032805D009D3042811D1DFF882
:206A6000004820E0DFF8FC074069C4681BE0DFF8F4074069846816E0DFF8E80740694468AC
:206A800011E0DFF8E417052807D3401F8A7B904203D201EB8000046905E0D1F8FC100A0084
:206AA00002D08847044614B9002003B030BD2046002500E06D1C10F8011B0029FAD1002032
:206AC0000090DFF898070290802001906800811CC9B200A8FFF78EFF032100A8FFF78AFFF7
:206AE00035B114F8011B00A8FFF78EFF6D1EF8D1DFF8680703B030BD012200210020FFF7C9
:206B000001BA10B5DFF86027D2F8D0408178C37851EA032101BF8179C37941EA03210229BA
:206B200054D1511C4B7A5B070DD40078032210424CD10A7BDFF824070270897A890753D5FB
:206B400042F002013BE04B7A9B071BD4027812F0030203D0022A0ED00AD310BD0A7BDFF82B
:206B6000FC060270897A89073ED542F0020126E0007958BB01E0007940BBDFF8E006002101
:206B8000018035E0037813F0030303D0022B18D00AD329E00A7BDFF8C4060270897A8907E2
:206BA00022D542F002010AE05178491E0079814202DA606A804717E0DFF8A00600210170E0
:206BC00012E00079FFF7B2F8FF2803D1606ABDE810400047C0EB0011DFF8900600EB810014
:206BE0008079DFF878160870DFF870060021417000220221BDE81040FFF784B9F8B504463C
:206C00000D46DFF86416D1F8D060A078E27840EA0222A079E37940EA0323EFB22079022AEC
:206C20001AD194F800C0BCF1000F17D194F805C0BCF1000F18BF002D10D0BCF1050F5CD299
:206C4000FFF74AFD002858D0FFF756FF61790420326CBDE8F8401047032A4EDA002B4CD1EF
:206C6000012A0AD101F20A00002D417814BF41F0020101F0FD0141703CE08B7A5B073CD5F0
:206C8000897A8907217816D411F0030102D0022903D032E0022A30D12CE0002A2DD1FFF7A0
:206CA00045F8002829D1681E8041C043C00FDFF8BC1588711EE011F0030102D0022902D0E9
:206CC0001BE0D2B916E0002818BF802815D0FFF72DF80446FF2C10D03946FFF7A8FB4FB91C
:206CE000204600F0A4FA00212046FFF761FD2046FFF706FDBDE8F140FEE6706ABDE8F240FB
:206D000000472DE9F84F82460C461546288840080027002803E0C10748BF7F1C4008FAD1B3
:206D200009215046FFF766FE04215046FFF762FEE1B25046FFF75EFEA9785046FFF75AFEA8
:206D4000F9B25046FFF756FEE9785046FFF752FE29795046FFF74EFE69795046FFF74AFE3B
:206D6000E9795046FFF746FEAA68100002D05146204690474FF00109DFF8F0B40BF1400415
:206D8000DFF8E474C84607E00126F1B25046FFF731FE09F101093C343878814552DA288884
:206DA00008FA09F10842F4D007215046FFF722FE05215046FFF71EFE61785046FFF71AFEAA
:206DC00021785046FFF716FEFFF786FC20B90022217834F8040C08E05FFA89F0D7F8D010C9
:206DE000496988470122217880B2FFF735FC24F8040C34F8041C5046FFF706FEC9EB091028
:206E00000BEB80000179012902D0032906D0BBE74688112E14DA002EB7D1B5E74688FFF7D1
:206E20005BFC38B9FF2EC8BFFF26AEDC002EACD10826AAE7112E03DA002EA6D10426A4E7C7
:206E40001026A2E7BDE8F18F2DE9F04784B08027DFF814546C1CA07AC00748BFA027207B15
:206E600008B147F0400700200090DFF8F063029680200190092100A8FFF7BCFD022100A8EC
:206E8000FFF7B8FD002100A8FFF7BEFD697800A8FFF7B0FD012100A8FFF7ACFD042100A86B
:206EA000FFF7A8FD394600A8FFF7A4FD95F8C31000A8FFF79FFD0027A84613E09AF88800BD
:206EC000B84205D10AF18C02394600A8FFF719FF09F101090AF11C0A60788145EEDB7F1CFD
:206EE00008F118086878874210DAD5F8E0201AB100A938465268904708F12802394600A84C
:206F0000FFF7FFFE4FF00009AA46E5E70099B01CFFF7C5FB304604B0BDE8F08770B584B0C0
:206F200000200090DFF83443029480200190122100A8FFF75FFD012100A8FFF75BFD4FF404
:206F4000007100A8FFF760FDDFF81C53297900A8FFF750FD2E1D717800A8FFF74BFDB178AF
:206F600000A8FFF747FDDFF804030188C9B200A8FFF740FD05F580763069018800A8FFF7C2
:206F800043FD3069418800A8FFF73EFDD5F80001010002D08047014601E04FF4807100A80A
:206FA000FFF732FD012100A8FFF724FD022100A8FFF720FD032100A8FFF71CFD012100A848
:206FC000FFF718FD204604B070BD38B5A64C04F20A008178090614D5817801F07F01817034
:206FE00085782846D4F8D010C9698847002DA07A14BF40F0040000F0FB00BDE83240FFF733
:2070000075BA31BD2DE9F84304460026964D2F460BE007F128004169080004D02046884774
:20702000002800F00281761C1837687802469642EFD3D5F8D0100E46237813F0600306D03A
:20704000202B00F0D280402B00F0DF80EBE062780B2A00F2E880DFE802F0060BE60DE613FF
:2070600032E6666C819A2046FFF74BFDBDE8F183002100E001212046FFF7C0FDBDE8F183F9
:20708000A478287AA0B12046C9698847002CA87A14BF40F0040000F0FB00FFF727FA2C7384
:2070A000287A012840F0C180FFF726FDBDE8F183FFF722FD44F080002873BDE8F1830026BF
:2070C0000027E079A17941EA00284FF00109E078012810D012D3032801D004D30EE0A0785B
:2070E000FFF79EFC09E0FFF7AFFE0746B81CFFF7E5FA064602E0FFF711FF07461FB9D5F858
:20710000D000406A90E006B93E78464588BF4646464508BF4FF000094A4631463846FEF79E
:20712000F1FEBDE8F183FEF71AFE8DF80000002225E0A078012805D1FFF7DEFCA87A40F055
:20714000020005E040B9FFF7D7FCA87A00F0FD00FFF7CCF9BDE8F183486A65E0A07800286C
:2071600004BFA079012810D1A87A00F00600062818BF486A58D100208DF800000022012148
:2071800000A8FEF7BFFEBDE8F183486A4CE02679AA7A02F00602062A25D1B04223DBA078B3
:2071A000E27840EA0224B4F5807F1CD2FFF7A4FC01270CE05FFA87F800214046FFF737F940
:2071C000404600F034F84046FFF79AFA7F1C28788742EFDBD5F80C21100026D02146304652
:2071E0009047BDE8F183486A1EE0207990421AD200EB400105EBC1002830C168080012D050
:207200002046884778B9BDE8F183207990420AD200EB400105EBC10028300169080002D02F
:207220002046884708B1706A8047BDE8F1830E49D1F8D010C96B0A0018BF084770470A4938
:207240008A7B062A01D300207047531C8B7301EB82010861501DC0B270470000AC0E002099
:2072600084F90008300E0020340D0020540B002010B5802181F3118800BF00BF074C61782E
:20728000491C617008220021FEF7A7FA6078401E6070607808B980F3118810BD2800002017
:2072A00038B505460E4C2078401C2070802080F3118800BF00BF6078401C6070284600F02C
:2072C000F5FA284600F01AFB6078401E6070607808B980F31188BDE83140FEF76CB800BFB3
:2072E0002800002038B50446802080F3118800BF00BF0D4D6878401C6870207938B9482184
:20730000204600F00BFB6079022805D102E06079012801D0002020716878401E68706878DC
:2073200008B980F3118831BD2800002070B50446802080F3118800BF00BF104D286A0E189C
:20734000207980B932464821204600F005FBA868C068301A012801DA012070BD802080F33D
:20736000118800BF00BF607901281CBF00202071687808B980F31188002070BD2800002026
:207380000020704700207047002070470020704742F21070704730B585B0DFF86C040021A4
:2073A00001604160DFF86404006800904FF4806000F02FFB040064D04FF40072002100F059
:2073C0001BFC04F120000121802210F8013BFF2B18BF0021521EF8D149B9DFF8340400F01D
:2073E000ABFCFF224FF40071204600F0C7FC20680090DFF8205400222946FEF7F5F9009091
:20740000206810F1010F02D000984D2836D0DFF808040168019101A942684A608068886042
:2074200000220C2101A800F0DDFC009000AA2946FEF7DAF90098DFF8E41308180090206084
:207440004FF40071204600F000FCDFF8D4534FF4806229462046FFF791FA2068000C000415
:2074600040F4807000902060284600F065FC00234FF480622146284600F038FC204600F082
:20748000EBFADFF8A0434FF0FF30E060A0600520FEF737F80020E060A0600520FEF731F8B3
:2074A0000020A061606114202061A06820F00400A060606940F004006061A06820F008003B
:2074C000A060606940F008006061DFF85C0301680909090141F004010160416821F4700169
:2074E00041F480014160416821F0706141F080614160DFF838130A681201120942F0804241
:207500000A600A6822F4700242F480020A60426822F4702242F4802242600A6822F07062C3
:2075200042F080620A604A6822F4706242F480624A600A6822F4706242F400620A600A68A3
:2075400022F4704242F400420A604A6822F0F00242F040024A6004220A6108220A614FF444
:207560000042426142681201120942F040524260206820F0E06040F0C06000902060486800
:207580000009000140F00900486000F006F94FF4FA70FDF7B6FF05B030BD10B1012807D058
:2075A00002E0A34801210160A248006820B12FE0A04801210160FAE79F489D490968002996
:2075C000016821F0F00100D01BE016E010B1012807D002E09648002101609648006818B16D
:2075E00016E09448002101609348914909680029016821F0F00100D003E041F040010160F7
:20760000704741F0100101604FF40071016170478948016821F0F00141F0100101604FF421
:207620000071C160704740F6E44070478348006800207047FF2070478148006800F02000CF
:2076400070477F48006800F0800070477C48006800F0400070477948006800F00100704739
:20766000FF207047704770476F480121416101680909090141F003010160704710B56A4CFE
:20768000012020610A20FEF761F920680009000140F00800206010BD634801680909090188
:2076A00041F004010160416821F4700141F480014160416821F0706141F0806141604168C6
:2076C00021F4702141F480214160584801680901090941F08041016070477047704759484F
:2076E00000E059484FF4804101607047574800E05748802101607047524800E052484FF4BF
:2077000000510160704750484FF400514160016070475048006870474F490978012908BF5A
:2077200000F0CFBB4D490160302181807047FFE74FF0FF307047344800684949884208BFBD
:2077400000F04FF8802080F3118800BF00BF00F024F84448FEF7FAF8434844490160FEE7EB
:2077600010B50C46424900220A60012803D1204600F0ACFB00E03F4836490C6010BD3E483C
:20778000016821F004010160C16841F00401C16029484FF40041C16015E03748016821F085
:2077A00004010160C16841F00401C160C16841F00101C1603148016841F0007101601E481B
:2077C0004FF40041016101680901090941F04051016070472A487047002070476FF0010004
:2077E000704710B5012027490A684B688C68C9681A402240114011F1010F03D0224800F0E6
:207800009BFA002010BD0000F84F00200400000800F8010880969800E8F7FF1F8044E52DF1
:2078200000D8010804100240000C014000080140F0070020F407002004080140080C0140A7
:2078400008080140140C0140100C01401408014010080140EC070020E6180020006CDC02E8
:207860002143341220A107000CED00E00400FA05E807002088F800080C1002400400014080
:20788000F74F0020F0FF010800FC010810B582B001240122892100A800F01BF99DF800005B
:2078A000012814BFFF280024204616BD38B50446802080F3118800BF00BF0F4D6878401C4F
:2078C000687001202071206868B12878401C2870204600F02DFB20B9607901281CBF002095
:2078E0002071FDF768FD6878401E6870687808B980F3118831BD00BF28000020802181F3D1
:20790000118800BF00BF002101710348407808B980F31188704700BF2800002000B585B045
:20792000029001900B4A93680393802383F3118800BF00BF0368009300AB0360009800B1B9
:207940004360906800AA82600174FDF7B4FD05B000BD00BF2800002030B585B00290019030
:20796000114CA3680393802383F3118800BF00BFA368DA60256A521B012A05DA607888B975
:2079800080F3118805B030BD0268009200AA0260009800B1426000A8986041F004001874E5
:2079A000FDF789FD05B030BD2800002010B400224260016027490A6812B9086010BC7047E2
:2079C0000A4600E0221D14680CB1A042FAD24460106008680028F1D000E0084641680029E4
:2079E000ECD0026813188B42F7D14B684360096889180160F2E700201649096804E00A68B9
:207A0000904238BF104649680029F8D100B1083870470021C01DC008C00008300D4A00E007
:207A20001A1D1368A3B1D3F800C0604508D21946C31813600A68121A1A604A685A6004E021
:207A40008445EDD119465B68136009B141F8080B084670473408002000281CBF50F8081D33
:207A6000FFF7A4BF7047C91D21F0070101F1080250F8081D0260891A101897E710B50446D4
:207A80002068FFF7E9FF0020206010BDC908C9008CE7000080B5894800210160012000F06D
:207AA0002FFB6420FDF72DFD802080F3118800BF00BF83484178491C41707E487E49016048
:207AC000BDE80140FFF737BE7E48017801B97E4870472DE9F04104000D46164618BF002E60
:207AE00017D07019B0F5005F13D8784FFF2D0FD8C5F58070B046864288BF804642467919BE
:207B00002046FEF73BFF4444B6EB0806454400D094E0BDE8F08180B500F01EF9002002BD9B
:207B20002DE9F047C0B004000D46164608D0002E49D0B5F5005F03D27019B0F5005F02D970
:207B40004FF0FF3040E0FF2D20D8C5F58077B7F5807F88BF4FF48077B74288BF37463A4659
:207B6000214600A8FEF70AFF00233A4600A905F1006000F5EC3000F0B9F83C19F61B7D19A8
:207B8000FF2D02D8002EE0D11DE0E6B1A5F58075DFF83C8140F201194FF4807A4E452CBF42
:207BA000574637463A46214600A8FEF7E7FE00233A4600A908EB050000F098F83C19F61B18
:207BC0007D19002EEAD1002040B0BDE8F08710B5040005D009B9002010BDB1F5005F02D0D6
:207BE0004FF0FF3010BD00F0B7F84FF4005200212046BDE8104093E72DE9F04104000D4682
:207C0000164618BF002E17D07019B0F5007F13D8304FFF2D0FD8C5F58070B046864288BF43
:207C20008046424679192046FEF7A8FE4444B6EB0806454400D001E0BDE8F08132467919D2
:207C40002046BDE8F041FEF799BEF0B5C1B00446B1F5007F28D13CB34FF48072214600A8EB
:207C6000FEF78CFE00234FF4807200A9194800F03DF804F5807400250126174F4FF480722A
:207C8000214600A8FEF77AFE00234FF4807200A9781900F02BF804F5807405F58075761E53
:207CA000ECD1002041B0F0BD4FF0FF3041B0F0BD00000000F84F002021433412BC0F002041
:207CC00028000020300F00201041000800D8010800D9010800F8010800F90108DFF800F017
:207CE000D1010020DFF800F0650200202DE9F8438046894616461F4674000AE0012C05DB32
:207D00002546002000F0CCFA6D1EFAD1002000F0DAFA1FB131464046FFF7E0FF324649463F
:207D20004046FFF7DFFF32464946404600F02AFB0028E3D1BDE8F1830D490A684AB90D4A30
:207D40001288B2F5807F2CBF4FF400624FF480620A600968FFF7C2BF38B5074C0825204609
:207D6000FFF7EAFF04F580646D1EF8D131BD0000E4070020E0F7FF1F00D8010862F30F229E
:207D800062F31F42401810F0030308D0C91A1FD3DB0748BF00F8012D28BF20F8022D1300D2
:207DA00030B414461546103928BF20E93C00FAD8490728BF20E90C0048BF40F8042D89009E
:207DC00028BF20F8022D48BF00F8012D30BC7047C91818BF00F8012DCB0728BF00F8012DE8
:207DE00070470000F0B490B00F230FAC004D01E02083B8ED1E46042706F0010C7608BCF1C8
:207E0000000F18BF6E407F1EF6D144F804695B1EF0D510F8013B5A4000AB02F00F0453F8AA
:207E2000244084EA121202F00F0453F8243083EA1212491EEDD1104610B0F0BC7047000079
:207E400010B50C46DB0001E010B50C460146204600F0D2FA002010BD002070472A48012177
:207E6000016101680909090141F008010160416821F4700141F480014160416821F070616F
:207E800041F080614160416821F4702141F4802141601E490A681201120942F080420A6004
:207EA0004FF400514161416821F4700141F4401141600020704710B5154C24686468A047FA
:207EC00010BD1449016012218180704780B5124988423CBF114988420BD211490918B1FBAF
:207EE000F0F009380C2190FBF1F0002803D5002001E04FF0FF300B4908600B4808B1FFF79B
:207F0000ADFF0A4802BD0000000C0140000801402401002000A24A0401093D0000093D004C
:207F2000FFA14A04E80700205D7E0008A0F8000870B504460025802080F3118800BF00BF03
:207F40000E4E7078401C70700BE0C068017C490705D5C168326A891A0129B8BF0125FDF7C4
:207F600046FA20680028F0D17078401E7070707808B980F31188284670BD00BF28000020D3
:207F80002DE9F8430F468146B54D286830B94846B44A1268D269BDE8F8431047B24E3368E6
:207FA000EBB1DFF8C882D8F80010CC1AA74238BF3C46A4B1224649461818FEF7DFFC3068F8
:207FC00021183160A1443F1BD8F80000814206D12868A44A1268D269904700203060A7B11C
:207FE000A2480068401E37EA000408D0214648469C4A1268D2699047A1443F1B05D03A46D9
:2080000049462868FEF7BAFC3760BDE8F18338B5934C206840B9954D92480068406A804704
:208020002860FFF7F6FC206031BD20B10021002206C040F8081D70478D4801210170704755
:20804000002918BF002809D08A4A1268002A18BFFFF796BF834A126852691047704738B588
:2080600004460D46FFF7D3FF29462046BDE8344086E701B5FFF7CBFF042100A8FFF780FF88
:2080800001BD30B589B004462022C9B200A8FDF7A4FB212C2CBF20252546FFF7B8FF2946BE
:2080A00000A8FFF76DFF641BF3D109B030BDF0B589B004462022C9B200A8FDF78EFB694D0D
:2080C0006C4E212C2CBF2027274630680028394600A802D0FFF754FF02E02A6852699047F2
:2080E000E41BEED109B0F0BD0021E0E7614A1268002A18BFFFF744BF5A4A126892691047E5
:2081000001B5012101E001B5022100A8FFF798FF01BD01B50421F8E710B551480068002832
:208120001EBF514C2168002900D092E04D480068006ABDE81040004709B900207047494A02
:2081400012689268104730B589B00446212C2CBF20252546294600A8FFF7EEFF08B9641BCA
:20816000F4D109B030BD3F4A1268D26810470421E2E710B582B0044600A800220260FFF7AF
:20818000DBFF9DF800109DF8012041EA02219DF8022041EA02419DF8032041EA0261216070
:2081A00016BD30480068006800472E4800684068004780B53048FFF75BF800F080FC2948BD
:2081C0002E49016001BD2C48FFF770BB284800210170244800680069004700F02BBD38B529
:2081E0000446254D03E002212846FFF79FF800F021FD58B100F01BFD012807DB19481F49CF
:20820000016001212046FFF797FF32BD00F012FD0028E8D0002100A800F0FEFC0028E2D589
:208220004FF0FF3032BD13490860F0E61148016801B9704710B5491E016009D108480068F5
:2082400000281EBF084C2168002900D001E06DE710BD044A1268526990470020206010BD7A
:2082600044080020500800204C08002048080020E91800204008002038080020CCF7000882
:2082800000EB800149003D4A8B18895C002914BF99785978002918BFFFF77FB9FFF796B9C9
:2082A000022800DB704718B400EB80014900334A8B1801245C70895C002904BF12BCFFF7DB
:2082C0006CB911BC7047022800DB704718B400EB80014900294A8B1800245C70895C0029A4
:2082E00004BF12BCFFF772B911BC7047022800DB704718B400EB80014900204A8B185C782A
:2083000084F001045C70895C002904BF12BCFFF7B7BF11BC704718B402281BDA00EB800231
:20832000164B03EB42020B8813708B88D380CB881381CB8833B18C880CB9002303E04C885D
:208340000CB12346012493809470098801B9918012BC95E711BC704702280DDA00EB800213
:20836000064B03EB420200231370D3801381918001219170FFF711B97047000020080020FA
:20838000704700000300002013F0030F09D0521E22BF13F8010B11F801CBB0EB0C00F3D06E
:2083A0007047121F22BF53F8040B51F804CB6045F7D0121D0AD200BA9CFA8CFCB0EB0C008C
:2083C00038BF6FF0000088BF01207047521E22BF13F8010B11F801CBB0EB0C00F6D0521C10
:2083E00008BF10467047000000000000000000002DE9FF5F0E9C07E02DE9FF5F014C246857
:2084000002E000BFE80700209DE80007012255039603DFF8CC757A6822F0706B002C00D524
:2084200084E1600840008646641C6408A44600BF18F8011B19F8010B000208431C00082BE9
:2084400005D3FF2904D0002900D1A9E0082430E14BF04071400A34BF7E613E617960614661
:20846000491EFDD53D61714600BF00BF00BF00BF491EFDD57D616146491EFDD5400834BF40
:208480007E613E615B1E6146491EFDD53D61714600BF00BF00BF00BF491EFDD57D616146F6
:2084A000491EFDD5400834BF7E613E615B1E6146491EFDD53D61714600BF00BF00BF00BF20
:2084C000491EFDD57D616146491EFDD5400834BF7E613E615B1E6146491EFDD53D6171463E
:2084E00000BF00BF00BF00BF491EFDD57D616146491EFDD5400834BF7E613E615B1E6146B0
:20850000491EFDD53D61714600BF00BF00BF00BF491EFDD57D616146491EFDD5400834BF9F
:208520007E613E615B1E6146491EFDD53D61714600BF00BF00BF00BF491EFDD57D61614655
:20854000491EFDD5400834BF7E613E615B1E6146491EFDD53D61714600BF00BF00BF00BF7F
:20856000491EFDD57D616146491EFDD5400834BF7E613E615B1E6146491EFDD53D6171469D
:2085800000BF00BF00BF00BF491EFDD57D616146491EFDD50AF8010B5B1E49E700BF000072
:2085A0004BF0806179606146491EFDD53D61083B002000BF00BF7146491EFDD561467D61F2
:2085C000491EFDD5BA686146491EFDD53D613240920B104300BF7146491EFDD57D6161462C
:2085E000491EFDD5BA686146491EFDD53D613240520B104300BF7146491EFDD57D6161464C
:20860000491EFDD5BA686146491EFDD53D613240120B104300BF7146491EFDD57D6161466B
:20862000491EFDD5BA686146491EFDD53D613240D20A104300BF7146491EFDD57D6161468C
:20864000491EFDD5BA686146491EFDD53D613240920A104300BF7146491EFDD57D616146AC
:20866000491EFDD5BA686146491EFDD53D613240520A104300BF7146491EFDD57D616146CC
:20868000491EFDD5BA686146491EFDD53D613240120A104300BF7146491EFDD57D616146EC
:2086A000491EFDD5BA683240D20910430AF8010BBEE6002C34D02246400815D3010A34BF47
:2086C0007E613E614BF0407179606146491EFDD53D617146491EFDD561467D61491EFDD52B
:2086E000641EE9D114E000BF4BF0806179606146491EFDD53D617146491EFDD561467D61A3
:20870000491EFDD5B968314049040843641ED3D12021891AC8409B1A0AF8010B00D087E6E4
:208720004BF000617960BDE8FF9F00BF18F8011B19F8010B000208431C00082B05D3FF29DD
:2087400004D0002900D19DE0082413E1400A34BF7E613E614BF040717960083B1AF1010AD5
:2087600000BF3D6100BF00BF00BF00BF00BF00BF00BF00BF7D6100BF00BF400834BF7E612E
:208780003E6100BF00BF00BF3D6100BF00BF00BF00BF00BF00BF00BF00BF7D6100BF00BF0B
:2087A000400834BF7E613E6100BF00BF00BF3D6100BF00BF00BF00BF00BF00BF00BF00BF2D
:2087C0007D6100BF00BF400834BF7E613E6100BF00BF00BF3D6100BF00BF00BF00BF00BFEE
:2087E00000BF00BF00BF7D6100BF00BF400834BF7E613E6100BF00BF00BF3D6100BF00BFCE
:2088000000BF00BF00BF00BF00BF00BF7D6100BF00BF400834BF7E613E6100BF00BF00BF8C
:208820003D6100BF00BF00BF00BF00BF00BF00BF00BF7D6100BF00BF400834BF7E613E618D
:2088400000BF00BF00BF3D6100BF00BF00BF00BF00BF00BF00BF00BF7D6100BF00BF4008A1
:2088600034BF7E613E6100BF00BF00BF3D6100BF00BF00BF00BF00BF00BF00BF00BF7D61D6
:2088800054E700BF4BF0806179603D61083B002000BF00BF00BF00BF00BF00BF7D6100BFD1
:2088A00000BFBA6832403D61920B104300BF00BF00BF00BF00BF00BF7D6100BF00BFBA68DF
:2088C00032403D61520B104300BF00BF00BF00BF00BF00BF7D6100BF00BFBA6832403D61D0
:2088E000120B104300BF00BF00BF00BF00BF00BF7D6100BF00BFBA6832403D61D20A1043D1
:2089000000BF00BF00BF00BF00BF00BF7D6100BF00BFBA6832403D61920A104300BF00BFE2
:2089200000BF00BF00BF00BF7D6100BF00BFBA6832403D61520A104300BF00BF00BF00BF02
:2089400000BF00BF7D6100BF00BFBA6832403D61120A104300BF00BF00BF00BF00BF00BF22
:208960007D6100BF00BFBA683240D20910430AF8010BDBE6002C2DD0A4460AE04BF08061F1
:2089800079603D613240520410437D61641EBA6813D04008F2D300BF010A34BF7E613E6198
:2089A0004BF04071796032403D6152041043641E7D6106D04008EFD2E0E740083240520423
:2089C000104362462021891AC8400AF8010B9B1A00D0ABE64BF000617960BDE8FF9F0000D4
:2089E000000C0140F0B583B000208DF8000000241425FEF74BFF00B11025FEF7EDFE08B192
:208A000025F03805012201210DF10100FFF761F89DF80100012802D0022806D00BE00422CF
:208A2000002101A8FFF7E8F813E00422082101A8FFF74FF80DE085480190102D09D10122E9
:208A4000002100A8FFF745F89DF80000042838BF012401987E4E0C2702AA0A21FCF7C4FE19
:208A60000299303106F801197F1EF5D140F2011024B19DF8000000F201100CE0102D0AD0CC
:208A8000142D08BF40F2051005D0042D0CBF4FF4837045F480506F49488003B0F0BDFFF7A1
:208AA00092BB10B50C4604F00300022818BFFFF78AFB600702D568480121017010BD00B5DC
:208AC00083B0FFF78FFFFDF766F900F0C6F9FEF783FEF0B900900023402202210120FDF771
:208AE000C5F88DF80400402000905C4B402202210020FDF7BBF88DF8050001A800F099FA97
:208B00005749002000F0DBFA002256495648FDF7A1FC5048FDF780FEFDF777F903B000BD02
:208B200080B54FF47A710120FFF716FCFEF735FE1420FCF7E6FCBDE80140FEF720BE10B5FA
:208B400082B00C46494909680091002322460146002000F01EFAA04206D00020FEF736FD03
:208B6000BDE81340FEF7E7BD13BD10B582B03F4C20680090012300220021084600F009FA52
:208B800021680020BDE81C4000F0A0BA10B50C4636490B6822460146002000F0EFF9A0424F
:208BA00006D00020FEF712FDBDE81040FEF7C3BD10BD38B504460D462C480168002000F00D
:208BC0008BFA20B10020FEF701FDFEF7B4FD4FF0FF30009000232A462146002000F0D9F9AC
:208BE000002806D50020FEF7F1FCBDE83140FEF7A2BD31BD10B50C461C490B68224601467A
:208C0000002000F0F1F9A04204D00020FEF7DEFCFEF791FD002010BD0A460146002000F09E
:208C2000EDB9002000F0FEB9002000F0F5B9002000F0EBB980B5FDF74AFC00F003000228C9
:208C400001D1012002BD002002BD000040E201000F00002014000020E81800206008002055
:208C60009F8A0008A38A0008540800200000002040207047A049096801B1704780B500687B
:208C800000F01AFB9D480121016001BD704710F0030F18BF00F098BC70472DE9F04188B08F
:208CA000FDF715FC00F0030002280CD19448006848B1944800689449096A401A012802DA85
:208CC0008E48006808B9012049E001278F4D286818B98F4800F017FC28602968A1B1DFF8CA
:208CE00030824FF0FF33D8F800208A48006800F09FFD002808D4884E3068D8F80010081829
:208D00003060002028600027834E306850B18148006800F099FD04463068001B00F0DFFB0C
:208D2000346000E007B9002401257A4E04E00025014600A800F023FB00F0C8FB202801DA11
:208D400008B909E020204FF0FF33024600A9306800F063FD0128EADA05B90024204608B0F2
:208D6000BDE8F081F0B585B000240025012101A8FFF740FF042100A8FFF73CFFFEF786FD44
:208D80000028009804D0FFF7DEF902AE634C4FE00830FEF73EFE060003D10098FFF7D3F947
:208DA00021E00099FFF726FF9DF8040004283DD8DFE800F0030C2A3036003046FCF7E9FC80
:208DC0000146301D00F0DBFA044631E03046FCF7E0FC07463046FEF73FFE07F10800FEF7B0
:208DE00018FE060003D102AE6FF0010420E0394606F1080000F00DFB05464348006A3E4932
:208E0000096808183F4909E03046FCF7C2FC00F0AEFA0DE03046FCF7BCFC3749086007E0B4
:208E20003046FCF7B6FC00F047FA01E06FF0020421463046FCF796FC2946301DFCF792FC01
:208E400005F108013046FFF7FBF802A886421CBF3046FEF701FE05B0F0BD1CB5284CFEF761
:208E600015FD80F001002060FEF7B6FC20B9206800283DD000F0E9FD2068002838D04020C4
:208E800000900023002202210120FCF7EFFE8DF8040040200090224B002202211046FCF765
:208EA000E5FE8DF80500002000900346082203210120FCF7DBFE8DF8060001A800F0CBFC26
:208EC000144C2060174900F09AFC1749206800F09DFC164C0023224615499DF80500FDF782
:208EE000D4FA0023224613499DF80400FDF7CDFA01480021016013BD6407002068070020B4
:208F0000580700205C070020280000206C070020700700206007002074070020FAFEFFFFC5
:208F200078070020758C00088D8C00088F8C0008B8070020C407002080B50178412904BFA0
:208F40004178012912D1C178807840EA0120B0F5804F32BF8002400A400200F0C7F801228A
:208F600000210020FCF7CEFF002002BD012002BD48075CBF002000F0B9B8704710B582B098
:208F80000093012300EB40005D4C005DFDF7B2F816BD2DE9F84388461500994600EB40003A
:208FA0005749445C089F16D12046FDF733FB0646012E10DA002F04D5A6B16FF00300BDE890
:208FC000F28339462046FDF70AF808B9002EEBD10020BDE8F28300974B462A4641462046D7
:208FE000FDF788F8BDE8F28318B400EB4000444C0019407801B010BCFCF775BF00EB4000BC
:209000003F4BC0184078FCF771BF00EB40003C4940184078FDF7C1BA00EB40003849405C9C
:20902000FDF7CBBA00EB4000354940184078FDF7E5BAF8B50546334C3348017839B90121EC
:209040000170002020700FF29D00FDF78BFBFDF74CFB064606EB46002C4901EBC00000F107
:209060002807FF20F87038717871012095F9001000FA01F12A569040084338802448FEF749
:20908000DEF8F871207800EB40001D494018297801706978417086701E4D29463046FDF732
:2090A0008AF81EB129460020FDF785F800221A491A48FDF7CFF92078411C2170F2BD00EB9C
:2090C00040000F4A80184078FDF743BB00EB40000B4A805CFCF783BF00EB4000084A805CCB
:2090E000FCF7DEBF084800210170704704490978C1EB01120A4901EB820148617047000098
:2091000078090020E0180020DF180020340D002074F90008398F0008718F00087C0900202C
:20912000540B00202DE9F043044688466768A068C51B44BF206945199542A8BF154615B947
:209140000020BDE8F0832E46206921684018C01BB1468642C8BF81464A4639464046FDF788
:209160000DFCC8444F44A6EB09062068216909188F4208BF0746002EE6D16760E76028E094
:209180002DE9F043044688461646A7686068C01B451E44BF20694519B542A8BF35462069B1
:2091A00021684018C01BB1468642C8BF81464A4641463846FDF7E2FB4F44C844A6EB090641
:2091C0002068216909188F4208BF0746002EE6D1A7602846BDE8F083DFF86403007800B996
:2091E000704738B5DFF85C432078DFF85C130978084318D1DFF854532860DFF8540300216D
:209200000160012200A9DFF84C03FFF78BFF012809D1DFF84403006A2860012020709DF822
:20922000000000F05BFC31BD10B50446DFF82803006ADFF818130860DFF80403007810B1FD
:2092400000F0F2FC40B901222146DFF80803FFF769FF08B1002010BDDFF8E8020021017074
:20926000012010BD18B4DFF8F012096AB84A1160DFF8E8128A684B689B1A5B1E44BF0C6959
:20928000E31853B110708868401C0A6802F20114A04208BF104688605B1EA948007848B1C6
:2092A000AF48007830B9022B04DAAE48006808B9012025E111BC70472DE9F0410446A54DFE
:2092C000A64EA94F3878B0B900F08EFCA7490870A3480021017040F201184046FEF799FBD0
:2092E0003060C6F810808120FEF793FB2860812028610120387030687060B060F060286899
:209300006860A86000281CBF3068002811D0984D98480068844209D0286808B1401E2860DE
:20932000954B964A9649204600F0E7FB2868401C28608648002101608548016080488B49C8
:20934000097801708F48012101708A480460BDE8F0818748016801B9704780B5491E0160BF
:2093600004D100F021FC83480021016001BD72B67B4901220A707B49086062B670472DE966
:20938000F04182B07A4A1268002A3ED0DFF8C4810A4601464046FFF7F3FE0546012D35DB4B
:2093A000694E01203070674F387840BB644C7548017849B10021017000F036FC012821D125
:2093C0000020207000F02FFC207810B100F02CFCA8B95E4C002020605D480021016001225C
:2093E00000A94046FFF79EFE012808D15A48006A2060012038709DF8000000F06FFB002046
:20940000307003E001202070E0E700252846BDE8F68138B5564A1268F2B1504BDA685C6857
:20942000A24201D0002032BD0A4601461846FFF779FE04464248007878B14948007860B96F
:20944000002C1EBF474D2868002806D0002000F0E9FB0020286000E00024204632BD70B5C7
:2094600082B0394C01202070364D287840BB344E4448017849B10021017000F0D5FB01286A
:2094800021D10020307000F0CEFB307810B100F0CBFBA8B92D4E002030602D4800210160BF
:2094A000012200A92B48FFF73DFE012808D12A48006A3060012028709DF8000000F00EFB87
:2094C0000020207073BD01203070E0E7214948688A68801A401E44BF09690818704718B408
:2094E0001E494A6882180B690C681C19A24224BF5B429A184A6008B1002001E011BC70479E
:2095000012BC00F08FBB70B4144AD3689168994202D2116915684919CC1A0AD01946E3186B
:2095200015691668AE19B34224BF6D42EB18D36000E0002100B10460084670BC7047000064
:20954000D9180020DC180020DE1800203C090020400900205C0900202800002048090020C4
:20956000DB18002074090020D8180020DA1800204409002070090020D991000865920008A2
:2095800029920008DD1800201D4C1E4D0126284600F083FB01F01BF800B90026FFF77DFBCB
:2095A00000B90026FFF75BFF284600F095FB002EECD001212046FDF7B9FEE7E7114800F05A
:2095C0008BBB104800F069BB0D48FEF76FB900B583B00C4800F048FB0221094801F068F833
:2095E0000948022102914FF4806101910090074B0122074900F5806001F076F803B000BDB5
:209600000C030020FC0200201403002089950008C8F9000870B50546DFF86C432068002831
:2096200024D400EB4002DFF8640300EB0216072903D00020FCF707FF0EE02846FDF733F82D
:2096400070602879307268797072A879B072F16808001CBF301D88474FF0FF302060012288
:2096600000210020BDE87040FCF74CBC70BD38B50179427941EA02210022DFF8103303F18C
:20968000140400E0521CDFF808532D78AA424DDA34F8305B8D42F5D1002A47D402EB4201B9
:2096A00003EB01144178202906D03FD322291BD006D323292AD039E0DFF8CC02026033E035
:2096C000616804F12600FCF7E2FF211D087984F82A0004F22A004A794270897981700022C3
:2096E000072104F126001DE0211DCA68BAB1827802F001028DF800208078400800F001008A
:209700008DF8010000A8C968884708E0211DC9690A0004D0C278807840EA02208847012275
:2097200000210020FCF7EEFB002032BD012032BD70B50C460021DFF8542202F11403DFF827
:2097400050522D7800E0491CA94204DA33F8306B8642F8D101E04FF0FF3101EB410002EBF3
:20976000001505212046FDF745F924212046FDF741F900212046FDF73DF94FF488712046EA
:20978000FDF742F905212046FDF734F924212046FDF730F901212046FDF72CF903212046FA
:2097A000FDF728F9A98CC9B22046FDF723F904212046FDF71FF924212046FDF71BF9022101
:2097C0002046FDF717F906212046FDF713F905212046FDF70FF924212046FDF70BF9062140
:2097E0002046FDF707F9A98AC9B22046FDF702F9A98CC9B22046BDE87040FDF7FBB800EB0F
:209800004002624800EB0210C160704700EB40025E4800EB02100161704718B400EB4004A3
:209820005A4800EB0410407801B010BCFCF761BB10B582B00093012300EB40042001534CA6
:20984000005DFCF757FC16BD00EB400108014F49405CFCF7B2BE2DE9F84381464D480178A0
:2098600089B901210170602200214848FBF7B5FF47480021017044484FF0FF3101600FF2BC
:20988000FD00FCF76FFF4448FCF79DFCFCF72DFF80464249FCF787FC414E08EB480006EBB1
:2098A000C00000F128073F48B8600220F870387101207871012499F9020004FA00F038808D
:2098C00030A0FDF7BCFCF871FCF70FFF074607EB470006EBC00000F128050020A8600A20FB
:2098E000E87000202871687119F9000004FA00F099F9011004FA01F1084328802A48FDF792
:209900009EFCE871D6F8E040002C08D00020009002230222114640462668B04706E00220FF
:209920003071301D0221417000218170184E307800EB4001154800EB011499F8000020709B
:2099400099F80100607099F80200A07001216078FCF720FF1548D0E90023C4E90123A4F850
:209960001480A7840A22124904F11600FDF706F83078411C3170BDE8F28300000548002176
:209980000170704743444300E809002088090020E1180020E2180020159600086F96000820
:2099A000340D00203197000850F9000818FA0008B0F9000870B4039C2E4D2E78761C2E7046
:2099C000F6B2042E09D206EB86052B4EAD196D1F2871E9702A70AC706B7070BC704738B538
:2099E0000C460021244D2A79824228D108212046FDF700F80B212046FCF7FCFF2979204620
:209A0000FCF7F8FFE9782046FCF7F4FF29782046FCF7F0FF69782046FCF7ECFFA97820461A
:209A2000FCF7E8FF287900EB4001144800EBC10090F82F102046BDE83440FCF7DBBF491C3F
:209A400005F205050329CEDB31BD80B50F22FF210948FBF7C2FE0748002101700748084938
:209A6000C0F8E010EF210171001D022141700121817001BDE4180020440B0020340D00200E
:209A800020FA000838B5594C256815F02F0F1CBF60688DF80000A80604D59DF80000544961
:209AA00009688847680618D5E068400615D500A850490968884768B1E06820F04000E06021
:209AC0004D48016821F4706141F4006101600421016131BD9DF80000606031BD46490A68F2
:209AE00022F4706242F410620A6040490A684860C86840F04000C86070472DE9F04180463D
:209B00000E4617461C463D4D287808B100F04CF83B48046036480760364806603648016884
:209B200021F4706141F40061016004210161016821F4704141F400410160082101613148B7
:209B4000016821F400310160C16841F40031C1602D484FF4C061816000214160C1604168FF
:209B600041F400514160416821F4005141602749884528BFDFF898802649B1FBF8F1016096
:209B8000416841F4005141F00C014160224910220A70224940220A60416841F020014160CD
:209BA00001202870BDE8F0811348016821F4706141F40061016004210161016821F470417F
:209BC00041F400410160082101610E48016821F400310160C16841F40031C1601048002194
:209BE00001600648017070470020704700440040140800201808002000080140D418002062
:209C00001C080020101002400844004041420F0040420F000051250226E400E004E100E0C8
:209C20000C440040704770470020704770B5044633480568334E14E0287A88B16868A042F6
:209C40000ED1012028723078401C3070287A401E2872C0B210B9284600F080FDFBF7ABFB7E
:209C6000ED68002DE8D170BD10B50446264827490160102200212046FBF7AFFD802080F3C4
:209C8000118800BF00BF1E480168E16004601D48407808B980F3118810BD38B50446194DE5
:209CA0002878401C2870A868217A11B9606001250DE06168814208D010212046FDF72EFEAD
:209CC000207A0028F8D1A8686060207A451C2572FBF771FB284632BD0A490A78521C0A701F
:209CE000017A491E0172C9B2002918BFFBF763BB80B500F033FDBDE80140FBF75CBB000040
:209D0000A008002028000020A80800202D9C00082DE9F14F86B04FF0FF35082104A8FEF7C9
:209D20000BFADDF810A00598010C0904039180B202908346FDF75FFE029E864288BF064675
:209D4000B6F5805F84BF360A36023046FDF761FE019008B938E0AA44BBF1000F01D1029D71
:209D60003AE0D846B34588BFB046ABEB080B5546002741460198FEF7F6F9B946FEF711FA08
:209D8000A8EB0001A1EB090418B1402CF6D3A00984017FB9019848440090039B2246294608
:209DA0000698C769D7F808C0E0470746A74208BF00276519A144C145E0D117B14FF0FF359E
:209DC00002E04546002DC6D5BBF1000F1CBF5846FEF7B9F9019810B10198FDF73DFE2846E3
:209DE000FEF797F907B0BDE8F08F38B50446A0688509AD010BD02946206962688018FEF75E
:209E000075F9206928182061A068401BA06031BD2DE9F14F90B0082103A8FEF78DF9DDF87F
:209E20000CA00498010C0904029185B22E46112D0BD3FDF7E0FD8046281D404538BF804648
:209E40004046FDF7E6FD070002D10AAF4FF01408A8F10409B14507D2B9F5806F05D94FEA8E
:209E600059204FEA402900E0B146DFF8240805904FF400700890069700200790099005A873
:209E800001900097029B4A4651461098C469D4F804C0E04704460998012C02DA361A1BD11A
:209EA0001DE0A244361BA4EB000B0CD12946E019FBF758FC0BF104010998C019FEF716F9CA
:209EC000FEF72AF90EE05946C019FEF70FF9FEF723F94C45BCD0AC1B3046FEF705F9204643
:209EE000FEF717F90AA887421CBF3846FDF7B4FD11B0BDE8F08F70B5D4B00446052100A83E
:209F0000FEF71AF99DF8001002A8FEF715F99DF80100F8B19DF8020068B1DFF87857296ABF
:209F200046182069E169096A884740B9286A301AF7D5002003E02069E169096A8847129053
:209F4000012809DA1298012811DB9DF800008000011D0DE0012012909DF8003013AA02A926
:209F60002069E469E468A0470028EBD51290042112A8FEF765F854B070BD70B5D2B00546FA
:209F800002E001A8FEF75CF8002442AE012100A8FEF7D2F89DF80000FF281EBF06F8010BAD
:209FA000641C402CF2D1234601AA42A92869EE69F668B047A1009DF80020FF2AE1D101AADA
:209FC00042F82400091D01A8FEF73AF852B070BDF0B5D3B00446002542AE02AF0BE00421B6
:209FE00001A8FEF7A9F89DF8000006F8010B019847F8040B6D1C012100A8FEF79DF89DF82A
:20A000000000FF28EBD12B4602AA42A92069E4692469A047FEF77DF853B0F0BD10B582B0FA
:20A020000446012100A8FEF787F89DF800102069E26952699047FEF76CF8A06D18B101213C
:20A04000204600F0D5FC13BD80B501460869C9698969884716E010B504462069E169C9691F
:20A060008847FEF756F8A06D28B100212046BDE8104000F0BDBC10BD80B501460869C96917
:20A08000096A8847BDE80240FEF743B810B584B0044600200390142002900020019004E056
:20A0A0009DF8001003A8FEF747F8012100A8FEF743F89DF8000038B9039B019A029920693F
:20A0C000E469646AA04766E001210DF10100FEF733F89DF801000128E2D00AD3032804D0AA
:20A0E00007D29DF8001002A8DDE79DF8001001A8D9E79DF80000FEF726F8D6E710B584B008
:20A1000004460020039001200290019004E09DF8001003A8FEF710F8012100A8FEF70CF80A
:20A120009DF80000E8B903992069E269926A9047DFF860050178491C01700120FBF7E1F92E
:20A1400001992069E269526990470298FBF7D9F92069E169C96988470446FBF72CF9204606
:20A1600019E001210DF10100FDF7E6FF9DF801000428CCD00AD3062804D007D29DF8001031
:20A1800002A8C7E79DF8001001A8C3E79DF80000FDF7D9FFC0E7FDF7BCFF04B010BD2DE921
:20A1A000F04E86B00446042102A8FDF7C5FFFDF722FC0299814202D3FDF71DFC02900298DC
:20A1C000052836D3FDF725FC81460298061F09F1040AB6B23546DFF8BC74386A039004F192
:20A1E000100BADB10020019000903346524600212069DBF80CC0DCF848C0E047002848BF19
:20A2000000202D1A82440398396A401A0128E8DA0020ABF81600012084F88C00701BC9F840
:20A220000000011D4846FDF70BFF4846FDF714FC02E00020FDF76DFF06B0BDE8F08E2DE991
:20A24000F04E88B00446082104A8FDF775FFBDF810008000BDF816108842B8BF0846001D35
:20A26000FDF7D7FB5FEA0009BDF816100AD10846FDF769FF6FF483700290042102A8FDF7BB
:20A28000DFFE65E009B1FDF757FF00269DF81500B8BBBDF81200ADF80C00BDF8106009F1BE
:20A2A00004073546DFF8ECA3DAF82000BDF80C100818069004F1100BCDB102200190BDF843
:20A2C0000C00009033463A4600212069DBF80CC0DCF848C0E047002848BF00202D1A07EB15
:20A2E00080070698DAF82010401A0128E4DA0220ABF81600012084F88C00701B0290064689
:20A300001AE0012815D104F1100702203883BDF810300190BDF812000090BDF81600C3EBF5
:20A32000A00009EB800201212069FC68A46CA04701E0DFF86403029002994846FBF712FA29
:20A34000B000011D4846FDF77BFE4846FDF784FB08B0BDE8F08E10B582B00446012100A84D
:20A36000FDF7EAFE9DF800102069E269D26B90470FE01CB50446082100A8FDF7DDFE0020AA
:20A380000099012903BF019941F00101C4F88810C148FDF7BEFE13BD10B50B46012103B1A2
:20A3A000BE4900283BD043680BB141F0020183680BB141F00401C3681C0018BF41F0080193
:20A3C00004690CB141F0100144690CB141F0200184690CB141F04001C4690CB141F080019D
:20A3E000046A0CB141F48071446A0CB141F40071846A0CB141F48061C46B0CB141F4805148
:20A400000BB141F40051836C0BB141F4904141F4C031436C180002D01046984701460846C0
:20A42000BDE81040FDF775BE00B583B001210DF10100FDF781FE012100A8FDF77DFE022029
:20A44000FDF781FE60B901A99DF801009DF8002042EA002000F098FB00220199FFF79CFF5F
:20A4600003B000BD00B583B001210DF10100FDF763FE012100A8FDF75FFE042102A8FDF730
:20A480005BFE01A99DF801009DF8002042EA002000F07AFB029A0199FFF77EFF03B000BDA4
:20A4A00030B5A5B09022002101A8FBF796F901210DF10200FDF740FE04E09DF8001001A8DF
:20A4C000FDF757FE012100A8FDF736FE9DF8000030B901A99DF8020000F0C0FB25B030BD15
:20A4E00001210DF10100FDF727FE9DF801000728E3D02CD3092807D002D30A2809D026E0BD
:20A500009DF8001002A8D5E79DF800100DF10900D0E79DF80000082834BF04460824214638
:20A5200003A8FDF709FE9DF80000051BCAD02846FDF76FFA069020B12946FDF7FDFD0795FB
:20A54000C0E79DF80000001BFDF7FDFDBAE79DF80000F9E770B582B0022100A8FDF7ECFDA1
:20A560009DF801409DF8000000EBC0014C4A02EB0115042828DA05F11006F16821B3112C87
:20A5800022D2484901EB40104249096AC160286910B9284600F010FB012085F88C00F06896
:20A5A000C26C414850F8244010000AD00121286990472846A04700212869F268D26C90474E
:20A5C00073BD2846A04773BDFDF736FD73BD2DE9F0470124DFF8C8A0344D0AF28D06042783
:20A5E00042F21078DFF8AC90DAF8100000281CBF9AF88C0000281CD03078D0B92868404430
:20A60000D9F82010401A012813DB504600F021FA00B90024504600F03AFD00B900240AF1B5
:20A620001000C068016D080003D05046884700B900240AF1900A903620357F1ED4D12046FF
:20A64000BDE8F087411C04BF0020042100EBC002134B03EB0212136913B1002382F88C30D3
:20A66000401C8842F2DB704738B50C4600280ED400EBC0010A4800EB0115002C284602D17B
:20A6800000F090F901E000F0A2F985F88D4031BDEB9D000828000020FAFEFFFF010000408E
:20A6A00048100020C00F00204CF70008CC0F002070B504460D46802080F3118800BF00BF01
:20A6C000084E7078401C7070082200212046FBF784F865717078401E7070707808B980F3C9
:20A6E000118870BD280000202DE9F04104460E4690461D46089F44220021FBF76EF8201D6B
:20A70000C0F81080017B134A12781143017384F8397006B10662069E8662079F47623A4627
:20A72000CD213046FBF759F8B819C008C000002140F8501D4FF08071416407490164C564A0
:20A740006FF00201416260602046BDE8F041FAF786BE00BFD7180020EF59000810B5044696
:20A7600002E0C068FAF743FE802080F3118800BF00BF20680028F4D10248407808B980F3C8
:20A78000118810BD28000020F2B582B00446256E606E216D88421ED0042202A92846FCF70F
:20A7A000EDF82D1D002601E04D19761C206B864215DAE06A00EB0617002001900095BB686E
:20A7C0007A6839682046D4F81CC0DCF804C0E04779688842E8D04FF0FF3003B0F0BDA06DEB
:20A7E000216D09188D4208BF05462566606EE16B08186066002003B0F0BDF8B504460421A2
:20A8000000A8FEF7F7F9606E10B9FDF782FCF1BD0098E16BB0FBF1F00090E16B484300908D
:20A82000606E0099884288BF08460090042100A8FDF715FCE66D009DFEF7C0FE206DA16DB2
:20A840004018871BBD4238BF2F4639463046FDF706FCBE19A06D216D09188E4208BF064632
:20A86000ED1BEBD1FEF7ADFEFDF756FCE665606E0099401A6066F1BD70B5044600250421F5
:20A8800004F13000FEF7B6F9E562206B0B2804D20001FDF7BEF8E062C8B96FF00105206BB6
:20A8A00000010830FDF74FFCE06A08B1FDF7D4F8A06D08B1FDF7D0F83C22002104F12C003B
:20A8C000FAF78BFF2846BDE87040FDF722BC216B0901FEF78FF9042104F13400FEF78AF98F
:20A8E000042104F13800FEF785F9E563206B012808DBE16A091DE26B51F8103B9A18E2636B
:20A90000401EF8D1E06B001DE063616B642938BF64217C4A5043B0FBF1F6A06D30B1216D29
:20A92000B1421ED0FDF798F82565A565FDF763F8E16B00EB400250000A22B0FBF2F0B0FBA2
:20A94000F1F04843864288BF06468E4203D33046FDF75FF8A065A06D10B96FF00105A3E7FF
:20A9600026656565A06DE065A06D20664FF47A7694F83800C00706D500F004FE616B091825
:20A9800090FBF6F206E06048006A616BB1FBF6F109180246E2646064216400212046FFF778
:20A9A000F3FE8FE710B5044694F85400C0070DD494F83800C00702D500F0E4FD01E05248EB
:20A9C000006A616C4018A16C401A606410BD10B5044694F85400C00709D494F83800C007D2
:20A9E00002D500F0CFFD01E04748006AA06410BD90F88D2002B1704710B590F8382002F0E3
:20AA0000010279B900F13804207FC00720D412B100F0B8FD01E03C48006A2061E06940F049
:20AA2000010014E0012913D100F13804207FC0070ED512B100F0A6FD01E03348006AE16838
:20AA400040182169401AE060E06940084000E06110BD70B504460125206B00281CBFE06B2D
:20AA600000284CD0002594F83800C00702D500F089FD01E02448006A216C091A01293EDAEC
:20AA8000626B94F83830DB075CBF4FF47A73B2FBF3F2511848BF0021081820641A4E306AFF
:20AAA000E16C814219D0E0642069E169096A884740B994F85400C00714D501212046FFF73D
:20AAC00097FF0FE001281AD194F85400C00716D400212046FFF78CFF11E094F8540010F073
:20AAE00001000CD194F83800C00702D500F04AFD00E0306A616C411A2046FFF745FE284630
:20AB000070BD0000A08601002800002010B58AB00446012100A8FEF76DF89DF80000E0B106
:20AB2000022807D002D3032813D027E02046FFF7A3FE23E00020206304F13000C16A026BCA
:20AB40008A422FBF501A006A401A1018FDF7E1FA14E02046FFF751FE10E001900A2002903A
:20AB60004FF47A7003900020049005900690079008900990242101A8FDF762FA012084F893
:20AB80008C000AB010BD0000002240F2011398421CBF40F20133984207D040F201639842FE
:20ABA0001CBF40F60163984201D1DFF8282209B1002008601046704770B50446FCF71BFF88
:20ABC0000546B5F5805F02DAFCF715FF0546B5B12846FCF71EFF06462A4631462046E369AA
:20ABE000DB6A9847002805D4291A3046FCF73BFF266170BD3046BDE87040FCF72DBF70BDBF
:20AC000010B500EBC001DFF8D00100EB0114206918B3A06D18B1FCF71FFF0020A065E06A71
:20AC200018B1FCF719FF0020E062606F18B1FCF713FF00206067A06E18B1FCF70DFF002064
:20AC4000A066606918B104F11400FCF717FF04F11000BDE81040FCF711BF10BD70B50C4649
:20AC600004282BDA2168090EFF2908BF0021227942EA012500EBC001DFF85C2102EB011602
:20AC8000FFF7BEFF002040F201118D421CBF40F201318D4207D040F201618D421CBF40F675
:20ACA00001618D4200D14B48E061902221463046FBF774FE3046BDE870407DE770BD2DE959
:20ACC000FC4105460E4690461F46434CD4F81CC0DCF84C20100013D0012120699047002051
:20ACE000019000974346324629462046E5696D68A847054600212069E269D26C90470AE005
:20AD00000020019000974346324629462046DCF80440A047054628E02DE9F04182B00546FF
:20AD20000E4690461F462C4CD4F81CC0DCF84C20100011D001212069904700974346324619
:20AD400029462046E569AD68A847054600212069E269D26C904708E0009743463246294688
:20AD60002046DCF80840A04705462846BDE8F68138B5194CE169CA6C206913000CD0012129
:20AD800090472069E169096A8847054600212069E269D26C904702E0096A88470546284695
:20ADA00032BD38B50C4CE169CA6C206913000CD0012190472069E169C9698847054600212E
:20ADC0002069E269D26C904702E0C96988470546284632BDA4F60008481000208168426852
:20ADE000891A44BFC06841180846704741688268891A491E44BFC0684118084670472DE9EB
:20AE0000F04104460D469046FFF7F0FF404503DA2046FFF7EBFF80464646A068E1682268D4
:20AE20008918091A37468E42C8BF0F463A462946FBF7A4FDA06838187D19F61B2168E268D1
:20AE40005218121A08BF0846A060002EE5D14046BDE8F081F8B504460E46FEF7AFFBDFF806
:20AE600010572846FEF719FF6068E168226889180F1ABE42B8BF37461FB13946FDF7EFF86D
:20AE8000F61B1EB131462068FDF7E9F8BE192046FFF7A4FFB04203DA2046FFF79FFF064613
:20AEA0007EB1E068216840186268831A9E42D8BF33469A186260F61A801A08BF6160002E0F
:20AEC000EFD12846FEF708FFFEF77BFB2046FFF785FF054661682068E2681218521AAA4295
:20AEE00008DB012DA4BF2A4600F086FB206860602818A060F1BDF0B583B0044615461E46E6
:20AF0000089B0020019000962046E7697F68B847A84218BF4FF0FF302AD1607938B37069E4
:20AF2000FAF7F0FB70613069FAF7ECFB306106F11805002618E02868FAF7E4FB2860686878
:20AF4000FAF7E0FB6860A868FAF7DCFBA860E868FAF7D8FBE8602869FAF7D4FB2861686976
:20AF6000FAF7D0FB6861761CE06E8642E3DB002003B0F0BD2DE9FC4104460025082100A8D3
:20AF8000FDF7DAF801980128B8BF4FF0FF3563DB0026DFF8E0854746A7421CBFB86E002800
:20AFA00026D0786F20B338682168884202BF3879217988421CD1042204F1080107F1080007
:20AFC000FDF7E0F9A0B906EBC60008EB0016706F10B1FCF741FD7567B06E10B1FCF73CFDD3
:20AFE000B5662022002106F16800FAF7F6FB03E0761C9037042ECFDB666F66B13046FCF725
:20B000002BFDA06EFCF728FD2022002104F16800FAF7E3FB2E46019800EB4001CF003846CD
:20B02000FCF7F7FCA0663A460021FAF7D6FBA06E60B1FCF7E0FC0521B0FBF1F84046FCF7A0
:20B04000E8FC060017D16FF0010505E06FF0010536B13046FCF700FDA06E08B1FCF7FCFC70
:20B060002022002104F16800FAF7B7FB2846FDF750F8BDE8F381009820670198E066C4F8F0
:20B0800080806667A667E66784F88450EEE72DE9F04F8FB08246DFF8E004016829B90121E0
:20B0A0000160DFF8CC04FEF7DFFD0AF17404DAF86C0000281CBF2068002800F012819AF83E
:20B0C0008400002840F00D81DAF80000000E08281CBF0C280F2801D1022000E000200006B6
:20B0E0000C902046FFF782FE04283EDAFCF783FC0390E0680399884280F0F3800846FCF7BD
:20B1000088FC060000F0AC81DFF864542846FEF7C4FD6168A2688A4208D3521A3046FBF787
:20B120002DFCA0686168401A801913E0E2682368D218571A3A463046FBF720FC2168A0686A
:20B14000421AB819FBF71AFCE068A1686268891A89194018A06066600398E0602068FCF7E6
:20B160007BFC26602846FEF7B7FDDAF86C0000EB4001C80000F118063046FCF74AFC0500C6
:20B1800000F098800C9800902B463246DAF870105046FFF7B0FE00280DD42878532804BF17
:20B1A0006878452807D1A878472802BFDAF86C102869884203D02846FCF74EFC50E105F1CC
:20B1C0001807DAF8680002460026012945DB4FF0FF334FF0000CE046D2F80890B9F1000F61
:20B1E00012D1D7F808E0BEF1000F32D0BEF1807FC8BF9C46D7F81080C645B8BF9C46D7F84C
:20B200000C80C6451CDA52E0D7F804E0D2F804B0DE4518BF9C46D7F808E0CE4518BF9C46DF
:20B22000D7F81090CE45B8BF9C46D7F80C90CE45B8BF9C46D7F800E0D2F80090CE4501D06F
:20B240004FF00108BCF1000F30D1B8F1000F00D0012618321837491EBBD1296901EB4102ED
:20B26000D20005F11801FBF789FB2846FCF7F4FB66B3286900EB4001CE00FF208DF80800D7
:20B2800004A82ECC2EC0103C02AD04A8FFF7AEFD864211DA6E70300AA870032202A904A873
:20B2A000FFF7ADFD3246DAF868100AE0D0D52846FCF7D2FB0020D5E000206870A870032265
:20B2C00002A904A8FFF79BFD0698A060DAF86870002602AD2046FFF789FD8046B8F1040F08
:20B2E00001DA0120BEE079680891386940180990FA6851180A91B9680B911837002900F01D
:20B30000A7800D909D488045A8BFDFF87482A8F1030808A8FFF762FD404503DA08A8FFF7DA
:20B320005DFD8046B8F1000F00F19A8000F0908004A8B4E80E10A0E80E10103C8DF80860E5
:20B3400085F801804FEA2820A870032202A904A8FFF755FD06980799049A8918091AC146EB
:20B360008845C8BF894609990B9A089BD218521A9145A8BF91460022019200900C9B4A46DA
:20B380005046DAF81CC0DCF804C0E0478346CB4566D104A8FFF72AFD484503DA04A8FFF7C5
:20B3A00025FD00E048460799049A8918069A8B1A9842D8BF03469A180692C01A891A04BF95
:20B3C000049906910028EED108A8FFF707FD484503DA08A8FFF702FD00E0484680B10B9956
:20B3E000089A8918099A8B1A9842D8BF03469A180992C01A891A04BF089909910028EED159
:20B40000B8EB0908A6D1BBF1000F29D40698A06009980D9988421BD006EB4601DAF8702015
:20B4200002EBC10101F128080899401A03909AF8050010B103A8FAF757F903A800900C9B87
:20B44000042241465046DAF81CC0DCF808C0E0470020761CDAF86C108E42FFF63BAF01E0A8
:20B460004FF0FF300FB0BDE8F08F000070B584B004464148016821B9012101603C48FEF710
:20B48000F3FB012102A8FDF7B5FB9DF8080005280AD8DFE800F0030E12193C46032000907A
:20B4A000042100A8FCF7CCFD012084F88C0004B070BD2046FFF75EFDF6E7012084F8840044
:20B4C0000020FCF726FEEFE70025042101A8FDF791FB04F17406306800281CBFE06E00286C
:20B4E00003D03046FFF77AFC05462846FCF7C1FD002D1CBF0198002806D00146A942C8BFD5
:20B5000029463046FFF7A6FCFCF706FECCE704F174000021026812B1FFF760FC0146084666
:20B52000CFE7042100A8FDF765FB04F17405286800281CBFE06E002811D02846FFF74EFC2E
:20B5400000990029E0D068B10E468642C8BF064631462846FFF77EFC0098801B00900098C1
:20B560000028D1D0FE210098FCF78BFDCCE7000024090020481000203409002003000100F7
:20B58000020001002DE9F843802080F3118800BF00BFDFF86080D8E90A69154FF8688047B7
:20B5A000044600253869804728B1761C49F10009F86880470446786900213A7A12B9041BF5
:20B5C00061EB0505A0FB062300FB0933A4185D41BA690023A2FB040102FB0511FA6900F072
:20B5E00047F898F801200AB982F31188BDE8F283AC0800202800002081423ABF5318984253
:20B60000FBF7BCB98018990707D0521E24BF13F8011D00F8011DF6D8704781071CD1103ADE
:20B6200007D330B433E93210103A20E93210F9D230BC1032121F24BF53F8041D40F8041D87
:20B64000F8D838BF121D521E24BF13F8011D00F8011DF8D8704700BF083A07D333E90210D2
:20B66000083A40F804CD40F8041DF7D20832EAE71B4213D1094236D12AB18446B0FBF2F08D
:20B6800002FB10C2704700F06BB8FCD30022002370470B000200002100207047904271EB13
:20B6A000030CF6D370B5B1FA81F4B3FA83F52C1BA340C4F1200532FA05F63343A2405FF076
:20B6C0000046E64002E05B085FEA3202841A71EB030524BF204629467641F4D302000B00F7
:20B6E0003000002170BD012ACFD970B5140C20D0B1FA81F4B2FA82F5C4F120046419B4F186
:20B700002006D6D3B2405FF00044F440002502E052085FEA3303C61A71EB020E24BF30461C
:20B72000714664416D41F3D302000B002000290070BD0C46B1FBF2F102FB11452D0445EA22
:20B740001045B5FBF2F402FB145580B240EA0545B5FBF2F002FB105240EA044070BD000066
:20B760007047000010B5FCF7AFF904467020FCF7CAFC70212046BDE81040FCF761BC70476C
:20B780002DE9F04F83B0044600208DF800004FF0FF30FEF757FF01ADCD2C07D1022101A82E
:20B7A000FCF7CAFC9DF80400697805E0032101A8FCF7C2FC6878A97800EB012080B200F1C3
:20B7C00007084FEAE8094FEA4907781CFCF721F9050009EB05060DD13846FCF7B4FC484675
:20B7E000FCF782FC06208DF80000012100A8FCF727FC51E049463046FCF79EFC494628468D
:20B80000FCF7B1FC0027DFF890ABFCF7CAFCA9EB0001A1EB070B20B1BBF1FF0FF5DD2BF0EB
:20B820003F0B4FEACB03494503D108F00700C01FC3189DF8000080B99AF80000012812D130
:20B84000DFF8580B4FF0FF310160BA19B9197819FCF731FB8DF8000005E0D81DC210002137
:20B86000B819F9F7BAFFD52C13D05946CF2C0DD1DFF8D40B007848B10BEB0700484505D16B
:20B88000B8199DF800200BF80020491CB819FCF72DFC5F444F45B8D1DFF8040B017811B9C4
:20B8A0009DF800100170D52C0CD0FCF735FCCF2C02BFDFF8940B0078002804BF9DF8000047
:20B8C000FCF71EFC2846FCF7C7F800F018BC00B583B0FBF7A8FEADF8000000F0EBFE8DF8F4
:20B8E000020000F0E9FE8DF8030000F0E7FE8DF8040000F0E8FE8DF8050000F0E6FE8DF8D0
:20B90000060000F0E4FE8DF80700082136E080B50420FCF7F8FB42F6E360FCF7F4FB4FF4A5
:20B920000060BDE80240FCF7EEBB0421DFF81C0BFCF786BB00B589B02022002100A8F9F7E4
:20B940004CFFDFF80C1B00A8F9F70CFF0C208DF804007C208DF80500B1208DF80600522052
:20B960008DF80700202100A8FCF76AFB09B000BD00B583B000A8FBF7CFFE062100A8FCF773
:20B980005FFB03B000BD80B5FBF702FDAFE0F0B5A3B000240025042101A8FCF7CDFB02AEAE
:20B9A0000EE000904FF47A710098381AF9F73BFF074646F825706D1C641C0198400801902C
:20B9C000019800B3C007F7D50D2C03D10220FBF7AEFEEDE72046FBF7AAFE074617F1010F82
:20B9E000E7D0A01E022884BF19380128E1D80422802100A8FCF76DF8009800284EBF00207E
:20BA000040004010CDE7A90002A8FCF719FB23B0F0BD30B5A1B000240025042100A8FCF7C9
:20BA20008BFBDFF8300A4FF0FF3101AA0DE0DB0706D50B46042CB8BF036842F825306D1C30
:20BA4000641C009B5B080093001D009B002BEED1A90001A8FCF7F4FA21B030BD2DE9F043F9
:20BA6000C3B001A8FCF783FB00A8FCF780FB0120019911F0030F18BF0020009911F0030FB2
:20BA800018BF0020DFF8D0190C68002C18BF14F1010F23D010B3019D009EB6F5807F88BF80
:20BAA0004FF480760098801B0090B04602AF2846F9F76FFE814684EA09013846F9F752FE1B
:20BAC00089F0A5343F1D2D1D361FF0D1414602A8FCF7B6FA00980028DED102E00098FCF7A8
:20BAE00003FB43B0BDE8F08380B5FBF784FFBDE80240FCF70EBB00B5C1B04FF48072002174
:20BB000000A8FCF779F875E0F0B585B04FF0FF3426464FF40070FBF77CFF050004D14FF4CF
:20BB20000370FCF710FB50E04FF400720021FCF763F84FF480712846FCF7FEFA042102A8E4
:20BB4000FCF7FAFA082103A8FCF7F6FA00224FF480712846FCF746F90299884235D10822BC
:20BB600003A9DFF8F808F9F72AFE70BB00262F460122314601A8FCF73FF817F8010B9DF847
:20BB80000410014081421FD1761CB6F5007FEFD305F12000F9F7FDFDB0B12846F9F7F9FD6A
:20BBA000060011D00422002100A8FCF725F8009810F1010F18BF864206D14FF4007128465E
:20BBC000FCF743F8060000D526463046FCF7A1FA05B0F0BD80B54FF48070FCF7B4FA002061
:20BBE00000F07FBB00B5C1B04FF48072002100A8FBF76FFF4FF4807100A8FCF721FA41B0BC
:20BC000000BD10B5044604222021FBF762FF0422242104F10800FBF75CFF0422402104F16D
:20BC20000C00FBF756FF0422482104F11000BDE81040FBF74EBF70B588B04FF0FF342546EF
:20BC40004FF40050FBF7E5FE060004D142F20C00FCF779FA2FE04FF400520021FBF739FF0C
:20BC60004FF480713046FCF767FA042100A8FCF763FA082101A8FCF75FFA00224FF4807135
:20BC80003046FCF7AFF80099884211D1082201A9DFF8C807F9F793FD50B903A8FFF7B1FFFB
:20BCA0004FF400513046FBF792FF050048BF25463046FBF7D1FE2846FCF72BFA08B070BDDE
:20BCC0004FF48070FCF73FBA2DE9F041CAB00025012101A8FCF730FA00A8FCF748FA9DF805
:20BCE000040088B102283BD14FF40077082103A8FCF722FA082203A9DFF86007F9F75FFDD4
:20BD000028B14FF0FF3007E14FF40057EEE73846FBF77FFE040012BF3E464FF480760AAC50
:20BD20003846FCF7F6F9A8463546BE4288BF3D469DF8040000282A464146204602D1FBF78D
:20BD4000C8FE01E0FBF758FF29462046FCF778F9A8447F1BE8D10AA8844200F0DF80C6E00E
:20BD6000012869D10098B0F5005F40F0C48042F20C00FBF74EFE040027D0009800F10C0141
:20BD80002046FCF7D9F9002200992046FCF72AF8054600982044F9F7FCFC854208D1082249
:20BDA00000982044011DDFF8B406F9F708FD10B14FF0FF3006E005A8FFF723FF009920460A
:20BDC000FBF705FFFCF7A5F991E005A8FFF719FFFBF7A1FEA8460027009EB6F5807F88BF7B
:20BDE0004FF4807631460AA8FCF7A6F93A4631460AA8FBF7F7FF0746324641460AA8FBF7CE
:20BE00008FFEB0440098801B0090E5D10C210AA8FCF792F90AA8F9F7BCFCB84206D1082276
:20BE20000BA9DFF83806F9F7CAFC18B1FBF773FE4FF0FF3528466FE00328009862D1B0F58C
:20BE4000007F58D14FF40370FBF7E3FD040052D0009800F10C012046FCF76EF9002200997B
:20BE60002046FBF7BFFF054600982044F9F791FC854208D1082200982044011DDFF8DC054C
:20BE8000F9F79DFC10B14FF0FF302EE0009D00262746012231460DF10500FBF7ADFE17F863
:20BEA000010B9DF80510014081421CD1761CAE42EFD304F12000F9F76CFCA0B12046F9F783
:20BEC00068FC06000FD00422002102A8FBF794FE029810F1010F18BF864204D129462046B0
:20BEE000FBF7B3FE01E04FF0FF30FCF712F92046FBF7B2FD12E000980C30FCF724F94FF036
:20BF0000FF3009E0002814BF0C30082000900098FCF719F96FF00100FCF7FBF84AB0BDE898
:20BF2000F08180B5032100A8FCF706F99DF801109DF80000DFF8282502EB401000F051FDC3
:20BF400001BD00B583B0012101A8FCF7F5F8009088B99DF80400FE2805D0FF280CBF022017
:20BF600000F050FD02E0DFF8FC0400780090042100A8FCF765F803B000BD80B5022100A836
:20BF8000FCF7DAF8BDF800004FF6FF71884204BF0020ADF80000BDF800004FF47A714843B2
:20BFA00000F0D8FA01BD00F047BD00F047BD10B582B0012401210DF10100FCF7BDF82146CD
:20BFC00000A8FCF7B9F80220FCF7BDF8A8B99DF801009DF8001041EA002040F20111884256
:20BFE0001FBF40F20131884240F20161884201D140F2FF542046FCF78CF813BD80B5042179
:20C0000000A8FCF799F89DF802009DF8031041EA002040F2011188421FBF40F20131884250
:20C0200040F20161884203D19DF8000000F0D2FD01BD0020DFF8301404220B8803B1401CB8
:20C040002031521EF9D170470021DFF81C2432F8203B834201D108467047491C0429F6DBE2
:20C060004FF0FF3070472DE9F14F82B00D4690469B460C9C022642F21079DFF8E4A30027F7
:20C080000AF20A0030F8201BD9B9780140F80A5000EB0A05C5F8048085F808B06C72BDF897
:20C0A00008006881DFF8C403006AE86000A8FBF7BCFF00982861019868613846FEF7C2FA38
:20C0C0001DE07F1C042FDDDBDFF8A003006A00270AF10C0131F8022C5AB10A68821A4A45CB
:20C0E00007DB3846FEF78CFD0AEB47100021418103E07F1C2031042FECDB761EBFD103B093
:20C10000BDE8F08F30B599B0012102A8FCF714F8042105A8FCF710F8042104A8FCF70CF86D
:20C1200001210DF10700FCF707F801210DF10600FCF702F8022101A8FBF7FEFF9DF808007B
:20C14000642802D0652829D04CE0BDF80400C0B9DFF81C030188491C0180ADF80410BDF8CA
:20C160000400FFF771FF0028F2D59DF8060000909DF80730049A0599BDF80400FFF773FF12
:20C1800030E0FFF761FF00282CD4DFF8D41201EB4010DFF8D812096AC16023E0BDF8040007
:20C1A000FFF752FF04001DD4DFF8B40200EB441500206881A86918B1FBF74EFC0020A8612A
:20C1C000E86918B1FBF748FC0020E8612046FEF717FDFFF72EFF28B9FBF75EFADFF894027C
:20C1E0000021016006A80390BDF8041003A8F9F7A9FA042103A8F9F7A5FA102103A8F9F74A
:20C20000A1FA042103A8F9F79DFA0024DFF85052102229460398FAF7B1FB03981030039048
:20C22000641C2035042CF3DBFBF7FDF9014603A8F9F78AFA200100F10C0106A8FBF700FF1F
:20C2400019B030BD10B584B002210DF10200FBF773FF00241BE0022100A8FBF76DFF02213D
:20C2600001A8FBF769FF02210DF10600FBF764FF022102A8FBF760FF02210DF10A00FBF704
:20C280005BFF01A9BDF80000FCF745F8641CBDF802008442DFDB04B010BD802080F31188D1
:20C2A00000BF00BF0020FCF721F8F6E7F5E780B500F0BEFB0220F9F724F9BDE8014000F038
:20C2C000B9BB80B500F0B8FB0220F9F71AF9BDE8014000F0B3BB704780B500F049F900F09B
:20C2E000EDF9BDE80240FBF70BBFCD20FFF748BACE20FFF745BACF20FFF742BA80B552483D
:20C30000012101705C48FBF732FF5C48FFF7EFBB10B584B06FF00104102100A8FBF70CFF4C
:20C320000098802804D20199FBF758FA04462DE0B0F5C07F0CD2B0F5807F02D10198504947
:20C3400022E040F20111884220D101984D491BE0B0F5007F1AD2B0F5C07F02D1FBF741FABE
:20C360000446009840F28111884207D1BDF80800FFF76AFE0199FEF777F900240098B0F5FA
:20C38000C17F03D101983449086000242046FBF7C0FE04B010BD0000E61800202C0F0020D7
:20C3A000D218002080B5032100A8FBF7C5FE9DF801009DF8021000EB0120401CFBF733FFF4
:20C3C00001BD38B504462B4D286898B9601F0FD0C2380DD0801F022884BF0838012802D98A
:20C3E000C01E05D006E028491E48007800F0A9F8012028601B2C04D3BA2C38BFFFF74DFFDE
:20C400006134E4B2214850F824008047FBF70EFF1648006A0024124D05F10C011C4A31F879
:20C42000023C5BB10B68C31A934207DB2046FEF7E7FB05EB44100021418131BD641C203188
:20C44000042CECDB31BD0000D318002030FA0008335AEA98D0070020E0070020D0F90008DC
:20C46000C00F0020E6180020CA0F002028000020D018002044100020B00F002010470400B8
:20C48000B40F0020B80F002040420F0038F00008C0270900704700002DE9F04104460D4686
:20C4A000164698467B4801687B4F3960002202600869804743463246294620463C682468F1
:20C4C000A047BDE8F0812DE9F04104460D461646984670480168704F3960002202600869D3
:20C4E000804743463246294620463C686468A047BDE8F08110B567480168674C21600022FF
:20C5000002600869804720688068BDE81040004710B560480168604C2160002202600869DD
:20C5200080472068C068BDE81040004700E000BF5A4801680029FCD04FF0FF307047F7E7A6
:20C54000F6E780B5FBF70CF900B9554852490860002002BD80B5014652480078FFF7F1FF26
:20C56000002002BDFBF7D5B8FBF77EB8FBF77AB838B5484C206858B9474D2868C0680100AA
:20C5800018BF804728682060406900B946482860BDE83140FBF7B7B838B53E4C206858B9EE
:20C5A0003D4D2868C068010018BF804728682060406900B93C482860BDE83140FBF79CB8C0
:20C5C00038B5344C206858B9334D2868C068010018BF804728682060406900B9324828600A
:20C5E000BDE83140FBF782B838B52A4C206858B9294D2868C068010018BF80472868206020
:20C60000406900B928482860BDE83140FBF767B8FBF764B8FBF732B8FBF725B838B51D4C8A
:20C62000206858B91C4D2868C068010018BF804728682060406900B91B482860BDE831402E
:20C64000FBF75CB838B5134C206858B9124D2868C068010018BF804728682060406900B9C7
:20C6600011482860BDE83140FBF742B838B5094C206858B9084D2868C068010018BF804750
:20C6800028682060406900B907482860BDE83140FBF727B88812002024010020380900200A
:20C6A000D0F80008E6180020B8F80008FBF715B8FAF7C0BFFAF7C0BFFAF7C3BF80B5FAF79C
:20C6C000C5FFC0B202BDFAF7B1BFFAF7C4BFFAF7C7BF0000087070474870704788707047CC
:20C6E000C870704708717047C04300F0010048717047C04300F00100887170472DE9F04FBE
:20C7000087B00546042100A8FBF716FDFBF773F9B0F500704EBF01201C21B0FBF1F0009CBF
:20C72000844288BF0446C4EBC4008000FBF771F9019004EB8400019901EB80000390D5F8E9
:20C740001C80B8F1000F1EBFD8F82C600198002800D0D6B9009800EB80018800FBF7F3FCBF
:20C760004FF0FF30049000200590082104A8FBF767FC0098401E0090F7D1019810B1019897
:20C78000FBF76AF907B0BDE8F08F4046F16A88470098A04298BF044604EB84008100019811
:20C7A000FBF7CAFCFBF701FD0028FBD1019F039D002C38D0A146387C00F0070AB87CF8B1F0
:20C7C0008B48D0F820B0787C002802AA5146404602D0F368984701E0B368984700281AD40C
:20C7E00002997A681140BA68914214D08048006AA0EB0B00F9688842E5DB4FF0FF300AE087
:20C800003A68787C00285146404602D07369984701E0336998470299696045F8080B143755
:20C82000B9F10109C7D1E1000398FBF75FFC0098001B0090ACD1FBF76FFCA0E7F0B585B065
:20C84000044600200090E06918B1FBF705F90020E061042101A8FBF76FFCFBF7CCF806464E
:20C86000FBF7D7F805460198864202D2FBF76BFC26E001462846FBF75FFC072102A8F9F754
:20C8800011F902A9284600F037F8002858BFB6F1F40715D4F421284600F024FAF421284678
:20C8A000FBF7E1F8E5612821284600F01BFA05F13000A86268624F48007828B9E8620CE08B
:20C8C0004FF0FF3000900BE04B49E9629DF80D10002904BF012800F0DCFA0098002805D569
:20C8E00025B12846FBF7B8F80020E061042100A8FBF7A6FB05B0F0BD2DE9F04383B08846E5
:20C90000009000A8F8F7E2FEDFF8F09002E00098401C00900098007800285ED0009810F84D
:20C92000011BA1F16102D2B21A2A22BFA1F14102D2B21A2A01D35F294CD1012601E0761C8D
:20C94000401C0178A1F13002D2B20A2A22BFA1F16102D2B21A2A22BFA1F14102D2B21A2A6A
:20C96000EDD35F29EBD0AEB34F46002407257868B04207D1324600993868F8F720FF08B944
:20C98000012402E00C376D1EF1D100983018009000A8F8F79BFE009800783D281AD1009868
:20C9A000401C009001A900A8F8F75DFF2CB1BA68100002D041460198904700A8F8F786FEFB
:20C9C0000098007848B100A8F8F780FE009800783B289CD04FF0FF3000E0002003B0BDE894
:20C9E000F083022903D2064A52F821100847704728000020E618002090F70008F8F6000808
:20CA0000F8F9000870B50446074D28780646012803D1012C18BF00F0FBFB04492046FFF7DE
:20CA200090FD2C70304670BDE618002040420F00FFF79CBDFFF7F0BDFFF796BDFFF7EABDA3
:20CA4000F8B50446E56A4AF6A6669B4F79B1E96A88472046A96988473868B04214D200A9A6
:20CA6000012000F0BEF900984108490009E03868B04209D200A9012000F0B3F9009840F040
:20CA80000101012000F053F9F1BD012912D9091F16D0091F0CD0083914D070390ED0891E0F
:20CAA0000AD0891E012984BF891F072904D90BE08248704782487047824870473F2070474F
:20CAC0000320704701207047002070472DE9F84F05468A469346BBF1980F38BF4FF0FF30C4
:20CAE00076D36C69D5F81890982200215046F8F774FE2E6806B9744E300E40F2FF38FF28EC
:20CB000008D0032818BF0E2804D17048864218BF40F6FF78287B8DF80000687B010616D52F
:20CB20000021820748BF4FF40011420748BF41F48001020748BF41F40001800658BF41F4D2
:20CB400080110AF12000416601208AF88C00A87B30B1202804D2012101FA00F0A0F101088A
:20CB60000AF12007B9F1040F08D32046F8F711FE3866201DB860396E00F082FC0AF1300460
:20CB800004F12C094FF48070F8F75AFE89F82000052089F82100C4F800A04D48A0604D4803
:20CBA00060600020206160614B48E060C7F86880CAF820604948F8600AF18C009DF8001082
:20CBC000817085605046F968C96A8847ABF19800BDE8F28F30B5C5B00446022100A8FBF7CB
:20CBE000ABFABDF8001035A8FBF7A6FABDF80000042804D335A8F8F7CCFD054600E0324D65
:20CC00009022002101A8F8F7E8FD019501208DF8080000208DF809008DF8100025A80590DB
:20CC20002F480890402225A901A8FFF74FFF01210598FFF705FF642C15D0652C17D06E2C88
:20CC400019D06F2C1BD0792C1DD07A2C1FD07B2C21D07C2C23D0822C25D0832C04BF01A84D
:20CC6000FDF74CFA22E001A8FDF7D2F81EE001A8FDF74EF81AE001A8FDF77FF916E001A882
:20CC8000FDF7A6F912E001A8FDF7C8F90EE001A8FDF7DAF90AE001A8FDF7DDF906E001A867
:20CCA000FDF7EAF902E001A8FDF7F0F900210598FFF7C6FE45B030BDB00F00203700008045
:20CCC00011000080012F0080FF000003FF00010E49500008C54F0008A750000890F70008B8
:20CCE000A4F600080022FBF74DB8000080B5FF208DF8010000208DF8000008230DF10202CD
:20CD00000DF1010100A8FBF7D6F801BD00B583B0302300AA7849794805E000B583B0302366
:20CD200000AA75497648FBF7C6F803B000BD2DE9F04F8FB0002481EA114282EA122282EA2B
:20CD4000121282EA9202039192EA520101F001018DF810106B4D296A01F164066A49405CBE
:20CD60008DF800008DF80140DFF8A0B1DFF8A081DFF8A091DFF8A0A101AF07E04FF4847357
:20CD800005AA41465846FBF796F8641C0D2301AA514600A8FBF78FF8787800F0070001281C
:20CDA00007D1212301AA5D4903A8FBF784F8002014E002280DD0042802D1FFF7A7FF05E052
:20CDC000022C03DA99F800000028D7D04FF0FF3004E0286A301AD9D56FF001000FB0BDE848
:20CDE000F08F2DE9F04790B00C4600258DF810504B49405C8DF804008DF80550414E306A0F
:20CE000064300290DFF808A1DFF80881DFF8149100AF07E04FF4847305AA51463B48FBF705
:20CE20004AF86D1C0D2300AA494601A8FBF743F8787800F0070101290FD1C0F3C105212339
:20CE400000AA09F1020103A8FBF735F81CB1009845EA80002060002015E002290DD0042983
:20CE600002D1FFF753FF05E0022D03DA98F800000028CFD04FF0FF3005E00298316A401A6D
:20CE8000D0D56FF0010010B0BDE8F08700210720A7E700B58BB04FF4847301AA1C491B483E
:20CEA000FBF709F800A90020FFF79BFF002811D400A90120FFF795FF009810F0B20F0CD090
:20CEC000FFF724FF00A90120FFF78BFF009810F0A00F02D001200BB000BD4FF0A04000908E
:20CEE00001460120FFF723FF401E8041C043C00F0BB000BD0000000090010020280100204F
:20CF00003001002028000020A0010020380100205C010020E518002088010020A801002052
:20CF200098010020800100202DE9F04184B005460026BD4C206830B901900290082101A83C
:20CF4000FBF77EF853E003A900A800F0D6FA0098A168471A04D1039828B9E768012602E077
:20CF600044BFE068C719AF42B8BF3D4601960295082101A8FBF764F8BDB3A068009A904269
:20CF80001ED36268171AAF42C8BF2F463E0015D03146FBF7ABF8FBF708F9B6EB0008FAD023
:20CFA000A0684044A0606168884224BF2068A060A06800F0AAFAB6EB0806ECD1ED1B14D0F3
:20CFC0002946A068FBF792F8FBF7EFF82E1AFBD0A0683018A0606168884224BF2068A06024
:20CFE000A06800F092FAAD1BEED1FBF795F804B0BDE8F08138B58C4C05E09DF8001004F199
:20D000001400FBF7F7FD012100A8FBF7F3FD9DF8000068BB606900F084FA054669682868CF
:20D02000F8F7FFFBA169884288BF0846A061A9682868F8F7F6FBA169814238BF0146A1610F
:20D04000206838B1E168226991423AD0FAF704FD00202060206948BBFAF7CDFCA0F50070D1
:20D060006FF30800B0F5007F1FDA4FF0FF3033E001210DF10100FBF7BDFD9DF8010001281C
:20D08000BBD0022802D0042805D009E09DF8001004F11800B5E79DF8001004F11000B0E790
:20D0A0009DF80000FBF74FF8ADE720612069FAF7B0FC20602069E060216840186060080075
:20D0C00009D000F014FA23692268A169606900F0D9F92068A0600020FBF71BF831BD10B56E
:20D0E00088B001210DF10200FBF784FD9DF80200662820D10020019002E001A8FBF77AFDA8
:20D10000012100A8FBF776FD9DF8000020B90198FFF70AFF08B010BD01210DF10100FBF742
:20D1200069FD9DF800109DF801000328E5D00846FBF709F8E4E7642805D0652810D06E28FE
:20D1400025D008B010BDFFF755FF08B010BD01210DF10100FBF74EFD9DF80000FAF7F3FFB0
:20D16000012100A8FBF746FD9DF800000028EED12D4C206830B100F0BAF92068FAF76CFCCE
:20D18000002020600020FAF7C4FF08B010BD0020019002E001A8FBF72DFD012100A8FBF782
:20D1A00029FD9DF8000020BB019810B14FF0FF30E9E700F0B6F90146142202A8F9F7EEFBA2
:20D1C0001C20FAF756FF0198FAF753FF0298FAF750FF0398FAF74DFF0498FAF74AFF0598CC
:20D1E000FAF747FF0698FAF744FFFAF795FF08B010BD01210DF10100FBF7FCFC9DF800106C
:20D200009DF801000128C5D00846FAF79CFFC4E710B5054C206830B100F069F92068FAF7EB
:20D220001BFC0020206010BD080100202DE9F04F83B00446884693461F465D468F4800EAFF
:20D240000709DDF830A00D9E5FEAC87014D59DB10196CDF80090534601222069D4F81CC0DD
:20D26000DCF830C0E04700286AD42D1A012865D10AF1010A08F10108780051D45FEA8870D1
:20D2800018D5022D16D3019649F0010000905346012241462069D4F81CC0DCF830C0E047C9
:20D2A00000284DD4A5EB4005012847D10AF1020A08F10208002F19D4042D17D3AF08019680
:20D2C00049F00200009053463A4641462069D4F81CC0DCF830C0E047002831D4A5EB800585
:20D2E000B8422BD10AEB870A08EB8708022D17D36F08019649F00100009053463A4641469F
:20D300002069D4F81CC0DCF830C0E047002817D4A5EB4005B84211D10AEB470A08EB4708A5
:20D3200065B10196CDF8009053462A4641462069E469246BA047002802D42D1AABEB05002F
:20D3400003B0BDE8F08F2DE9F04782B004460D4691461E464F46494800EA060ADDF8288002
:20D36000E80712D58FB1CDF800A0434601222069D4F81CC0DCF834C0E04700287CD43F1A95
:20D38000012877D108F101086D1C700065D4A80716D5022F14D34AF00100009043460122BF
:20D3A00029462069D4F81CC0DCF834C0E047002862D4A7EB400701285CD108F10208AD1C85
:20D3C000002E31D4042F2FD3E069D0F838C05FEA0C0011D0BAF1000F0ED1002000904346D4
:20D3E000BA0829462069E047002845D4B7EB800715EB800508EB8008BE0815D04AF00200FB
:20D4000000904346324629462069D4F81CC0DCF834C0E04700282FD4A7EB8007B04229D1BC
:20D4200008EB860815EB8605022F16D37E084AF0010000904346324629462069D4F81CC0D4
:20D44000DCF834C0E047002816D4A7EB4007B04210D108EB460815EB46055FB1CDF800A01E
:20D4600043463A4629462069E469646BA047002802D43F1AA9EB0700BDE8F6870000FF3F56
:20D4800070470000334881610260436032490A6842F4804242F004020A6030490A6822F4EB
:20D4A000706242F400620A602D494FF400728A6024224A600022CA6002680261426842612D
:20D4C00000228260C260274A80690001B2FBF0F0401C400800010860486840F40050486055
:20D4E00021481021017021482021016070472048016821F004010160704772B6154A53691D
:20D500000B601169016062B6704772B611490A69824231BF801A4B689A1A8018486162B6F3
:20D5200070471448704714480168406809494A6972B10A69521C0A6102F8010D08680A6955
:20D540004B681B189A4208BF08614869401E486170470000F8070020181002400408014094
:20D56000083801400044950825E400E004E100E00C3801403CF90008003801402BE180B51F
:20D58000014608684968009100AB00220421FDF7C3FB002800D510E0002002BD80B50146A6
:20D5A00008684968009100AB00220221FDF7B4FB002800D501E0002002BD4FF0FF3002BD3C
:20D5C00080B5014608684968009100AB00220121FDF7A2FB002800D5EFE7002002BD80B5B6
:20D5E00000AB002204210068FDF769FB002800D5E3E7009802BDFDF7BBBBFDF7D2BB80B53B
:20D6000000AB002202210068FDF759FB002800D5D3E7009802BD80B500AB002201210068D0
:20D62000FDF74DFB002800D5C7E7009802BD80B54168006808280CD0092810D00A2815D032
:20D640000B281AD00C281FD00D2824D01C2829D02EE04FF47A704843FEF77CFF28E011B124
:20D66000FEF7D8FF24E0FEF77FFF21E011B1FFF71DF81DE0FEF7CCFF1AE011B1FEF7CEFF5E
:20D6800016E0FEF789FF13E011B1FEF7EFFF0FE0FEF7AAFF0CE011B1FEF7D4FF08E0FEF79F
:20D6A0008FFF05E0481E8041C00FDFF8B4170870002002BD80B50068082810D0092815D045
:20D6C0000A2817D00B2819D00C281BD00D281DD016281FD0212821D0222823D027E0FEF734
:20D6E00041FF4FF47A71B0FBF1F002BDBDE80140FEF7EBBFBDE80140FEF7E9BFBDE8014083
:20D70000FEF7D8BFBDE80140FEF7DDBFBDE80140FEF7D2BFDFF84C07007802BDBDE8014053
:20D72000F9F781BFDFF84007806C008802BD002002BD30B583B00C460568072100A8F8F7F3
:20D74000B1F900A92819FFF7D7F89DF8060000F00100DFF8181708709DF80500002801BFE4
:20D76000DFF8000700780128FFF793FB002003B030BDC068012818BF002070470020704710
:20D78000FFE00068F7F7BDBEFEF7EEBEFEF742BF0068FFF737B918B40C46C36881680A199F
:20D7A000416809190068001901B010BCFAF783BB0A46416800688018FAF7BEBC0A46416814
:20D7C00000688018FAF73CBC0068FEF7C3BE0068F8F7BCB800BFDFF89806006A70470068FA
:20D7E000002818BFFEF71ABFFEF7D6BE0068002818BFFEF73BBFFEF7F7BE0068002818BF6C
:20D80000FEF720BFFEF7DCBE70B40268521843688168C56802EBD30003F00702FF2606FA0B
:20D8200002F45319083B03D55D4246FA05F52C400578A54301FA02F634402C430470012B4B
:20D84000B8BF002012DB401CD140082B06DB083B00F8011B090A082BF9DA3BB101229A406A
:20D86000541E0278A24321401143017070BC704710B582685418416802686FF00100DFF869
:20D88000E4351B7883B1012B0ED139B1002142F00400FFF7A6FA2146032001E0214610469E
:20D8A000BDE81040FFF79DBA10BD18B48168436802686FF00100DFF8AC4524784CB1012CA1
:20D8C00007D1002B14BF42F00400104614BCFFF72EBA12BC704780B50068DFF88815097821
:20D8E00061B101290AD1002140F00400FFF779FA00A90320FFF775FA002802D54FF0FF30B5
:20D900000090009802BD80B50068DFF85815097831B1012904D100A9FFF763FA002802D5E2
:20D920004FF0FF300090009802BD416802686FF00100DFF830351B782BB1012B04BF42F053
:20D940000400FFF7F4B97047416802686FF00100DFF810351B7823B1012B04BF1046FFF738
:20D96000E6B9704780B50078072806D2DFF8041551F820008047FF2801D14FF0FF3002BD57
:20D9800000BFDFF8F4047047FBE7FAE7F9E780B50068FBF791FC002002BD80B5FBF7D9FCA8
:20D9A000002002BD0A46416800688018FBF731BD0A46416800688018FBF7E1BCE1E7E0E798
:20D9C000DFE72DE9F04704468A46904699462068DFF8A814884244D104F12005E06804EB1A
:20D9E000C00000F12007002601E00835761CE068864206DA51462868C019F7F72BFF002849
:20DA0000F3D1E06886422CD05046F7F7CDFE2968E268521E964204D122691219CB19D21A69
:20DA200001E0AA68521A121A531E4018C019411C0020B3B111F8012B5B1E92B1424508BF99
:20DA4000012012060DD411F8012B5B1E140608D428B14846F8F792FF0120BDE8F087002BB9
:20DA6000E7D10020BDE8F0872DE9F047044615460026DFF80C0400EB411087691FB96FF050
:20DA80000400BDE8F0873868DFF8F013884206D10126BA68D02A28BF6FF0010047D28842DE
:20DAA00028D107F12008F86807EBC00000F120094FF0000A03E008F108080AF1010AF86886
:20DAC00082451FDA2946D8F800004844F7F7C2FE0028F0D1D8F8045058212046F7F7E2FF52
:20DAE000DFF8A003E06445202065002E14BF386900200BE0DFF890132846F7F7ABFE08B991
:20DB00000425E9E76FF00300BDE8F087C019A0642564A06C0168E16301F5006262652EB171
:20DB20000A1FE26304211018F7F71CFE0020BDE8F0872DE9F84F82B004469046DDF83090A2
:20DB4000DFF83C0300EB4110876917B96FF0040070E000253868C949884206D10125BA6840
:20DB6000D02A28BF6FF0010064D2884218D107F12006F86807EBC00000F1200A4FF0000BE6
:20DB800002E008360BF1010BF868834517DA414630685044F7F75EFE0028F2D1766805E099
:20DBA000B9494046F7F756FE48B90426009000AB022241463846FFF704FF002802D56FF0B5
:20DBC000030037E00098484518BF6FF0050031D158212046F7F766FFAA48E0644520206577
:20DBE000002D14BF38690020C019A0642664A06C0068E06300F5006060656DB917E0009976
:20DC0000029A02EB810151F8041CA26C8018F7F7A9FD0098401E0090E06B001F00990029A4
:20DC2000E063ECD10421A26C8018F7F79BFD204600F040FA03B0BDE8F08FF0B585B00C4600
:20DC400015460B2804D1102100A8FAF775FA05E00C2101A8FAF770FA002000900098C0B258
:20DC6000009001980299854A914208BF039901F500610E18824F009807EB4010806930B1E9
:20DC8000F9F7EAFE009807EB40100021816106F16000F9F7BEFE06000CD0082202A9F8F726
:20DCA0006DFE0198A0F1080106F10800FAF744FA266003E001980838FAF745FA0098286006
:20DCC00005B0F0BD30B5A3B0012101A8FAF734FA9DF804000A2800F2C080DFE800F00609FD
:20DCE00010BEBE3C5F6DBE83A00040F2E67001E000F0FAF90390FAF70CFA23B030BD02AA6D
:20DD000008A90220FFF799FF5D4D029805EB401008998161544C0020009000235A4A0299E9
:20DD20002046FFF706FF0990206C0A9020680B90E06B0C90606C0D90029805EB401080698D
:20DD400030B1F9F789FE029805EB401000218161142109A87FE0002402AA00A90520FFF7B5
:20DD60006CFF08A8009941B10299454A02EB4111009A8A610421089103E0042108914FF071
:20DD8000FF3444600821FAF75BF9002C65D43E4A00213548FFF768FE23B030BD384DA86901
:20DDA00018B1F9F759FE0020A8610420089000200990082108A84EE0082104A8FAF7BCF933
:20DDC000294C324B059A0499204600F0CDFA4C210E910F904822214610A8F8F7DFFD502188
:20DDE0000EA838E00C2104A8FAF7A6F9042105A8FAF726F91C4CA26C04A8416852B1606D6F
:20DE0000049BCB18984205D304988018FAF718F923B030BD0846FAF767F923B030BD0C214C
:20DE200004A8FAF789F9104CA26C04A8406862B1616D049BC318994207D30146049880187A
:20DE4000FAF77AF9042105A805E0FAF77CF900200390042103A8FAF7F3F823B030BD000022
:20DE6000E7180020E6180020CC080020E5180020280000206CF80008FAFEFFFF504356328F
:20DE8000C00F0020BCF1000810FA00087DD50008012000BD022000BD0A0B9200A3585B1E9A
:20DEA000A35002D00A05120EB61AB95BB61CCA06520EA85887460A0552160B0B9B00195921
:20DEC00089181951F1E70A05120F92000B0B9B00E3580906090F5918A150B95BB61CCA0672
:20DEE000520EA858874660B40E0BB600A65901E060B40E0B0B051B0F9B00E5580906490F8C
:20DF00008900DFF8E00108588746AD19E550002D03D10122626460BCC7E70022626460BCE0
:20DF2000C3E7AD1BF2E73540F0E73543EEE77540ECE7B540EAE7F540E8E77543E6E70A0B11
:20DF400092000905490EA150AFE70A0B9200B95BB61CBB5BB61C1B040B43A350A5E7626C14
:20DF6000D20703D5A1E7626CD2079ED5090409164900761899E7626CD207D20F090B8900A6
:20DF8000625092E7CA09236D9B009A420CDAE36BF8184906490F8900C918E1633900E36C5B
:20DFA0009A589047206080E7022000BD8A0603D5E26B121FE263BE50090489154900761817
:20DFC00073E78A0603D5E26B121FE263BE50090B8900665869E70A05130F9B00E3180A0B27
:20DFE0009200E06B801A19003B18E06308681860091D1B1D121FF9D157E70A05130F9B00B0
:20E00000E3180A0B9200E06B39188018EDE7E26BD659121D490989005218E26345E7CA1219
:20E02000D2065216E36BD2188B051B0F9B00490502D5E358D35138E7D259E25035E720B423
:20E040000D052D0FAD00080B800020180368626D93422DDAFB184A06520F09061CD511000F
:20E0600003D11878605120BC1FE7012A03D11888605120BC19E7022A03D11868605120BC70
:20E0800013E701784907490F0068C0083818F7F745FB605120BC08E76059110002D1187016
:20E0A00020BC02E7012A01D11880F9E71860F7E7022020BDF0B5A0B0040000AD266CDFF8C2
:20E0C0001C108022043A8B58AB50FBD100F003F8266420B0F0BD00B5A76CE6E6680000207C
:20E0E000ABDE0008E8000020CF207047016C891E016401207047016C891E0164022070473E
:20E100000A0B50F82230090503EB616145E00A0B50F822305B1E40F8223004D0026C09056B
:20E12000A2EB116101640020704710B40A06520F0B051B0F0C0BC90658BF50F8244050F844
:20E1400023100AB9611817E0012A08BF091B13D0022A08BF21400FD0032A08BF21430BD0FA
:20E16000042A08BF614007D0052A08BFA14003D0062A0CBFE140614340F82310002201B981
:20E1800001224264002010BC70470A05120F0B0B50F82330090603EB117140F82210002029
:20E1A00070470A0B0905490EF7E7026C836C32F803C0D3185B884CEA0343121D0264090B13
:20E1C00040F821300020704790F84420D20705D5026C0904091602EB41010164002070473B
:20E1E00090F84420D20705D4026C0904091602EB4101016400207047091390F8442002F082
:20E20000010240F821200020704710B50446E06B4A06520F00EB8202E2634A0A216D8A423E
:20E2200004D3206C801E2064022010BDA16C4018E36C53F8222090472060002010BD8A0655
:20E2400007D5C26B121FC263836CD0F840C042F803C0026C8909890502EB61510CE08A0602
:20E2600007D5C26B121FC263836CD0F840C042F803C0091350F821100164002070470A0BA5
:20E280009200C36B9B1AC3630905090F00EB8101806C181851F8043B40F8043B121FF9D13A
:20E2A000002070470A0B92000905090F00EB8101C36BD0F848C09C44D318C3635CF8040BFB
:20E2C00041F8040B121FF9D100207047C26B836CD318C90801F01C01091D8918C1631968D2
:20E2E000CAE770B504464806420F0805050F080B54F82000636D984201D3022070BDA36CE3
:20E30000C618090612D50AB930780CE0012A08BF308808D0022A0FBF306800F0070103EBD8
:20E32000D000F7F7FBF944F8250008E054F825000AB9307003E0012A0CBF308030600020D5
:20E3400070BDCA12D206C36B03EB6262836CD2188B051B0F00EB8300490547BF00681060CF
:20E3600011680160002070472DE9F043A1B004460D46164698468022104900A8F8F70EFBE0
:20E38000A76C16B1C04706EB0009206CC15B801C2064204601F01F0200AB53F82220904753
:20E3A00048B90DB16D1E05D0002EEED0C047B9EB0000EAD1002021B0BDE8F08368F500087E
:20E3C000F0B4DFF8C8351B685D09DFF8C445DFF8C475002A3F6802D017EBC00602E017EB9D
:20E3E000C006361D06FA05F56519490049082960202B07D102EB4000DFF89C152A6804EB10
:20E40000420207E0102B07D102EB4000DFF888152A88A21841F82020F0BC7047F0B4DFF85A
:20E420006C351B685D09DFF86845DFF86875002A3F6808D017EBC006B61C06FA05F5641960
:20E44000202B18D112E017EBC006B61D06FA05F5641900253F2931BF490801254909491ED7
:20E46000202B05D10904890941EAC531216003E0890241EAC531218002EB4000DFF81C15D5
:20E4800041F82040F0BC7047800000F1804000F5B840026802F440528A4200D1704718B450
:20E4A00000910268009B5A40009248F28002009B13430093DFF8E834009C1C400094009C3F
:20E4C0000460046804F440541FE0800000F1804000F5B840026802F030028A4200D17047E1
:20E4E00018B400910268009B5A40009248F28002009B13430093DFF8AC34009C1C4000940B
:20E50000009C0460046804F030048C420CD000910168009C614000910099114300910099DE
:20E52000194000910099016011BC7047DFF85C341B68102B0BD1022A06D331F8023B20F8EF
:20E54000023B921E022AF8D27AB109880CE0202B0BD1022A06D351F8043B20F8023B921E77
:20E56000022AF8D20AB109680170704770B505460C46DFF81804006810281BD11646E807C5
:20E580000BD5022A12D32846F8F798F824F8020BAD1CB61E022EF6D208E0022E06D335F8C1
:20E5A000020B24F8020BB61E022EF8D286B12878208070BD20280BD1022A06D335F8020B50
:20E5C00044F8040B921E022AF8D20AB12878206070BDF0B593B0DFF8D043606C00F41E4151
:20E5E0004A0542D56FF4806060644FF41C40206400202065DFF894532868DFF8B063102876
:20E600000CBF802140213160DFF88C13DFF88C232023002741F8047B42F8047B5B1EF9D182
:20E620003168326840323260306800221046FFF7C7FE3A4640211046FFF7F0FE316830688C
:20E6400040303060306801223846FFF7B9FE012240213846FFF7E2FE43F230202060802057
:20E66000E064F7F71EFF13B0F0BDCA0413D56FF480506064A06C00F44040B0F5004F0FD0DB
:20E68000002800F09D80206C20F00C002064F7F728FF13B0F0BD0A050ED56FF4006060641B
:20E6A000F7F719FF206C40F008002064206C40F00400206413B0F0BD0A047AD510F00F06E6
:20E6C000C0F3001038D180B3216840F68F7008402060B24802680023AC4D2868102808BFA6
:20E6E000138802D0202808BF13689C05A40D08050CD52246A848016800A8FFF717FF00A8C6
:20E70000F8F780FC4FF44051002045E0002C57D02246A148016802A8FFF708FF224602A9AE
:20E720000020F7F760FD13B0F0BD206848F60F7108402060002038E004EB860100280868AA
:20E740002ED040F68F7210400860944850F8361000228E4D2868102808BF0A8802D020282A
:20E7600008BF0A689405A40D412C28BF402400D264B18F4D2246884850F836102846FFF771
:20E78000D5FE224629463046F7F72DFD8948305CB0B14FF440513046FFF776FE13B0F0BD5F
:20E7A00048F60F72104008603046F7F707FE13B0F0BD88054CBF6FF400706FF41E40606419
:20E7C00013B0F0BD38B504000D4615D0F7F7BFFA000607D5002D14BF102120212046BDE89A
:20E7E000344072E6002D14BF4FF480514FF400512046BDE8344047E631BD41F210010020A7
:20E8000063E640F080006C4908607047694900224254704710B504464FF44051FFF734FEFF
:20E8200064480121215410BDF8B5644E06F1D404606880475C4D03202864012028640020E6
:20E8400068644FF4806028645D48D6F8D41088474FF41C402864002028654C4E3068534F6B
:20E8600010280CBF8021402139604B494B4A2023002641F8046B42F8046B5B1EF9D1396833
:20E880003A6840323A60386800221046FFF798FD002240211046FFF7C1FD396838684030E9
:20E8A0003860386801220020FFF78AFD012240210020FFF7B3FD43F2302028608020E8641D
:20E8C000F7F7EFFDA068BDE8F24000472F4820210160A9E73948D0F80801004739490878F4
:20E8E000401C0870C0B2704770B5417901F07F040588CE090021007930B1012807D00328BE
:20E9000008BF4FF4C06104E04FF4007101E04FF48061002E14BF20204FF4005008432043AD
:20E92000214941F82400214801680268AA180260006832462046FFF743FD324629462046E7
:20E94000BDE870406AE570474020704770B5044608461546114901EBC4014E680E4901EB29
:20E96000C4014968FFF702FEA805800D07490968102908BF308002D0202908BF30603021BD
:20E980002046BDE87040A0E500000000B001002000600040505C0040F0090020700A002027
:20E9A0008FBFFFFFBF8FFFFF005C0040F00A0020040B0020F40A00204C5C0040340D002073
:20E9C000D3E50008E3180020F7F77DBC20217CE50020704710B50446F7F7B9F9A10001F17A
:20E9E000804101F5B8410A68000604D5500607D542F0400003E0500402D542F48040086006
:20EA000010BD2DE9F04383B0144698460A9B0B9A0025066818F0030708BF012500920222E3
:20EA200000F038F900284FD4FEF730FA00284BD1022C42D3671E1DB33EB1F068B168401AB5
:20EA40003D46874202D9054600E03D464FF0000941460720FEF7C5F9A0BB08F1040809F1DE
:20EA60000109A945F4D346B1B0682818B060F168884202D33046316888477F1BDCD11CE05F
:20EA800001A90720FEF7ADF9E0B9019808F8010B010A08F8011B010C08F8011B000E08F86E
:20EAA000010B46B1B068001DB060F168884202D33046316888477F1EE2D101A90320FEF726
:20EAC00090F920B1FEF729F94FF0FF3004E001994046F6F747FE204603B0BDE8F0832DE9DA
:20EAE000F04F83B004468846164699460D9B0E980C9D00902A46204600F0CCF800282BD419
:20EB0000FEF7C4F940BB022E21D3771E012000FA05FAC5F1030B01A90720FEF762F910B1CF
:20EB2000FEF7FBF818E001980BEA0801C900C8400190019809F8010B1DB10198000A09F8E4
:20EB4000010B6068800058BFD0447F1EE3D101A90320FEF746F910B14FF0FF3010E001982C
:20EB6000C5F1030101EA0801C900C8400190019809F8010B1DB10198000A89F80000304677
:20EB800003B0BDE8F08F2DE9F04182B016461F46099B0A9A089C14B94FF0013504E0012C25
:20EBA0000CBF4FF0011501250092224600F072F8002811D4B04617F0030008BF022C0FD1D9
:20EBC00057F8041B0720FEF7B2F8002802D4761EF6D121E0FEF7A1F84FF0FF30BDE8F6818F
:20EBE000387854B1797840EA0120022C05D3B978FA78120642EA0141084305FB00F1072092
:20EC0000FEF795F8002802D5FEF787F804E00120A040C719761EE3D1FEF768F80021032059
:20EC2000FEF7DFF8A8EB0600BDE8F68106E00846114640F00400FEF7D4B800BF08461146AF
:20EC400000F00300FEF7CDB810B508461446002140F00400FEF7C5F8002805D42146032048
:20EC6000BDE81040FEF7BDB810BD0846114600F00300FEF75CB80846114640F00400FEF7F9
:20EC800056B810B50446FEF741F888E070477047FEF72CB82DE9F8430446894617469846D5
:20ECA000089DA06928B129060220FEF740F8064603E06069A842F6D10026606880004346AF
:20ECC0004CBF002201223946204600F0A3F807466069A84204BFE069B84204D039460420F7
:20ECE000FEF725F8064349460520FEF720F80021A1616561E76102212161304318BF4FF099
:20ED0000FF30BDE8F2832DE9F04F85B004460D4691469A46A06803904FF000080E9E0F9897
:20ED20000F90109F08E00BFA06F06168890058BF45198244A9EB0B09B9F1000F27D0039822
:20ED4000A843F040401C61688900CB4602D4814588BF8346022E09DB01970F9800905346B1
:20ED60005A4629462046FFF74CFE09E002970F980190009653465A4629462046FFF7AFFEDD
:20ED8000002801D5804602E080445845CBD0404605B0BDE8F08F10B50446FDF7BEFF002092
:20EDA000206110BD2DE9F04F83B004460D4691469A464FF000080C9E0D980D900E9F08E061
:20EDC0000BFA06F06168890058BF45198244A9EB0B09B9F1000F1BD0A068A843F040401CE0
:20EDE00061688900CB4602D4814588BF834602970D980190009653465A4629462046FFF79B
:20EE0000C2FE002801D5804602E080445845D7D04046B5E630B40024012B08BF4FF00044E5
:20EE200009D0022B1FBF4FF08074036A104DAB4218BF4FF004544368DD0258BF44F08044FD
:20EE40001D0248BF44F000645D0248BF44F080649D0248BF44F000741B0303D5007B08B9F6
:20EE600024F0406441EA040040EA021030BC7047FF00010E4FF0FF3181614161C161002188
:20EE80000161704782B05F48002101605E484FF0FF31016041608160C160016141618161FF
:20EEA000C161016241628162C162016341638163C1635648016041608160C160016141616E
:20EEC0008161C161016241628162C162016341638163C1634E48016841F0010101604168D6
:20EEE0004C4A1140416001684B4A11400160016821F480210160416821F4FE0141604FF4B9
:20EF00001F018160002101910091416889088900416041684160416811F00C0FFBD1016804
:20EF200041F480310160016801F4003100910199491C0191009919B90199B1F5A06FF2D15C
:20EF40000168490C01F0010100910099012930D132490A6842F010020A600A689208920072
:20EF60000A600A6842F002020A604168416041684160416841F480614160416821F47C11D6
:20EF80004160416841F4E8114160016841F08071016001688901FCD5416889088900416044
:20EFA000416841F002014160416801F00C010829FAD11B484FF00061016002B07047194802
:20EFC000016801F00C0108290FD101680268C1F38341891CD20358BF134A04D502689203A8
:20EFE0004CBF114A114A514300E01049104A11600068C0F303100F4BC05C21FA00F0106099
:20F000007047000010E000E080E100E080E200E0001002400000FFF8FFFFF6FE0020024049
:20F0200008ED00E00410024000093D0000127A00B4010020B8010020ADC2000865B700088A
:20F04000AFC20008C3C200080FB900087BBF0008957A0008CFB80008ADC2000805C10008AD
:20F0600045C20008D7C20008C5DC0008FDC2000811C30008ADC20008ADC20008A5C3000836
:20F0800037BC000809BB0008ADC20008ADC20008C9BC0008ADC20008ADC20008ADC20008C9
:20F0A00023BF0008ADC20008ADC20008ADC20008ADC20008ADC20008ADC2000871B900086A
:20F0C0008FB9000813BA0008ADC20008A1A4000855A5000829A4000843BF0008D9C20008C3
:20F0E000E9C500086DC60008C1C5000845C60008EBC20008F1C20008F7C20008ADC20008D6
:20F10000ADC20008ADC20008ADC20008E9BA0008ADC20008ADC20008ADC20008ADC2000803
:20F12000ADC2000899C500081DC60008A7BF0008ABBF000831CA000835CA0008ADC20008A6
:20F14000658D0008ADC20008ADC20008ADC2000865A40008F7BA0008D5BB00082BB9000802
:20F16000AFBF0008FDBF0008DFD00008ADC2000835B90008ADC20008ADC2000887B90008FB
:20F18000ADC20008E5BB0008C1BC0008ADC20008ADC20008ADC20008ADC20008ADC2000878
:20F1A000ADC20008ADC20008ADC20008ADC20008ADC200085DBA0008ADC200088DD70008FA
:20F1C00089D7000891D7000897D70008C9D70008CFD7000881D70008B1D70008BDD70008FF
:20F1E000D5D70008DFD70008EDD70008FBD7000809D80008ABD8000871D8000865D90008EC
:20F2000081D7000881D7000881D7000881D7000881D7000881D7000881D70008C1D50008B0
:20F220009DD500087FD5000817D60008FFD50008DFD50008F7D50008FBD500082FD60008B2
:20F24000B5D600087DD700087DD7000881D7000881D7000881D7000881D7000881D7000883
:20F260007DD700087DD7000833D7000883D700087DD700087DD700087DD700087DD70008F2
:20F2800081D7000881D7000881D9000889D900088BD900088DD900088FD900089BD900081C
:20F2A000A5D90008B1D90008BDD900082BD90008D7D8000849D9000807D900087DD7000867
:20F2C0007DD7000873D70008BFD90008C1D9000810B52B4C2078401C207000F063F8802093
:20F2E00080F3118800BF00BF2078012803D1606808B1F6F7A9FB2078401E2070002080F3C4
:20F30000118810BD10B5802080F3118800BF00BF1B4C6078401C6070FFF751FE194800681F
:20F320004FF47A71B0FBF1F0B0F1807F17D216490002000A401E48601448F022C276002251
:20F340008A6007220A6012490160E021C1766078401E6070607808B980F3118810BDFEE7DF
:20F3600030BFFDE70B480168002904D5016841F0004101607047FEE7044807490EE000009A
:20F3800028000020B401002010E000E008ED00E0004000082CED00E00040000801600020A1
:20F3A0007047000038B515490A1D01F12800C3681BB101210174517016E0D3695B1CD361DE
:20F3C000D1E90A45641C45F10005C1E90A45146A1B1B5CBF01235370027A2AB1521E02727F
:20F3E000D2B20AB9012008710548046802E0606880472468002CFAD131BD00BF280000208A
:20F40000A408002082B0F8F7E5F9284A801A411C1046F8F73BFBF7F7BEFFF8F7B1FF0020D3
:20F42000F8F73EFFF8F738F944F62060FDF792F8F8F7F9F80120FCF7A2F9F8F7BAFEFDF71E
:20F4400029F8FAF7C4F84FF0FF34194D194E1A4FDFF8688007E0F8F749FF0020C8F8000079
:20F460003220F6F74EF8F8F7B8FE0028F3D0012038600020F8F714FF0FE00120286000A85C
:20F48000F8F7ADFE002808D42C60FAF79AF89DF80000FCF796FFFAF791F830780028ECD09C
:20F4A000F8F794FE0020C8F80000DCE7F01A0020BC0F0020E918002040100020441000200E
:20F4C0002DE9F04500F10801026801EB8202406800F001034008400002EB80000025AA4667
:20F4E0000024A0460126374602E00027F44511D1824201D1BDE8F08552F804CB03B1CC44AD
:20F5000052F804EBE644F1E70D686D18091D51F804ABAA445545F7D066B115F9014B0026B2
:20F52000012705E00D686D18091D51F804ABAA445545F7D0002C12D50FB115F8018BF445B2
:20F54000D3D00CF8018B641CF9D40AE0F44518BF5545CBD015F8018B0CF8018B641E002C25
:20F56000F4D50126C2E70000EDE000082BE10008E1E100080BE200083FE200088BE10008AD
:20F58000A3E100087FE20008E3E2000801E100080FE10008CDE2000843E30008F9E1000800
:20F5A000F7E00008F7E00008EDE000082BE10008C9E100080BE200085FE200088BE1000840
:20F5C000ABE10008A5E20008E3E20008F7E00008F7E00008F7E00008F7E00008F7E00008E0
:20F5E000F7E00008F7E0000800B583B0802080F3118800BF00BF10484178491C4170FFF71E
:20F60000BBFEF5F767FFFFF77DFE0C48022102914FF4C06101910090094B0322094900F51E
:20F62000C060FBF761F808480121017003B05DF804EBF6F7E2B900BF280000208C12002038
:20F6400005F4000828FA0008D6180020CDE80008DDE80008E9E8000847E90008D5E8000811
:20F6600049E90008D1E9000803E80008C5E70008FBE700080DE8000815E80008C9E9000841
:20F680004DE90008CDE90008D5E900080000000000000000000000000000000000000000A8
:20F6A00000000000000000002DD2000847D30008514C0008E94C0008C14600085F4A00087F
:20F6C000834500089F44000800000000794D0008CDCA0008914D00082B4E0008000000009B
:20F6E0008BCA000800000000000000000000000041CA0008574F0008D8F90008050000000E
:20F70000D5C60008E0F9000805000000D9C60008E8F9000806000000DDC60008F0F900082E
:20F7200006000000E1C60008A4F900080B000000E5C6000864F900080E000000E9C6000887
:20F7400028F9000813000000F3C60008119E0008119D00087B9F0008D19F00081DA00008E0
:20F7600049A0000857A0000879A000088DA00008FDA000089FA1000857A30008F79E0008B7
:20F780003FA200080DAB00086DB4000873A300082DEC00082FEC00083BEC000849EC0008C9
:20F7A0006BEC000877EC000883EC000897ED00088DEC00088FEC000891EC000875EE000888
:20F7C00007ED0008A5ED000895EC0008238C0008298C0008F58B0008198C0008218B0008AD
:20F7E0008D8B0008B38B00083F8B00086B8B0008718C000810B5074979441831064C7C44A1
:20F80000163404E0081D0A68511888470146A142F8D110BD08000000380000002F59FFFF65
:20F82000F0150000FC02002004000000F01A0020000000008DFCFFFF0200000002000000EC
:20F84000FC0100006D02000000000020FC020000080C10141820303100040C1014181C24C1
:20F86000282C3034FFFFFF3839000000CFC60008B9C60008C7C60008B5C60008B1C60008A7
:20F88000BDC60008CBC60008817300088573000889730008000000008D730008000000003C
:20F8A000417E0008497E0008597E0008000000005D7E00080000000099C40008C7C40008F8
:20F8C000F5C4000811C5000800000000000000002DC500082FC500083FC500080000000087
:20F8E00041C500080000000000F009F8002801D0FFF780FF0020FFF777FE00F002F8012005
:20F90000704700F001B800000746384600F002F8FBE70000C046C046024A11001820ABBEE6
:20F92000FBE700BF2600020052657472794F6E496E76616C444150526573700020AA4400B4
:20F9400001000000FFFF00000000000000000000434443204441544120696E74657266619B
:20F9600063650000506572666F726D544946496E6974000042554C4B20696E746572666136
:20F9800063650000436F6E66696775726174696F6E000000014880470148004785EE00082C
:20F9A000BDF9000849524C656E44657669636500A12000000000020000000000C046C046B0
:20F9C000C046C046FFF790FF42475461736B0000494453454747455249525072650000006E
:20F9E00044525072650000004952506F737400004452506F737400003DC80008FDC60008F5
:20FA000053454747455200004A2D4C696E6B00006D61696E0000000000C2010000000800B4
:20FA2000B5990008DF9900084A2D4C696E6B0000335AEA98F1A000000000000003B80B0085
:20FA400000FA3005313233343536FC000F6613010100FA000808FA000804000020D70000B5
:20FA600040E6007E91DE0008E7DE00085FDF000885DF0008ADDF0008C7DE00083FDF000885
:20FA8000D7DF00083FE00008B7DE000899DE00080FE000081FE0000877DF000895DE00088E
:20FAA00095DE000891DE0008F1DE000867DF000885DF0008C3DF0008C7DE00084BDF00083A
:20FAC000FBDF00083FE0000895DE000895DE000895DE000895DE000895DE000895DE00083B
:20FAE00095DE0020080BDF000823DF000827DF00082BDF00082FDF000833DF000837DF0009
:20FB0000083BDF0008EF000010FA000A80250000D0F8000881C003FB000781E00300002079
:20FB20000000F9FF019EE7F9FF01B6EDF9FF020000A5F800E4FFFC0000F0FD0000FFF90050
:20FB400001FFE0FBFF0200FFE0FCFF110000A58D95BD87AFB79F81A9B199A38B93BBF8FFE7
:20FB60000020FC0002A24A04F8007E0102030406070809DFF800F0AB530008F0B4444A13C7
:20FB8000684BB9434B1B88B3F5807F2CBF4FF400634FF4806313601268531E184234D13D70
:20FBA0004BDC68240603D53C4C1C603C4C1C600024DC609C6964070BD43A4C45F255552571
:20FBC000600625656040F6FF75A56001E0891A1018012919DB0224DC601861DC6844F040C9
:20FBE00004DC604AF6AA252E4C257E609E68F707FBD4DC6824F00204DC6016F0140FE6D0ED
:20FC0000142098600720F0BC70470020F0BC7047F8B5802383F3118800BF00BF0024521C3C
:20FC200052081D4BDD682D0603D51C4D1D601C4D1D60DC609D696D0708D41A4D45F255560B
:20FC40002E6006266E6040F6FF76AE600125DD6031F8025B20F8025B4AF6AA26114D00E0B7
:20FC60002E609F68FF07FBD4DD683D6D086D00DD609D6815F0140F04D09C6844F014049C8C
:20FC8000600424521EE2D1FFF775FF2046F2BD0000E4070020E0F7FF1F0420024023016749
:20FCA00045AB89EFCD00300040000000526573746F72652053542D4C696E6B0055706461AF
:20FCC0007465204A2D4C696E6B206669726D7761726500005570677261646520746F204A74
:20FCE0002D4C696E6B00000051756974000000004920616D206B65792C2077617761776132
:20FD0000576861742061726520796F7520646F69F1800000000000000000000000000000AD
:00000001FF
