:020000040800F2
:100000001847002001010008ED200008ED2000083D
:10001000ED200008ED200008ED20000800000000A1
:10002000000000000000000000000000ED200008BB
:10003000ED20000800000000ED200008B94900088C
:100040001B0100081B0100081B0100081B01000820
:100050001B0100081B0100081B0100081B01000810
:100060001B0100081B0100081B01000825160008E1
:10007000451600086516000891160008BD16000810
:10008000E9160008151700081B0100081B010008ED
:10009000057C00081B0100081B0100081B0100086B
:1000A0001B0100081B0100081B0100081B010008C0
:1000B0001B0100081B0100081B0100081B010008B0
:1000C0001B0100081B0100081B0100081B010008A0
:1000D0001B010008594E0008694F00081B01000869
:1000E0001B0100081B0100081B010008DFF80CD0F1
:1000F00000F03CF800480047197E0008184700202F
:100100000648804706480047FEE7FEE7FEE7FEE7B1
:10011000FEE7FEE7FEE7FEE7FEE7FEE73D4B0008F1
:10012000ED00000840EA01039B0703D009E008C97D
:10013000121F08C0042AFAD203E011F8013B00F8AC
:10014000013B521EF9D27047D2B201E000F8012BF8
:10015000491EFBD270470022F6E710B513460A4647
:1001600004461946FFF7F0FF204610BD064C074D28
:1001700006E0E06840F0010394E807009847103477
:10018000AC42F6D3FFF7B6FFDC850008FC8500081B
:1001900010B50A48806940F01C0008498861084988
:1001A000084801F01FFD0849084801F01BFD0849F7
:1001B000084801F017FD03F02BF810BD00100240B5
:1001C000C082000800080140C4820008000C014001
:1001D000C88200080010014038B51B49C86A804732
:1001E0000090C0F3400068B3184804681649486A94
:1001F0008047044416480068241AB4F5806F05DB74
:10020000134800682044124908600024002C19DDBE
:100210000F480068C0F30900C0F58065AC4200DDFE
:100220002C460B490968C1F309010A4A881821467E
:1002300006F052F90446002C04DD0548006820440D
:100240000349086038BD0000B88300086C00002036
:100250007000002014330020002005490870487009
:1002600004490870044908600449086070470000A8
:10027000280000202A0000202C0000203000002050
:1002800070B505460E46287808B9012400E02C78A0
:10029000012C02D0022C0CD105E001200849087085
:1002A00003F054F907E002200549087003F00AF949
:1002B00001E0002400BF00BF34704FF0011070BD9A
:1002C0001401002030B502460B461078547840EAFD
:1002D00004210B4800680B4CB0FBF4F0801C032495
:1002E000B0FBF4F041430846044600BF00BF651E62
:1002F0002C00FCD100BF00201870034830BD000066
:100300000C00002040420F000100020010B504461E
:1003100000200449087003F0FDF80020207001203F
:1003200010BD00001401002030B502461546521CD5
:1003300012F8014B0BE012F8013B03F0020020B170
:1003400003F0100010B1121D00E0121D641E002CFD
:10035000F1D1002008704870501B0004801C30BD93
:1003600070B504460D46207810B1012810D107E081
:10037000627802F001000B4A1268116888470BE0AE
:10038000627802F00100074A12685168884703E06A
:10039000FF202870044870BD00BF0020287002486C
:1003A000F9E70000040000200100020070B50646D5
:1003B0000C460025062E1ED005DC3CD2DFE806F0F8
:1003C0003B101112131AFD2E22D004DCF02E13D094
:1003D000F12E30D11BE0FE2E29D0FF2E2BD120E0B4
:1003E0002AE029E028E006252A4615492046FFF79D
:1003F00099FE21E020E01FE01248006808B12020AB
:1004000000E0002040F017002070012514E013E008
:1004100000202070102060700020A070E070042583
:100420000AE04020207000206070022504E0402097
:100430002070012500E000BF00BF284670BD00000D
:10044000CC8200080C000020F0B502460E4612F8DF
:10045000013B124883760025002109E012F8014B88
:100460000E481C304454083020F811502544491CD3
:100470009942F3D3002108E008481C30405C2D1A53
:100480000648343020F81150491C9942F4D300201A
:100490003070581C0004401CF0BD00001401002006
:1004A00070B506460C4612480078022800D019E0C4
:1004B00031780F48C176C07E0D49897E884200DBC5
:1004C00010E00E2001F056FE02F04EF80546002026
:1004D00020706570280AA070280CE070280E20712A
:1004E000044870BDFF2020704FF00110F9E70000B4
:1004F00014010020050001002DE9F04704460E46D6
:10050000002006F8010B4FF001084FF0010914F824
:1005100001AB14E014F8017B07F03F0505B9402555
:10052000E81DC50832462146384602F0F1F82C4451
:10053000681C804407F0800008B12E44A9445FEA9B
:100540000A00AAF1010AE5D149EA0840BDE8F087AE
:100550002DE9F04F87B005460C4606950020049023
:1005600000260594A41CE44908708146039015F800
:10057000011BE248C176C07EE049897E884200DBEB
:10058000ABE115F801BB4AE115F8017B07F001006A
:1005900008B10B2000E00A20824607F00200002884
:1005A00079D00398002846D0D448B0F81080D145BF
:1005B00014D107F0100088B900BF6946384602F030
:1005C000F7F80646022E24D15FEA0800A8F10108D8
:1005D0001FD0C94800780028EFD01AE0B9F10A0FFF
:1005E00004D04FF00A09484601F0C4FD00BF694637
:1005F0000E2002F0DDF80646022E08D15FEA080060
:10060000A8F1010803D0BC4800780028EFD00020F2
:100610000390012E00D006E1009804F8010B009829
:10062000000A04F8010B0098000C04F8010B009874
:10063000000E04F8010B07F01000002860D02878A5
:10064000697840EA0120A97840EA0140E97840EA67
:10065000016002902D1DA948408A0190D14503D028
:10066000D146484601F086FDA448B0F8108000BF8E
:100670000021384602F09CF80646022E08D15FEAB7
:100680000800A8F1010803D09B4800780028EFD0AB
:10069000012E01D0C7E056E000BF9848B0F81080A6
:1006A00000BF6946384602F083F80646022E08D19C
:1006B0005FEA0800A8F1010803D08F4800780028FD
:1006C000EFD0012E00D00EE08C4840690099084020
:1006D0000299884207D00198411E019118B18648BD
:1006E00000780028D9D000BF8448406900990840AC
:1006F0000299884201D046F01006012E22D092E0E5
:10070000039800281ED1D14503D0D146484601F0B8
:1007100031FD7A48B0F8108000BF0021384602F061
:1007200047F80646022E08D15FEA0800A8F1010842
:1007300003D0714800780028EFD0012E00D072E07D
:100740000120039062E0039878B3B9F10A0F04D056
:100750004FF00A09484601F00DFD6848B0F81080D6
:1007600000BF69460E2002F023F80646022E08D18B
:100770005FEA0800A8F1010803D05F48007800286C
:10078000EFD0012E00D04EE0009804F8010B009845
:10079000000A04F8010B0098000C04F8010B009803
:1007A000000E04F8010B002003902878697840EAD5
:1007B0000120A97840EA0140E97840EA0160009010
:1007C0002D1D07F0200020B14C4800994161012601
:1007D0001CE0D14503D0D146484601F0CBFC474848
:1007E000B0F8108000BF6946384601F0E1FF0646C8
:1007F000022E08D15FEA0800A8F1010803D03E48A4
:1008000000780028EFD0012E00D00CE00498401CA6
:1008100004903948007800B105E0ABF1010BBBF161
:10082000000F7FF4B1AE00BF0CE015F8017B07F0BC
:10083000020020B107F0100010B12D1D00E02D1DA9
:10084000ABF1010BBBF1000FEFD1012E44D1B9F197
:100850000A0F04D04FF00A09484601F08BFC0398B8
:1008600030B32648B0F8108000BF69460E2001F072
:100870009FFF0646022E08D15FEA0800A8F1010892
:1008800003D01D4800780028EFD0012E00D024E0CE
:10089000009804F8010B0098000A04F8010B009876
:1008A000000C04F8010B0098000E04F8010B13E093
:1008B0001248B0F8108000BF00210E2001F078FF30
:1008C0000646022E08D15FEA0800A8F1010803D00D
:1008D000094800780028EFD000BF0498C1B20598FD
:1008E0000170059846700598211A0698281A41EA61
:1008F000004007B0BDE8F08F200000201401002068
:100900002DE9FC5F04460D464FF0000B0026A8467B
:10091000ED1C00206049087014F8011B5F48C17687
:10092000C07E5E49897E884200DBA9E0207861783C
:1009300040EA0127A41C07B9A2E014F801AB0AF0B1
:10094000010008B10B2000E00A200090009801F09F
:1009500011FC0AF0020000284DD05048B0F8109069
:1009600000BF0021504601F023FF0646022E08D1A9
:100970005FEA0900A9F1010903D04748007800287F
:10098000EFD0012E00D07BE030E03FB900980A287C
:1009900002D00A2001F0EEFB4FF00E0A3F48B0F8FB
:1009A000109000BF01A9504601F002FF0646022E3A
:1009B00008D15FEA0900A9F1010903D0364800789F
:1009C0000028EFD0012E00D05AE0019805F8010B65
:1009D0000198000A05F8010B0198000C05F8010BBD
:1009E0000198000E05F8010B0BF1010B3800A7F17F
:1009F0000107CAD143E024E02078617840EA012071
:100A0000A17840EA0140E17840EA01600190241DAC
:100A10002248B0F8109000BF01A9504601F0C8FE6E
:100A20000646022E08D15FEA0900A9F1010903D0A8
:100A3000194800780028EFD0012E00D020E00BF1FB
:100A4000010B3800A7F10107D6D100980A2802D07F
:100A50000A2001F08FFB1148B0F8109000BF002170
:100A60000E2001F0A5FE0646022E08D15FEA09001D
:100A7000A9F1010903D0084800780028EFD000BF91
:100A800088F800B04FEA1B2088F8010088F802605F
:100A9000A5EB0800BDE8FC9F200000201401002009
:100AA00070B504460D4621780F48C176C07E0E49C8
:100AB000897E884203DBFF202870012070BD08205A
:100AC00001F058FB6078A17840EA0120E17840EA23
:100AD0000140217940EA0166304602F02FFA0020F9
:100AE00028700120EAE700001401002070B50546D7
:100AF0000E462878802807D328789F2804D83146C6
:100B0000284600F0BBF870BD287806F8010B15F8F0
:100B1000010B1F2872D2DFE800F010191F25656B4A
:100B200072A7782A30A7A7A7A7A7353B41475359F3
:100B30005F7E848A9096A14D9B002878711CFFF7F8
:100B400035FC0446347004F10210DCE731462846D7
:100B5000FFF706FC04468DE031462846FFF790FB80
:100B6000044687E03046FFF7D1FB044682E0314679
:100B70002846FFF7A7FB04467CE0304600F084F8E7
:100B8000044677E03146284600F0C4FB044671E095
:100B90003146284600F082FB04466BE03146284689
:100BA00000F076FC044665E03146284600F074F813
:100BB00004465FE03146284600F082F8044659E0DA
:100BC00031462846FFF798FC044653E03146284654
:100BD000FFF73AFC04464DE031462846FFF760FC3B
:100BE000044647E03146284600F0E2FC044641E076
:100BF0003146284600F088FC04463BE034E03146AC
:100C0000284600F0A3FC044634E03146284600F0B4
:100C1000E7FC04462EE03146284603F00DFE04466C
:100C200028E03146284603F0BDFD044622E0314667
:100C3000284603F0E9FC04461CE03146284603F050
:100C400011FD044616E0304603F0E0FD044611E0D5
:100C50003146284603F080FD04460BE03146284625
:100C600003F030FD044605E0FF2006F8010C4FF0CC
:100C7000011048E700BF04F1011044E70246FF20DD
:100C800008704FF001107047014600BF0120487006
:100C9000002008700220704710B50246137803F058
:100CA0000300401C054C2076C3F3800403484476BF
:100CB000002008704FF0011010BD0000140100204A
:100CC0002DE9F04704460E46002006F8010B4FF0D0
:100CD00001084FF0010914F801AB32E014F8017B70
:100CE00007F03F0505B94025E81DC50807F080005D
:100CF00080B100BF00BF00BF1648006820F00F00A1
:100D000040F00800134908600120124910310860C2
:100D100000BF01E002F084FB32462146384602F073
:100D200033FEBAF1000F01D102F07AFB07F0800028
:100D300020B108F101082E44A94402E02C44681CAB
:100D400080445FEA0A00AAF1010AC7D149EA0840D3
:100D5000BDE8F087000801402DE9F04F87B0054657
:100D60000C460695002005900026A246A41CE049EA
:100D70000870834604906D1C15F8019B50E115F82E
:100D8000017B07F0020000287ED0BBF1000F3DD0B0
:100D9000D848B0F8108007F01100012811D100BF29
:100DA00001A9384602F052FE0646022E1CD15FEA27
:100DB0000800A8F1010817D0CD4800780028EFD02E
:100DC00012E000BF01A90E2002F040FE0646022EEE
:100DD00008D15FEA0800A8F1010803D0C4480078F0
:100DE0000028EFD04FF0000B012E00D01CE101983D
:100DF00004F8010B0198000A04F8010B0198000C9B
:100E000004F8010B0198000E04F8010B07F0100024
:100E100000285ED02878697840EA0120A97840EA65
:100E20000140E97840EA016003902D1DB148408AF5
:100E3000029007F00100B0B1AE48B0F8108000BFDA
:100E40000021384602F002FE0646022E08D15FEA73
:100E50000800A8F1010803D0A54800780028EFD0C9
:100E6000012E00D0E0E000BFA248B0F8108000BF23
:100E700001A9384602F0EAFD0646022E0AD15FEAD1
:100E80000800A8F1010800E069E003D09848007864
:100E90000028EDD0012E00D00EE09648406901995F
:100EA00008400399884207D00298411E029118B168
:100EB0008F4800780028D7D000BF8E48406901993C
:100EC00008400399884201D046F01006012E43D015
:100ED000AAE08848B0F8108007F00100C8B1BBF163
:100EE000000F39D100BF0021384602F0AFFD0646A1
:100EF000022E08D15FEA0800A8F1010803D07C485F
:100F000000780028EFD0012E00D08DE04FF0010BCB
:100F100022E000BF01A9384602F098FD0646022EE5
:100F200008D15FEA0800A8F1010803D070480078F2
:100F30000028EFD0012E00D076E0019804F8010BD4
:100F40000198000A04F8010B0198000C04F8010B49
:100F50000198000E04F8010B0020049057E0BBF14B
:100F6000000F27D06348B0F8108000BF01A90E2001
:100F700002F06CFD0646022E08D15FEA0800A8F1D7
:100F8000010803D05A4800780028EFD0012E00D085
:100F90004AE0019804F8010B0198000A04F8010BDB
:100FA0000198000C04F8010B0198000E04F8010BE5
:100FB0004FF0000B2878697840EA0120A97840EAD0
:100FC0000140E97840EA016001902D1D07F0200002
:100FD00020B1484801994161012618E04548B0F820
:100FE000108000BF01A9384602F030FD0646022EEF
:100FF00008D15FEA0800A8F1010803D03C48007856
:101000000028EFD0012E00D00EE0012004900598BA
:10101000401C05903648007800B105E0A9F10109AF
:10102000B9F1000F7FF4ABAE00BF0CE015F8017B07
:1010300007F0020020B107F0100010B12D1D00E0F4
:101040002D1DA9F10109B9F1000FEFD1012E3FD1FA
:10105000BBF1000F26D02748B0F8108000BF01A9CF
:101060000E2002F0F3FC0646022E08D15FEA0800CB
:10107000A8F1010803D01E4800780028EFD0012E07
:1010800000D026E0019804F8010B0198000A04F84A
:10109000010B0198000C04F8010B0198000E04F8F4
:1010A000010B15E0049898B11248B0F8108000BF09
:1010B00000210E2002F0CAFC0646022E08D15FEA8B
:1010C0000800A8F1010803D0094800780028EFD0F3
:1010D00000BF05988AF800008AF80160A4EB0A01B5
:1010E0000698281A41EA004007B0BDE8F08F0000DA
:1010F00020000020140100202DE9F84F04460D4681
:101100004FF0000B0026A846ED1C00205649087041
:10111000641C2078617840EA012AA41CBAF1000F0F
:1011200000D195E014F8017B07F0020000284FD0B1
:1011300007F00100B0B14D48B0F8109000BF002199
:10114000384602F083FC0646022E08D15FEA090009
:10115000A9F1010903D0444800780028EFD0012EFE
:1011600000D075E02EE0BAF1000F03D107F00100C6
:1011700000B10E273D48B0F8109000BF69463846D0
:1011800002F064FC0646022E08D15FEA0900A9F1CC
:10119000010903D0344800780028EFD0012E00D098
:1011A00056E0009805F8010B0098000A05F8010BBD
:1011B0000098000C05F8010B0098000E05F8010BD3
:1011C0000BF1010B5FEA0A00AAF1010ACBD13EE064
:1011D00024E02078617840EA0120A17840EA0140CB
:1011E000E17840EA01600090241D2048B0F810909A
:1011F00000BF6946384602F029FC0646022E08D197
:101200005FEA0900A9F1010903D017480078002816
:10121000EFD0012E00D01BE00BF1010B5FEA0A00BA
:10122000AAF1010AD5D11148B0F8109000BF0021F1
:101230000E2002F00BFC0646022E08D15FEA0900E0
:10124000A9F1010903D0084800780028EFD000BFB9
:1012500088F800B04FEA1B2088F8010088F8026087
:10126000A5EB0800BDE8F88F200000201401002045
:1012700038B504460D466078A17840EA0120E1784F
:1012800040EA0140217940EA01600090694600206F
:1012900002F0DCFB00202870012038BD30B502468A
:1012A0000C461078557840EA0520957840EA0540CC
:1012B000D57840EA05631BB9FF202070124830BD85
:1012C00012480068B3EB900F04D30120104D6870F2
:1012D000686014E000200E4D6870581E0B4D2D689C
:1012E00000EB5500B0FBF3F1022905D9891E881CDB
:1012F0000325B0FBF5F100E0012105484160002025
:1013000020700148DBE70000010004000C00002011
:10131000140100202DE9F047064688463478757898
:10132000B078F17840EA0120317940EA01407179E2
:1013300040EA016905F0010078B104F0010028B12C
:1013400000BF10204F49086000BF06E000BF10201A
:101350004C49091D086000BF00BF05F0020078B1CC
:1013600004F0020028B100BF01204649086000BF18
:1013700006E000BF01204349091D086000BF00BF0F
:1013800005F0040070B1C4F3870000F0010119B149
:1013900080213C4A116003E080213A4A121D11600D
:1013A00000BF00BF05F0200018B1C4F3471000BF14
:1013B00000BF05F0800018B1C4F3C71006F00EFF9F
:1013C000B9F1000F3ED04FF0010900BF2E48476829
:1013D00000BF00BF05F0010020B101F0B1FF604087
:1013E00000B128E005F0020048B100BF25480838E8
:1013F000006800F0010080EA540000B11BE005F035
:10140000040028B102F038F880EA940000B112E03C
:1014100005F0200028B100BF002080EA541000B180
:1014200009E005F0800028B102F044F880EAD41009
:1014300000B100E005E000BF13484068C01B48450C
:10144000C8D300BF01F07CFF0E490839096801F0DC
:10145000010140EA410A02F00FF84AEA8001094816
:1014600008380068C0F3401041EAC000002140EA9B
:10147000411A02F01FF84AEAC01488F800400348F5
:10148000BDE8F08710080140001000E001000600F0
:1014900070B504460E4614F8015B0DB94FF4807523
:1014A0002146284603F072F800203070E81DC50878
:1014B000681C0004401C70BD10B500200F49087066
:1014C00048700F48006840080E49B0FBF1F0801EDC
:1014D0000A494860002008736421084801820021FD
:1014E0004182416101200549087600210348417687
:1014F00000200249887602F00DF810BD140100208A
:101500000C0000208096980070B505460E460E48E7
:101510000078012802D002280CD105E03146284687
:10152000FFF71AFC04460BE031462846FFF710F897
:10153000044605E031462846FEF7F6FE044600BFA5
:1015400000BF204670BD00001401002070B50546A4
:101550000E4616480078012802D002280CD105E07A
:1015600031462846FFF7C8FD04460BE031462846C1
:10157000FFF7C6F9044605E0002030707070B070C7
:10158000032400BF00BFE87800F0020010B144F46B
:10159000802408E06878A97840EA0120042101EB62
:1015A000800044EA0044204670BD00001401002081
:1015B00002461078084B18735078937840EA03235A
:1015C00005480382D078137940EA03230248438216
:1015D0000020087001487047140100200100050038
:1015E00070B506460D460D480078012802D0022845
:1015F0000CD105E029463046FFF73AFE044609E0E3
:1016000029463046FFF74CFA044603E0FF202870D5
:10161000012400BF00BF44F4A02070BD14010020CD
:101620007047000010B50548006800F00F0403483B
:1016300044602046FFF7F4FF10BD000000000240A8
:101640007047000010B505480068C0F3031420017E
:10165000024948602046FFF7F3FF10BD000002403A
:101660007047000010B505480068C0F3032420024D
:10167000024948602046FFF7F3FF10BD000002401A
:1016800010B50446014804F056FE10BDF082000873
:1016900010B505480068C0F30334200302494860D0
:1016A0002046FFF7EDFF10BD0000024010B50446D4
:1016B000014804F0A5FC10BDF082000810B50548F3
:1016C0000068C0F303442004024948602046FFF745
:1016D000EDFF10BD0000024010B50446014804F0C3
:1016E0008FFC10BD4883000810B505480068C0F3A2
:1016F00003542005024948602046FFF7EDFF10BD66
:101700000000024010B50446014804F014FE10BD6C
:101710004883000810B505480068C0F3036420063C
:10172000024948602046FFF7EDFF10BD000002406F
:1017300070B505460C46012D71D13A48406940F01C
:10174000010038494861082C60D2DFE804F05F04EA
:10175000101C293643500020334988600F20486010
:101760000B2006F011FB0B2006F03AFB4EE00020A8
:101770002D49C861F02048600C2006F005FB0C20C4
:1017800006F02EFB42E00020274908634FF470600A
:1017900048600D2006F0F8FA0D2006F021FB35E038
:1017A0000020214948644FF4704048600E2006F044
:1017B000EBFA0E2006F014FB28E000201A49886599
:1017C0004FF4702048600F2006F0DEFA0F2006F07C
:1017D00007FB1BE000201449C8664FF47000486006
:1017E000102006F0D1FA102006F0FAFA0EE00020E0
:1017F0000D49803108604FF070600B49486011203E
:1018000006F0C2FA112006F0EBFA00BF00BF01207B
:10181000A0400649097808430449087000BF00BF8A
:1018200070BD000000100240000002403C0000209B
:1018300070B505460C46012D4ED12948007800B9F7
:1018400070BD082C37D2DFE804F036040B121920E3
:10185000272E0B2006F0A6FA0020224988602AE0F5
:101860000C2006F09FFA00201E49C86123E00D20DD
:1018700006F098FA00201B4908631CE00E2006F0D1
:1018800091FA00201749486415E00F2006F08AFA03
:101890000020144988650EE0102006F083FA00202D
:1018A0001049C86607E0112006F07CFA00200D49B7
:1018B0008031086000BF00BF0120A04008490978BE
:1018C000814307480170007828B90748406920F033
:1018D00001000549486100BF00BF00BFB0E700003C
:1018E0003C00002000000240001002400749096847
:1018F00042F22832B1FBF2F1484301460A4600BFEA
:1019000000BF531E1A00FCD100BF70470C0000201E
:1019100030B500F00F010D4C04EB8103D3F8002C1F
:1019200000F0800343B148F6CF731340254605EB22
:101930008104C4F8003C07E04CF68F731340034D5C
:1019400005EB8104C4F8003C30BD000000500040AD
:1019500070B500F00F02104D05EB8204D4F8003C86
:1019600000F080045CB101F030045C4048F6BF75C3
:101970002C40094E06EB8205C5F8004C0AE001F444
:1019800040545C404BF68F752C40034E06EB8205AD
:10199000C5F8004C70BD00000050004030B5044652
:1019A00004254FF4302000F06FF80546042D17D1C0
:1019B0000C48006940F002000A4908610846446189
:1019C000006940F0400008614FF4302000F05CF8FE
:1019D00005460448006941F6FD7108400149086167
:1019E000284630BD0020024004200B49C96801F0A0
:1019F000010109B101200EE00749C96801F00401A5
:101A000009B1022007E00449C96801F0100109B1D9
:101A1000032000E0042070470020024003480069D2
:101A200040F080000149086170470000002002403A
:101A300070B504460D460426F00200F025F806466F
:101A4000042E11D10948006940F0010007490861DE
:101A50002580F00200F018F806460448006941F6B7
:101A6000FE71084001490861304670BD0020024007
:101A700002480349486003484860704723016745AE
:101A800000200240AB89EFCD00B502460423FFF7EA
:101A9000ABFF034603E0FFF7A7FF0346521E012BEF
:101AA00001D1002AF7D102B90523184600BD000074
:101AB00018B5002844D0C0F34211C0F30322214BD3
:101AC0009B6903F001032BB91E4B9B6943F0010393
:101AD0001C4CA36100F48053A3B11B4BDB69009342
:101AE00000F01F0301FA03F3009C9C43009400F0F4
:101AF0001F0302FA03F3009C23430093124C009B44
:101B0000E3611DE0104B5B68009300F01F0301FAD6
:101B100003F3009C9C43009400F01F0302FA03F3BC
:101B2000009C2343009307210022009B23EA0163CA
:101B30000093009B43EA02630093034C009B6360A5
:101B400018BD0000001002400000014001461D4881
:101B5000814204D11C488069C0F3800070471B4853
:101B6000814204D118488069C0F3C000F6E71848E4
:101B7000814204D114488069C0F30010EEE7154893
:101B8000814204D110488069C0F34010E6E7124852
:101B9000814204D10C488069C0F38010DEE70F4811
:101BA000814204D108488069C0F3C010D6E70C48D0
:101BB000814204D104488069C0F30020CEE70020B0
:101BC000CCE700000008014000100240000C01407A
:101BD000001001400014014000180140001C0140A9
:101BE000002001402DE9F04102460025002600209A
:101BF00000230024002791F803C00CF00F0591F892
:101C000003C00CF0100CBCF1000F03D091F802C01F
:101C10004CEA050591F800C0BCF1000F31D0146802
:101C200000202BE04FF0010C0CFA00F3B1F800C0DB
:101C30000CEA03069E4220D183004FF00F0C0CFAF1
:101C400003F7BC4305FA03FC4CEA040491F803C013
:101C5000BCF1280F06D14FF0010C0CFA00FCC2F8C1
:101C600014C00AE091F803C0BCF1480F05D14FF051
:101C7000010C0CFA00FCC2F810C0401C0828D1D39B
:101C80001460B1F800C0BCF1FF0F34DD54680020CF
:101C90002EE000F1080C4FF0010808FA0CF3B1F83F
:101CA00000C00CEA03069E4221D183004FF00F0CC6
:101CB0000CFA03F7BC4305FA03FC4CEA040491F860
:101CC00003C0BCF1280F05D100F1080C08FA0CF88C
:101CD000C2F8148091F803C0BCF1480F07D100F19D
:101CE000080C4FF0010808FA0CF8C2F81080401CEC
:101CF0000828CED35460BDE8F0812DE9F0410546B7
:101D00000C46174698460F2C02D90020BDE8F081FA
:101D10002846FFF71BFF18B90121284600F02AF8D2
:101D2000B8F1000F10D1022F05D1E8680121A140C0
:101D30008843E86008E0032F06D127F00107E86830
:101D40000121A1400843E860082C01D22E4601E0A1
:101D5000083C2E1D3068A2000F219140884330605E
:101D600048EA8700A10088403168084330600120BC
:101D7000CCE70000002945D0454A904206D1454AAB
:101D8000926942F00402434B9A6180E0424A9042D9
:101D900006D1404A926942F008023E4B9A6176E0D1
:101DA0003E4A904206D13B4A926942F01002394BBA
:101DB0009A616CE03A4A904206D1364A926942F002
:101DC0002002344B9A6162E0364A904206D1314A91
:101DD000926942F040022F4B9A6158E0324A904299
:101DE00006D12C4A926942F080022A4B9A614EE059
:101DF0002E4A90424BD1274A926942F48072254B79
:101E00009A6144E0224A904206D1224A926922F025
:101E10000402204B9A613AE01F4A904206D11D4AC3
:101E2000926922F008021B4B9A6130E01B4A9042F3
:101E300006D1184A926922F01002164B9A6126E0E8
:101E4000174A904206D1134A926922F02002114BA0
:101E50009A611CE0134A904206D10E4A926922F020
:101E600040020C4B9A6112E00F4A904206D1094A97
:101E7000926922F08002074B9A6108E00B4A904277
:101E800005D1044A926922F48072024B9A6170472C
:101E90000008014000100240000C01400010014009
:101EA0000014014000180140001C014000200140C6
:101EB00010B511480078012817D100BF00200F4944
:101EC00008700F4800680F490968441A0E480078E6
:101ED000012803D102F048FF044400E000BF00BF26
:101EE000064800780028E9D104E005480068054963
:101EF0000968441A204610BD270000203400002045
:101F00002C0000203000002026000020084A117814
:101F1000127882F00102064B1A70064A525C064B98
:101F20001B7842EA03000022024B5A54704700001B
:101F30002A00002028000020270000202DE9F0477B
:101F400004460D464FF0FF0A2078D02872DB207837
:101F5000D7286FDC207805F8010B14F8010BD03876
:101F6000082868D2DFE800F00412151821335672F1
:101F70005648076805F8017B380A05F8010B380C4C
:101F800005F8010B380E05F8010B81E0FFF770FD35
:101F90007EE0FFF743FD7BE027683846FFF7FEFC55
:101FA000042801D04FF0FF0A72E0D4F80080A68820
:101FB00006E018F8011BFF2902D04FF0FF0A04E0E9
:101FC0003000A6F101018EB2F3D100BF60E02768B6
:101FD000A688382E02DD4FF0FF0A1AE0A41D12E099
:101FE00014F8019B2EB114F8011B49EA0129701E57
:101FF00086B249463846FFF71BFD042802D04FF051
:10200000FF0A05E0BF1C3000A6F101018EB2E7D146
:1020100000BF3DE0D4F80080A6883E2E02DD4FF0E0
:10202000FF0A12E0002005F8010B09E026B998F834
:1020300000A005E030E027E018F8010B05F8010BDF
:102040003000A6F101018EB2F0D121E000BF00BF47
:1020500000BF00BF00BFBFF34F8F00BF00BF00BF76
:102060001B48006800F4E0601A490843001D184945
:10207000086000BF00BF00BFBFF34F8F00BF00BFAD
:1020800000BF00BF00BFFDE76D1E4FF0FF0A00BF9D
:1020900000BF85F800A017E00F48006890B10F4B13
:1020A000DFF83CC0DCF800C003EB8C110D4BDFF80F
:1020B00038C0DCF800C003EB8C10074B1B685A6873
:1020C000904701E0FF202870BDE8F087002004E081
:1020D0000CED00E00000FA050800002014230020A9
:1020E00064000020141300205C00002072B61E491A
:1020F000086880F3088800BF01F08AF8002412E025
:1021000001F0DEF86420FFF7F1FB01F0D1F801F0F7
:10211000B1F86420FFF7EAFB01F0A4F84FF47A70FD
:10212000FFF7E4FB641C052CEADB00BF00BF00BF27
:1021300000BF00BFBFF34F8F00BF00BF00BF0B4801
:10214000006800F4E0600A490843001D0749086080
:1021500000BF00BF00BFBFF34F8F00BF00BF00BF75
:1021600000BF00BFFDE70000000000080CED00E02C
:102170000000FA0510B504460548407818B120461D
:1021800000F008F802E0204600F0A6F810BD0000BC
:102190001401002070B5054601F068F901F0C4F89B
:1021A00000BF00BF01F0DAF800BF00BF01F0BCF8CB
:1021B00000BF00BF01F0D2F800BF00BF01F050F92E
:1021C00001F0B2F800BF00BF01F0C8F800BF00BFC7
:1021D00001F0AAF800BF00BF01F0C0F800BF00BFC7
:1021E000012001F051F93B48C17E243030F8114004
:1021F00008E001F099F800BF00BF01F0AFF800BFA0
:1022000000BF641E002CF4D13248C17E1C30405CFB
:10221000441E0CE0E8B201F037F901F085F800BF88
:1022200000BF01F09BF800BF00BF6D08641E002CCA
:10223000F0D12848C17E343030F811402CB3E8B2D8
:1022400001F022F901F070F800BF00BF01F086F83C
:1022500000BF00BF012001F017F9641E08E001F083
:1022600063F800BF00BF01F079F800BF00BF641E33
:10227000002CF4D101F0FAF801F056F800BF00BFCD
:1022800001F06CF800BF00BF0DE001F0EFF8E8B21C
:1022900001F0FAF801F048F800BF00BF01F05EF865
:1022A00000BF00BF00BF01F03FF800BF00BF01F05A
:1022B00055F800BF00BF01F0D3F801F035F800BFBA
:1022C00000BF01F04BF800BF00BF012001F0DCF8B7
:1022D00070BD00001401002070B5054601F0C6F87D
:1022E00001F022F89F494868014600BF00BF4A1E1E
:1022F0001100FCD100BF01F031F89A49486801464D
:1023000000BF00BF4A1E1100FCD100BF01F00CF855
:1023100094494868014600BF00BF4A1E1100FCD125
:1023200000BF01F01BF88F494868014600BF00BF9D
:102330004A1E1100FCD100BF01F092F800F0F4FF3A
:1023400088494868014600BF00BF4A1E1100FCD101
:1023500000BF01F003F883494868014600BF00BF91
:102360004A1E1100FCD100BF00F0DEFF7D49486825
:10237000014600BF00BF4A1E1100FCD100BF00F0A3
:10238000EDFF78494868014600BF00BF4A1E1100B2
:10239000FCD100BF012001F077F87248C17E2430E3
:1023A00030F8114016E000F0BFFF6E494868014662
:1023B00000BF00BF4A1E1100FCD100BF00F0CEFFDD
:1023C00068494868014600BF00BF4A1E1100FCD1A1
:1023D00000BF641E002CE6D16248C17E1C30405C08
:1023E000441E1AE0E8B201F04FF800F09DFF5D498D
:1023F0004868014600BF00BF4A1E1100FCD100BF63
:1024000000F0ACFF57494868014600BF00BF4A1EB4
:102410001100FCD100BF6D08641E002CE2D15148B0
:10242000C17E343030F81140002C4ED0E8B201F0BB
:102430002BF800F079FF4B494868014600BF00BF08
:102440004A1E1100FCD100BF00F088FF45494868D2
:10245000014600BF00BF4A1E1100FCD100BF012091
:1024600001F012F8641E16E000F05EFF3D49486876
:10247000014600BF00BF4A1E1100FCD100BF00F0A2
:102480006DFF38494868014600BF00BF4A1E110071
:10249000FCD100BF641E002CE6D100F0E7FF00F085
:1024A00043FF30494868014600BF00BF4A1E110083
:1024B000FCD100BF00F052FF2A494868014600BF26
:1024C00000BF4A1E1100FCD11AE000F0CFFFE8B2B5
:1024D00000F0DAFF00F028FF22494868014600BFFB
:1024E00000BF4A1E1100FCD100BF00F037FF1D499C
:1024F0004868014600BF00BF4A1E1100FCD100BF62
:1025000000F012FF17494868014600BF00BF4A1E8D
:102510001100FCD100BF00F021FF124948680146BC
:1025200000BF00BF4A1E1100FCD100BF00F098FFA1
:1025300000F0FAFE0B494868014600BF00BF4A1E82
:102540001100FCD100BF00F009FF064948680146B0
:1025500000BF00BF4A1E1100FCD100BF012000F0E7
:1025600093FF70BD1401002070B500F07FFF00F0F4
:10257000DBFE66494868014600BF00BF4A1E1100E5
:10258000FCD100BF00F0EAFE60494868014600BF88
:1025900000BF4A1E1100FCD100BF00F061FF00F037
:1025A000C3FE5A494868014600BF00BF4A1E1100D9
:1025B000FCD100BF00F0D2FE54494868014600BF7C
:1025C00000BF4A1E1100FCD100BF00F0ADFE4F4914
:1025D0004868014600BF00BF4A1E1100FCD100BF81
:1025E00000F0BCFE49494868014600BF00BF4A1ED2
:1025F0001100FCD100BF4548C57E16E000F094FEF6
:1026000042494868014600BF00BF4A1E1100FCD184
:1026100000BF00F0A3FE3D494868014600BF00BF6F
:102620004A1E1100FCD100BF6D1E002DE6D1002412
:102630001F251CE000F078FE34494868014600BFC1
:1026400000BF4A1E1100FCD100BF00F02BFF064660
:1026500000F084FE2D494868014600BF00BF4A1EB5
:102660001100FCD100BF44EAC67464086D1E002D41
:10267000E0D100F0FBFE00F057FE24494868014617
:1026800000BF00BF4A1E1100FCD100BF00F00AFFCE
:10269000064600F063FE1D494868014600BF00BFC2
:1026A0004A1E1100FCD100BF44EAC67400F03CFE93
:1026B00016494868014600BF00BF4A1E1100FCD100
:1026C00000BF00F04BFE11494868014600BF00BF43
:1026D0004A1E1100FCD100BF00F0C2FE00F024FE33
:1026E0000A494868014600BF00BF4A1E1100FCD1DC
:1026F00000BF00F033FE05494868014600BF00BF37
:102700004A1E1100FCD100BF204670BD14010020FC
:102710002DE9F05F04460F46904604F03F0606B9E7
:10272000402604F0400010B100F0A0FE01E000F0EF
:1027300097FE36E017F801AB00254FF0080924E0BA
:102740000AF0FF0000F0A0FE00F0EEFD1749486817
:10275000014600BF00BF4A1E1100FCD100BF00F0BF
:10276000A1FE834600F0FAFD10494868014600BF0B
:1027700000BF4A1E1100FCD100BF4FEA5A0A6D0883
:1027800045EACB15A9F10109761EB9F1000F01D078
:10279000002ED5D125FA09F504F0800008B108F81B
:1027A000015B002EC6D1BDE8F09F0000140100209F
:1027B00070B504460D460648407820B129462046AB
:1027C00000F008F870BD2946204600F049F9F9E705
:1027D000140100202DE9F0470646884600F046FE29
:1027E00000F0A2FD00BF00BF00F0B8FD00BF00BFB9
:1027F00000F036FE00F098FD00BF00BF00F0AEFD17
:1028000000BF00BF00F090FD00BF00BF00F0A6FDBC
:1028100000BF00BF9048C47E08E000F085FD00BF07
:1028200000BF00F09BFD00BF00BF641E002CF4D170
:10283000C6F3470000F028FE00F076FD00BF00BFA1
:1028400000F030FE074600F089FD00BF00BF4FEAF0
:102850004709C6F3870000F017FE00F065FD00BFD2
:1028600000BF00F01FFE074600F078FD00BF00BF6C
:1028700049EA0709C6F3C70000F006FE00F054FD60
:1028800000BF00BF00F00EFE074600F067FD00BF6E
:1028900000BF49EA8709B9F1010F0AD000F0E6FD4F
:1028A00000F042FD00BF00BF00F058FD00BF00BFB8
:1028B000A1E006F00200002852D000251F240EE0FF
:1028C00000F032FD00BF00BF00F0ECFD074600F055
:1028D00045FD00BF00BF45EAC7756D08641E002CAA
:1028E000EED15D48817EC07E081A441E14B300F00C
:1028F0001BFD00BF00BF00F0D5FD074600F02EFD18
:1029000000BF00BF641E08E000F00EFD00BF00BF66
:1029100000F024FD00BF00BF641E002CF4D100F0C5
:10292000A5FD00F001FD00BF00BF00F017FD00BFD6
:1029300000BF0DE000F09AFD00F0F6FC00BF00BF04
:1029400000F0B0FD074600F009FD00BF00BF00BF6A
:1029500045EAC775B8F1000F4CD0C8F8005049E0FF
:10296000D8F800501F240CE0E8B200F08DFD00F014
:10297000DBFC00BF00BF00F0F1FC00BF00BF6D0832
:10298000641E002CF0D13448817EC07E081A441E9B
:1029900014B3E8B200F078FD00F0C6FC00BF00BF41
:1029A00000F0DCFC00BF00BF641E08E000F0BCFCCF
:1029B00000BF00BF00F0D2FC00BF00BF641E002CAF
:1029C000F4D100F053FD00F0AFFC00BF00BF00F0F9
:1029D000C5FC00BF00BF0DE000F048FDE8B200F00C
:1029E00053FD00F0A1FC00BF00BF00F0B7FC00BF2A
:1029F00000BF00BF00BF00F097FC00BF00BF00F0A9
:102A0000ADFC00BF00BF00F02BFD00F08DFC00BF4F
:102A100000BF00F0A3FC00BF00BF012000F034FDA8
:102A200006F0800020B100BF0C4840680A49886069
:102A30000948047B08E000F077FC00BF00BF00F00D
:102A40008DFC00BF00BF00BF2000A4F10104F2D143
:102A500009F0FF00BDE8F08714010020001000E03D
:102A60002DE9F0470646894600F000FD00F05CFCC9
:102A7000FE494868014600BF00BF4A1E1100FCD154
:102A800000BF00F06BFCF9494868014600BF00BF79
:102A90004A1E1100FCD100BF00F0E2FC00F044FC33
:102AA000F2494868014600BF00BF4A1E1100FCD130
:102AB00000BF00F053FCED494868014600BF00BF6D
:102AC0004A1E1100FCD100BF00F02EFCE749486807
:102AD000014600BF00BF4A1E1100FCD100BF00F03C
:102AE0003DFCE2494868014600BF00BF4A1E110094
:102AF000FCD100BFDD48C47E16E000F015FCDB49C8
:102B00004868014600BF00BF4A1E1100FCD100BF4B
:102B100000F024FCD5494868014600BF00BF4A1EAA
:102B20001100FCD100BF641E002CE6D1C6F34700A3
:102B300000F0AAFC00F0F8FBCC494868014600BF51
:102B400000BF4A1E1100FCD100BF00F0ABFC0746DD
:102B500000F004FCC5494868014600BF00BF4A1E9A
:102B60001100FCD100BF4FEA4708C6F3870000F010
:102B70008BFC00F0D9FBBD494868014600BF00BF8F
:102B80004A1E1100FCD100BF00F08CFC074600F08B
:102B9000E5FBB6494868014600BF00BF4A1E110068
:102BA000FCD100BF48EA0708C6F3C70000F06CFC80
:102BB00000F0BAFBAD494868014600BF00BF4A1E9D
:102BC0001100FCD100BF00F06DFC074600F0C6FB11
:102BD000A6494868014600BF00BF4A1E1100FCD14B
:102BE00000BF48EA8708B8F1010F18D000F03EFC9A
:102BF00000F09AFB9D494868014600BF00BF4A1E8D
:102C00001100FCD100BF00F0A9FB984948680146BB
:102C100000BF00BF4A1E1100FCD100BF2FE106F02B
:102C20000200002874D000251F241CE000F07CFB6B
:102C30008E494868014600BF00BF4A1E1100FCD102
:102C400000BF00F02FFC074600F088FB874948686A
:102C5000014600BF00BF4A1E1100FCD100BF45EA7B
:102C6000C7756D08641E002CE0D18048817EC07E4F
:102C7000081A441E002C4CD000F056FB7B494868D3
:102C8000014600BF00BF4A1E1100FCD100BF00F08A
:102C900009FC074600F062FB74494868014600BF22
:102CA00000BF4A1E1100FCD100BF641E16E000F0F8
:102CB0003BFB6E494868014600BF00BF4A1E110039
:102CC000FCD100BF00F04AFB68494868014600BFDC
:102CD00000BF4A1E1100FCD100BF641E002CE6D1CB
:102CE00000F0C4FB00F020FB60494868014600BFCB
:102CF00000BF4A1E1100FCD100BF00F02FFB5B4952
:102D00004868014600BF00BF4A1E1100FCD11BE00D
:102D100022E000F0ABFB00F007FB54494868014695
:102D200000BF00BF4A1E1100FCD100BF00F0BAFB7B
:102D3000074600F013FB4D494868014600BF00BF3D
:102D40004A1E1100FCD100BF45EAC775B9F1000F5A
:102D500001D0C9F8005091E0D9F800501F241AE0C2
:102D6000E8B200F091FB00F0DFFA40494868014604
:102D700000BF00BF4A1E1100FCD100BF00F0EEFAF8
:102D80003A494868014600BF00BF4A1E1100FCD105
:102D900000BF6D08641E002CE2D13448817EC07EE5
:102DA000081A441E002C4BD0E8B200F06DFB00F076
:102DB000BBFA2E494868014600BF00BF4A1E1100F9
:102DC000FCD100BF00F0CAFA28494868014600BF9C
:102DD00000BF4A1E1100FCD100BF641E16E000F0C7
:102DE000A3FA22494868014600BF00BF4A1E1100ED
:102DF000FCD100BF00F0B2FA1C494868014600BF90
:102E000000BF4A1E1100FCD100BF641E002CE6D199
:102E100000F02CFB00F088FA14494868014600BF16
:102E200000BF4A1E1100FCD100BF00F097FA0F4905
:102E30004868014600BF00BF4A1E1100FCD11DE0DA
:102E400000F014FBE8B200F01FFB00F06DFA074938
:102E50004868014600BF00BF4A1E1100FCD100BFF8
:102E600000F07CFA01494868014601E014010020A5
:102E700000BF00BF4A1E1100FCD100BF00BF00F020
:102E800053FA2C494868014600BF00BF4A1E110092
:102E9000FCD100BF00F062FA26494868014600BF35
:102EA00000BF4A1E1100FCD100BF00F0D9FA00F0AB
:102EB0003BFA20494868014600BF00BF4A1E110086
:102EC000FCD100BF00F04AFA1A494868014600BF29
:102ED00000BF4A1E1100FCD100BF012000F0D4FA4F
:102EE00006F0800020B100BF134840681149886097
:102EF0001048047B15E000F017FA0E4948680146B7
:102F000000BF00BF4A1E1100FCD100BF00F026FA2E
:102F100008494868014600BF00BF4A1E1100FCD1A5
:102F200000BF2000A4F10104E5D108F0FF00BDE8D6
:102F3000F087000014010020001000E070B5054685
:102F400000F094FA00F0F0F9B0494868014600BF7B
:102F500000BF4A1E1100FCD100BF00F0FFF9AB49D1
:102F60004868014600BF00BF4A1E1100FCD100BFE7
:102F700000F076FA00F0D8F9A4494868014600BF8D
:102F800000BF4A1E1100FCD100BF00F0E7F99F49C5
:102F90004868014600BF00BF4A1E1100FCD100BFB7
:102FA00000F0C2F999494868014600BF00BF4A1EB7
:102FB0001100FCD100BF00F0D1F9944948680146E6
:102FC00000BF00BF4A1E1100FCD100BF8F48C47E65
:102FD00016E000F0A9F98D494868014600BF00BF1E
:102FE0004A1E1100FCD100BF00F0B8F987494868BB
:102FF000014600BF00BF4A1E1100FCD100BF641E85
:10300000002CE6D1002000F03FFA00F08DF97F4956
:103010004868014600BF00BF4A1E1100FCD100BF36
:1030200000F09CF979494868014600BF00BF4A1E7C
:103030001100FCD100BF00F077F9744948680146DF
:1030400000BF00BF4A1E1100FCD100BF00F086F98E
:103050006E494868014600BF00BF4A1E1100FCD1FE
:1030600000BF00F061F969494868014600BF00BF30
:103070004A1E1100FCD100BF00F070F96349486896
:10308000014600BF00BF4A1E1100FCD100BF1F2433
:103090001AE0E8B200F0F8F900F046F95B49486838
:1030A000014600BF00BF4A1E1100FCD100BF00F066
:1030B00055F956494868014600BF00BF4A1E110035
:1030C000FCD100BF6D08641E002CE2D14F48817E08
:1030D000C07E081A441E002C4BD0E8B200F0D4F990
:1030E00000F022F949494868014600BF00BF4A1E66
:1030F0001100FCD100BF00F031F944494868014695
:1031000000BF00BF4A1E1100FCD100BF641E16E0C4
:1031100000F00AF93D494868014600BF00BF4A1E59
:103120001100FCD100BF00F019F938494868014688
:1031300000BF00BF4A1E1100FCD100BF641E002C5E
:10314000E6D100F093F900F0EFF830494868014605
:1031500000BF00BF4A1E1100FCD100BF00F0FEF806
:103160002A494868014600BF00BF4A1E1100FCD131
:103170001AE000F07BF9E8B200F086F900F0D4F82C
:1031800022494868014600BF00BF4A1E1100FCD119
:1031900000BF00F0E3F81D494868014600BF00BFCA
:1031A0004A1E1100FCD100BF00F0BEF81749486864
:1031B000014600BF00BF4A1E1100FCD100BF00F055
:1031C000CDF812494868014600BF00BF4A1E1100F1
:1031D000FCD100BF00F044F900F0A6F80B494868A4
:1031E000014600BF00BF4A1E1100FCD100BF00F025
:1031F000B5F806494868014600BF00BF4A1E1100E5
:10320000FCD100BF012000F03FF970BD1401002087
:1032100010B51048806940F008000E4988614FF4ED
:1032200000500D4908600D490B481438FEF7DAFCD0
:103230000848806940F008000649886188140649FA
:103240000860074904481438FEF7CCFC00F030F859
:1032500010BD000000100240140C014078820008EC
:103260007C8200084FF4005001490860704700005C
:10327000140C01404FF400500149086070470000F1
:10328000100C014000B5024600F012F80748007823
:1032900020F00100054908704FF0E020006940F07F
:1032A00001004FF0E021086100BD00000100002096
:1032B0004FF480500149086070470000140C014031
:1032C0004FF480500149086070470000100C014025
:1032D00000B50246FFF7CEFF0F48007840F001002E
:1032E0000D49087002F0010050B14FF0E020006974
:1032F00020F001004FF0E0210861FFF7E1FF09E055
:103300004FF0E020006940F001004FF0E02108613B
:10331000FFF7CEFF00BD0000010000201020014992
:103320000860704714080140102001490860704788
:10333000140801401020014908607047140801403A
:1033400002480068C0F30010704700000C080140FC
:103350001020014908607047100801401020014901
:10336000086070471008014010200149086070474C
:10337000100801400448006800F0010008B1012075
:1033800070470020FCE7000008080140044800687E
:1033900000F0010008B1012070470020FCE70000A8
:1033A0000808014000F0010119B10121034A116030
:1033B00003E00121014A121D11607047100801400D
:1033C00000F0010119B10121034A116003E001215C
:1033D000014A121D116070471008014000BF0748E4
:1033E000006820F00F0040F0080004490860012048
:1033F00002491031086000BF70470000000801401A
:1034000000BF0648006820F00F00C01C0349086098
:10341000012002491431086000BF704700080140D4
:1034200000BF0648006820F00F00C01C0349086078
:10343000012002491431086000BF704700080140B4
:1034400000BF0648006820F00F00C01C0349086058
:10345000012002491431086000BF70470008014094
:10346000012001490860704714080140012001490A
:10347000086070471008014002480068C0F3C0109F
:10348000704700000C08014000F0010119B18021D3
:10349000034A116003E08021014A121D1160704748
:1034A0001008014002480068C0F340107047000057
:1034B0000808014002480068C0F38010704700000F
:1034C0000808014010B511200E49086080200860EE
:1034D0000D490C481038FEF785FB0C490948103897
:1034E000FEF780FB0A4907481038FEF77BFB0020F7
:1034F00004F074FE6420FEF7F9F9012004F06EFE7A
:1035000010BD000010080140A4820008AC82000831
:10351000A882000810B508490848FEF763FB08496F
:103520000648FEF75FFB07490448FEF75BFB0649C8
:103530000248FEF757FB10BDB482000800080140A6
:10354000B0820008B8820008BC82000810B51120C3
:103550000D4908600D490C481038FEF743FB0C4933
:1035600009481038FEF73EFB0A4907481038FEF7B5
:1035700039FB002004F032FE6420FEF7B7F9012089
:1035800004F02CFE10BD00001008014098820008D5
:103590009C820008A082000810B50748806940F0AE
:1035A00004000549886188150449086004490348F6
:1035B0001438FEF717FB10BD00100240140801403C
:1035C000948200082DE9F04707468A46002501202D
:1035D000FFF7E8FEFFF7A2FED5494868014600BFA5
:1035E00000BF4A1E1100FCD100BFFFF7B1FED04959
:1035F0004868014600BF00BF4A1E1100FCD100BF51
:103600003C46E0B2FFF7CEFEFFF788FEC8494868A7
:10361000014600BF00BF4A1E1100FCD100BFFFF7EA
:1036200097FEC3494868014600BF00BF4A1E11000B
:10363000FCD100BF25447C08E0B2FFF7B3FEFFF7E2
:103640006DFEBB494868014600BF00BF4A1E11001D
:10365000FCD100BFFFF77CFEB5494868014600BFBA
:1036600000BF4A1E1100FCD100BF2544BC08E0B2D7
:10367000FFF798FEFFF752FEAD494868014600BFCC
:1036800000BF4A1E1100FCD100BFFFF761FEA84930
:103690004868014600BF00BF4A1E1100FCD100BFB0
:1036A0002544FC08E0B2FFF77DFEFFF737FEA04996
:1036B0004868014600BF00BF4A1E1100FCD100BF90
:1036C000FFF746FE9A494868014600BF00BF4A1E00
:1036D0001100FCD100BF2544E8B2FFF763FEFFF7FD
:1036E0001DFE93494868014600BF00BF4A1E1100F5
:1036F000FCD100BFFFF72CFE8D494868014600BF92
:1037000000BF4A1E1100FCD100BF0020FFF74AFE97
:10371000FFF704FE86494868014600BF00BF4A1E05
:103720001100FCD100BFFFF713FE81494868014634
:1037300000BF00BF4A1E1100FCD100BF0120FFF7EF
:1037400031FEFFF7EBFD7A494868014600BF00BF34
:103750004A1E1100FCD100BFFFF7FAFD744948680A
:10376000014600BF00BF4A1E1100FCD100BF00BFD0
:1037700000BF00BF6F48006820F00F0040F0080055
:103780006C49086001206B491031086000BF00BF20
:103790006748067E16E0FFF7C1FD654948680146A7
:1037A00000BF00BF4A1E1100FCD100BFFFF7D0FDD3
:1037B0005F494868014600BF00BF4A1E1100FCD1A6
:1037C00000BF761E002EE6D1FFF7A8FD58494868D5
:1037D000014600BF00BF4A1E1100FCD100BFFFF729
:1037E000C9FD0446FFF7B4FD51494868014600BFD2
:1037F00000BF4A1E1100FCD100BFA046FFF78EFD9E
:103800004B494868014600BF00BF4A1E1100FCD169
:1038100000BFFFF7AFFD0446FFF79AFD4449486833
:10382000014600BF00BF4A1E1100FCD100BF48EA9C
:103830004408FFF773FD3E494868014600BF00BFDA
:103840004A1E1100FCD100BFFFF794FD0446FFF7AC
:103850007FFD37494868014600BF00BF4A1E11007E
:10386000FCD100BF48EA84083148067E16E0FFF725
:1038700055FD2F494868014600BF00BF4A1E110090
:10388000FCD100BFFFF764FD29494868014600BF2D
:1038900000BF4A1E1100FCD100BF761E002EE6D1EB
:1038A000FFF7AEFDD146002520261DE009F0FF0000
:1038B000FFF778FDFFF732FD1D494868014600BF5C
:1038C00000BF4A1E1100FCD100BFFFF741FD18499F
:1038D0004868014600BF00BF4A1E1100FCD100BF6E
:1038E0004D444FEA5909761E002EDFD1E8B2FFF7AA
:1038F00059FDFFF713FD0E494868014600BF00BFA0
:103900004A1E1100FCD100BFFFF722FD084948689C
:10391000014600BF00BF4A1E1100FCD100BFFFF7E7
:103920006FFD0120FFF73EFD08F0FF00BDE8F087C6
:10393000140100200008014070B50E4800780328EB
:1039400017D10D4804680D480568601BB0F5805F0D
:103950000FD2C4F30B040A480078012807D10549A7
:10396000087008490819012101F0ACF900E000BF16
:1039700000BF70BD270000202C0000203000002078
:1039800026000020580100202DE9F0470746884610
:10399000914607F03F0404B9402407F08000002856
:1039A0002AD026E0002508261DE0FFF7C3FC2649A3
:1039B0004868014600BF00BF4A1E1100FCD100BF8D
:1039C000FFF7E4FC8246FFF7CFFC1F494868014639
:1039D00000BF00BF4A1E1100FCD100BF6D0845EAC0
:1039E000CA15761E641E0EB1002CDED1F54009F812
:1039F000015B002CD6D125E022E018F8015B0826F7
:103A00001BE0E8B2FFF7DCFCFFF794FC0E494868C6
:103A1000014600BF00BF4A1E1100FCD100BFFFF7E6
:103A2000A3FC09494868014600BF00BF4A1E1100B7
:103A3000FCD100BF6D08761E641E0EB1002CE0D1D3
:103A4000002CDAD1BDE8F0871401002070B50446DF
:103A50000D460648407820B12946204600F008F877
:103A600070BD2946204600F09BF9F9E714010020BB
:103A70002DE9F04706468A4600270120FFF7A0FC03
:103A8000FFF758FC00BF00BFFFF76EFC00BF00BF90
:103A90003546E8B2FFF794FCFFF74CFC00BF00BFCF
:103AA000FFF762FC00BF00BF2F447508E8B2FFF7C4
:103AB00087FCFFF73FFC00BF00BFFFF755FC00BFCE
:103AC00000BF2F44B508E8B2FFF77AFCFFF732FCDD
:103AD00000BF00BFFFF748FC00BF00BF2F44F50840
:103AE000E8B2FFF76DFCFFF725FC00BF00BFFFF752
:103AF0003BFC00BF00BF2F44F8B2FFF761FCFFF7AB
:103B000019FC00BF00BFFFF72FFC00BF00BF002063
:103B1000FFF756FCFFF70EFC00BF00BFFFF724FCC9
:103B200000BF00BF0120FFF74BFCFFF703FC00BF05
:103B300000BFFFF719FC00BF00BFFFF74FFC96481E
:103B4000047E08E0FFF7F6FB00BF00BFFFF70CFCA8
:103B500000BF00BF641E002CF4D1FFF7EBFB00BFD9
:103B600000BFFFF713FC0546FFF7FEFB00BF00BFD9
:103B7000A846FFF7DFFB00BF00BFFFF707FC0546C5
:103B8000FFF7F2FB00BF00BF48EA4508FFF7D2FB92
:103B900000BF00BFFFF7FAFB0546FFF7E5FB00BFDC
:103BA00000BF48EA8508B8F1010F7DD106F0020098
:103BB00000283ED0A1460027202410E0FFF7BAFBE2
:103BC00000BF00BFFFF7E2FB0546FFF7CDFB00BFDC
:103BD00000BF2F444FEA590949EAC579641E002CF9
:103BE000ECD1FFF7A7FB00BF00BFFFF7CFFB0546F7
:103BF000FFF7BAFB00BF00BF87EA050000F0010035
:103C000008B14FF00808BAF1000F01D0CAF80090CF
:103C10006148047E08E0FFF78DFB00BF00BFFFF79F
:103C2000A3FB00BF00BF641E002CF4D1FFF708FC0B
:103C300032E05948047E08E0FFF77CFB00BF00BF7C
:103C4000FFF792FB00BF00BF641E002CF4D1FFF70A
:103C5000F7FBDAF80090002720240FE009F0FF00BE
:103C6000FFF7AEFBFFF766FB00BF00BFFFF77CFB73
:103C700000BF00BF4F444FEA5909641E002CEDD12C
:103C8000F8B2FFF79DFBFFF755FB00BF00BFFFF742
:103C90006BFB00BF00BF00BF06F0800030B100BF6B
:103CA0003E4840683C4900E019E088603A48047B9F
:103CB00074B10020FFF784FB08E0FFF73BFB00BF77
:103CC00000BFFFF751FB00BF00BF641E002CF4D102
:103CD0000120FFF775FB08F0FF00BDE8F087B8F1A1
:103CE000020F02D0B8F1040F3ED12B48407E78B1CC
:103CF00006F0020060B1212408E0FFF71BFB00BFC3
:103D000000BFFFF731FB00BF00BF641E002CF4D1E1
:103D10002148047E08E0FFF70DFB00BF00BFFFF75E
:103D200023FB00BF00BF641E002CF4D1FFF788FB0B
:103D30001948407E90B106F0020078B90020FFF7E4
:103D40003FFB212408E0FFF7F5FA00BF00BFFFF7B3
:103D50000BFB00BF00BF641E002CF4D10120FFF755
:103D60002FFB08F0FF00B8E70B48007E00F12104AC
:103D700008E0FFF7DFFA00BF00BFFFF7F5FA00BF6A
:103D800000BF641E002CF4D1FFF75AFB0120FFF79F
:103D900017FB08F0FF00A0E714010020001000E06E
:103DA00003B587B0002003900120FFF709FBFFF760
:103DB000C1FAFE48406801900198009000BF00BF22
:103DC0000098401E00900028FAD100BFFFF7CCFAFF
:103DD000F648406801900198009000BF00BF00982D
:103DE000401E00900028FAD100BF07980590059862
:103DF000C0B20190FFF7E4FAFFF79CFAEB48406885
:103E000001900198009000BF00BF0098401E0090F4
:103E10000028FAD100BFFFF7A7FAE44840680190F4
:103E20000198009000BF00BF0098401E009000283D
:103E3000FAD100BF059903980844039007984008F9
:103E400005900598C0B20190FFF7BAFAFFF772FA31
:103E5000D648406801900198009000BF00BF0098CC
:103E6000401E00900028FAD100BFFFF77DFACF482E
:103E7000406801900198009000BF00BF0098401E6C
:103E800000900028FAD100BF0599039808440390D8
:103E90000798800805900598C0B20190FFF790FA46
:103EA000FFF748FAC148406801900198009000BFB0
:103EB00000BF0098401E00900028FAD100BFFFF715
:103EC00053FABA48406801900198009000BF00BFC3
:103ED0000098401E00900028FAD100BF0599039871
:103EE000084403900798C00805900598C0B2019057
:103EF000FFF766FAFFF71EFAAC4840680190019898
:103F0000009000BF00BF0098401E00900028FAD12A
:103F100000BFFFF729FAA54840680190019800907A
:103F200000BF00BF0098401E00900028FAD100BFDB
:103F300005990398084403900398C0B20190FFF7D5
:103F40003FFAFFF7F7F9994840680190019800900F
:103F500000BF00BF0098401E00900028FAD100BFAB
:103F6000FFF702FA9148406801900198009000BF65
:103F700000BF0098401E00900028FAD100BFFFF754
:103F80001FFAFFF7D7F9894840680190019800901F
:103F900000BF00BF0098401E00900028FAD100BF6B
:103FA000FFF7E2F98148406801900198009000BF56
:103FB00000BF0098401E00900028FAD100BF0120E9
:103FC000FFF7FEF9FFF7B6F97848406801900198CD
:103FD000009000BF00BF0098401E00900028FAD15A
:103FE00000BFFFF7C1F97148406801900198009047
:103FF00000BF00BF0098401E00900028FAD100BF0B
:10400000FFF7ECF96948007E029020E0FFF792F993
:104010006648406801900198009000BF00BF00987A
:10402000401E00900028FAD100BFFFF79DF95F48BD
:10403000406801900198009000BF00BF0098401EAA
:1040400000900028FAD100BF0298401E029002980A
:104050000028DBD1FFF76EF95448406801900198C1
:10406000009000BF00BF0098401E00900028FAD1C9
:1040700000BFFFF78BF90590FFF776F94B484068D2
:1040800001900198009000BF00BF0098401E009072
:104090000028FAD100BF05980690FFF74BF9434876
:1040A000406801900198009000BF00BF0098401E3A
:1040B00000900028FAD100BFFFF768F90590FFF7DC
:1040C00053F93A48406801900198009000BF00BF42
:1040D0000098401E00900028FAD100BFDDE90510CD
:1040E00040EA41000690FFF725F93048406801900A
:1040F0000198009000BF00BF0098401E009000286B
:10410000FAD100BFFFF742F90590FFF72DF92748D4
:10411000406801900198009000BF00BF0098401EC9
:1041200000900028FAD100BFDDE9051040EA8100C7
:1041300006900698012872D1079800F00200002826
:104140006ED00020049003902020029032E0FFF710
:10415000F1F81648406801900198009000BF00BF38
:104160000098401E00900028FAD100BFFFF70EF91A
:104170000590FFF7F9F80D4840680190019800900C
:1041800000BF00BF0098401E00900028FAD100BF79
:104190000599039808440390049840080490DDE9C9
:1041A000040140EAC1700490029801E0140100206B
:1041B000401E029002980028C9D1FFF7BBF8F148D1
:1041C000406801900198009000BF00BF0098401E19
:1041D00000900028FAD100BFFFF7D8F80590FFF74C
:1041E000C3F8E848406801900198009000BF00BF04
:1041F0000098401E00900028FAD100BF059903984E
:10420000484000F0010008B108200690089810B15D
:10421000089904980860DB48007E029022E0E9E0FB
:1042200026E0FFF787F8D748406801900198009092
:1042300000BF00BF0098401E00900028FAD100BFC8
:10424000FFF792F8CF48406801900198009000BFB6
:1042500000BF0098401E00900028FAD100BF0298CD
:10426000401E029002980028DBD1FFF7E9F884E0B5
:10427000C448007E029020E0FFF75CF8C148406827
:1042800001900198009000BF00BF0098401E009070
:104290000028FAD100BFFFF767F8BA4840680190DC
:1042A0000198009000BF00BF0098401E00900028B9
:1042B000FAD100BF0298401E029002980028DBD17C
:1042C000FFF7BEF8089800680490002003902020B3
:1042D00002902CE00498C0B20190FFF771F8FFF74C
:1042E00029F8A848406801900198009000BF00BFDD
:1042F0000098401E00900028FAD100BFFFF734F864
:10430000A048406801900198009000BF00BF00984D
:10431000401E00900028FAD100BFDDE903010844E7
:1043200003900498400804900298401E029002985E
:104330000028CFD10398C0B20190FFF741F8FEF7F3
:10434000F9FF9048406801900198009000BF00BFBD
:104350000098401E00900028FAD100BFFFF704F833
:104360008848406801900198009000BF00BF009805
:10437000401E00900028FAD100BF079800F080008E
:1043800020B100BF804840687E4988607D48007B3E
:104390000290029838B30020FFF712F820E0FEF7F1
:1043A000C9FF7848406801900198009000BF00BFA5
:1043B0000098401E00900028FAD100BFFEF7D4FFFD
:1043C0007048406801900198009000BF00BF0098BD
:1043D000401E00900028FAD100BF0298401E0290B3
:1043E00002980028DBD10120FEF7EAFF0698C0B250
:1043F00009B000BD0698022802D0069804287DD195
:104400006048407E50B3079800F0020030B321208E
:10441000029020E0FEF78EFF5A4840680190019814
:10442000009000BF00BF0098401E00900028FAD105
:1044300000BFFEF799FF5348406801900198009033
:1044400000BF00BF0098401E00900028FAD100BFB6
:104450000298401E029002980028DBD14948007E55
:10446000029020E0FEF766FF464840680190019800
:10447000009000BF00BF0098401E00900028FAD1B5
:1044800000BFFEF771FF3F4840680190019800901F
:1044900000BF00BF0098401E00900028FAD100BF66
:1044A0000298401E029002980028DBD1FEF7C8FF58
:1044B0003448407E78B3079800F0020058BB0020D3
:1044C000FEF77EFF2120029022E0FEF733FF2D4809
:1044D000406801900198009000BF00BF0098401E06
:1044E00000900028FAD100BFFEF73EFF2548406843
:1044F00001900198009000BF00BF00E011E000981B
:10450000401E00900028F8D100BF0298401E029083
:1045100002980028D9D10120FEF752FF0698C0B2B8
:1045200066E71848007E2130029020E0FEF702FF87
:104530001448406801900198009000BF00BF0098A7
:10454000401E00900028FAD100BFFEF70DFF0D4875
:10455000406801900198009000BF00BF0098401E85
:1045600000900028FAD100BF0298401E02900298E5
:104570000028DBD1FEF764FF0120FEF721FF06983B
:10458000C0B235E714010020001000E02DE9F04131
:1045900005460C46002600272BE017B914F8016BDE
:1045A000082706F0010028B100BF01201449086067
:1045B00000BF06E000BF01201149091D086000BFCF
:1045C00000BFFEF7B7FE0F494868014600BF00BFB5
:1045D0004A1E1100FCD100BFFEF7C6FE094948681B
:1045E000014600BF00BF4A1E1100FCD100BF760883
:1045F0007F1E2800A5F10105CFD1BDE8F0810000A4
:10460000100801401401002070B506460C463078B1
:10461000717840EA0120B17840EA0140F17840EA3F
:1046200001650E480078012804D1284600F0E8FA18
:10463000054601E0002500BF00BF15B9002008496C
:10464000087004F8015B280A04F8010B280C04F830
:10465000010B280E20704FF0041070BD26000020C2
:10466000270000202DE9F04107460E46387800F07B
:1046700001051248007800F00100A84212D00DB1E7
:10468000FBF7EAFD0E480078012804D1284600F027
:1046900029FB044601E0002400BF00BF1CB107480D
:1046A000057000E0012414B10020307001E0FF200B
:1046B00030704FF00110BDE8F081000027000020AD
:1046C000260000202DE9F04780460C46FDF71EFC31
:1046D0008246FDF7EDFB05461C48007801280CD109
:1046E00098F8000098F8011040EA01263C2E00D905
:1046F0003C26B54202D9354600E0002504F801AB5E
:1047000004F8015B280A04F8010B1048007801281E
:1047100016D10F48D0F800904F462E4608E0C7F358
:104720000B0738467F1C0B49085C04F8010B761E0A
:10473000002EF4D109EB050005490860FFF7FCF8ED
:10474000E81C40F40030BDE8F087000025000020A0
:1047500030000020580100202DE9F04780460C462B
:10476000002798F8009009F0010028B1FDF7CEFB72
:10477000064604F8016B7F1C09F0020070B1FDF7DA
:1047800097FB054604F8015B280A04F8010B280C86
:1047900004F8010B280E04F8010B3F1D47F480308C
:1047A000BDE8F0872DE9F04106460D4637781548FB
:1047B0000078012803D1002000F0E8FA00E000BFF3
:1047C00000BF17B1012F07D101E0012406E001204D
:1047D00000F0DCFA044601E0002400BF00BF14B181
:1047E0000848077002E000200649087000200649CA
:1047F00008700CB1287001E0FF2028704FF0011004
:10480000BDE8F081260000202700002070B5044696
:10481000FDF77CFB0646FDF74BFB054604F8016BF4
:1048200004F8015B280A04F8010B280C04F8010BBA
:10483000280E2070052070BD10B504460A460E48AB
:10484000007800F0010060B9237813B1012B05D185
:1048500000E000BF09480370012101E0002100BF12
:1048600000E0002111B10020107001E0FF20107065
:104870004FF0011010BD000027000020250000208F
:1048800010B500F001F810BD08B5002000903748C1
:10489000006840F480303549086000BF3348006844
:1048A00000F4003018B90098B0F5A06FF6D12F4889
:1048B000006800F4003040B92C48006820F48030D3
:1048C0002A4908600120009001E00020009028485B
:1048D000006840F01000264908600846006820F093
:1048E000030008600846006840F0020008601F48A6
:1048F00040681E494860084640684860084640686D
:1049000040F4806048600846406820F47C104860AD
:10491000009828B10846406840F4D000486005E09F
:104920001248406840F4E810104948600F48006899
:1049300040F080700D49086000BF0C48006800F02E
:1049400000700028F9D00948406820F003000749AA
:1049500048600846406840F00200486000BF0348D5
:10496000406800F00C000828F9D108BD0010024092
:10497000002002400449054A1278895C0143024A3A
:10498000024B1B78D1547047280000202A000020D9
:10499000042808D14FF0E021096941F004014FF0EB
:1049A000E022116107E04FF0E021096921F00401E4
:1049B0004FF0E0221161704700B51A480078401EA0
:1049C000184908701848007800F0020080B11648B5
:1049D000007820F00200144908701248007800F0B6
:1049E000010010B1FEF746FC0CE0FEF73BFC09E0CD
:1049F0000C48007800F0070010B9FEF73BFC01E01E
:104A0000FEF730FC0848007800F0010048B1054886
:104A1000007800F0030010B9FEF752FC01E0FEF749
:104A200047FC00BD000000200100002070B51749C0
:104A3000481EB0F1807F00D31BE0481E4FF0E022FB
:104A4000506150170F22002804DB13071C0E104B77
:104A50001C5406E013071D0E0E4B00F00F04241F1C
:104A60001D5500BF00204FF0E0229061072010612B
:104A700000BF6FF00400FFF78BFF4FF0E0200069EC
:104A800020F001004FF0E021086170BD40771B006D
:104A900000E400E018ED00E010B500210020002245
:104AA000214B5B6803F00C0121B1042906D00829D1
:104AB00028D107E01D4B1E4C236027E01B4B1C4CEC
:104AC000236023E0184B5B6803F47010164B5B689F
:104AD00003F48032022303EB904022B9154B434389
:104AE000134C23600DE0104B5B6803F4003323B1DB
:104AF000104B43430E4C236003E00C4B43430C4CE0
:104B0000236003E0094B0A4C236000BF00BF064B43
:104B10005B68C3F30313084CE15C054B1B68CB4097
:104B2000034C236010BD00000010024000127A0008
:104B30000C00002000093D001000002010B51348B3
:104B4000006840F0010011490860084640681049BB
:104B500008400E494860084600680E4908400B4965
:104B600008600846006820F4802008600846406815
:104B700020F4FE0048604FF41F008860FFF780FEBD
:104B80004FF000600449086010BD000000100240B2
:104B90000000FFF8FFFFF6FE08ED00E070B50546E7
:104BA0001248007840F002001049087005F0020039
:104BB00058B10F48006800F580600D4908600D4845
:104BC0004FF4806182690C48904705F0010060B1A4
:104BD0004FF48061094801F049FC0446002C04DDD3
:104BE0000448214642690548904770BD01000020F5
:104BF0006C000020B8830008143300201437002014
:104C0000F8B504462848844200D90446274800786D
:104C100000F00100C0B126480021826A16209047AA
:104C20002349C86A80470090C0F3400060B1204922
:104C3000486A80471F49096808441E4908601C48A3
:104C40000021826A1920904719482146826A012072
:104C5000904705461DB901201749087003E0002060
:104C600015490870F8BD1148007800F00100C8B17E
:104C70000E48007800F0020078B90E480068C0F3D2
:104C80000B0606F03F00C0F140070C4807600C49D6
:104C9000881907498A693946904705480121826A7F
:104CA000162090472046DDE740420F0027000020F5
:104CB000808300082C000020240000203800002001
:104CC0005801002070B505460C46044804600448AD
:104CD000214682692846904770BD000038000020B8
:104CE0008083000838B50546CDB11A48007808B968
:104CF000002038BD01201849086018480121826948
:104D00001748904704460CB10020F2E713480121F0
:104D1000826A162090470446D4B10020E9E70F4884
:104D20000021826A162090470C49C86A804700908B
:104D3000C0F3400060B10949486A804709490968E1
:104D400008440849086005480021826A19209047F4
:104D50000120CEE7240000203800002080830008D6
:104D6000580100202C00002038B50749C86A804748
:104D70000090C0F3400020B10349486A80470446D0
:104D800000E00024204638BD8083000870B5054649
:104D900000201449087095B113488168134888476A
:104DA00004460CB1002070BD0F48016902208847FD
:104DB0000446ACB10C49C86880470020F3E70A48B4
:104DC0000021826A1620904707480021826A192034
:104DD000904705480169002088470349C868804713
:104DE0000120E0E724000020808300081150000823
:104DF00070B504460D46034A2946204600F04EF998
:104E000070BD0000F082000808B5024800F057FDB0
:104E1000009008BDF082000808B5024800F052FD7D
:104E2000009008BDF082000810B5024800F092FD25
:104E300010BD0000F082000808B5024800F097FDA0
:104E4000009008BDF082000810B5024800F0F9FD9E
:104E500010BD0000F082000810B5024800F0FEFD11
:104E600010BD0000F082000810B50446024920463B
:104E700000F02CFF10BD0000F082000810B50446C1
:104E80000249204600F0B8FF10BD0000F082000883
:104E900070B504460D46034A2946204601F0F1F854
:104EA00070BD0000F082000870B504460D46034A4C
:104EB0002946204601F076F970BD0000F082000816
:104EC00010B504460249204601F0E7F910BD000084
:104ED000F082000870B504460D461646034B324674
:104EE0002946204601F04CFA70BD0000F08200080F
:104EF00010B5024801F079FA10BD0000F0820008F8
:104F000070B504460D46034A2946204600F0C6F80F
:104F100070BD00004883000808B5024800F0CFFCCF
:104F2000009008BD4883000808B5024800F0CAFC9C
:104F3000009008BD4883000810B5024800F00AFD43
:104F400010BD00004883000808B5024800F00FFDBE
:104F5000009008BD4883000810B5024800F071FDBC
:104F600010BD00004883000810B5024800F076FD2F
:104F700010BD00004883000810B5044602492046D1
:104F800000F0A4FE10BD00004883000810B50446E0
:104F90000249204600F030FF10BD000048830008A1
:104FA00070B504460D46034A2946204601F069F8CB
:104FB00070BD00004883000870B504460D46034AE2
:104FC0002946204601F0EEF870BD00004883000835
:104FD00010B504460249204601F05FF910BD0000FB
:104FE0004883000870B504460D461646034B32460A
:104FF0002946204601F0C4F970BD0000488300082E
:1050000010B5024801F0F1F910BD00004883000816
:105010002DE9F041054605F0020018B3184807686D
:10502000184804681848006804441648046004F0EE
:105030003F00C0F14006A4EB0708C6F5805040458C
:105040000AD3C4F30B04104806601049081910492C
:105050008A693146904702E003200E49087001201A
:105060000D49087005F0200010B18020FFF782FC88
:1050700005F4607010B14020FFF77CFCBDE8F081C2
:10508000300000202C0000203800002058010020B3
:105090008083000827000020340000202DE9FE4F07
:1050A00007460D461446206BC07A00F0020018B97E
:1050B0004FF0FF30BDE8FE8F002000908046834611
:1050C000F8B2153806287CD2DFE800F0A3DC032C08
:1050D0004E6CA5B1606B90F8210010B16FF001002B
:1050E000E8E70120616B81F82100616B81F8200005
:1050F0006068808940F081006168888110E0606BA1
:1051000090F8200060B16068808920F080006168BC
:1051100088810020616B81F82000616B81F821009B
:105120000020C7E76068808920F0C000616888813E
:10513000A06A88B1606B90F8210068B16068808ACD
:1051400020F0800061688882A16A0868016821F007
:105150000101016000BF00BF0020616B81F82000E9
:10516000616B81F82100A5E76068808920F020004C
:1051700061688881E06A80B1206B407968B16068BD
:10518000808A20F0400061688882E16A08680168CE
:1051900021F00101016000BF00BF0021206B4171BF
:1051A000002087E76068808920F0E00061688881DE
:1051B000A06A98B1606B90F8210078B16068808A2D
:1051C00000E0C2E020F0800061688882A16A08687F
:1051D000016821F00101016000BF00BFE06A80B1F9
:1051E000206B407968B16068808A20F04000616877
:1051F0008882E16A0868016821F00101016000BF4E
:1052000000BF0021206B41710020616B81F82100FB
:1052100050E7E06810B94FF0FF304BE7BDB1206BAD
:10522000C068062806D0E26891880323106802222D
:10523000FCF763FD206BC07A40F00800216BC87258
:105240006068808940F008006168888118E06068C3
:10525000808920F0080061688881206BC07A20F086
:105260000800216BC872206BC068062808D0E0686F
:1052700030B1E2689188002310681A46FCF73DFDC2
:10528000002017E7206910B94FF0FF3012E7E5B3AF
:10529000206BC06806280AD0206BC068042806D09E
:1052A00022699188002310680122FCF726FD206BFB
:1052B000C07A40F01000216BC8726068808A40F0AC
:1052C0000100616888826068008A40F0400061687F
:1052D00008826068808940F0100061688881206BD6
:1052E000407918B1E06A08B1012000E0002028B937
:1052F0006068808940F020006168888160688089EA
:1053000040F00400616888811DE0FFE760688089E3
:1053100020F0040061688881206BC07A20F01000C2
:10532000216BC872206BC06806280CD0206BC06847
:10533000042808D0206930B12269918800231068C0
:105340001A46FCF7DAFC0020B4E600BF00BF206B71
:10535000407918B9606B90F8210010B16FF001002E
:10536000A8E66068808900F0080038B160680088AD
:1053700000F0400010B96FF001009BE6F8B215286C
:1053800072D2DFE800F0C90B0E1D20252AC9C9C959
:10539000C9C9C9C9C9C9373B697EB8000120029093
:1053A000BDE02078C0F3400020B148F4006848F424
:1053B000807802E06FF006007CE602200290AEE00A
:1053C0006FF0060076E64BF0080B04200290A6E092
:1053D0004BF0020B05200290A1E02078C0F34010B2
:1053E00010B14BF0200B02E06FF0060062E60620E1
:1053F000029094E0616B4D8300205BE6206BC068F7
:10540000052824D015B36068808A40F004006168E4
:105410008882D4F808A0FE48B0FBFAFA012605E01D
:105420000AFB06F0A84200D902E0761CFF2EF7D94D
:1054300000BFB6F5807F02D14FF0FF303AE66068DA
:10544000008B20F0FF0030436168088302E04FF0DA
:10545000FF302FE600202DE6206BC06806280BD118
:10546000FF2D02D9C01F25E656E06068008BC0B250
:1054700028436168088302E04FF0FF301AE60020FD
:1054800018E6206BC068062830D1D4F808A0E048A0
:10549000B0FBFAFA012619E00AFB06F0400064218D
:1054A000484305EB051101EB4101B0EB410F0CD274
:1054B0000AFB06F040006421484305EB051101EBAF
:1054C0004511B0EB410F00D902E0761C402EE3D32A
:1054D00000BF402E02D14FF0FF30EBE56068008B3B
:1054E00020F0FF0030436168088302E04FF0FF3096
:1054F000E0E50020DEE5206BC068062807D14DB14D
:105500006068808A40F010006168888202E04FF095
:10551000FF30CFE50020CDE56FF00300CAE500BF06
:1055200007F4E06060B1B0F5807F13D0B0F5E06FB4
:105530001DD107F4405010B96FF00800BAE519E02A
:1055400007F4405028B148F02008009840F48050FB
:1055500000900FE007F4405010B16FF00800A9E58B
:1055600048F02008009840F48050009002E06FF06E
:1055700008009FE500BF07F4405030B1B0F5805FF0
:1055800004D0B0F5005F0BD105E00CE0009840F4CA
:105590008060009007E0009840F4C060009002E056
:1055A0006FF0090086E500BF07F4404048B1B0F550
:1055B000804F07D0B0F5004F07D0B0F5404F0AD16B
:1055C00006E00BE048F4005808E048F4405805E0D5
:1055D00048F4805802E06FF00A006BE500BF07F462
:1055E000403048B1B0F5803F09D0B0F5003F13D04E
:1055F000B0F5403F2ED11CE04FF000092DE020789F
:10560000C0F3C01020B14FF480394BF4807B02E02E
:105610006FF00B004EE520E02088C0F3002020B1A1
:105620004FF400394BF4C06B02E06FF00B0041E522
:1056300013E02078C0F3C01040B12088C0F30020F0
:1056400020B14FF440394BF4E06B02E06FF00B00F7
:1056500030E502E06FF00B002CE500BF0298022855
:105660001DD107F4802018B1B0F5802F04D100E0DF
:1056700005E048F4806802E06FF00C001AE500BF16
:1056800007F4002018B1B0F5002F04D100E005E0C8
:1056900048F4007802E06FF00D000BE500BFA06851
:1056A00000EBC00101EB0010A900B0FBF1F0642198
:1056B000B0FBF1F1A06800EBC00202EB0010AA0001
:1056C000B0FBF2F0A26802EBC20303EB0212AB00E4
:1056D000B2FBF3F26423B2FBF3F202EBC20303EB7F
:1056E0000212A0EB8200322202EB00106422B0FB17
:1056F000F2FA61F31F1AA06800011FFA8AF1B0FBE9
:10570000F1F00009019064210198484305EB05116F
:1057100001EB4101B0EB410F09D2642101984843EC
:1057200005EB051101EB4511B0EB410F02D86FF00D
:105730000700BFE46068808920F4005061688881B8
:105740006168A1F808A00298216BC860206BC0F8BE
:105750001090206BC068062809D1E06830B1E2687B
:105760009188032310680222FCF7C7FA18E0206B27
:10577000C07A00F0080048B1E06880B1E268918822
:10578000032310680222FCF7B8FA08E0E06830B1A1
:10579000E2689188002310681A46FCF7AEFA00BF51
:1057A00000BF206BC068042802D006280BD100E09F
:1057B00000BF206930B122699188002310681A4621
:1057C000FCF79BFA18E0206BC07A00F0100048B19B
:1057D000206980B122699188002310680122FCF7BA
:1057E0008CFA08E0206930B12269918800231068A2
:1057F0001A46FCF782FA00BF00BF6069D0B1206B87
:10580000C068022802D006280BD100BF626901E0FF
:1058100000CA9A3B9188032310680222FCF76DFAB4
:1058200007E062699188002310681A46FCF765FA60
:1058300000BF00BFA069A0B1B9F5803F02D0B9F5A3
:10584000403F07D1A2699188032310680222FCF728
:1058500054FA06E0A2699188002310681A46FCF702
:105860004CFAE069A0B1B9F5003F02D0B9F5403F6C
:1058700007D1E2699188002310680122FCF73DFA04
:1058800006E0E2699188002310680122FCF735FAEE
:105890000098616888816168A1F810806168A1F84A
:1058A00014B06068808940F4005061688881206B82
:1058B000C07A40F00400216BC872002010E4014659
:1058C000086870470CB50146019820F0010001906E
:1058D000086B006920B1086B0069B0F5803F0ED1FC
:1058E000C86960B1CB6998881A689368C34003F0AF
:1058F000010323B9019820F00100401C0190019898
:1059000020F002000190019820F008000190019819
:1059100020F0040001900198009A60F300020092C8
:1059200001984208009862F34100009001988208B3
:10593000009862F3820000900198C208009862F318
:10594000C300009001980209009862F31F100090B4
:1059500000980CBD0146C86A30B1CA6A1068426836
:10596000486B0068801A7047486B0069FBE70CB50C
:105970000146486B90F8210028B1019820F0010001
:10598000401C019008E048680088012222EA901239
:10599000019862F300000190086B4279019862F36C
:1059A00041000190086B8279019862F382000190B6
:1059B000086BC279019862F3C3000190086B027A08
:1059C000019862F304100190086B427A019862F327
:1059D00045100190086B827A019862F3861001905D
:1059E0000198009A60F30002009201984208009822
:1059F00062F34100009001988208009862F38200EF
:105A000000900198C208009862F3C30000900198CA
:105A10000209009862F3041000900198420900986E
:105A200062F34510009001988209009862F3861095
:105A300000900198C209009862F3DF10009000986E
:105A40000CBD0146886A30B18A6A10684268486BAA
:105A50004068801A7047486B4069FBE72DE9F041C8
:105A600004466068068800270025A84606F0200046
:105A7000616889890840002860D0206B407938B976
:105A8000606880880121206BC17145F0200555E0D8
:105A9000206BC068022806D1606BC069012802D162
:105AA0006068808802E06068B0F80480606B82689B
:105AB000501C636B986082F800806068878907F4E7
:105AC000806050B907F4805038B14FEA2821606BEC
:105AD0008268501C636B98601170606B0069401C99
:105AE000616B0861606B0069616B0968884225D150
:105AF0006068808920F01000616888810021206B37
:105B00004171206BC068022816D1606BC769002004
:105B1000616BC861012F04D0022F05D0032F09D17A
:105B200005E045F0010506E045F0020503E045F01B
:105B3000040500E000BF01E045F0020506F010009A
:105B400061688989084018B16068808845F040051F
:105B500006F08000616889890840002863D0606B86
:105B600090F8200030B16068808940F001006168E1
:105B7000888158E0606B4068616B4969884222D037
:105B8000206BC068022807D1606BC069022803D16E
:105B9000606BB0F81A8016E0606BC168481C626BDD
:105BA000D06091F800806068878907F4806050B900
:105BB00007F4805038B1606BC168481C626BD060DC
:105BC000087848EA0028606B4069401C616B4861B6
:105BD0006068A0F80480606B4068616B4969884226
:105BE00021D16068808920F08000616888816068C8
:105BF000808940F04000616888810020616B81F8F5
:105C00002100206BC06802280BD1606BC06901289D
:105C100009D1206BC07A00F0100020B945F00105D1
:105C200001E045F0010506F04000616889890840FF
:105C300038B16068808920F040006168888145F053
:105C4000080506F0080030B1606880880121206BEB
:105C5000C17145F0200506F0020030B1606880880F
:105C60000121206B417245F4807506F0010030B1CE
:105C7000606880880121206B817245F4007506F40C
:105C8000807050B16068008820F48070616808807E
:105C90000121206B017245F0800506F4007038B1D7
:105CA0006068008820F400706168088045F48065B1
:105CB00025B1206B006808B1012000E0002018B178
:105CC000206B016828468847BDE8F08170B505461D
:105CD0000C46206BC07A00F0010008B1002070BDB6
:105CE000206B05600020216B08710021206B417141
:105CF000206B8171206BC171206B0172206B41722E
:105D0000206B81720020216BC860616B81F82100DB
:105D10002421606BFAF71FFA608CFBF7C9FEE0687C
:105D200020B1E16808680121FCF724F8206920B15E
:105D3000216908680121FCF71DF8606920B16169DB
:105D400008680121FCF716F8A06920B1A16908686C
:105D50000121FCF70FF8E06920B1E1690868012131
:105D6000FCF708F80120216BC8720020B7E700009B
:105D70001D49884205D11D49C96841F480411B4A2B
:105D8000D1601B49884205D11849096941F40031A5
:105D9000164A11611749884205D11449096941F42D
:105DA0008021124A116100BF00BF00BF00BF0E4931
:105DB000884205D10D49C96821F480410B4AD16060
:105DC0000B49884205D10949096921F40031074A84
:105DD00011610849884205D10449096921F48021EB
:105DE000024A116170470000003801400010024073
:105DF000004400400048004070B505460C4625B1FF
:105E0000012D69D0022D72D169E06068FFF7B0FF03
:105E100094F92400002817DB00F01F0201219140B3
:105E2000714A430942F8231000BF00BF00BFBFF30F
:105E30004F8F00BF00BF00BF00BF00BF00BFBFF358
:105E40006F8F00BF00BF00BF00BFE06A20B1E26AF1
:105E500051791079FBF7ECFCA06A20B1A26A517964
:105E60001079FBF7E5FC61496068884205D160481C
:105E7000806920F480405E4988615E49606888429C
:105E800005D15B48C06920F400305949C8615A49BE
:105E90006068884205D15648C06920F48020544982
:105EA000C8610020216B08710021206B4171206BBB
:105EB0008171206BC171206B0172206B4172206B6C
:105EC00081720020616B81F82100206BC07A20F084
:105ED0000200216BC87283E06FF0030070BD206B7D
:105EE000C07A00F0010018B94FF0FF30F6E774E017
:105EF000206BC07A00F0020008B10020EEE700201D
:105F0000216B08710021206B4171206B8171206B26
:105F1000C171206B0172206B4172206B8172002075
:105F2000616B81F82100616B4883616BC861616BB3
:105F300081F82000216BC860216B08610320216B70
:105F4000C8722A496068884205D12948806940F4AE
:105F500080402749886127496068884205D12448E4
:105F6000C06940F400302249C86123496068884212
:105F700005D11F48C06940F480201D49C86194F9CB
:105F80002400002807DB00F01F02012191401B4A7A
:105F9000430942F8231000BF94F92400002809DBCC
:105FA00000F01F02012191404209920002F1E0221B
:105FB000C2F8001100BFE06A20B1E26A517910799D
:105FC000FBF7B6FBA06A20B1A26A51791079FBF702
:105FD000AFFB6068FFF7CCFE02E06FF003007DE7E7
:105FE00000BF00207AE7000080E100E000380140B7
:105FF00000100240004400400048004080E200E001
:1060000070B50446E16A0868416819B1606B0068C0
:1060100000B170BD6068808920F0100061688881DF
:106020000025206BC068022813D1606BC669002070
:10603000616BC861012E04D0022E04D0032E06D15C
:1060400003E0012504E0022502E0042500E000BF92
:1060500000E00225606B0068616B08610021206B25
:1060600041716068808940F0200061688881206B00
:10607000006820B11DB1206B01682846884700BF29
:10608000C7E72DE9F04706460F46144606B11FB98B
:106090006FF00400BDE8F087206BC07A00F00400C8
:1060A00010B94FF0FF30F5E7206B4079012801D19E
:1060B000C01EEFE76068808920F020006168888159
:1060C000606B07600021206B0172206B4172206BB6
:1060D000C171206B8172606B86600020616B08610A
:1060E0000121206B41718025206BC068022804D1FA
:1060F000606BC069012800D10025E06A88B3E06ABE
:1061000080794FF4405101EA0030801C05436068FB
:10611000B0F80C9009F4805028B109F4806010B9EF
:1061200045F4A06500E000BFE26A10686268111DD6
:1061300005608160C660476000BFE16A0868016869
:1061400041F00101016000BF6068808A40F04000BA
:10615000616888826068808940F010006168888189
:1061600006E0FFE76068808940F030006168888160
:10617000206BC068022813D1606BC06980B902200F
:10618000616BC861616B01F11A002246394600F06B
:1061900009F8804608F1020010B96FF0010079E7B4
:1061A000002077E72DE9F04706460F46144606B172
:1061B0001FB96FF00400BDE8F087206BC07A00F0D3
:1061C000040010B94FF0FF30F5E7606B90F8210044
:1061D00010B16FF00100EEE70120616B81F8210042
:1061E000606BC660606B47600020616B4861802512
:1061F000206BC068022818D1606BC06980B901208B
:10620000616BC861616B01F1180022463946FFF7E6
:1062100038FF804608F1020038B96FF00100CAE784
:10622000606BC069022800D10025A06A68B3A06A2B
:1062300080794FF4405101EA003040F01000801C9A
:1062400005436068B0F80C9009F4805028B109F457
:10625000806010B945F4A06500E000BFA26A106834
:106260006268111D05608160C660476000BFA16A59
:106270000868016841F00101016000BF6068808A20
:1062800040F080006168888205E06068808940F0A5
:1062900080006168888100208DE770B5044634B1C4
:1062A000012C22D0022C3FD0032C3CD13DE0086BC6
:1062B000006920B1086B0069B0F5003F11D1886911
:1062C00090B18D69AA88012328681BB101259540EA
:1062D000056104E002F110050126AE40066100BF31
:1062E00002E04FF0FF3070BD22E0086B006920B182
:1062F000086B0069B0F5003F11D1886990B18D69D4
:10630000AA88002328681BB101259540056104E097
:1063100002F110050126AE40066100BF02E04FF019
:10632000FF30E0E704E000BF00BF4FF0FF30DAE7E6
:1063300000BF0020D7E710B50446A16A086841688D
:1063400019B1606B406800B110BD606B4068616B53
:1063500048610020616B81F821006068808940F00D
:10636000400061688881206BC068022806D0206BDD
:10637000006818B1206B01680120884700BFE3E77F
:106380002DE9F04180460E4617461C46B8F1000F35
:1063900001D006B11FB96FF00400BDE8F081206B99
:1063A000C07A00F0040010B94FF0FF30F5E7206B21
:1063B000C068022814D10320616BC86122463946A7
:1063C0003046FFF75EFE05460DB12846E5E722465A
:1063D00039464046FFF7E6FE054625B12846DCE78C
:1063E0004FF0FF30D9E70020D7E710B50446E0684A
:1063F00030B1E2689188002310681A46FBF77DFCF3
:10640000206930B122699188002310681A46FBF791
:1064100074FC606930B162699188002310681A4683
:10642000FBF76BFCA06930B1A2699188002310686A
:106430001A46FBF762FCE06930B1E26991880023FB
:1064400010681A46FBF759FC208CFBF731FB002043
:10645000216BC87210BD000008B5024800680090AA
:1064600008BD0000D48200080020704770B50B4DB5
:106470000C460346D5E90C0188420BD9401A8442E8
:1064800000DD044622461846F9F74CFE686B2044AE
:10649000686300E00024204670BD0000A4000020D6
:1064A00038B505460A49C86A8047009000F00100E7
:1064B00060B94FF480610748FFF7D8FF0446002C0D
:1064C00004DD0348214642690248904738BD000078
:1064D000B8830008143700202DE9F041194C0D460F
:1064E0000746D4E90401401A17490A88101A0028FF
:1064F00002DC0020BDE8F081854200DD0546D4E9DC
:1065000006020026904210D3104A0988431911440C
:106510008B420AD30E1A904632463946F9F702FEEC
:106520003744AD1B4046C4F8188035B12A46394679
:10653000F9F7F8FDA0692844A0612169A819014470
:106540002161D7E7A4000020108400088A120020EF
:1065500010B5054C6068002805D10120606000F08E
:1065600005F80020606010BDA40000202DE9F04770
:10657000224CA06800283BD0D4E90401421AE0680C
:106580004FF00006104335D01D481E4FDFF87880CD
:106590000088DFF878903D182046C1696AB1A0698B
:1065A000814203D38818A84200D36A1A99F80030B0
:1065B00038F81300904200DA02461548E660007889
:1065C00040F0800001F0E4FAE1690144E1616269B0
:1065D0008D420244626100D1E761216991420BD191
:1065E00099F8002038F81210814205D10120E060AE
:1065F000BDE8F087A660FBE7E660F9E7A4000020AD
:10660000108400088A120020188400087F000020EF
:106610000D84000810B50B4C206A18B1A06A401C0C
:10662000A06210BD01202062606200F00DF8002021
:1066300060622062D4E90C018842F2D0401AFFF770
:106640002FFF10BDA400002010B5134C144A1348AE
:10665000216B1288144B081A101A124A1B7832F850
:10666000132090420EDB1148007800F0F1FE216B00
:1066700008442063A06A00280CD0616A002909D16F
:10668000401E06E00120E062606A002802D0A06A95
:10669000401CA06210BD0000A4000020CA1200200F
:1066A00012840008188400087F0000200E8400086F
:1066B00010B50446400702D52046FFF7ABFF200780
:1066C00004D52046BDE81040FFF742BF10BD70471B
:1066D000002070470020704710B50B4800F01CF8F0
:1066E000002810D0084A0948116801700B0A43704D
:1066F0000B0C8370090EC1701179017151794171D0
:1067000091798171012010BDDC000020C8110020AA
:1067100010B500F00DF810BD0146044802680A608B
:1067200082888A80807988710120704774000020F7
:1067300010B505488168054888470348016902206B
:106740008847012010BD0000B88300089D4B000859
:1067500010B506480021826A18209047034800219E
:10676000826A19209047012010BD0000B8830008FC
:1067700001460120704700002DE9F0410446002643
:106780000027B0463D480021826A182090473B48C8
:106790000021826A1920904738480021826A15201A
:1067A000904736480021826A16209047207920B110
:1067B000012805D0022809D105E04FF0000805E0C6
:1067C0004FF4004802E04FF4804800BF00BF6079FA
:1067D00020B1012804D0022808D104E0002708E0F5
:1067E0004FF4005705E04FF4805702E00020BDE869
:1067F000F08100BFA079052806D0062807D0072819
:1068000008D008280BD108E04FF4A06609E04FF447
:10681000C06606E04FF4E06603E0002601E00020D9
:10682000E5E700BF216846F001033B4343EA080067
:10683000124B9A6A904705460DB10020D7E71048E1
:1068400021680160A1888180A179817100200D49B2
:1068500008600D49086009480121826A15209047A7
:1068600006480121826A1620904704484FF480614F
:106870008269064890470120B9E70000B883000804
:10688000740000206C0000207000002014330020F1
:1068900010B510480024104944608460C46004614D
:1068A000C0E90541C0E9071444620C498462C0E9AB
:1068B0000B4141630480FFF74BFF06484FF416512C
:1068C000383001600471447108218171FFF754FF71
:1068D00010BD0000A40000208A120020CA1200206F
:1068E00010B5FFF7D5FF10BD70B5174C0025012678
:1068F000206A50B9D4E90C10814206D11348814274
:1069000003D02063E56225626063A06A70B1206AEB
:1069100060B9E06A50B92662FFF796FE2562D4E9B5
:106920000C01884202D0401AFFF7BAFDD4E90101F8
:10693000084308D1D4E90401884204D06660A66007
:10694000FFF714FE656070BDA4000020CA1200208D
:10695000002070470020704700207047024910B5A2
:106960000880FFF705FF10BDA4000020084810B5FF
:10697000C178026861F31F6206490A6002790A71F0
:1069800042794A71807988710846FFF7F5FE10BD9B
:10699000C8110020DC00002010B504462046FAF79C
:1069A000B7FF43F230012046FAF7D2FF10BD0000D6
:1069B00010B50246937803F00F019088937803F0A6
:1069C000800353B1294B1B88294C246804EB011424
:1069D0002360431C23F0010020E0244B1B88244C3F
:1069E000246804EB0114A3603E280ED900F11F03B4
:1069F00023F01F000123C3EB401343F400431C4C5E
:106A0000246804EB0114E36008E0431C23F0010058
:106A10004302174C246804EB0114E360134B1B88FA
:106A20000344124C2380D37803F0030333B1012BCA
:106A300007D0022B08D0032B0FD10BE04FF40070CE
:106A40000BE04FF4806008E0002000230BB140F41D
:106A5000807002E04FF4C06000BF00BF0843054CE7
:106A600004EB8103C3F8000C10BD000050000020AF
:106A70004C0000200050004030B94021034A1180F2
:106A800011460988803111807047000050000020B5
:106A900000F086BA70B101210A4A1160002111602C
:106AA000121D11604FF4E051121F11609115064A3A
:106AB000116006E00321034A11609115024A121D7C
:106AC00011607047405C00401008014010B50B4C4D
:106AD0000B48A28801788A4200D9CAB21AB907497C
:106AE0000020183908718020216801F051F82168D0
:106AF00001442160A188081AA08010BD94000020E4
:106B0000F583000810B5064C0020216800F0A0FCB9
:106B1000216801442160A188081AA08010BD0000EE
:106B200094000020704710B5044600212046FAF773
:106B30000FFF10BD10B5044643F220012046FAF7BE
:106B400007FF10BD2DE9F047DFF844820646A8F1A3
:106B5000080580074FF0000AA5F1180424D500F0BD
:106B6000EBFF98F800004746C009FFF7DBFFF88805
:106B7000A8803978C1F3411010B1012877D17DE0A8
:106B800098F80120834FDFF810920C2A6FD2DFE8CB
:106B900002F0060C951C952B3B953F45526100F089
:106BA00063FD33E0FFF792FF96E0002000F09AFDCE
:106BB00000285CD000F0C6FF386820B16169002968
:106BC00021D0082050E0484653E0012000F08AFD23
:106BD000002873D000F0B6FF38680028F3D0616950
:106BE000002979D004203FE011F01F0F66D198F8FA
:106BF0000200012140F08000207000F07F0000F0D2
:106C000089FF00F09FFF67E000F054FC78B3C9E70C
:106C100011F01F0F52D15E481F3819E000F0B2FD8D
:106C200028B300F08FFF386818B1616929B30120DB
:106C30001AE05A481DE001F01F0101293ED1617898
:106C4000A9B198F80400A178884237D25449084481
:106C50002860A7E700F05EFE48B100F073FF3868D7
:106C600030B1616949B1022001F0A4FA34E025E0B5
:106C70004C48016809B1084680472DE011F01F001B
:106C800004D0012805D0022818D111E000F02AF91B
:106C900013E000F02DF9F8B900F080F9E0B900F048
:106CA000CFF8C8B900F0CEF8B0B900F01FF904E091
:106CB00000F0C4F880B900F017F968B998F800102E
:106CC000090604D4B8F8060008B1002000E08020CE
:106CD00000F02AFFA5F804A0700735D598F8000049
:106CE000474600062ED4A88858B3FFF70BFFA888A4
:106CF00038BB3878C0F34111F1B101291CD110F033
:106D00001F0004D0012805D0022815D10EE000F0A4
:106D100077F810E000F07AF898B900F047F880B9F9
:106D200000F046F868B900F06FF804E000F03CF8B5
:106D300038B900F067F820B9802000F0F5FEA5F81A
:106D400004A001E000F004FF300713D598F800001C
:106D5000000606D5A888217908430BD0FFF7B6FEB8
:106D600008E02078010605D500F07F0020700021A2
:106D700000F0D0FE700602D50020FFF70DFE3006B1
:106D800004D5BDE8F0478020FFF706BEBDE8F087D8
:106D90009C00002084840008808400087884000817
:106DA0003E0000207C8400080020704700207047CF
:106DB00010B51048104A01791278914203D00F4A59
:106DC0001278914214D1417821B1022905D02029AD
:106DD0000ED10AE0FFF7BEFD02E04088FFF7BCFDE0
:106DE00030B100F0AFFE012010BDFFF7BFFDF7E7A7
:106DF000002010BD9C0000200A8400080B840008BD
:106E000000207047002070470020704710B50948E7
:106E1000094A01791278914209D14078092806D1AE
:106E200000F0D8FA18B100F08DFE012010BD00204E
:106E300010BD00009C000020F68300080020704771
:106E40000020704770B52249224A08791278904292
:106E500003D0214A1278904238D11D4849781F4CFE
:106E60001F4D408804291FD007DC79B101290FD0BC
:106E700002290BD0032929D111E0202906D021298C
:106E80001AD022291BD0232920D11BE02C6011E02D
:106E9000FFF720FC05E02C60FFF718FE0AE0FFF783
:106EA00017FC0028F7D111E0FFF7DEFA0CE000BF75
:106EB00000F048FE012070BDFFF70EFCF1E7FFF780
:106EC0004DFD01E0FFF744FD0028F1D1002070BD29
:106ED0009C0000200A8400080B840008C8110020D0
:106EE0009400002000207047002070470020704769
:106EF0002DE9F041224C23492079097888423DD17F
:106F00006078214D214E224F0C2837D2DFE800F067
:106F10003606212D363636363616243200F070F914
:106F200060B3E078012802D0032803D003E01948B9
:106F3000286000E02E60FFF7C9FD13E0E07802282A
:106F400002D0032803D00DE0134828600AE02E6029
:106F500008E000F03DF90AE000F014FA0CE000BF90
:106F600000F0F0FD0120BDE8F08100F03FF928B10C
:106F70002F60E0E700F024FA0028F1D10020F2E7CA
:106F80009C000020F68300089400002048000020A8
:106F9000C8110020091200204A120020002070476A
:106FA000084800214170C160016141618161C16196
:106FB00041808180016241628162C180C162018140
:106FC00070470000E40000202DE9F05FDFF8408109
:106FD000DFF840A1DFF840B10127504C08F101096A
:106FE0000025A561606910B1A761BDE8F09F6761E8
:106FF000A088618888421AD3206AC0B9E561A5805B
:10700000012398F8001008F10102184600F056FF1D
:107010000004000C60800CD04149C4F81C80097841
:10702000012902D8C4F81C903BE0401C60806088B5
:10703000B8BBE068A8BB216999B3394842460078DB
:1070400001280FD81570A5800223521C00210120B1
:1070500000F034FF0004000C608001D0C4F81C90E4
:1070600025611EE01678202E00D3002607FA06F0D0
:10707000084240D0701CC1B21170A580022308F1F3
:107080000102012000F01AFF0104090C618003D005
:10709000491CC4F81C806180216907FA06F081430D
:1070A00021616088216A01432AD0A188401A9BF897
:1070B000001086B23AF81100B04200D2064667626C
:1070C00018483246E169007840F0800000F060FD29
:1070D000E06915493044E061A088304480B2A08066
:1070E000098888420AD29BF800103AF81100B04291
:1070F00004D1276205E0761CF6B2B4E7256200E011
:1071000065626561A06900287FF46BAF6DE70000E0
:1071100008120020FE8300087F000020E400002009
:1071200002840008F783000804840008F8B5194CAD
:10713000194D0026E08800B9A5621848A16A0078B8
:1071400000F086F90004A16A000C0144A162E18804
:1071500001448BB2E3800AD0114909888B4206D2E0
:10716000114A1049127831F81210814210D90F4893
:10717000017801200129009003D80021064A02204D
:1071800003E029786A1C02205B1E00F0B5FFE68050
:10719000F8BD0000E400002049120020F883000838
:1071A00006840008FE8300087F0000200384000896
:1071B00010B50446000702D52046FFF705FF60071B
:1071C00004D52046BDE81040FFF7B0BF10BD000059
:1071D000034804498078085C03490870012070471F
:1071E0009C00002046000020C811002010B500F0CF
:1071F00063FE02490870012010BD0000C811002084
:107200000B4910B5C8780022012804D0022804D008
:10721000032806D103E0074A02E0002010BD064A19
:10722000521C8978002300F049FE012010BD0000A7
:107230009C00002008120020470000202DE9F05F8C
:107240004648007800287DD0454800273D46017813
:107250004A1C0270434A1478042204EB440A02FADE
:107260000AF2521E914201DB057001273E490023BC
:107270000A88FF2A01D2521C0A803C4A8E4609889D
:1072800032F81490894500D101238346002100691A
:107290009BF8006043E000BF4FF0000C6FB1344A30
:1072A000545CFF2C01D2641C5454324C645C24B1F5
:1072B000525CA24201D34FF0010C2E4A4FF002085B
:1072C00008FA0AF8525C02FA08F44C4502DA0AB1EC
:1072D000012400E0002433B12CB14FF0010808FA7A
:1072E00001F848EA0000DFF8908018F80180424574
:1072F0000AD01F4A525C424503D301228A40104300
:1073000000261C4A02F80180BCF1000F05D014B918
:1073100001228A401043164A5554491CC9B2174AE3
:1073200012789142B8D3CBF8100059468BF8006020
:107330000BB1AEF8005008B1CA6852B1104A1378C8
:10734000012200E003E09A409043CBF81000BDE832
:10735000F09FBDE8F05F0020FFF736BE7D00002003
:10736000E40000207F00002042000020FA83000893
:107370004400002045000020460000200284000850
:107380000812002010B50A4809498078C97810B160
:10739000084A815409E00020074B084A02E01954CA
:1073A000401CC0B21478A042F9D3012010BD0000E7
:1073B0009C000020450000204600002002840008B8
:1073C000034810B5807800F095FE012010BD000044
:1073D0009C0000200C4908B5C8780022012804D080
:1073E000022804D0032806D103E0002008BD074A84
:1073F00000E0074A521C00230093CB88897800F0F4
:107400007BFE012008BD00009C00002049120020E6
:107410004700002010B50548C06940F4000003494A
:10742000C86100F005F8FCF7B7F810BD0010024085
:107430001420002809DB00F01F02012191404209BD
:10744000920002F1E022C2F8001100BF70477047BD
:107450002DE9F04305460C4605F00F06124800687A
:1074600000EB061080681149022202FB00190E4849
:10747000006800EB06108089C0F309074FF0000890
:1074800005E039F8041B2180A41C08F10108781CD0
:10749000B8EB500FF5D34FF440512846FAF758FA9D
:1074A0003846BDE8F08300004C000020006000403A
:1074B000704700007CB54048A0F120050178A0F19C
:1074C000080411F01F0102D0012973D15CE0C378D8
:1074D000394839492038394AC0788978082B69D227
:1074E000DFE803F06804123F6868082C3448206025
:1074F000122047E0117800295CD018B13148206093
:107500000A203FE03048FAE712780AB9012851D042
:1075100018B12E480090002008E02D48FAE7009AA4
:10752000137813B153881A440092401C8142F6D15B
:1075300000980178E9B32060408823E01278C2B354
:1075400018B124480090002008E02348FAE7009A88
:10755000137813B153881A440092401C8142F6D12B
:10756000E6E71E480090002005E0009B1A780AB16B
:107570001A440092401C8142F7D100980178C1B1B1
:1075800020600078019005E001A9684600F02AF823
:1075900000280DD0A1880198814208D9104980B2F5
:1075A000A0800978491E084201D1012028710120DC
:1075B0007CBDFFE70020FBE79C000020F183000872
:1075C000AE840008C1840008C08400082E8500082D
:1075D000C2840008308500082F8500083285000825
:1075E000F583000830B5164A164C174BD57812793A
:1075F000212D02D0222D20D115E02478A2421CD1C9
:10760000124A1478124A12780CB9012A15D042B1E4
:10761000104A02601046104A12881044186009206F
:1076200008E00E4AF5E72078824206D10C4818603F
:107630000C4800880860012030BD002030BD0000EB
:107640009C000020F683000894000020F1830008CD
:107650007F0000202E850008AC840008C28400084A
:1076600088840008AA84000870B51C481B4D007867
:10767000A5F1080510F01F040AD01848A5F118015B
:10768000174B4A780079012C06D0022C24D109E04E
:1076900012481A3828601DE0F2B1897888421BD25E
:1076A000002015E000F08F04200605D504F00F0639
:1076B0004FF48030B04001E00120A0400AB9220719
:1076C0000AD18A68024207D0C9680142E8D0012085
:1076D00018802B60012070BD002070BD9C00002030
:1076E000C811002070B5264A0146A2F12004107886
:1076F00010F01F031046408804D0012B28D0022B25
:1077000026D110E0012823D129B100F03FFAE0880A
:1077100040F0020005E0002000F038FAE08820F098
:107720000200E08029E0127902F08F06320605D5CA
:1077300006F00F024FF48035954001E00125B54079
:1077400062782AB1320703D0A2682A4200D008B179
:10775000002070BD29B1304600F0E6F9E06828430A
:107760000AE02069284208D13046FFF715F9304673
:10777000FFF79EFEE068A843E060012070BD0000B6
:107780009C0000202DE9F84F5C4F002000903878D5
:1077900010F01F0F6FD1B8784FF000094FF0010BB8
:1077A0004FF4803AA7F1200600287AD05448017897
:1077B0003046C07809B901285DD008B1514C6BE062
:1077C000514C69E06078022804D0042844D0052890
:1077D00060D144E06179B87881423BD17070207902
:1077E000B0700020494A4A4903E000BF02F8009007
:1077F000401C0B889842F9D30125B0460BFA05F0DE
:10780000D8F80810084202D02846FFF78CF9D8F8BB
:1078100008100AFA05F0084203D045F08000FFF78F
:1078200082F96D1C102DE9D34FF00110C8E902094F
:107830000120C8F81090FFF71FF9E0794006B8F86A
:10784000060002D540F0010001E020F00100A8F898
:1078500006001FE060881EE0E07800901AE00098C3
:10786000C0B9A07800F08F05280605D505F00F01F6
:107870000AFA01F002E03CE00BFA05F0B1680143BE
:107880002046B160FFF794F82846FFF753F92846E1
:1078900000F030F9207804442078002892D124E0C8
:1078A000FFE7C84686F8019001245D464FEA0A09C1
:1078B000B16805FA04F0084202D02046FFF733F918
:1078C000B16809FA04F0084203D044F08000FFF7E1
:1078D0002AF9641C102CEBD34FF00110C6E9020802
:1078E0000020C6F81080FFF7C7F8B8787178884292
:1078F00002D00020BDE8F88F0120FBE79C000020AB
:10790000F18300082E850008C28400083E00002094
:10791000F28300082DE9FC5F444E00273D46307895
:10792000BB4600F01F00B84601287DD1A6F120011A
:107930004878002875D03E48BA4602780846C07894
:107940000AB9012870D0894608B13A4C65E03A4C32
:1079500063E06078022804D0042809D005285AD1B1
:1079600017E0617999F80100814254D0608853E0B2
:10797000A7783079E5784FF00008B8424BD1B0785D
:10798000A84248D12D484FF0010A10F807B0C5555C
:1079900041E03079B8423ED1A07800F08F000190EC
:1079A000000605D5019800F00F014FF4803001E08A
:1079B0000199012088400090B078A84217D1D9F8E9
:1079C0000810009A20461143C9F80810D9F80C1085
:1079D0009143C9F80C10FEF7EBFF0198FFF7AAF8E6
:1079E000019800F087F8009948EA010813E05D4526
:1079F00011D1009918EA010F0DD1D9F80810009A99
:107A00009143C9F80810D9F80C109143C9F80C102B
:107A10000198FFF788F8207804442078002898D14E
:107A20005046BDE8FC9FFFE70020FAE79C000020DD
:107A3000F18300082E850008C28400083E00002063
:107A40000020274908602748006808B1481400E072
:107A5000002040F41C402349096811B14FF48041D3
:107A600000E0002108432049096811B14FF400717A
:107A700000E0002108431C49096811B14FF48071EE
:107A800000E0002108431649091F086040201749FB
:107A90000880002012490C310860144800881449FD
:107AA000096808601148008840301049088008467D
:107AB00000880F49096888600C48008840300B49ED
:107AC000088048F2FF700A490968C8604FF44850BE
:107AD0000349443908608020014908310860704733
:107AE000445C0040348400083084000850000020CA
:107AF0004C00002010B504462046F9F709FF10BDE0
:107B0000FEF7EEBE10B5FFF799FBBDE81040FEF79B
:107B1000EBBE000001B1704740F08002014B1A60DB
:107B200000BFF8E74C5C004010B5044641F210017C
:107B30002046F9F70DFF10BD01490020FFF788BC72
:107B40009C00002000221146802000F021B8000097
:107B500001490020FFF77CBCC811002005480068DF
:107B600040F00800034908600846006840F004003F
:107B700008607047405C00400348006820F008003F
:107B80000149086070470000405C004070470000F9
:107B90002DE9F04707460D46144607F00F06164834
:107BA000006800EB061000681449022202FB001A6C
:107BB0004FF0000805E028884AF8040BAD1C08F1D6
:107BC0000108601CB8EB500FF5D30B48006800EBC0
:107BD000061044600A4901EB8600D0F8000C1FFA39
:107BE00080F909F03000102803D030213846F9F729
:107BF000AFFE2046BDE8F0874C000020006000404A
:107C00000050004070B55048056805F4806068B1C8
:107C1000FFF716FF00F0D0FA4C48006810B14B484F
:107C2000006880476FF480604749086005F4006091
:107C300058B1FFF793FF4648006810B14448006808
:107C400080476FF400604049086005F4805058B1E7
:107C5000FFF792FF3F48006810B13E480068804738
:107C60006FF480503849086005F4007048B13A4814
:107C7000006810B13848006880476FF400703249DE
:107C8000086005F4804050B13448006818B1022003
:107C90003249096888476FF480402B49086005F431
:107CA000005050B12D48006818B101202B490968D7
:107CB00088476FF40050244908603CE06FF40040AE
:107CC0002149086005F00F04254901EB8400D0F834
:107CD000006C06F40040C0B126F4004048F68F71F5
:107CE00008401F4A02EB8401C1F8000C1D4850F8FF
:107CF000240050B106F400620AB1022200E004221E
:107D00001046184A52F82410884706F0800090B1B7
:107D100026F0800048F68F710840114A02EB84017A
:107D2000C1F8000C0F4850F8240020B10D4850F85D
:107D300024100820884704480068054600F40040E5
:107D40000028BBD170BD0000445C004020840008C6
:107D50002484000828840008308400083484000843
:107D60000050004038840008012001490870704725
:107D70002000002010B5044602480460F9F79CFB7F
:107D800010BD000004000020002807DB00F01F02E7
:107D900001219140024A430942F823107047000034
:107DA00080E200E0002817DB00F01F020121914073
:107DB0000A4A430942F8231000BF00BF00BFBFF3C7
:107DC0004F8F00BF00BF00BF00BF00BF00BFBFF3A9
:107DD0006F8F00BF00BF00BF7047000080E100E070
:107DE000002809DB00F01F020121914042099200A6
:107DF00002F1E022C2F80011704702E008C8121F29
:107E000008C1002AFAD170477047002001E001C183
:107E1000121F002AFBD17047FCF73EFEF8F7B8F9B5
:107E2000FCF704FEFBF726FA1748006838B116483D
:107E300016490860084600680168154888470A2006
:107E4000F9F754FD00F0A8F9012000F033F804E040
:107E5000FBF708FA0A20F9F749FD00F023F800289B
:107E6000F6D04FF0E020006940F001004FF0E02133
:107E700008616420F9F73AFDFEF75AFC03E000F0D0
:107E8000DBF8F8F7A9F9FAE7888200080800002073
:107E90008082000810B500F0AFF8BDE81040FEF792
:107EA00037BC000002484078002800D0012070470D
:107EB0007C000020FEF7EEBD002070472DE9F04168
:107EC00004460F4615461E46012C02D0032C38D11D
:107ED00036E026B1012E04D0022E2FD100E000BFE3
:107EE0002CE01948006819490968884202D11848ED
:107EF0000078F8B11748144A126800EB821140224A
:107F00002846F8F70FF910480068401C0E49086031
:107F100008460068402801D1002008600A4800682F
:107F20000A490968884202D10020094908704020A6
:107F3000BDE8F08101200849087000BF00BF00E0E3
:107F400000BF00BF0020F3E76800002064000020AD
:107F50006100002014230020600000202DE9F04182
:107F600007461F4816460088824202DD0020BDE811
:107F7000F0811C4800780028F9D01B4C01224FF0FA
:107F80000008E26000E0B0B1626A12B1A269002AA2
:107F9000F9D1164D3246681C2F70F8F7C3F8E56129
:107FA0001349A4F80480B0B26080097801290BD885
:107FB0006D1CE5610AE0C4F80C80C4F81C80A4F8CC
:107FC0000480A4F80280D1E7401C60800020FEF706
:107FD000FBFF084800F807800120C4F80C80C6E7C2
:107FE000048400087D000020E40000200812002026
:107FF0000284000844000020002008490870084955
:1080000008600849086001200749087000200749F6
:10801000087007490860074908607047540000204D
:10802000580000205C00002060000020610000205B
:10803000640000206800002010B52548006825492C
:108040000968884203D12448007800283DD0234A9B
:10805000234B1B6802EB8311224A1D4B1B6802EB6A
:108060008310F9F76BFF1A480068441C402C00D1BC
:10807000002417480460006816490968884202D144
:108080000020154908701848007860B10020164992
:1080900008701248124A126800EB82114022002038
:1080A000FFF75CFF0FE00E480068441C402C00D135
:1080B00000240B48046000680C490968884202D11A
:1080C00001200B490870012010BD0020FCE70000D2
:1080D0005C000020580000205400002014230020E1
:1080E00064000020141300206000002068000020BD
:1080F00061000020704700002DE9F04106468846E7
:1081000014461D46069F022E02D0032E36D134E0BF
:1081100005B933E02078072807D11A48006818B15C
:10812000184909688868804728E01748007830B106
:108130001648006816490968884200D11EE01549B2
:10814000124A126801EB82102A462146F7F7EAFF2D
:108150000E480068401C0D49086008460068402829
:1081600001D100200860094800680949096888426F
:1081700002D101200449087000E000BF00BFBDE843
:10818000F08100000800002054000020580000206A
:108190005C00002014130020054910B50020C870B1
:1081A000FFF778FEFFF753F9BDE81040FFF732B94B
:1081B0007C0000207047000006484FF00112017853
:1081C0000548C180002101704170C0E902210161B0
:1081D00070470000F08300087C00002070B5054661
:1081E000224940F6C540FBF7EDF9002400E0641C8D
:1081F000642CFCD31E4940F6DD40FBF7E3F9002474
:1082000000E0641C642CFCD3184940F6C540FBF721
:10821000D9F9002400E0641C642CFCD3144940F616
:10822000DD40FBF7CFF905F0010070B100BF402041
:10823000104908600F481038006820F0706040F066
:1082400090400C49103908600FE000BF0948103811
:10825000006820F0706040F0E06006491039086066
:1082600040200449091D086000BF70BD0CED00E00E
:108270000700FA0510080140002003100010031049
:1082800085320008D1320008757D0008ED0A00082B
:10829000697D000800010310800000042000000434
:1082A00011000310200000041100031080000310CF
:1082B0008000000411000004200000044000004879
:1082C000FF870000FFFF000000E00000322E302E8C
:1082D0003000000003020202000801400A00000012
:1082E0004400024001040000580002400105000063
:1082F000390600000038014000A24A0400000000D6
:10830000D88200080000000000000000000000000B
:108310002200220025000000E0820008E882000818
:10832000581100206C1100200008014002000000DC
:108330000008014003000000800002400107000027
:108340006C000240010600003906000000440040B5
:108350000051250228830008308300080000000037
:1083600000000000000000002300230026000000A1
:10837000388300084083000890110020A4110020D9
:1083800059640008094E0008694E0008F14E0008C3
:108390007D4E0008A94E0008914E0008D54E0008F9
:1083A000494E0008294E0008F14D0008394E0008DA
:1083B000C14E0008194E000859640008194F000802
:1083C000794F0008015000088D4F0008B94F000890
:1083D000A14F0008E54F0008594F0008394F000829
:1083E000014F0008494F0008D14F0008294F0008ED
:1083F00000000300034002030300010040004000AE
:1084000004000101400040000100000101020200DF
:10841000400040004000100040004000000000000C
:10842000017B0008000000000000000000000000C8
:10843000057B000800000000456B0008CF660008BF
:10844000B1660008B17100080000000000000000E3
:10845000000000000000000000000000000000001C
:10846000000000000000000000000000000000000C
:108470000000000000000000916A000800000000F9
:1084800000000000000000000600FF0901A1011526
:108490000026FF00750895400901810295400901F9
:1084A000910295010901B102C0002100540012019E
:1084B0000002EF02014051C201F00001010203017C
:1084C000000009026B0003010080FA080B000202A1
:1084D0000201040904000001020200040524001046
:1084E00001052401010104240202052406000107FC
:1084F00005810340000209040100020A000005078B
:108500000502024000000705820240000009040243
:1085100000020300000609210001000122210007DA
:10852000058303400001070503034000010000002C
:10853000000004030904220343004D0053004900D6
:1085400053002D00440041005000200062007900DB
:108550002000410052004D001C0343004D00530019
:10856000490053002D004400410050002D004A00F6
:10857000590044001A03300030003000310041003F
:1085800030003000300030003000300031001C037B
:1085900043004D005300490053002D0044004100AA
:1085A000500020004300440043001C0343004D00E2
:1085B0005300490053002D004400410050002000AA
:1085C000440043004900140343004D005300490098
:1085D00053002D004400410050000000FC850008BD
:1085E0000000002014010000FA7D00081087000838
:1085F00014010020044600000A7E00080300000069
:10860000000000000000000000A24A04000000007A
:108610000000000001020304060708090000000032
:10862000000000000000000000000000000000004A
:10863000000000000000000000000000000000003A
:10864000000000000000000000600040000000008A
:10865000000000000000000000000000000000001A
:10866000000000000000000000000000000000000A
:1086700000C2010000000000000000000000000037
:1086800000000000000000000000000000000000EA
:1086900000000000000000000000000000000000DA
:1086A00000000000000000000000000000000000CA
:1086B00000000000000000000000000000000000BA
:1086C00000000000000000000000000000000000AA
:1086D000000000000000000000000000000000009A
:1086E000000000000000000000000000000000008A
:1086F000000000000000000000000000000000007A
:108700000000000000000000000000000000000069
:0400000508000101ED
:00000001FF
